{
  "address": "0xCcCD9B334Abc083533fD7380116BcAF12E881f60",
  "abi": [
    {
      "inputs": [],
      "stateMutability": "nonpayable",
      "type": "constructor"
    },
    {
      "inputs": [
        {
          "components": [
            {
              "internalType": "address",
              "name": "contractAddr",
              "type": "address"
            },
            {
              "internalType": "uint256[]",
              "name": "tokenIds",
              "type": "uint256[]"
            }
          ],
          "internalType": "struct AssetERC721",
          "name": "asset",
          "type": "tuple"
        },
        {
          "internalType": "uint256",
          "name": "currTokenIdsLen",
          "type": "uint256"
        },
        {
          "internalType": "uint256",
          "name": "requiredTokenIdsLen",
          "type": "uint256"
        }
      ],
      "name": "InvalidERC721TokenIds",
      "type": "error"
    },
    {
      "inputs": [
        {
          "internalType": "uint256",
          "name": "currAmount",
          "type": "uint256"
        },
        {
          "internalType": "uint256",
          "name": "requiredAmount",
          "type": "uint256"
        }
      ],
      "name": "InvalidOutputableAmount",
      "type": "error"
    },
    {
      "anonymous": false,
      "inputs": [
        {
          "indexed": false,
          "internalType": "address",
          "name": "previousAdmin",
          "type": "address"
        },
        {
          "indexed": false,
          "internalType": "address",
          "name": "newAdmin",
          "type": "address"
        }
      ],
      "name": "AdminChanged",
      "type": "event"
    },
    {
      "anonymous": false,
      "inputs": [
        {
          "indexed": true,
          "internalType": "address",
          "name": "beacon",
          "type": "address"
        }
      ],
      "name": "BeaconUpgraded",
      "type": "event"
    },
    {
      "anonymous": false,
      "inputs": [
        {
          "indexed": false,
          "internalType": "uint8",
          "name": "version",
          "type": "uint8"
        }
      ],
      "name": "Initialized",
      "type": "event"
    },
    {
      "anonymous": false,
      "inputs": [
        {
          "indexed": true,
          "internalType": "bytes32",
          "name": "role",
          "type": "bytes32"
        },
        {
          "indexed": true,
          "internalType": "bytes32",
          "name": "previousAdminRole",
          "type": "bytes32"
        },
        {
          "indexed": true,
          "internalType": "bytes32",
          "name": "newAdminRole",
          "type": "bytes32"
        }
      ],
      "name": "RoleAdminChanged",
      "type": "event"
    },
    {
      "anonymous": false,
      "inputs": [
        {
          "indexed": true,
          "internalType": "bytes32",
          "name": "role",
          "type": "bytes32"
        },
        {
          "indexed": true,
          "internalType": "address",
          "name": "account",
          "type": "address"
        },
        {
          "indexed": true,
          "internalType": "address",
          "name": "sender",
          "type": "address"
        }
      ],
      "name": "RoleGranted",
      "type": "event"
    },
    {
      "anonymous": false,
      "inputs": [
        {
          "indexed": true,
          "internalType": "bytes32",
          "name": "role",
          "type": "bytes32"
        },
        {
          "indexed": true,
          "internalType": "address",
          "name": "account",
          "type": "address"
        },
        {
          "indexed": true,
          "internalType": "address",
          "name": "sender",
          "type": "address"
        }
      ],
      "name": "RoleRevoked",
      "type": "event"
    },
    {
      "anonymous": false,
      "inputs": [
        {
          "indexed": true,
          "internalType": "address",
          "name": "implementation",
          "type": "address"
        }
      ],
      "name": "Upgraded",
      "type": "event"
    },
    {
      "inputs": [],
      "name": "DEFAULT_ADMIN_ROLE",
      "outputs": [
        {
          "internalType": "bytes32",
          "name": "",
          "type": "bytes32"
        }
      ],
      "stateMutability": "view",
      "type": "function"
    },
    {
      "inputs": [
        {
          "internalType": "bytes32",
          "name": "interfaceHash",
          "type": "bytes32"
        },
        {
          "internalType": "address",
          "name": "account",
          "type": "address"
        }
      ],
      "name": "canImplementInterfaceForAddress",
      "outputs": [
        {
          "internalType": "bytes32",
          "name": "",
          "type": "bytes32"
        }
      ],
      "stateMutability": "view",
      "type": "function"
    },
    {
      "inputs": [],
      "name": "contractURI",
      "outputs": [
        {
          "internalType": "string",
          "name": "",
          "type": "string"
        }
      ],
      "stateMutability": "view",
      "type": "function"
    },
    {
      "inputs": [
        {
          "internalType": "uint256",
          "name": "amount",
          "type": "uint256"
        },
        {
          "internalType": "uint256",
          "name": "basketIdx",
          "type": "uint256"
        },
        {
          "internalType": "uint256[][]",
          "name": "erc721TokenIdsTransfer",
          "type": "uint256[][]"
        },
        {
          "internalType": "uint256[][]",
          "name": "erc721TokenIdsMint",
          "type": "uint256[][]"
        }
      ],
      "name": "deposit",
      "outputs": [],
      "stateMutability": "nonpayable",
      "type": "function"
    },
    {
      "inputs": [
        {
          "internalType": "uint256",
          "name": "basketIdx",
          "type": "uint256"
        }
      ],
      "name": "getBasket",
      "outputs": [
        {
          "components": [
            {
              "internalType": "uint256",
              "name": "outputableAmount",
              "type": "uint256"
            },
            {
              "components": [
                {
                  "internalType": "address",
                  "name": "contractAddr",
                  "type": "address"
                },
                {
                  "internalType": "uint256",
                  "name": "amount",
                  "type": "uint256"
                }
              ],
              "internalType": "struct AssetERC20[]",
              "name": "erc20Transfer",
              "type": "tuple[]"
            },
            {
              "components": [
                {
                  "internalType": "address",
                  "name": "contractAddr",
                  "type": "address"
                },
                {
                  "internalType": "uint256",
                  "name": "amount",
                  "type": "uint256"
                }
              ],
              "internalType": "struct AssetERC20[]",
              "name": "erc20Mint",
              "type": "tuple[]"
            },
            {
              "components": [
                {
                  "internalType": "address",
                  "name": "contractAddr",
                  "type": "address"
                },
                {
                  "internalType": "uint256[]",
                  "name": "tokenIds",
                  "type": "uint256[]"
                }
              ],
              "internalType": "struct AssetERC721[]",
              "name": "erc721Transfer",
              "type": "tuple[]"
            },
            {
              "components": [
                {
                  "internalType": "address",
                  "name": "contractAddr",
                  "type": "address"
                },
                {
                  "internalType": "uint256[]",
                  "name": "tokenIds",
                  "type": "uint256[]"
                }
              ],
              "internalType": "struct AssetERC721[]",
              "name": "erc721Mint",
              "type": "tuple[]"
            },
            {
              "components": [
                {
                  "internalType": "address",
                  "name": "contractAddr",
                  "type": "address"
                },
                {
                  "internalType": "uint256[]",
                  "name": "tokenIds",
                  "type": "uint256[]"
                }
              ],
              "internalType": "struct AssetERC721[]",
              "name": "erc721MintAutoId",
              "type": "tuple[]"
            },
            {
              "components": [
                {
                  "internalType": "address",
                  "name": "contractAddr",
                  "type": "address"
                },
                {
                  "internalType": "uint256[]",
                  "name": "amounts",
                  "type": "uint256[]"
                },
                {
                  "internalType": "uint256[]",
                  "name": "tokenIds",
                  "type": "uint256[]"
                }
              ],
              "internalType": "struct AssetERC1155[]",
              "name": "erc1155Transfer",
              "type": "tuple[]"
            },
            {
              "components": [
                {
                  "internalType": "address",
                  "name": "contractAddr",
                  "type": "address"
                },
                {
                  "internalType": "uint256[]",
                  "name": "amounts",
                  "type": "uint256[]"
                },
                {
                  "internalType": "uint256[]",
                  "name": "tokenIds",
                  "type": "uint256[]"
                }
              ],
              "internalType": "struct AssetERC1155[]",
              "name": "erc1155Mint",
              "type": "tuple[]"
            }
          ],
          "internalType": "struct AssetBasketOutput",
          "name": "",
          "type": "tuple"
        }
      ],
      "stateMutability": "view",
      "type": "function"
    },
    {
      "inputs": [],
      "name": "getImplementation",
      "outputs": [
        {
          "internalType": "address",
          "name": "",
          "type": "address"
        }
      ],
      "stateMutability": "view",
      "type": "function"
    },
    {
      "inputs": [
        {
          "internalType": "bytes32",
          "name": "role",
          "type": "bytes32"
        }
      ],
      "name": "getRoleAdmin",
      "outputs": [
        {
          "internalType": "bytes32",
          "name": "",
          "type": "bytes32"
        }
      ],
      "stateMutability": "view",
      "type": "function"
    },
    {
      "inputs": [
        {
          "internalType": "bytes32",
          "name": "role",
          "type": "bytes32"
        },
        {
          "internalType": "address",
          "name": "account",
          "type": "address"
        }
      ],
      "name": "grantRole",
      "outputs": [],
      "stateMutability": "nonpayable",
      "type": "function"
    },
    {
      "inputs": [
        {
          "internalType": "bytes32",
          "name": "role",
          "type": "bytes32"
        },
        {
          "internalType": "address",
          "name": "account",
          "type": "address"
        }
      ],
      "name": "hasRole",
      "outputs": [
        {
          "internalType": "bool",
          "name": "",
          "type": "bool"
        }
      ],
      "stateMutability": "view",
      "type": "function"
    },
    {
      "inputs": [
        {
          "internalType": "address",
          "name": "_admin",
          "type": "address"
        },
        {
          "internalType": "string",
          "name": "_initContractURI",
          "type": "string"
        },
        {
          "components": [
            {
              "internalType": "uint256",
              "name": "outputableAmount",
              "type": "uint256"
            },
            {
              "components": [
                {
                  "internalType": "address",
                  "name": "contractAddr",
                  "type": "address"
                },
                {
                  "internalType": "uint256",
                  "name": "amount",
                  "type": "uint256"
                }
              ],
              "internalType": "struct AssetERC20[]",
              "name": "erc20Transfer",
              "type": "tuple[]"
            },
            {
              "components": [
                {
                  "internalType": "address",
                  "name": "contractAddr",
                  "type": "address"
                },
                {
                  "internalType": "uint256",
                  "name": "amount",
                  "type": "uint256"
                }
              ],
              "internalType": "struct AssetERC20[]",
              "name": "erc20Mint",
              "type": "tuple[]"
            },
            {
              "components": [
                {
                  "internalType": "address",
                  "name": "contractAddr",
                  "type": "address"
                },
                {
                  "internalType": "uint256[]",
                  "name": "tokenIds",
                  "type": "uint256[]"
                }
              ],
              "internalType": "struct AssetERC721[]",
              "name": "erc721Transfer",
              "type": "tuple[]"
            },
            {
              "components": [
                {
                  "internalType": "address",
                  "name": "contractAddr",
                  "type": "address"
                },
                {
                  "internalType": "uint256[]",
                  "name": "tokenIds",
                  "type": "uint256[]"
                }
              ],
              "internalType": "struct AssetERC721[]",
              "name": "erc721Mint",
              "type": "tuple[]"
            },
            {
              "components": [
                {
                  "internalType": "address",
                  "name": "contractAddr",
                  "type": "address"
                },
                {
                  "internalType": "uint256[]",
                  "name": "tokenIds",
                  "type": "uint256[]"
                }
              ],
              "internalType": "struct AssetERC721[]",
              "name": "erc721MintAutoId",
              "type": "tuple[]"
            },
            {
              "components": [
                {
                  "internalType": "address",
                  "name": "contractAddr",
                  "type": "address"
                },
                {
                  "internalType": "uint256[]",
                  "name": "amounts",
                  "type": "uint256[]"
                },
                {
                  "internalType": "uint256[]",
                  "name": "tokenIds",
                  "type": "uint256[]"
                }
              ],
              "internalType": "struct AssetERC1155[]",
              "name": "erc1155Transfer",
              "type": "tuple[]"
            },
            {
              "components": [
                {
                  "internalType": "address",
                  "name": "contractAddr",
                  "type": "address"
                },
                {
                  "internalType": "uint256[]",
                  "name": "amounts",
                  "type": "uint256[]"
                },
                {
                  "internalType": "uint256[]",
                  "name": "tokenIds",
                  "type": "uint256[]"
                }
              ],
              "internalType": "struct AssetERC1155[]",
              "name": "erc1155Mint",
              "type": "tuple[]"
            }
          ],
          "internalType": "struct AssetBasketOutput[]",
          "name": "_outputBaskets",
          "type": "tuple[]"
        },
        {
          "internalType": "address[]",
          "name": "_routers",
          "type": "address[]"
        }
      ],
      "name": "initialize",
      "outputs": [],
      "stateMutability": "nonpayable",
      "type": "function"
    },
    {
      "inputs": [
        {
          "internalType": "address",
          "name": "forwarder",
          "type": "address"
        }
      ],
      "name": "isTrustedForwarder",
      "outputs": [
        {
          "internalType": "bool",
          "name": "",
          "type": "bool"
        }
      ],
      "stateMutability": "view",
      "type": "function"
    },
    {
      "inputs": [
        {
          "internalType": "address",
          "name": "",
          "type": "address"
        },
        {
          "internalType": "address",
          "name": "",
          "type": "address"
        },
        {
          "internalType": "uint256[]",
          "name": "",
          "type": "uint256[]"
        },
        {
          "internalType": "uint256[]",
          "name": "",
          "type": "uint256[]"
        },
        {
          "internalType": "bytes",
          "name": "",
          "type": "bytes"
        }
      ],
      "name": "onERC1155BatchReceived",
      "outputs": [
        {
          "internalType": "bytes4",
          "name": "",
          "type": "bytes4"
        }
      ],
      "stateMutability": "nonpayable",
      "type": "function"
    },
    {
      "inputs": [
        {
          "internalType": "address",
          "name": "",
          "type": "address"
        },
        {
          "internalType": "address",
          "name": "",
          "type": "address"
        },
        {
          "internalType": "uint256",
          "name": "",
          "type": "uint256"
        },
        {
          "internalType": "uint256",
          "name": "",
          "type": "uint256"
        },
        {
          "internalType": "bytes",
          "name": "",
          "type": "bytes"
        }
      ],
      "name": "onERC1155Received",
      "outputs": [
        {
          "internalType": "bytes4",
          "name": "",
          "type": "bytes4"
        }
      ],
      "stateMutability": "nonpayable",
      "type": "function"
    },
    {
      "inputs": [
        {
          "internalType": "address",
          "name": "",
          "type": "address"
        },
        {
          "internalType": "address",
          "name": "",
          "type": "address"
        },
        {
          "internalType": "uint256",
          "name": "",
          "type": "uint256"
        },
        {
          "internalType": "bytes",
          "name": "",
          "type": "bytes"
        }
      ],
      "name": "onERC721Received",
      "outputs": [
        {
          "internalType": "bytes4",
          "name": "",
          "type": "bytes4"
        }
      ],
      "stateMutability": "nonpayable",
      "type": "function"
    },
    {
      "inputs": [
        {
          "internalType": "address",
          "name": "to",
          "type": "address"
        },
        {
          "internalType": "uint256",
          "name": "amount",
          "type": "uint256"
        },
        {
          "internalType": "uint256",
          "name": "basketIdx",
          "type": "uint256"
        }
      ],
      "name": "output",
      "outputs": [],
      "stateMutability": "nonpayable",
      "type": "function"
    },
    {
      "inputs": [],
      "name": "proxiableUUID",
      "outputs": [
        {
          "internalType": "bytes32",
          "name": "",
          "type": "bytes32"
        }
      ],
      "stateMutability": "view",
      "type": "function"
    },
    {
      "inputs": [
        {
          "internalType": "address",
          "name": "_admin",
          "type": "address"
        },
        {
          "internalType": "string",
          "name": "_initContractURI",
          "type": "string"
        },
        {
          "components": [
            {
              "internalType": "uint256",
              "name": "outputableAmount",
              "type": "uint256"
            },
            {
              "components": [
                {
                  "internalType": "address",
                  "name": "contractAddr",
                  "type": "address"
                },
                {
                  "internalType": "uint256",
                  "name": "amount",
                  "type": "uint256"
                }
              ],
              "internalType": "struct AssetERC20[]",
              "name": "erc20Transfer",
              "type": "tuple[]"
            },
            {
              "components": [
                {
                  "internalType": "address",
                  "name": "contractAddr",
                  "type": "address"
                },
                {
                  "internalType": "uint256",
                  "name": "amount",
                  "type": "uint256"
                }
              ],
              "internalType": "struct AssetERC20[]",
              "name": "erc20Mint",
              "type": "tuple[]"
            },
            {
              "components": [
                {
                  "internalType": "address",
                  "name": "contractAddr",
                  "type": "address"
                },
                {
                  "internalType": "uint256[]",
                  "name": "tokenIds",
                  "type": "uint256[]"
                }
              ],
              "internalType": "struct AssetERC721[]",
              "name": "erc721Transfer",
              "type": "tuple[]"
            },
            {
              "components": [
                {
                  "internalType": "address",
                  "name": "contractAddr",
                  "type": "address"
                },
                {
                  "internalType": "uint256[]",
                  "name": "tokenIds",
                  "type": "uint256[]"
                }
              ],
              "internalType": "struct AssetERC721[]",
              "name": "erc721Mint",
              "type": "tuple[]"
            },
            {
              "components": [
                {
                  "internalType": "address",
                  "name": "contractAddr",
                  "type": "address"
                },
                {
                  "internalType": "uint256[]",
                  "name": "tokenIds",
                  "type": "uint256[]"
                }
              ],
              "internalType": "struct AssetERC721[]",
              "name": "erc721MintAutoId",
              "type": "tuple[]"
            },
            {
              "components": [
                {
                  "internalType": "address",
                  "name": "contractAddr",
                  "type": "address"
                },
                {
                  "internalType": "uint256[]",
                  "name": "amounts",
                  "type": "uint256[]"
                },
                {
                  "internalType": "uint256[]",
                  "name": "tokenIds",
                  "type": "uint256[]"
                }
              ],
              "internalType": "struct AssetERC1155[]",
              "name": "erc1155Transfer",
              "type": "tuple[]"
            },
            {
              "components": [
                {
                  "internalType": "address",
                  "name": "contractAddr",
                  "type": "address"
                },
                {
                  "internalType": "uint256[]",
                  "name": "amounts",
                  "type": "uint256[]"
                },
                {
                  "internalType": "uint256[]",
                  "name": "tokenIds",
                  "type": "uint256[]"
                }
              ],
              "internalType": "struct AssetERC1155[]",
              "name": "erc1155Mint",
              "type": "tuple[]"
            }
          ],
          "internalType": "struct AssetBasketOutput[]",
          "name": "_outputBaskets",
          "type": "tuple[]"
        },
        {
          "internalType": "address[]",
          "name": "_routers",
          "type": "address[]"
        }
      ],
      "name": "proxyInitialize",
      "outputs": [],
      "stateMutability": "nonpayable",
      "type": "function"
    },
    {
      "inputs": [
        {
          "internalType": "bytes32",
          "name": "role",
          "type": "bytes32"
        },
        {
          "internalType": "address",
          "name": "account",
          "type": "address"
        }
      ],
      "name": "renounceRole",
      "outputs": [],
      "stateMutability": "nonpayable",
      "type": "function"
    },
    {
      "inputs": [
        {
          "internalType": "bytes32",
          "name": "role",
          "type": "bytes32"
        },
        {
          "internalType": "address",
          "name": "account",
          "type": "address"
        }
      ],
      "name": "revokeRole",
      "outputs": [],
      "stateMutability": "nonpayable",
      "type": "function"
    },
    {
      "inputs": [
        {
          "internalType": "string",
          "name": "uri",
          "type": "string"
        }
      ],
      "name": "setContractURI",
      "outputs": [],
      "stateMutability": "nonpayable",
      "type": "function"
    },
    {
      "inputs": [
        {
          "internalType": "bytes4",
          "name": "interfaceId",
          "type": "bytes4"
        }
      ],
      "name": "supportsInterface",
      "outputs": [
        {
          "internalType": "bool",
          "name": "",
          "type": "bool"
        }
      ],
      "stateMutability": "view",
      "type": "function"
    },
    {
      "inputs": [
        {
          "internalType": "address",
          "name": "newImplementation",
          "type": "address"
        }
      ],
      "name": "upgradeTo",
      "outputs": [],
      "stateMutability": "nonpayable",
      "type": "function"
    },
    {
      "inputs": [
        {
          "internalType": "address",
          "name": "newImplementation",
          "type": "address"
        },
        {
          "internalType": "bytes",
          "name": "data",
          "type": "bytes"
        }
      ],
      "name": "upgradeToAndCall",
      "outputs": [],
      "stateMutability": "payable",
      "type": "function"
    },
    {
      "inputs": [],
      "name": "version",
      "outputs": [
        {
          "internalType": "string",
          "name": "",
          "type": "string"
        }
      ],
      "stateMutability": "pure",
      "type": "function"
    },
    {
      "inputs": [],
      "name": "versionRecipient",
      "outputs": [
        {
          "internalType": "string",
          "name": "",
          "type": "string"
        }
      ],
      "stateMutability": "pure",
      "type": "function"
    },
    {
      "inputs": [
        {
          "internalType": "uint256",
          "name": "amount",
          "type": "uint256"
        },
        {
          "internalType": "uint256",
          "name": "basketIdx",
          "type": "uint256"
        }
      ],
      "name": "withdraw",
      "outputs": [],
      "stateMutability": "nonpayable",
      "type": "function"
    }
  ],
  "args": [],
  "numDeployments": 7,
  "solcInputHash": "2fe98e12c0031ec2a7dec3df9237bffc",
  "bytecode": "0x60a080604052346100315730608052614084908161003782396080518181816108b301528181610b970152610cad0152f35b600080fdfe60806040526004361015610013575b600080fd5b60003560e01c806301ffc9a71461021b578063150b7a02146102125780632114281e14610209578063248a9ca314610200578063249cb3fa146101f75780632f2ff15d146101ee57806336568abe146101e55780633659cfe6146101dc578063441a3e70146101d3578063486ff0cd146101ca5780634f1ef286146101c157806352d1902d146101b857806354fd4d50146101af578063572b6c05146101a657806377977d501461019d5780638f1eee1c1461019457806391d148541461018b578063938e3d7b14610182578063a16f3c0d14610179578063a217fddf14610170578063aaf10f4214610167578063bc197c811461015e578063cde11ab114610155578063d547741f1461014c578063e8a3d485146101435763f23a6e611461013b57600080fd5b61000e6118a2565b5061000e6117b7565b5061000e611773565b5061000e6115ee565b5061000e611561565b5061000e6114a6565b5061000e611489565b5061000e61139a565b5061000e61127b565b5061000e61122f565b5061000e611146565b5061000e61105b565b5061000e610da5565b5061000e610d5f565b5061000e610c99565b5061000e610b55565b5061000e610b0a565b5061000e6109d7565b5061000e61088b565b5061000e6107ea565b5061000e61070e565b5061000e610684565b5061000e610653565b5061000e610504565b5061000e6103ef565b503461000e57602036600319011261000e5760043563ffffffff60e01b811680910361000e57602090637884d1cf60e11b8114908115610261575b506040519015158152f35b63054fd4d560e41b81149150811561027b575b5038610256565b6303e8939960e31b811491508115610295575b5038610274565b633d96f4ff60e11b1490503861028e565b6001600160a01b0381160361000e57565b50634e487b7160e01b600052604160045260246000fd5b61010081019081106001600160401b038211176102ea57604052565b6102f26102b7565b604052565b6001600160401b0381116102ea57604052565b604081019081106001600160401b038211176102ea57604052565b606081019081106001600160401b038211176102ea57604052565b90601f801991011681019081106001600160401b038211176102ea57604052565b6040519061036e826102ce565b565b6020906001600160401b03811161038d575b601f01601f19160190565b6103956102b7565b610382565b9291926103a682610370565b916103b46040519384610340565b82948184528183011161000e578281602093846000960137010152565b9080601f8301121561000e578160206103ec9335910161039a565b90565b503461000e57608036600319011261000e5761040c6004356102a6565b6104176024356102a6565b6064356001600160401b03811161000e576104369036906004016103d1565b50604051630a85bd0160e11b8152602090f35b9181601f8401121561000e578235916001600160401b03831161000e576020808501948460051b01011161000e57565b608060031982011261000e57600435610491816102a6565b91602435916001600160401b039081841161000e578060238501121561000e5783600401359382851161000e57816024868301011161000e57602401939260443583811161000e57826104e691600401610449565b9390939260643591821161000e5761050091600401610449565b9091565b503461000e5761053761051636610479565b9361053060ff600099949793999895985460081c16612777565b369161039a565b61054082611d50565b80516001600160401b038111610646575b60008051602061402f833981519152916105748261056f85546125c7565b61264e565b60209081601f84116001146105d0575092826105b6936105c39a96936105bd98966000926105c5575b50508160011b916000199060031b1c1916179055612925565b36916127d7565b91612a17565b005b01519050388061059d565b9190601f1984166105df612601565b936000905b82821061062e575050936105c39a96936105bd989693600193836105b69810610615575b505050811b019055612925565b015160001960f88460031b161c19169055388080610608565b806001869782949787015181550196019401906105e4565b61064e6102b7565b610551565b503461000e57602036600319011261000e5760043560005261012d6020526020600160406000200154604051908152f35b503461000e57604036600319011261000e5760ff6106cf6024356106a7816102a6565b60043560005261019160205260406000209060018060a01b0316600052602052604060002090565b546000911615610706575060207fa2ef4600d742022d532d4747cb3547474667d6f13804902513b2ec01c848f4b45b604051908152f35b6020906106fe565b503461000e5760408060031936011261000e5760043590602435610731816102a6565b60009280845261012d8060205261074d60018587200154611c74565b81855260208181528486206001600160a01b03851660009081529152604090205460ff161561077d575b50505051f35b81855260209081528385206001600160a01b0384166000908152915260409020805460ff191660011790556001600160a01b03806107b96126bc565b169216907f2f8788117e7eff1d82e926ec794901d17c78024a50270940304540a733656f0d858551a4388080610777565b503461000e57604036600319011261000e57602435610808816102a6565b6001600160a01b03806108196126bc565b169082160361082e576105c390600435611f3b565b60405162461bcd60e51b815260206004820152602f60248201527f416363657373436f6e74726f6c3a2063616e206f6e6c792072656e6f756e636560448201526e103937b632b9903337b91039b2b63360891b6064820152608490fd5b503461000e57602036600319011261000e576004356108a9816102a6565b6001600160a01b037f0000000000000000000000000000000000000000000000000000000000000000811691906108e230841415611fd1565b6108ff60008051602061400f833981519152938285541614612032565b6109076118fc565b61090f612093565b9061093b7f4910fdfa16fed3260ed0e7147f7cc6da11a60208b5b9406d12a635614ffd91435460ff1690565b1561094c5750506105c391506121cd565b6020600491604094939451928380926352d1902d60e01b825286165afa600091816109a7575b506109945760405162461bcd60e51b8152806109906004820161217e565b0390fd5b6105c3936109a29114612120565b61225d565b6109c991925060203d81116109d0575b6109c18183610340565b810190612104565b9038610972565b503d6109b7565b503461000e57604036600319011261000e576004356109f46118fc565b6109ff60243561334e565b50610a086126bc565b908054838110610a735792806105c394038255610a618360038401610a2d84826137cf565b610a3a85600488016137cf565b50610a518386610a4c60018a01613396565b6139e8565b84610a5c3093613459565b613a87565b610a6e60063093016134d4565b613c0e565b6040516317ab06fb60e01b8152600481019190915260248101849052604490fd5b600091031261000e57565b918091926000905b828210610abf575011610ab8575050565b6000910152565b91508060209183015181860152018291610aa7565b90602091610aed81518092818552858086019101610a9f565b601f01601f1916010190565b9060206103ec928181520190610ad4565b503461000e57600036600319011261000e57610b51604051610b2b8161030a565b6005815264191719171b60d91b6020820152604051918291602083526020830190610ad4565b0390f35b50604036600319011261000e57600435610b6e816102a6565b6024356001600160401b03811161000e57610b8d9036906004016103d1565b6001600160a01b037f00000000000000000000000000000000000000000000000000000000000000008116929190610bc730851415611fd1565b610be460008051602061400f833981519152948286541614612032565b610bec6118fc565b7f4910fdfa16fed3260ed0e7147f7cc6da11a60208b5b9406d12a635614ffd91435460ff1615610c225750506105c391506121cd565b6020600491604094939451928380926352d1902d60e01b825286165afa60009181610c79575b50610c665760405162461bcd60e51b8152806109906004820161217e565b6105c393610c749114612120565b612375565b610c9291925060203d81116109d0576109c18183610340565b9038610c48565b503461000e57600036600319011261000e577f00000000000000000000000000000000000000000000000000000000000000006001600160a01b03163003610cf45760405160008051602061400f8339815191528152602090f35b60405162461bcd60e51b815260206004820152603860248201527f555550535570677261646561626c653a206d757374206e6f742062652063616c60448201527f6c6564207468726f7567682064656c656761746563616c6c00000000000000006064820152608490fd5b503461000e57600036600319011261000e57610b51604051610d808161030a565b600481526376302e3160e01b6020820152604051918291602083526020830190610ad4565b503461000e57602036600319011261000e57602060ff610e0f600435610dca816102a6565b7f7a05a596cb0ce7fdea8a1e1ec73be300bdb35097c944ce1897202f7a13122eb260005261012d845260406000209060018060a01b0316600052602052604060002090565b54166040519015158152f35b90815180825260208080930193019160005b828110610e3b575050505090565b835180516001600160a01b031686528201518583015260409094019392810192600101610e2d565b90815180825260208080930193019160005b828110610e83575050505090565b835185529381019392810192600101610e75565b90604060206103ec9360018060a01b0381511684520151918160208201520190610e63565b908082519081815260208091019281808460051b8301019501936000915b848310610eea5750505050505090565b9091929394958480610f08600193601f198682030187528a51610e97565b9801930193019194939290610eda565b908082519081815260208091019281808460051b8301019501936000915b848310610f465750505050505090565b9091929394958480610f93600193601f198682030187528a51858060a01b038151168252610f808482015160608087860152840190610e63565b9160408092015191818403910152610e63565b9801930193019194939290610f36565b906103ec916020815281516020820152602082015190610fd161010092836040840152610120830190610e1b565b9160e061104b611038611024611010610ffc60408a015198601f19998a8a83030160608b0152610e1b565b60608a0151898983030160808a0152610ebc565b6080890151888883030160a0890152610ebc565b60a0880151878783030160c0880152610ebc565b60c0870151868683030184870152610f18565b9401519282850301910152610f18565b503461000e57602036600319011261000e57610b5160e060405161107e816102ce565b60008152606091818360208194015282604082015282808201528260808201528260a08201528260c0820152015261113560076110bc60043561334e565b506110c5610361565b93815485526110d660018301613396565b60208601526110e760028301613396565b60408601526110f860038301613459565b9085015261110860048201613459565b608085015261111960058201613459565b60a085015261112a600682016134d4565b60c0850152016134d4565b60e082015260405191829182610fa3565b503461000e576111a361115836610479565b946000979697949194939293549761118760ff8a60081c1615809a819b611221575b8115611201575b50612714565b8861119a600160ff196000541617600055565b6111e85761282f565b6111a957005b6111b961ff001960005416600055565b604051600181527f7f26b83ff96e1f2b6a682f133852f6798a09c465da95921460cefb384740249890602090a1005b6111fc61010061ff00196000541617600055565b61282f565b303b15915081611213575b5038611181565b6001915060ff16143861120c565b600160ff821610915061117a565b503461000e57604036600319011261000e57602060ff610e0f602435611254816102a6565b60043560005261012d845260406000209060018060a01b0316600052602052604060002090565b503461000e5760208060031936011261000e576001600160401b039060043582811161000e573660238201121561000e576112c090369060248160040135910161039a565b916112c9611a7c565b825190811161138d575b60008051602061402f833981519152916112f18261056f85546125c7565b80601f831160011461132a575081929360009261131f575b50508160011b916000199060031b1c1916179055005b015190503880611309565b90601f19831694611339612601565b926000905b87821061137557505083600195961061135c575b505050811b019055005b015160001960f88460031b161c19169055388080611352565b8060018596829496860151815501950193019061133e565b6113956102b7565b6112d3565b503461000e57606036600319011261000e576004356113b8816102a6565b602435906113c4611b78565b6113cf60443561334e565b508054838110610a7357600784926113ed6105c396611484946135fa565b81556114568582866114516003830161144c8561140a85846137cf565b926004870193611441838861143c6002611424838b6137cf565b9c6114368585610a4c60018501613396565b01613396565b613d00565b86610a5c3093613459565b613459565b613d79565b61146c858561146760058501613459565b613e45565b61147e853086610a6e600686016134d4565b016134d4565b613f3f565b503461000e57600036600319011261000e57602060405160008152f35b503461000e57600036600319011261000e5760008051602061400f833981519152546040516001600160a01b039091168152602090f35b6020906001600160401b0381116114f6575b60051b0190565b6114fe6102b7565b6114ef565b81601f8201121561000e5780359161151a836114dd565b926115286040519485610340565b808452602092838086019260051b82010192831161000e578301905b828210611552575050505090565b81358152908301908301611544565b503461000e5760a036600319011261000e5761157e6004356102a6565b6115896024356102a6565b6001600160401b0360443581811161000e576115a9903690600401611503565b5060643581811161000e576115c2903690600401611503565b5060843590811161000e576115db9036906004016103d1565b5060405163bc197c8160e01b8152602090f35b503461000e57608036600319011261000e576004356001600160401b0360443581811161000e57611623903690600401610449565b909160643590811161000e5761163d903690600401610449565b93906116476118fc565b61166c60249161166461165a843561334e565b50966116646126bc565b96369161357c565b90611678838654612471565b8555611695600386019261168c8885613661565b60048701613661565b60016116a2818701613396565b916000825b6116d1575b505050506116c490836105c39684610a5c3094613459565b610a6e60063094016134d4565b835181101561176e5761176890611763886001600160a01b036116f4848961332c565b51511661175e60206117506117168d8361170e8a8f61332c565b510151612452565b604080516323b872dd60e01b948101949094526001600160a01b039096168a84019081523060208201529586015290938491606090910190565b03601f198101845283610340565b613913565b61331c565b826116a7565b6116ac565b503461000e57604036600319011261000e576105c3602435600435611797826102a6565b8060005261012d6020526117b2600160406000200154611c74565b611f3b565b503461000e5760008060031936011261189f57604051908060008051602061402f833981519152908154906117eb826125c7565b8086529260019280841690811561187b5750600114611821575b610b518661181581880382610340565b60405191829182610af9565b815292507feea97fdf38e36104b6e79f51a620e17443f803bd4254b3af64efdf6a8301c6975b82841061186357505050810160200161181582610b5138611805565b80546020858701810191909152909301928101611847565b60ff1916602088015250506040850193506118159250849150610b51905038611805565b80fd5b503461000e5760a036600319011261000e576118bf6004356102a6565b6118ca6024356102a6565b6084356001600160401b03811161000e576118e99036906004016103d1565b5060405163f23a6e6160e01b8152602090f35b6119046126bc565b6001600160a01b03811660009081527fa581b17bfc4d6578e300cafbf34fd2dc1fef0270d8c73f88a99dcde2859a6639602052604090205460ff16156119475750565b611959906001600160a01b0316612548565b60006119636120cb565b90603061196f8361249c565b53607861197b836124b2565b5360415b60018111611a2d576109906037611a1586611a078761199e88156124fd565b611a016040519586947f416363657373436f6e74726f6c3a206163636f756e742000000000000000000060208701526119e0815180926020858a019101610a9f565b8501016011907001034b99036b4b9b9b4b733903937b6329607d1b81520190565b90611d39565b03601f198101835282610340565b60405162461bcd60e51b815291829160048301610af9565b9080600f611a6a92166010811015611a6f575b6f181899199a1a9b1b9c1cb0b131b232b360811b901a611a6084866124c3565b5360041c916124e2565b61197f565b611a77612485565b611a40565b611a846126bc565b6001600160a01b03811660009081527f8c7d8a69506b3476b9e698ac476ce2280bb980a877bac058951903a1c3a17c8060205260409020547f0ab9ec9ba2423318b97c58cb919c22b4da14401c539342f710b4932382bc2c15919060ff1615611aeb575050565b611afd906001600160a01b0316612548565b90611b066120cb565b906030611b128361249c565b536078611b1e836124b2565b5360415b60018111611b41576109906037611a1586611a078761199e88156124fd565b9080600f611b7392166010811015611a6f576f181899199a1a9b1b9c1cb0b131b232b360811b901a611a6084866124c3565b611b22565b611b806126bc565b6001600160a01b03811660009081527fccea56354525642427746d92f0e34afbcfef91f58ab9ff7966a90f07ea4df21e60205260409020547fe5702506dab6ef48f05611b8b328969e4387aeabcb2a2f3be2364ac79d4c6b24919060ff1615611be7575050565b611bf9906001600160a01b0316612548565b90611c026120cb565b906030611c0e8361249c565b536078611c1a836124b2565b5360415b60018111611c3d576109906037611a1586611a078761199e88156124fd565b9080600f611c6f92166010811015611a6f576f181899199a1a9b1b9c1cb0b131b232b360811b901a611a6084866124c3565b611c1e565b611c7c6126bc565b600082815261012d602090815260408083206001600160a01b038516845290915290205460ff1615611cac575050565b611cbe906001600160a01b0316612548565b90611cc76120cb565b906030611cd38361249c565b536078611cdf836124b2565b5360415b60018111611d02576109906037611a1586611a078761199e88156124fd565b9080600f611d3492166010811015611a6f576f181899199a1a9b1b9c1cb0b131b232b360811b901a611a6084866124c3565b611ce3565b90611d4c60209282815194859201610a9f565b0190565b6001600160a01b03811660009081527f8c7d8a69506b3476b9e698ac476ce2280bb980a877bac058951903a1c3a17c80602052604090207f0ab9ec9ba2423318b97c58cb919c22b4da14401c539342f710b4932382bc2c159061012d9060ff905b541615611dbd57505050565b6000828152602091825260408082206001600160a01b038616835290925220805460ff191660011790556001600160a01b0380611df86126bc565b169216907f2f8788117e7eff1d82e926ec794901d17c78024a50270940304540a733656f0d6000604051a4565b6001600160a01b03811660009081527fa581b17bfc4d6578e300cafbf34fd2dc1fef0270d8c73f88a99dcde2859a6639602052604081205461012d9060ff1615611e6e57505050565b818052602090815260408083206001600160a01b038516600090815292529020805460ff191660011790556001600160a01b0380611eaa6126bc565b169216907f2f8788117e7eff1d82e926ec794901d17c78024a50270940304540a733656f0d81604051a4565b6001600160a01b03811660009081527fccea56354525642427746d92f0e34afbcfef91f58ab9ff7966a90f07ea4df21e602052604090207fe5702506dab6ef48f05611b8b328969e4387aeabcb2a2f3be2364ac79d4c6b249061012d9060ff90611db1565b600081815261012d602081815260408084206001600160a01b03871685529091529091205460ff16611f6c57505050565b6000828152602091825260408082206001600160a01b038616835290925220805460ff191690556001600160a01b0380611fa46126bc565b169216907ff6391f5c32d9c69d2a47ea670b442974b53935d1edc7fd64eb21e047a839171b6000604051a4565b15611fd857565b60405162461bcd60e51b815260206004820152602c60248201527f46756e6374696f6e206d7573742062652063616c6c6564207468726f7567682060448201526b19195b1959d85d1958d85b1b60a21b6064820152608490fd5b1561203957565b60405162461bcd60e51b815260206004820152602c60248201527f46756e6374696f6e206d7573742062652063616c6c6564207468726f7567682060448201526b6163746976652070726f787960a01b6064820152608490fd5b60405190600060208301928084106001600160401b038511176120be575b8360405281815292369037565b6120c66102b7565b6120b1565b60405190608082018281106001600160401b038211176120f7575b604052604282526060366020840137565b6120ff6102b7565b6120e6565b9081602091031261000e575190565b506040513d6000823e3d90fd5b1561212757565b60405162461bcd60e51b815260206004820152602960248201527f45524331393637557067726164653a20756e737570706f727465642070726f786044820152681a58589b195555525160ba1b6064820152608490fd5b60809060208152602e60208201527f45524331393637557067726164653a206e657720696d706c656d656e7461746960408201526d6f6e206973206e6f74205555505360901b60608201520190565b803b156122025760008051602061400f83398151915280546001600160a01b0319166001600160a01b03909216919091179055565b60405162461bcd60e51b815260206004820152602d60248201527f455243313936373a206e657720696d706c656d656e746174696f6e206973206e60448201526c1bdd08184818dbdb9d1c9858dd609a1b6064820152608490fd5b612266816121cd565b6040516001600160a01b0382167fbc7cd75a20ee27fd9adebab32041f755214dbc6bffa90cc0225b39da2e5c2d3b600083a282511580159061236d575b6122ac57505050565b813b1561231c57506000828192602061231995519201905af46122cd6123cb565b604051916122da83610325565b602783527f416464726573733a206c6f772d6c6576656c2064656c65676174652063616c6c6020840152660819985a5b195960ca1b60408401526123fb565b50565b62461bcd60e51b815260206004820152602660248201527f416464726573733a2064656c65676174652063616c6c20746f206e6f6e2d636f6044820152651b9d1c9858dd60d21b6064820152608490fd5b5060006122a3565b61237e816121cd565b6040516001600160a01b0382167fbc7cd75a20ee27fd9adebab32041f755214dbc6bffa90cc0225b39da2e5c2d3b600083a28251158015906123c3576122ac57505050565b5060016122a3565b3d156123f6573d906123dc82610370565b916123ea6040519384610340565b82523d6000602084013e565b606090565b90919015612407575090565b8151156124175750805190602001fd5b60405162461bcd60e51b815260206004820152908190610990906024830190610ad4565b50634e487b7160e01b600052601160045260246000fd5b8060001904821181151516612465570290565b61246d61243b565b0290565b8119811161247d570190565b611d4c61243b565b50634e487b7160e01b600052603260045260246000fd5b6020908051156124aa570190565b611d4c612485565b6021908051600110156124aa570190565b9060209180518210156124d557010190565b6124dd612485565b010190565b80156124f0575b6000190190565b6124f861243b565b6124e9565b1561250457565b606460405162461bcd60e51b815260206004820152602060248201527f537472696e67733a20686578206c656e67746820696e73756666696369656e746044820152fd5b6040519061255582610325565b602a82526040366020840137603061256c8361249c565b536078612578836124b2565b536029905b60018211612590576103ec9150156124fd565b80600f6125c192166010811015611a6f576f181899199a1a9b1b9c1cb0b131b232b360811b901a611a6084866124c3565b9061257d565b90600182811c921680156125f7575b60208310146125e157565b634e487b7160e01b600052602260045260246000fd5b91607f16916125d6565b60008051602061402f8339815191526000527feea97fdf38e36104b6e79f51a620e17443f803bd4254b3af64efdf6a8301c69790565b818110612642575050565b60008155600101612637565b90601f821161265b575050565b61036e9160008051602061402f8339815191526000527feea97fdf38e36104b6e79f51a620e17443f803bd4254b3af64efdf6a8301c697906020601f840160051c830193106126b2575b601f0160051c0190612637565b90915081906126a5565b6014361015806126dc575b156126d85736601319013560601c90565b3390565b503360009081527f63a294b57daa47190712cf6f633f8c5ed2e21402a46d4619c4e5eb122af24b53602052604090205460ff166126c7565b1561271b57565b60405162461bcd60e51b815260206004820152602e60248201527f496e697469616c697a61626c653a20636f6e747261637420697320616c72656160448201526d191e481a5b9a5d1a585b1a5e995960921b6064820152608490fd5b1561277e57565b60405162461bcd60e51b815260206004820152602b60248201527f496e697469616c697a61626c653a20636f6e7472616374206973206e6f74206960448201526a6e697469616c697a696e6760a81b6064820152608490fd5b92916127e2826114dd565b916127f06040519384610340565b829481845260208094019160051b810192831161000e57905b8282106128165750505050565b8380918335612824816102a6565b815201910190612809565b9190612841919796939597369161039a565b61284a82611d50565b80516001600160401b038111612918575b60008051602061402f833981519152916128798261056f85546125c7565b60209081601f84116001146128bb575092826105b69361036e9a9b96936105bd98966000926105c55750508160011b916000199060031b1c1916179055612925565b9190601f1984166128ca612601565b936000905b8282106129005750509361036e9a9b96936105bd989693600193836105b6981061061557505050811b019055612925565b806001869782949787015181550196019401906128cf565b6129206102b7565b61285b565b61292e90611e25565b731820a4b7618bde71dce8cdc73aab6c95905fad24803b61294c5750565b803b1561000e5760405163a41e7d5160e01b815230600482015263054fd4d560e41b6024820152600090818160448183875af18015612a0a575b6129f7575b50813b1561189f576040516329965a1d60e01b8152306004820181905260016354fd4d5160e01b0360248301526044820152918290606490829084905af180156129ea575b6129d75750565b806129e461036e926102f7565b80610a94565b6129f2612113565b6129d0565b806129e4612a04926102f7565b3861298b565b612a12612113565b612986565b90929192600091825490612a3160ff600893841c16612777565b600160401b8311612bbe575b6101c3805490848155818510612ae8575b50506101c3600052807fc08b2039d69be55fac1e8db8384942c79c1bde7a040f255238fc100e10c8c1d09085925b858410612ac3575050505050505b8251811015612abe5780611763612ab4612aa7612ab9948761332c565b516001600160a01b031690565b611ed6565b612a8a565b509050565b84602082612adc612ad660019587612bcb565b8761325f565b01930193019291612a7c565b6001906001600160fd1b038084118316612bb1575b86118216612ba4575b8652600390847fc08b2039d69be55fac1e8db8384942c79c1bde7a040f255238fc100e10c8c1d093831b84019387841b015b848110612b4757505050612a4e565b888155612b55838201612be0565b612b6160028201612be0565b612b6c848201612ca5565b612b7860048201612ca5565b612b8460058201612d09565b612b9060068201612e07565b612b9c60078201612e07565b018590612b38565b612bac61243b565b612b06565b612bb961243b565b612afd565b612bc66102b7565b612a3d565b90359060fe198136030182121561000e570190565b80549060009081815582612bf357505050565b6001906001600160ff1b0384118216612c32575b82526020822092811b8301925b838110612c215750505050565b808360029255838382015501612c14565b612c3a61243b565b612c07565b80546000825580612c4e575050565b61036e91600052602060002090810190612637565b90600160401b8111612c98575b815490808355818110612c8257505050565b61036e9260005260206000209182019101612637565b612ca06102b7565b612c70565b805490600080825582612cb757505050565b6001916001600160ff1b0384118316612cfc575b81526020812092821b8301925b838110612ce55750505050565b808260029255612cf6848201612c3f565b01612cd8565b612d0461243b565b612ccb565b805490600080825582612d1b57505050565b6001916001600160ff1b0384118316612d60575b81526020812092821b8301925b838110612d495750505050565b808260029255612d5a848201612c3f565b01612d3c565b612d6861243b565b612d2f565b600160401b8211612dfa575b805490828155818310612d8b57505050565b6001916001600160ff1b038082118416612ded575b84118316612de0575b60009182526020822090831b810193831b015b838110612dc95750505050565b808260029255612dda848201612c3f565b01612dbc565b612de861243b565b612da9565b612df561243b565b612da0565b612e026102b7565b612d79565b80549060009081815582612e1a57505050565b6001907f555555555555555555555555555555555555555555555555555555555555555584118216612e87575b8252602082209160039384028301925b838110612e65575050505050565b8082869255612e75848201612c3f565b612e8160028201612c3f565b01612e57565b612e8f61243b565b612e47565b90600160401b8111612f49575b815491818155828210612eb357505050565b6001907f55555555555555555555555555555555555555555555555555555555555555558085118316612f3c575b83118216612f2f575b60009081526020812060039485028101938502015b838110612f0d575050505050565b8082869255612f1d848201612c3f565b612f2960028201612c3f565b01612eff565b612f3761243b565b612eea565b612f4461243b565b612ee1565b612f516102b7565b612ea1565b903590601e198136030182121561000e57018035906001600160401b03821161000e57602001918160061b3603831361000e57565b90600160401b8311613071575b8154838355808410613005575b5060009182526020808320915b848410612fc0575050505050565b6002604082612ff160019435612fd5816102a6565b87546001600160a01b0319166001600160a01b03909116178755565b848101358487015501930193019291612fb2565b60016001600160ff1b038083118216613064575b85118116613057575b6000908482526020822092811b83019286821b015b83811061304657505050612fa5565b808360029255838382015501613037565b61305f61243b565b613022565b61306c61243b565b613019565b6130796102b7565b612f98565b903590601e198136030182121561000e57018035906001600160401b03821161000e57602001918160051b3603831361000e57565b906130be8383612c63565b906000526020806000206000925b8484106130da575050505050565b600183828293358555019201930192906130cc565b91906130fb8284612d6d565b8060009384526020938481209181935b85851061311b5750505050505050565b8035603e1983360301811215613198578790830161313d8135612fd5816102a6565b600190613150828801918481019061307e565b919061315c8383612c63565b9087528387209087905b8382106131845750505050506002906001920194019401939261310b565b803583558c95928501929185019101613166565b8380fd5b9190916131a98282612e94565b8260009182526020918281209181955b8587106131c95750505050505050565b8035605e198336030181121561319857859083016131eb8135612fd5816102a6565b60018087016131fc8484018461307e565b91906132088383612c63565b9088528488209088905b83821061324b5750505050509060019261323f613235846040600396019061307e565b9060028a016130b3565b019401960195926131b9565b803583558b96928501929185019101613212565b60079061331361036e938035835561328761327d6020830183612f56565b9060018601612f8b565b6132a16132976040830183612f56565b9060028601612f8b565b6132bb6132b1606083018361307e565b90600386016130ef565b6132d56132cb608083018361307e565b90600486016130ef565b6132ef6132e560a083018361307e565b90600586016130ef565b6133096132ff60c083018361307e565b906006860161319c565b60e081019061307e565b9290910161319c565b600190600019811461247d570190565b6020918151811015613341575b60051b010190565b613349612485565b613339565b6101c38054821015613389575b60005260031b7fc08b2039d69be55fac1e8db8384942c79c1bde7a040f255238fc100e10c8c1d00190600090565b613391612485565b61335b565b9081546133a2816114dd565b926040936133b285519182610340565b828152809460208092019260005281600020906000935b8585106133d857505050505050565b60028460019284516133e98161030a565b848060a01b03875416815284870154838201528152019301940193916133c9565b9060405191828154918282526020928383019160005283600020936000905b82821061343f5750505061036e92500383610340565b855484526001958601958895509381019390910190613429565b908154613465816114dd565b9260409361347585519182610340565b828152809460208092019260005281600020906000935b85851061349b57505050505050565b60028460019284516134ac8161030a565b848060a01b0387541681526134c285880161340a565b8382015281520193019401939161348c565b9081546134e0816114dd565b926040936134f085519182610340565b828152809460208092019260005281600020906000935b85851061351657505050505050565b6003846001928451606081018181106001600160401b0382111761356f575b8652848060a01b03875416815261354d85880161340a565b8382015261355d6002880161340a565b86820152815201930194019391613507565b6135776102b7565b613535565b92919092613589846114dd565b916135976040519384610340565b829480845260208094019060051b83019282841161000e5780915b8483106135c157505050505050565b82356001600160401b03811161000e5786916135e08684938601611503565b8152019201916135b2565b600181106124f0576000190190565b818110613605570390565b61360d61243b565b0390565b805482101561362e575b60005260206000209060011b0190600090565b613636612485565b61361b565b8054821015613654575b60005260206000200190600090565b61365c612485565b613645565b90600080935b835485101561370c57815b61367c868561332c565b51518110156136fb576136e9906136938787613611565b506136cc6001809201916136b1846136ab8c8b61332c565b5161332c565b5192805491600160401b8310156136ee575b8201815561363b565b819291549060031b600019811b9283911b1691191617905561331c565b613672565b6136f66102b7565b6136c3565b50936137069061331c565b93613667565b9350505050565b9061371d826114dd565b61372a6040519182610340565b828152809261373b601f19916114dd565b019060005b82811061374c57505050565b806060602080938501015201613740565b90613767826114dd565b6137746040519182610340565b8281528092613785601f19916114dd565b0190602036910137565b80549081156137b957600019918201916137a9838361363b565b909182549160031b1b1916905555565b634e487b7160e01b600052603160045260246000fd5b6137d98154613713565b90600091825b8254811015613894576137f18561375d565b6137fb828461332c565b52613806818361332c565b506138118184613611565b50600180910154855b8781106138325750505061382d9061331c565b6137df565b61388f9061386b613861613846878a613611565b508661385a85613855896135eb565b6135fa565b910161363b565b90549060031b1c90565b613879826136ab888a61332c565b5261176384613888878a613611565b500161378f565b61381a565b509250505090565b9081602091031261000e5751801515810361000e5790565b156138bb57565b60405162461bcd60e51b815260206004820152602a60248201527f5361666545524332303a204552433230206f7065726174696f6e20646964206e6044820152691bdd081cdd58d8d9595960b21b6064820152608490fd5b6040516001600160a01b03919091169161392c8261030a565b6020928383527f5361666545524332303a206c6f772d6c6576656c2063616c6c206661696c656484840152803b156139a3576000828192828761397e9796519301915af16139786123cb565b906123fb565b8051908161398b57505050565b8261036e9361399e93830101910161389c565b6138b4565b60405162461bcd60e51b815260048101859052601d60248201527f416464726573733a2063616c6c20746f206e6f6e2d636f6e74726163740000006044820152606490fd5b9092919260005b8251811015613a5e57613a59906117636001600160a01b03613a11838761332c565b51511660209061175e613a29878461170e888c61332c565b60405163a9059cbb60e01b948101949094526001600160a01b038b16602485015260448401528260648101611750565b6139ef565b5050509050565b613a7d60409295949395606083526060830190610e97565b9460208201520152565b9493919492909260005b8151811015613bb75784613aa5828961332c565b515103613b815760005b858110613ac55750613ac09061331c565b613a91565b613af2613ae6613ae6613ad8858761332c565b51516001600160a01b031690565b6001600160a01b031690565b90613b01816136ab858c61332c565b51823b1561000e57604051632142170760e11b81526001600160a01b038088166004830152881660248201526044810191909152613b5c926000908290818381606481015b03925af18015613b74575b613b61575b5061331c565b613aaf565b806129e4613b6e926102f7565b38613b56565b613b7c612113565b613b51565b610990613b9b82613b948a94899661332c565b519361332c565b515192604051938493639096f90560e01b855260048501613a65565b50505050509050565b93906103ec9593613bf291613c009460018060a01b03809216885216602087015260a0604087015260a0860190610e63565b908482036060860152610e63565b916080818403910152610ad4565b939190936000905b8051821015613cf857602092613c3984613c30858561332c565b5101515161375d565b9460005b85613c48868661332c565b51015151811015613c8d5780613c788a613c72613c88948a613c6a8b8b61332c565b51015161332c565b51612452565b613c82828a61332c565b5261331c565b613c3d565b50929094919350613ca7613ae6613ae6613ad8848861332c565b91604080613cb5848861332c565b510151613cc0612093565b94803b1561000e578960008a613b46613cf09983975198899788968795631759616b60e11b875260048701613bc0565b909291613c16565b505050915050565b9092919260005b8251811015613a5e57613d23613ae6613ae6613ad8848761332c565b90613d3483602061170e848861332c565b823b1561000e576040516340c10f1960e01b81526001600160a01b03881660048201526024810191909152613d7492600090829081838160448101613b46565b613d07565b9293906000915b8451831015613e3d5781613d94848661332c565b515103613e2a5760005b613da8848661332c565b5151811015613e1957613dc4613ae6613ae6613ad8878a61332c565b90613dd3816136ab878961332c565b51823b1561000e576040516340c10f1960e01b81526001600160a01b038a1660048201526024810191909152613e1492600090829081838160448101613b46565b613d9e565b5091613e249061331c565b91613d80565b509281613b9461099093613b9b9361332c565b945050505050565b9291600090815b8551811015613ef357825b848110613e6d5750613e689061331c565b613e4c565b613ec390613e84613ae6613ae6613ad8868c61332c565b6040516335313c2160e11b81526001600160a01b03861660048201526020918290829060249082908b905af18015613ee6575b613ec8575b505061331c565b613e57565b81613ede92903d106109d0576109c18183610340565b503880613ebc565b613eee612113565b613eb7565b505050509050565b92613f236103ec9593613f319360018060a01b03168652608060208701526080860190610e63565b908482036040860152610e63565b916060818403910152610ad4565b92906000935b805185101561400757602090613f5f82613c30888461332c565b9360005b83613f6e898561332c565b51015151811015613f9f5780613f9086613c72613f9a9488613c6a8e8a61332c565b613c82828961332c565b613f63565b509590939150613fb8613ae6613ae6613ad8848861332c565b604080613fc5848861332c565b51015193613fd1612093565b92803b1561000e576140009560008a613b4682965197889687958694630fbfeffd60e11b865260048601613efb565b9391613f45565b505091505056fe360894a13ba1a3210667c828492db98dca3e2076cc3735a920a3ca505d382bbc59c86eba0f8c3c9659b86fb2776edca2ff990d1509243e9705ae43a6831558c6a2646970667358221220f490b25d1209f968400930a67f846e773290d6e6019e6ade0128025bc879b23364736f6c634300080e0033",
  "devdoc": {
    "details": "Abstract contract with types and utilities that will be used by many (if not all) Plugins contracts",
    "kind": "dev",
    "methods": {
      "canImplementInterfaceForAddress(bytes32,address)": {
        "details": "See {IERC1820Implementer-canImplementInterfaceForAddress}."
      },
      "contractURI()": {
        "details": "Returns collection-wide URI-accessible metadata"
      },
      "deposit(uint256,uint256,uint256[][],uint256[][])": {
        "details": "Used to deposit configuration outputs.",
        "params": {
          "amount": "How many more times the configuration should be craftable",
          "erc721TokenIdsMint": "2D-array mint ERC721s ```",
          "erc721TokenIdsTransfer": "2D-array transfers ERC721s"
        }
      },
      "getBasket(uint256)": {
        "details": "Returns all inputs",
        "params": {
          "basketIdx": "Index of selected input basket"
        }
      },
      "getImplementation()": {
        "details": "Returns the implementation address."
      },
      "getRoleAdmin(bytes32)": {
        "details": "Returns the admin role that controls `role`. See {grantRole} and {revokeRole}. To change a role's admin, use {_setRoleAdmin}."
      },
      "grantRole(bytes32,address)": {
        "details": "Grants `role` to `account`. If `account` had not been already granted `role`, emits a {RoleGranted} event. Requirements: - the caller must have ``role``'s admin role. May emit a {RoleGranted} event."
      },
      "hasRole(bytes32,address)": {
        "details": "Returns `true` if `account` has been granted `role`."
      },
      "initialize(address,string,(uint256,(address,uint256)[],(address,uint256)[],(address,uint256[])[],(address,uint256[])[],(address,uint256[])[],(address,uint256[],uint256[])[],(address,uint256[],uint256[])[])[],address[])": {
        "details": "Initializes contract (replaces constructor in proxy pattern)",
        "params": {
          "_admin": "owner, can control outputs on contract",
          "_initContractURI": "contract uri",
          "_outputBaskets": "outputs for configuration",
          "_routers": "trusted routers that can call the output function"
        }
      },
      "isTrustedForwarder(address)": {
        "details": "Determine is an address a GSN trusted forwarder.",
        "params": {
          "forwarder": "address to query"
        },
        "returns": {
          "_0": "OpenGSN trusted forwarder status"
        }
      },
      "onERC721Received(address,address,uint256,bytes)": {
        "details": "See {IERC721Receiver-onERC721Received}. Always returns `IERC721Receiver.onERC721Received.selector`."
      },
      "output(address,uint256,uint256)": {
        "details": "Outputs assets.",
        "params": {
          "amount": "How many times to craft",
          "basketIdx": "Index of selected output basket",
          "to": "Receiver"
        }
      },
      "proxiableUUID()": {
        "details": "Implementation of the ERC1822 {proxiableUUID} function. This returns the storage slot used by the implementation. It is used to validate that the this implementation remains valid after an upgrade. IMPORTANT: A proxy pointing at a proxiable contract should not be considered proxiable itself, because this risks bricking a proxy that upgrades to it, by delegating to itself until out of gas. Thus it is critical that this function revert if invoked through a proxy. This is guaranteed by the `notDelegated` modifier."
      },
      "proxyInitialize(address,string,(uint256,(address,uint256)[],(address,uint256)[],(address,uint256[])[],(address,uint256[])[],(address,uint256[])[],(address,uint256[],uint256[])[],(address,uint256[],uint256[])[])[],address[])": {
        "details": "See initialize. Uses onlyInitializing modifier, enabling running while initializing."
      },
      "renounceRole(bytes32,address)": {
        "details": "Revokes `role` from the calling account. Roles are often managed via {grantRole} and {revokeRole}: this function's purpose is to provide a mechanism for accounts to lose their privileges if they are compromised (such as when a trusted device is misplaced). If the calling account had been revoked `role`, emits a {RoleRevoked} event. Requirements: - the caller must be `account`. May emit a {RoleRevoked} event."
      },
      "revokeRole(bytes32,address)": {
        "details": "Revokes `role` from `account`. If `account` had been granted `role`, emits a {RoleRevoked} event. Requirements: - the caller must have ``role``'s admin role. May emit a {RoleRevoked} event."
      },
      "setContractURI(string)": {
        "details": "Set contract uri"
      },
      "supportsInterface(bytes4)": {
        "details": "ERC165 Support",
        "params": {
          "interfaceId": "XOR of the external functions of the interface"
        },
        "returns": {
          "_0": "bool whether interface is supported"
        }
      },
      "upgradeTo(address)": {
        "details": "Upgrade the implementation of the proxy to `newImplementation`. Calls {_authorizeUpgrade}. Emits an {Upgraded} event."
      },
      "upgradeToAndCall(address,bytes)": {
        "details": "Upgrade the implementation of the proxy to `newImplementation`, and subsequently execute the function call encoded in `data`. Calls {_authorizeUpgrade}. Emits an {Upgraded} event."
      },
      "version()": {
        "details": "OwlProtocol contract version. Used to determine compatibility interoperable with other Owl contracts."
      },
      "versionRecipient()": {
        "details": "Returns OpenGSN contract version (used for compatibility checks)"
      },
      "withdraw(uint256,uint256)": {
        "details": "Used to withdraw configuration outputs out of contract to the caller. Will also decrease `craftableAmount`",
        "params": {
          "amount": "How many sets of outputs should be withdrawn",
          "basketIdx": "Index of selected output basket"
        }
      }
    },
    "version": 1
  },
  "storageLayout": {
    "storage": [
      {
        "astId": 1451,
        "contract": "contracts/plugins/AssetRouter/AssetRouterOutput.sol:AssetRouterOutput",
        "label": "_initialized",
        "offset": 0,
        "slot": "0",
        "type": "t_uint8"
      },
      {
        "astId": 1454,
        "contract": "contracts/plugins/AssetRouter/AssetRouterOutput.sol:AssetRouterOutput",
        "label": "_initializing",
        "offset": 1,
        "slot": "0",
        "type": "t_bool"
      },
      {
        "astId": 6973,
        "contract": "contracts/plugins/AssetRouter/AssetRouterOutput.sol:AssetRouterOutput",
        "label": "__gap",
        "offset": 0,
        "slot": "1",
        "type": "t_array(t_uint256)50_storage"
      },
      {
        "astId": 1433,
        "contract": "contracts/plugins/AssetRouter/AssetRouterOutput.sol:AssetRouterOutput",
        "label": "__gap",
        "offset": 0,
        "slot": "51",
        "type": "t_array(t_uint256)50_storage"
      },
      {
        "astId": 7523,
        "contract": "contracts/plugins/AssetRouter/AssetRouterOutput.sol:AssetRouterOutput",
        "label": "__gap",
        "offset": 0,
        "slot": "101",
        "type": "t_array(t_uint256)50_storage"
      },
      {
        "astId": 8038,
        "contract": "contracts/plugins/AssetRouter/AssetRouterOutput.sol:AssetRouterOutput",
        "label": "__gap",
        "offset": 0,
        "slot": "151",
        "type": "t_array(t_uint256)50_storage"
      },
      {
        "astId": 3801,
        "contract": "contracts/plugins/AssetRouter/AssetRouterOutput.sol:AssetRouterOutput",
        "label": "__gap",
        "offset": 0,
        "slot": "201",
        "type": "t_array(t_uint256)50_storage"
      },
      {
        "astId": 3747,
        "contract": "contracts/plugins/AssetRouter/AssetRouterOutput.sol:AssetRouterOutput",
        "label": "__gap",
        "offset": 0,
        "slot": "251",
        "type": "t_array(t_uint256)50_storage"
      },
      {
        "astId": 426,
        "contract": "contracts/plugins/AssetRouter/AssetRouterOutput.sol:AssetRouterOutput",
        "label": "_roles",
        "offset": 0,
        "slot": "301",
        "type": "t_mapping(t_bytes32,t_struct(RoleData)421_storage)"
      },
      {
        "astId": 725,
        "contract": "contracts/plugins/AssetRouter/AssetRouterOutput.sol:AssetRouterOutput",
        "label": "__gap",
        "offset": 0,
        "slot": "302",
        "type": "t_array(t_uint256)49_storage"
      },
      {
        "astId": 1730,
        "contract": "contracts/plugins/AssetRouter/AssetRouterOutput.sol:AssetRouterOutput",
        "label": "__gap",
        "offset": 0,
        "slot": "351",
        "type": "t_array(t_uint256)50_storage"
      },
      {
        "astId": 8071,
        "contract": "contracts/plugins/AssetRouter/AssetRouterOutput.sol:AssetRouterOutput",
        "label": "_supportedInterfaces",
        "offset": 0,
        "slot": "401",
        "type": "t_mapping(t_bytes32,t_mapping(t_address,t_bool))"
      },
      {
        "astId": 8117,
        "contract": "contracts/plugins/AssetRouter/AssetRouterOutput.sol:AssetRouterOutput",
        "label": "__gap",
        "offset": 0,
        "slot": "402",
        "type": "t_array(t_uint256)49_storage"
      },
      {
        "astId": 13336,
        "contract": "contracts/plugins/AssetRouter/AssetRouterOutput.sol:AssetRouterOutput",
        "label": "outputBaskets",
        "offset": 0,
        "slot": "451",
        "type": "t_array(t_struct(AssetBasketOutput)13707_storage)dyn_storage"
      },
      {
        "astId": 13340,
        "contract": "contracts/plugins/AssetRouter/AssetRouterOutput.sol:AssetRouterOutput",
        "label": "__gap",
        "offset": 0,
        "slot": "452",
        "type": "t_array(t_uint256)49_storage"
      }
    ],
    "types": {
      "t_address": {
        "encoding": "inplace",
        "label": "address",
        "numberOfBytes": "20"
      },
      "t_array(t_struct(AssetBasketOutput)13707_storage)dyn_storage": {
        "base": "t_struct(AssetBasketOutput)13707_storage",
        "encoding": "dynamic_array",
        "label": "struct AssetBasketOutput[]",
        "numberOfBytes": "32"
      },
      "t_array(t_struct(AssetERC1155)13629_storage)dyn_storage": {
        "base": "t_struct(AssetERC1155)13629_storage",
        "encoding": "dynamic_array",
        "label": "struct AssetERC1155[]",
        "numberOfBytes": "32"
      },
      "t_array(t_struct(AssetERC20)13614_storage)dyn_storage": {
        "base": "t_struct(AssetERC20)13614_storage",
        "encoding": "dynamic_array",
        "label": "struct AssetERC20[]",
        "numberOfBytes": "32"
      },
      "t_array(t_struct(AssetERC721)13620_storage)dyn_storage": {
        "base": "t_struct(AssetERC721)13620_storage",
        "encoding": "dynamic_array",
        "label": "struct AssetERC721[]",
        "numberOfBytes": "32"
      },
      "t_array(t_uint256)49_storage": {
        "base": "t_uint256",
        "encoding": "inplace",
        "label": "uint256[49]",
        "numberOfBytes": "1568"
      },
      "t_array(t_uint256)50_storage": {
        "base": "t_uint256",
        "encoding": "inplace",
        "label": "uint256[50]",
        "numberOfBytes": "1600"
      },
      "t_array(t_uint256)dyn_storage": {
        "base": "t_uint256",
        "encoding": "dynamic_array",
        "label": "uint256[]",
        "numberOfBytes": "32"
      },
      "t_bool": {
        "encoding": "inplace",
        "label": "bool",
        "numberOfBytes": "1"
      },
      "t_bytes32": {
        "encoding": "inplace",
        "label": "bytes32",
        "numberOfBytes": "32"
      },
      "t_mapping(t_address,t_bool)": {
        "encoding": "mapping",
        "key": "t_address",
        "label": "mapping(address => bool)",
        "numberOfBytes": "32",
        "value": "t_bool"
      },
      "t_mapping(t_bytes32,t_mapping(t_address,t_bool))": {
        "encoding": "mapping",
        "key": "t_bytes32",
        "label": "mapping(bytes32 => mapping(address => bool))",
        "numberOfBytes": "32",
        "value": "t_mapping(t_address,t_bool)"
      },
      "t_mapping(t_bytes32,t_struct(RoleData)421_storage)": {
        "encoding": "mapping",
        "key": "t_bytes32",
        "label": "mapping(bytes32 => struct AccessControlUpgradeable.RoleData)",
        "numberOfBytes": "32",
        "value": "t_struct(RoleData)421_storage"
      },
      "t_struct(AssetBasketOutput)13707_storage": {
        "encoding": "inplace",
        "label": "struct AssetBasketOutput",
        "members": [
          {
            "astId": 13678,
            "contract": "contracts/plugins/AssetRouter/AssetRouterOutput.sol:AssetRouterOutput",
            "label": "outputableAmount",
            "offset": 0,
            "slot": "0",
            "type": "t_uint256"
          },
          {
            "astId": 13682,
            "contract": "contracts/plugins/AssetRouter/AssetRouterOutput.sol:AssetRouterOutput",
            "label": "erc20Transfer",
            "offset": 0,
            "slot": "1",
            "type": "t_array(t_struct(AssetERC20)13614_storage)dyn_storage"
          },
          {
            "astId": 13686,
            "contract": "contracts/plugins/AssetRouter/AssetRouterOutput.sol:AssetRouterOutput",
            "label": "erc20Mint",
            "offset": 0,
            "slot": "2",
            "type": "t_array(t_struct(AssetERC20)13614_storage)dyn_storage"
          },
          {
            "astId": 13690,
            "contract": "contracts/plugins/AssetRouter/AssetRouterOutput.sol:AssetRouterOutput",
            "label": "erc721Transfer",
            "offset": 0,
            "slot": "3",
            "type": "t_array(t_struct(AssetERC721)13620_storage)dyn_storage"
          },
          {
            "astId": 13694,
            "contract": "contracts/plugins/AssetRouter/AssetRouterOutput.sol:AssetRouterOutput",
            "label": "erc721Mint",
            "offset": 0,
            "slot": "4",
            "type": "t_array(t_struct(AssetERC721)13620_storage)dyn_storage"
          },
          {
            "astId": 13698,
            "contract": "contracts/plugins/AssetRouter/AssetRouterOutput.sol:AssetRouterOutput",
            "label": "erc721MintAutoId",
            "offset": 0,
            "slot": "5",
            "type": "t_array(t_struct(AssetERC721)13620_storage)dyn_storage"
          },
          {
            "astId": 13702,
            "contract": "contracts/plugins/AssetRouter/AssetRouterOutput.sol:AssetRouterOutput",
            "label": "erc1155Transfer",
            "offset": 0,
            "slot": "6",
            "type": "t_array(t_struct(AssetERC1155)13629_storage)dyn_storage"
          },
          {
            "astId": 13706,
            "contract": "contracts/plugins/AssetRouter/AssetRouterOutput.sol:AssetRouterOutput",
            "label": "erc1155Mint",
            "offset": 0,
            "slot": "7",
            "type": "t_array(t_struct(AssetERC1155)13629_storage)dyn_storage"
          }
        ],
        "numberOfBytes": "256"
      },
      "t_struct(AssetERC1155)13629_storage": {
        "encoding": "inplace",
        "label": "struct AssetERC1155",
        "members": [
          {
            "astId": 13622,
            "contract": "contracts/plugins/AssetRouter/AssetRouterOutput.sol:AssetRouterOutput",
            "label": "contractAddr",
            "offset": 0,
            "slot": "0",
            "type": "t_address"
          },
          {
            "astId": 13625,
            "contract": "contracts/plugins/AssetRouter/AssetRouterOutput.sol:AssetRouterOutput",
            "label": "amounts",
            "offset": 0,
            "slot": "1",
            "type": "t_array(t_uint256)dyn_storage"
          },
          {
            "astId": 13628,
            "contract": "contracts/plugins/AssetRouter/AssetRouterOutput.sol:AssetRouterOutput",
            "label": "tokenIds",
            "offset": 0,
            "slot": "2",
            "type": "t_array(t_uint256)dyn_storage"
          }
        ],
        "numberOfBytes": "96"
      },
      "t_struct(AssetERC20)13614_storage": {
        "encoding": "inplace",
        "label": "struct AssetERC20",
        "members": [
          {
            "astId": 13611,
            "contract": "contracts/plugins/AssetRouter/AssetRouterOutput.sol:AssetRouterOutput",
            "label": "contractAddr",
            "offset": 0,
            "slot": "0",
            "type": "t_address"
          },
          {
            "astId": 13613,
            "contract": "contracts/plugins/AssetRouter/AssetRouterOutput.sol:AssetRouterOutput",
            "label": "amount",
            "offset": 0,
            "slot": "1",
            "type": "t_uint256"
          }
        ],
        "numberOfBytes": "64"
      },
      "t_struct(AssetERC721)13620_storage": {
        "encoding": "inplace",
        "label": "struct AssetERC721",
        "members": [
          {
            "astId": 13616,
            "contract": "contracts/plugins/AssetRouter/AssetRouterOutput.sol:AssetRouterOutput",
            "label": "contractAddr",
            "offset": 0,
            "slot": "0",
            "type": "t_address"
          },
          {
            "astId": 13619,
            "contract": "contracts/plugins/AssetRouter/AssetRouterOutput.sol:AssetRouterOutput",
            "label": "tokenIds",
            "offset": 0,
            "slot": "1",
            "type": "t_array(t_uint256)dyn_storage"
          }
        ],
        "numberOfBytes": "64"
      },
      "t_struct(RoleData)421_storage": {
        "encoding": "inplace",
        "label": "struct AccessControlUpgradeable.RoleData",
        "members": [
          {
            "astId": 418,
            "contract": "contracts/plugins/AssetRouter/AssetRouterOutput.sol:AssetRouterOutput",
            "label": "members",
            "offset": 0,
            "slot": "0",
            "type": "t_mapping(t_address,t_bool)"
          },
          {
            "astId": 420,
            "contract": "contracts/plugins/AssetRouter/AssetRouterOutput.sol:AssetRouterOutput",
            "label": "adminRole",
            "offset": 0,
            "slot": "1",
            "type": "t_bytes32"
          }
        ],
        "numberOfBytes": "64"
      },
      "t_uint256": {
        "encoding": "inplace",
        "label": "uint256",
        "numberOfBytes": "32"
      },
      "t_uint8": {
        "encoding": "inplace",
        "label": "uint8",
        "numberOfBytes": "1"
      }
    }
  }
}