{
  "address": "0x574bdcE840FF22b5C055C34C5907251C8E694D4a",
  "abi": [
    {
      "inputs": [],
      "stateMutability": "nonpayable",
      "type": "constructor"
    },
    {
      "inputs": [
        {
          "components": [
            {
              "internalType": "address",
              "name": "contractAddr",
              "type": "address"
            },
            {
              "internalType": "uint256[]",
              "name": "amounts",
              "type": "uint256[]"
            },
            {
              "internalType": "uint256[]",
              "name": "tokenIds",
              "type": "uint256[]"
            }
          ],
          "internalType": "struct AssetERC1155",
          "name": "asset",
          "type": "tuple"
        },
        {
          "internalType": "uint256",
          "name": "tokenId",
          "type": "uint256"
        },
        {
          "internalType": "uint256",
          "name": "currBalance",
          "type": "uint256"
        },
        {
          "internalType": "uint256",
          "name": "requiredBalance",
          "type": "uint256"
        }
      ],
      "name": "InvalidERC1155BalanceOfBatch",
      "type": "error"
    },
    {
      "inputs": [
        {
          "components": [
            {
              "internalType": "address",
              "name": "contractAddr",
              "type": "address"
            },
            {
              "internalType": "uint256",
              "name": "amount",
              "type": "uint256"
            }
          ],
          "internalType": "struct AssetERC20",
          "name": "asset",
          "type": "tuple"
        },
        {
          "internalType": "uint256",
          "name": "currBalance",
          "type": "uint256"
        },
        {
          "internalType": "uint256",
          "name": "requiredBalance",
          "type": "uint256"
        }
      ],
      "name": "InvalidERC20BalanceOf",
      "type": "error"
    },
    {
      "inputs": [
        {
          "components": [
            {
              "internalType": "address",
              "name": "contractAddr",
              "type": "address"
            },
            {
              "internalType": "uint256[]",
              "name": "tokenIds",
              "type": "uint256[]"
            }
          ],
          "internalType": "struct AssetERC721",
          "name": "asset",
          "type": "tuple"
        },
        {
          "internalType": "uint256",
          "name": "currNTime",
          "type": "uint256"
        },
        {
          "internalType": "uint256",
          "name": "maxNTime",
          "type": "uint256"
        }
      ],
      "name": "InvalidERC721NTime",
      "type": "error"
    },
    {
      "inputs": [
        {
          "components": [
            {
              "internalType": "address",
              "name": "contractAddr",
              "type": "address"
            },
            {
              "internalType": "uint256[]",
              "name": "tokenIds",
              "type": "uint256[]"
            }
          ],
          "internalType": "struct AssetERC721",
          "name": "asset",
          "type": "tuple"
        },
        {
          "internalType": "address",
          "name": "currOwner",
          "type": "address"
        },
        {
          "internalType": "address",
          "name": "requiredOwner",
          "type": "address"
        }
      ],
      "name": "InvalidERC721OwnerOf",
      "type": "error"
    },
    {
      "inputs": [
        {
          "components": [
            {
              "internalType": "address",
              "name": "contractAddr",
              "type": "address"
            },
            {
              "internalType": "uint256[]",
              "name": "tokenIds",
              "type": "uint256[]"
            }
          ],
          "internalType": "struct AssetERC721",
          "name": "asset",
          "type": "tuple"
        },
        {
          "internalType": "uint256",
          "name": "currTokenIdsLen",
          "type": "uint256"
        },
        {
          "internalType": "uint256",
          "name": "requiredTokenIdsLen",
          "type": "uint256"
        }
      ],
      "name": "InvalidERC721TokenIds",
      "type": "error"
    },
    {
      "anonymous": false,
      "inputs": [
        {
          "indexed": false,
          "internalType": "address",
          "name": "previousAdmin",
          "type": "address"
        },
        {
          "indexed": false,
          "internalType": "address",
          "name": "newAdmin",
          "type": "address"
        }
      ],
      "name": "AdminChanged",
      "type": "event"
    },
    {
      "anonymous": false,
      "inputs": [
        {
          "indexed": true,
          "internalType": "address",
          "name": "beacon",
          "type": "address"
        }
      ],
      "name": "BeaconUpgraded",
      "type": "event"
    },
    {
      "anonymous": false,
      "inputs": [
        {
          "indexed": false,
          "internalType": "uint8",
          "name": "version",
          "type": "uint8"
        }
      ],
      "name": "Initialized",
      "type": "event"
    },
    {
      "anonymous": false,
      "inputs": [
        {
          "indexed": true,
          "internalType": "bytes32",
          "name": "role",
          "type": "bytes32"
        },
        {
          "indexed": true,
          "internalType": "bytes32",
          "name": "previousAdminRole",
          "type": "bytes32"
        },
        {
          "indexed": true,
          "internalType": "bytes32",
          "name": "newAdminRole",
          "type": "bytes32"
        }
      ],
      "name": "RoleAdminChanged",
      "type": "event"
    },
    {
      "anonymous": false,
      "inputs": [
        {
          "indexed": true,
          "internalType": "bytes32",
          "name": "role",
          "type": "bytes32"
        },
        {
          "indexed": true,
          "internalType": "address",
          "name": "account",
          "type": "address"
        },
        {
          "indexed": true,
          "internalType": "address",
          "name": "sender",
          "type": "address"
        }
      ],
      "name": "RoleGranted",
      "type": "event"
    },
    {
      "anonymous": false,
      "inputs": [
        {
          "indexed": true,
          "internalType": "bytes32",
          "name": "role",
          "type": "bytes32"
        },
        {
          "indexed": true,
          "internalType": "address",
          "name": "account",
          "type": "address"
        },
        {
          "indexed": true,
          "internalType": "address",
          "name": "sender",
          "type": "address"
        }
      ],
      "name": "RoleRevoked",
      "type": "event"
    },
    {
      "anonymous": false,
      "inputs": [
        {
          "indexed": true,
          "internalType": "address",
          "name": "implementation",
          "type": "address"
        }
      ],
      "name": "Upgraded",
      "type": "event"
    },
    {
      "inputs": [],
      "name": "DEFAULT_ADMIN_ROLE",
      "outputs": [
        {
          "internalType": "bytes32",
          "name": "",
          "type": "bytes32"
        }
      ],
      "stateMutability": "view",
      "type": "function"
    },
    {
      "inputs": [
        {
          "internalType": "bytes32",
          "name": "interfaceHash",
          "type": "bytes32"
        },
        {
          "internalType": "address",
          "name": "account",
          "type": "address"
        }
      ],
      "name": "canImplementInterfaceForAddress",
      "outputs": [
        {
          "internalType": "bytes32",
          "name": "",
          "type": "bytes32"
        }
      ],
      "stateMutability": "view",
      "type": "function"
    },
    {
      "inputs": [],
      "name": "contractURI",
      "outputs": [
        {
          "internalType": "string",
          "name": "",
          "type": "string"
        }
      ],
      "stateMutability": "view",
      "type": "function"
    },
    {
      "inputs": [
        {
          "internalType": "uint256",
          "name": "basketIdx",
          "type": "uint256"
        }
      ],
      "name": "getBasket",
      "outputs": [
        {
          "components": [
            {
              "internalType": "address",
              "name": "burnAddress",
              "type": "address"
            },
            {
              "components": [
                {
                  "internalType": "address",
                  "name": "contractAddr",
                  "type": "address"
                },
                {
                  "internalType": "uint256",
                  "name": "amount",
                  "type": "uint256"
                }
              ],
              "internalType": "struct AssetERC20[]",
              "name": "erc20Unaffected",
              "type": "tuple[]"
            },
            {
              "components": [
                {
                  "internalType": "address",
                  "name": "contractAddr",
                  "type": "address"
                },
                {
                  "internalType": "uint256",
                  "name": "amount",
                  "type": "uint256"
                }
              ],
              "internalType": "struct AssetERC20[]",
              "name": "erc20Burned",
              "type": "tuple[]"
            },
            {
              "components": [
                {
                  "internalType": "address",
                  "name": "contractAddr",
                  "type": "address"
                },
                {
                  "internalType": "uint256[]",
                  "name": "tokenIds",
                  "type": "uint256[]"
                }
              ],
              "internalType": "struct AssetERC721[]",
              "name": "erc721Unaffected",
              "type": "tuple[]"
            },
            {
              "components": [
                {
                  "internalType": "address",
                  "name": "contractAddr",
                  "type": "address"
                },
                {
                  "internalType": "uint256[]",
                  "name": "tokenIds",
                  "type": "uint256[]"
                }
              ],
              "internalType": "struct AssetERC721[]",
              "name": "erc721Burned",
              "type": "tuple[]"
            },
            {
              "components": [
                {
                  "internalType": "address",
                  "name": "contractAddr",
                  "type": "address"
                },
                {
                  "internalType": "uint256[]",
                  "name": "tokenIds",
                  "type": "uint256[]"
                }
              ],
              "internalType": "struct AssetERC721[]",
              "name": "erc721NTime",
              "type": "tuple[]"
            },
            {
              "internalType": "uint256[]",
              "name": "erc721NTimeMax",
              "type": "uint256[]"
            },
            {
              "components": [
                {
                  "internalType": "address",
                  "name": "contractAddr",
                  "type": "address"
                },
                {
                  "internalType": "uint256[]",
                  "name": "amounts",
                  "type": "uint256[]"
                },
                {
                  "internalType": "uint256[]",
                  "name": "tokenIds",
                  "type": "uint256[]"
                }
              ],
              "internalType": "struct AssetERC1155[]",
              "name": "erc1155Unaffected",
              "type": "tuple[]"
            },
            {
              "components": [
                {
                  "internalType": "address",
                  "name": "contractAddr",
                  "type": "address"
                },
                {
                  "internalType": "uint256[]",
                  "name": "amounts",
                  "type": "uint256[]"
                },
                {
                  "internalType": "uint256[]",
                  "name": "tokenIds",
                  "type": "uint256[]"
                }
              ],
              "internalType": "struct AssetERC1155[]",
              "name": "erc1155Burned",
              "type": "tuple[]"
            }
          ],
          "internalType": "struct AssetBasketInput",
          "name": "",
          "type": "tuple"
        }
      ],
      "stateMutability": "view",
      "type": "function"
    },
    {
      "inputs": [],
      "name": "getImplementation",
      "outputs": [
        {
          "internalType": "address",
          "name": "",
          "type": "address"
        }
      ],
      "stateMutability": "view",
      "type": "function"
    },
    {
      "inputs": [
        {
          "internalType": "bytes32",
          "name": "role",
          "type": "bytes32"
        }
      ],
      "name": "getRoleAdmin",
      "outputs": [
        {
          "internalType": "bytes32",
          "name": "",
          "type": "bytes32"
        }
      ],
      "stateMutability": "view",
      "type": "function"
    },
    {
      "inputs": [
        {
          "internalType": "bytes32",
          "name": "role",
          "type": "bytes32"
        },
        {
          "internalType": "address",
          "name": "account",
          "type": "address"
        }
      ],
      "name": "grantRole",
      "outputs": [],
      "stateMutability": "nonpayable",
      "type": "function"
    },
    {
      "inputs": [
        {
          "internalType": "bytes32",
          "name": "role",
          "type": "bytes32"
        },
        {
          "internalType": "address",
          "name": "account",
          "type": "address"
        }
      ],
      "name": "hasRole",
      "outputs": [
        {
          "internalType": "bool",
          "name": "",
          "type": "bool"
        }
      ],
      "stateMutability": "view",
      "type": "function"
    },
    {
      "inputs": [
        {
          "internalType": "address",
          "name": "_admin",
          "type": "address"
        },
        {
          "internalType": "string",
          "name": "_initContractURI",
          "type": "string"
        },
        {
          "internalType": "address",
          "name": "_gsnForwarder",
          "type": "address"
        },
        {
          "components": [
            {
              "internalType": "address",
              "name": "burnAddress",
              "type": "address"
            },
            {
              "components": [
                {
                  "internalType": "address",
                  "name": "contractAddr",
                  "type": "address"
                },
                {
                  "internalType": "uint256",
                  "name": "amount",
                  "type": "uint256"
                }
              ],
              "internalType": "struct AssetERC20[]",
              "name": "erc20Unaffected",
              "type": "tuple[]"
            },
            {
              "components": [
                {
                  "internalType": "address",
                  "name": "contractAddr",
                  "type": "address"
                },
                {
                  "internalType": "uint256",
                  "name": "amount",
                  "type": "uint256"
                }
              ],
              "internalType": "struct AssetERC20[]",
              "name": "erc20Burned",
              "type": "tuple[]"
            },
            {
              "components": [
                {
                  "internalType": "address",
                  "name": "contractAddr",
                  "type": "address"
                },
                {
                  "internalType": "uint256[]",
                  "name": "tokenIds",
                  "type": "uint256[]"
                }
              ],
              "internalType": "struct AssetERC721[]",
              "name": "erc721Unaffected",
              "type": "tuple[]"
            },
            {
              "components": [
                {
                  "internalType": "address",
                  "name": "contractAddr",
                  "type": "address"
                },
                {
                  "internalType": "uint256[]",
                  "name": "tokenIds",
                  "type": "uint256[]"
                }
              ],
              "internalType": "struct AssetERC721[]",
              "name": "erc721Burned",
              "type": "tuple[]"
            },
            {
              "components": [
                {
                  "internalType": "address",
                  "name": "contractAddr",
                  "type": "address"
                },
                {
                  "internalType": "uint256[]",
                  "name": "tokenIds",
                  "type": "uint256[]"
                }
              ],
              "internalType": "struct AssetERC721[]",
              "name": "erc721NTime",
              "type": "tuple[]"
            },
            {
              "internalType": "uint256[]",
              "name": "erc721NTimeMax",
              "type": "uint256[]"
            },
            {
              "components": [
                {
                  "internalType": "address",
                  "name": "contractAddr",
                  "type": "address"
                },
                {
                  "internalType": "uint256[]",
                  "name": "amounts",
                  "type": "uint256[]"
                },
                {
                  "internalType": "uint256[]",
                  "name": "tokenIds",
                  "type": "uint256[]"
                }
              ],
              "internalType": "struct AssetERC1155[]",
              "name": "erc1155Unaffected",
              "type": "tuple[]"
            },
            {
              "components": [
                {
                  "internalType": "address",
                  "name": "contractAddr",
                  "type": "address"
                },
                {
                  "internalType": "uint256[]",
                  "name": "amounts",
                  "type": "uint256[]"
                },
                {
                  "internalType": "uint256[]",
                  "name": "tokenIds",
                  "type": "uint256[]"
                }
              ],
              "internalType": "struct AssetERC1155[]",
              "name": "erc1155Burned",
              "type": "tuple[]"
            }
          ],
          "internalType": "struct AssetBasketInput[]",
          "name": "_inputBaskets",
          "type": "tuple[]"
        }
      ],
      "name": "initialize",
      "outputs": [],
      "stateMutability": "nonpayable",
      "type": "function"
    },
    {
      "inputs": [
        {
          "internalType": "address",
          "name": "target",
          "type": "address"
        },
        {
          "internalType": "uint256",
          "name": "amount",
          "type": "uint256"
        },
        {
          "internalType": "uint256",
          "name": "basketIdx",
          "type": "uint256"
        },
        {
          "internalType": "uint256[][]",
          "name": "erc721TokenIdsUnaffected",
          "type": "uint256[][]"
        },
        {
          "internalType": "uint256[][]",
          "name": "erc721TokenIdsNTime",
          "type": "uint256[][]"
        },
        {
          "internalType": "uint256[][]",
          "name": "erc721TokenIdsBurned",
          "type": "uint256[][]"
        },
        {
          "internalType": "uint256",
          "name": "outBasketIdx",
          "type": "uint256"
        }
      ],
      "name": "input",
      "outputs": [],
      "stateMutability": "nonpayable",
      "type": "function"
    },
    {
      "inputs": [
        {
          "internalType": "address",
          "name": "forwarder",
          "type": "address"
        }
      ],
      "name": "isTrustedForwarder",
      "outputs": [
        {
          "internalType": "bool",
          "name": "",
          "type": "bool"
        }
      ],
      "stateMutability": "view",
      "type": "function"
    },
    {
      "inputs": [],
      "name": "proxiableUUID",
      "outputs": [
        {
          "internalType": "bytes32",
          "name": "",
          "type": "bytes32"
        }
      ],
      "stateMutability": "view",
      "type": "function"
    },
    {
      "inputs": [
        {
          "internalType": "address",
          "name": "_admin",
          "type": "address"
        },
        {
          "internalType": "string",
          "name": "_initContractURI",
          "type": "string"
        },
        {
          "internalType": "address",
          "name": "_gsnForwarder",
          "type": "address"
        },
        {
          "components": [
            {
              "internalType": "address",
              "name": "burnAddress",
              "type": "address"
            },
            {
              "components": [
                {
                  "internalType": "address",
                  "name": "contractAddr",
                  "type": "address"
                },
                {
                  "internalType": "uint256",
                  "name": "amount",
                  "type": "uint256"
                }
              ],
              "internalType": "struct AssetERC20[]",
              "name": "erc20Unaffected",
              "type": "tuple[]"
            },
            {
              "components": [
                {
                  "internalType": "address",
                  "name": "contractAddr",
                  "type": "address"
                },
                {
                  "internalType": "uint256",
                  "name": "amount",
                  "type": "uint256"
                }
              ],
              "internalType": "struct AssetERC20[]",
              "name": "erc20Burned",
              "type": "tuple[]"
            },
            {
              "components": [
                {
                  "internalType": "address",
                  "name": "contractAddr",
                  "type": "address"
                },
                {
                  "internalType": "uint256[]",
                  "name": "tokenIds",
                  "type": "uint256[]"
                }
              ],
              "internalType": "struct AssetERC721[]",
              "name": "erc721Unaffected",
              "type": "tuple[]"
            },
            {
              "components": [
                {
                  "internalType": "address",
                  "name": "contractAddr",
                  "type": "address"
                },
                {
                  "internalType": "uint256[]",
                  "name": "tokenIds",
                  "type": "uint256[]"
                }
              ],
              "internalType": "struct AssetERC721[]",
              "name": "erc721Burned",
              "type": "tuple[]"
            },
            {
              "components": [
                {
                  "internalType": "address",
                  "name": "contractAddr",
                  "type": "address"
                },
                {
                  "internalType": "uint256[]",
                  "name": "tokenIds",
                  "type": "uint256[]"
                }
              ],
              "internalType": "struct AssetERC721[]",
              "name": "erc721NTime",
              "type": "tuple[]"
            },
            {
              "internalType": "uint256[]",
              "name": "erc721NTimeMax",
              "type": "uint256[]"
            },
            {
              "components": [
                {
                  "internalType": "address",
                  "name": "contractAddr",
                  "type": "address"
                },
                {
                  "internalType": "uint256[]",
                  "name": "amounts",
                  "type": "uint256[]"
                },
                {
                  "internalType": "uint256[]",
                  "name": "tokenIds",
                  "type": "uint256[]"
                }
              ],
              "internalType": "struct AssetERC1155[]",
              "name": "erc1155Unaffected",
              "type": "tuple[]"
            },
            {
              "components": [
                {
                  "internalType": "address",
                  "name": "contractAddr",
                  "type": "address"
                },
                {
                  "internalType": "uint256[]",
                  "name": "amounts",
                  "type": "uint256[]"
                },
                {
                  "internalType": "uint256[]",
                  "name": "tokenIds",
                  "type": "uint256[]"
                }
              ],
              "internalType": "struct AssetERC1155[]",
              "name": "erc1155Burned",
              "type": "tuple[]"
            }
          ],
          "internalType": "struct AssetBasketInput[]",
          "name": "_inputBaskets",
          "type": "tuple[]"
        }
      ],
      "name": "proxyInitialize",
      "outputs": [],
      "stateMutability": "nonpayable",
      "type": "function"
    },
    {
      "inputs": [
        {
          "internalType": "bytes32",
          "name": "role",
          "type": "bytes32"
        },
        {
          "internalType": "address",
          "name": "account",
          "type": "address"
        }
      ],
      "name": "renounceRole",
      "outputs": [],
      "stateMutability": "nonpayable",
      "type": "function"
    },
    {
      "inputs": [
        {
          "internalType": "bytes32",
          "name": "role",
          "type": "bytes32"
        },
        {
          "internalType": "address",
          "name": "account",
          "type": "address"
        }
      ],
      "name": "revokeRole",
      "outputs": [],
      "stateMutability": "nonpayable",
      "type": "function"
    },
    {
      "inputs": [
        {
          "internalType": "string",
          "name": "uri",
          "type": "string"
        }
      ],
      "name": "setContractURI",
      "outputs": [],
      "stateMutability": "nonpayable",
      "type": "function"
    },
    {
      "inputs": [
        {
          "internalType": "bytes4",
          "name": "interfaceId",
          "type": "bytes4"
        }
      ],
      "name": "supportsInterface",
      "outputs": [
        {
          "internalType": "bool",
          "name": "",
          "type": "bool"
        }
      ],
      "stateMutability": "view",
      "type": "function"
    },
    {
      "inputs": [
        {
          "internalType": "address",
          "name": "newImplementation",
          "type": "address"
        }
      ],
      "name": "upgradeTo",
      "outputs": [],
      "stateMutability": "nonpayable",
      "type": "function"
    },
    {
      "inputs": [
        {
          "internalType": "address",
          "name": "newImplementation",
          "type": "address"
        },
        {
          "internalType": "bytes",
          "name": "data",
          "type": "bytes"
        }
      ],
      "name": "upgradeToAndCall",
      "outputs": [],
      "stateMutability": "payable",
      "type": "function"
    },
    {
      "inputs": [],
      "name": "version",
      "outputs": [
        {
          "internalType": "string",
          "name": "",
          "type": "string"
        }
      ],
      "stateMutability": "pure",
      "type": "function"
    },
    {
      "inputs": [],
      "name": "versionRecipient",
      "outputs": [
        {
          "internalType": "string",
          "name": "",
          "type": "string"
        }
      ],
      "stateMutability": "pure",
      "type": "function"
    }
  ],
  "args": [],
  "numDeployments": 7,
  "solcInputHash": "2fe98e12c0031ec2a7dec3df9237bffc",
  "bytecode": "0x60a080604052346100315730608052613f29908161003782396080518181816104a1015281816108d4015261093a0152f35b600080fdfe60806040526004361015610013575b600080fd5b60003560e01c806301ffc9a7146101b7578063248a9ca3146101ae578063249cb3fa146101a55780632f2ff15d1461019c57806336568abe146101935780633659cfe61461018a578063486ff0cd1461018157806348925ec6146101785780634f1ef2861461016f57806352d1902d1461016657806354fd4d501461015d578063572b6c051461015457806377977d501461014b57806391d1485414610142578063938e3d7b14610139578063a217fddf14610130578063aaf10f4214610127578063d27630f91461011e578063d547741f14610115578063df329f2a1461010c5763e8a3d4851461010457600080fd5b61000e611202565b5061000e61117f565b5061000e61113c565b5061000e611056565b5061000e610fbd565b5061000e610fa0565b5061000e610e8d565b5061000e610e27565b5061000e610d1b565b5061000e610a32565b5061000e6109ec565b5061000e610926565b5061000e610879565b5061000e6106b9565b5061000e61063e565b5061000e610479565b5061000e6103d6565b5061000e6102ff565b5061000e610276565b5061000e610228565b503461000e57602036600319011261000e5760043563ffffffff60e01b811680910361000e5760209063054fd4d560e41b81149081156101fd575b506040519015158152f35b6303e8939960e31b811491508115610217575b50386101f2565b633d96f4ff60e11b14905038610210565b503461000e57602036600319011261000e5760043560005260976020526020600160406000200154604051908152f35b6001600160a01b0381160361000e57565b359061027482610258565b565b503461000e57604036600319011261000e5760ff6102c060243561029981610258565b60043560005260fb60205260406000209060018060a01b0316600052602052604060002090565b5460009116156102f7575060207fa2ef4600d742022d532d4747cb3547474667d6f13804902513b2ec01c848f4b45b604051908152f35b6020906102ef565b503461000e5760408060031936011261000e576004359060243561032281610258565b600092808452609760205261033c60018486200154611569565b808452609760209081528385206001600160a01b03841660009081529152604090205460ff161561036c57505051f35b808452609760209081528385206001600160a01b0384166000908152915260409020805460ff191660011790556001600160a01b03806103aa61206e565b169216907f2f8788117e7eff1d82e926ec794901d17c78024a50270940304540a733656f0d858551a451f35b503461000e57604036600319011261000e576024356103f481610258565b6001600160a01b038061040561206e565b169082160361041c5761041a90600435611826565b005b60405162461bcd60e51b815260206004820152602f60248201527f416363657373436f6e74726f6c3a2063616e206f6e6c792072656e6f756e636560448201526e103937b632b9903337b91039b2b63360891b6064820152608490fd5b503461000e57602036600319011261000e5760043561049781610258565b6001600160a01b037f0000000000000000000000000000000000000000000000000000000000000000811691906104d0308414156118bc565b6104ed600080516020613eb483398151915293828554161461191d565b6104f56112ed565b6104fd61197e565b906105297f4910fdfa16fed3260ed0e7147f7cc6da11a60208b5b9406d12a635614ffd91435460ff1690565b1561053a57505061041a9150611b7b565b6020600491604094939451928380926352d1902d60e01b825286165afa60009181610595575b506105825760405162461bcd60e51b81528061057e60048201611a69565b0390fd5b61041a936105909114611a0b565b611c0b565b6105b791925060203d81116105be575b6105af81836107ca565b8101906119ef565b9038610560565b503d6105a5565b600091031261000e57565b918091926000905b8282106105f05750116105e9575050565b6000910152565b915080602091830151818601520182916105d8565b9060209161061e815180928185528580860191016105d0565b601f01601f1916010190565b90602061063b928181520190610605565b90565b503461000e57600036600319011261000e5761068560405161065f81610781565b6005815264191719171b60d91b6020820152604051918291602083526020830190610605565b0390f35b9181601f8401121561000e578235916001600160401b03831161000e576020808501948460051b01011161000e57565b503461000e5760e036600319011261000e576004356106d781610258565b6001600160401b039060643582811161000e576106f8903690600401610689565b9060843584811161000e57610711903690600401610689565b9060a43595861161000e5761072d61041a963690600401610689565b94909360c4359660443590602435906131b8565b50634e487b7160e01b600052604160045260246000fd5b61012081019081106001600160401b0382111761077457604052565b61077c610741565b604052565b604081019081106001600160401b0382111761077457604052565b606081019081106001600160401b0382111761077457604052565b6001600160401b03811161077457604052565b90601f801991011681019081106001600160401b0382111761077457604052565b6040519061027482610758565b6040519061012082018281106001600160401b0382111761077457604052565b6020906001600160401b038111610835575b601f01601f19160190565b61083d610741565b61082a565b92919261084e82610818565b9161085c60405193846107ca565b82948184528183011161000e578281602093846000960137010152565b50604036600319011261000e5760043561089281610258565b602435906001600160401b03821161000e573660238301121561000e576108c661041a923690602481600401359101610842565b906109196001600160a01b037f0000000000000000000000000000000000000000000000000000000000000000811690610902308314156118bc565b600080516020613eb483398151915254161461191d565b6109216112ed565b611ab8565b503461000e57600036600319011261000e577f00000000000000000000000000000000000000000000000000000000000000006001600160a01b0316300361098157604051600080516020613eb48339815191528152602090f35b60405162461bcd60e51b815260206004820152603860248201527f555550535570677261646561626c653a206d757374206e6f742062652063616c60448201527f6c6564207468726f7567682064656c656761746563616c6c00000000000000006064820152608490fd5b503461000e57600036600319011261000e57610685604051610a0d81610781565b600481526376302e3160e01b6020820152604051918291602083526020830190610605565b503461000e57602036600319011261000e57602060ff610a9b600435610a5781610258565b7f7a05a596cb0ce7fdea8a1e1ec73be300bdb35097c944ce1897202f7a13122eb26000526097845260406000209060018060a01b0316600052602052604060002090565b54166040519015158152f35b90815180825260208080930193019160005b828110610ac7575050505090565b9091929382604082610aee60019489516020809160018060a01b0381511684520151910152565b01950193929101610ab9565b90815180825260208080930193019160005b828110610b1a575050505090565b835185529381019392810192600101610b0c565b906040602061063b9360018060a01b0381511684520151918160208201520190610afa565b908082519081815260208091019281808460051b8301019501936000915b848310610b815750505050505090565b9091929394958480610b9f600193601f198682030187528a51610b2e565b9801930193019194939290610b71565b61063b9160018060a01b0382511681526040610bda6020840151606060208501526060840190610afa565b920151906040818403910152610afa565b90815180825260208092019182818360051b82019501936000915b848310610c165750505050505090565b9091929394958480610c3083856001950387528a51610baf565b9801930193019194939290610c06565b602080825282516001600160a01b03169082015261063b9190602082015190610c7761012092836040840152610140830190610aa7565b91610cf0610cdc610cc8610cb4610ca0604089015197601f1998898983030160608a0152610aa7565b606089015188888303016080890152610b53565b6080880151878783030160a0880152610b53565b60a0870151868683030160c0870152610b53565b60c0860151858583030160e0860152610afa565b610d0b60e08601519161010092868683030184870152610beb565b9401519282850301910152610beb565b503461000e57602036600319011261000e57610685604051610d3c81610758565b6000815260609081602082015281604082015281808201528160808201528160a08201528160c08201528160e08201528161010080920152610e176008610d84600435612f1a565b50610d8d6107eb565b81546001600160a01b0316815294610da760018301612f63565b6020870152610db860028301612f63565b6040870152610dc960038301613026565b90860152610dd960048201613026565b6080860152610dea60058201613026565b60a0860152610dfb60068201612fd7565b60c0860152610e0c600782016130a1565b60e0860152016130a1565b9082015260405191829182610c40565b503461000e57604036600319011261000e57602060ff610a9b602435610e4c81610258565b6004356000526097845260406000209060018060a01b0316600052602052604060002090565b9080601f8301121561000e5781602061063b93359101610842565b503461000e5760208060031936011261000e576001600160401b039060043582811161000e57610ec1903690600401610e72565b91610eca61146d565b8251908111610f93575b600080516020613ed483398151915291610ef782610ef28554611f79565b612000565b80601f8311600114610f305750819293600092610f25575b50508160011b916000199060031b1c1916179055005b015190503880610f0f565b90601f19831694610f3f611fb3565b926000905b878210610f7b575050836001959610610f62575b505050811b019055005b015160001960f88460031b161c19169055388080610f58565b80600185968294968601518155019501930190610f44565b610f9b610741565b610ed4565b503461000e57600036600319011261000e57602060405160008152f35b503461000e57600036600319011261000e57600080516020613eb4833981519152546040516001600160a01b039091168152602090f35b90608060031983011261000e5760043561100d81610258565b916001600160401b039160243583811161000e578261102e91600401610e72565b9260443561103b81610258565b9260643591821161000e5761105291600401610689565b9091565b503461000e576110b061106836610ff4565b926000959495929192549561109460ff8860081c16158098819961112e575b811561110e575b506120c6565b866110a7600160ff196000541617600055565b6110f5576123cf565b6110b657005b6110c661ff001960005416600055565b604051600181527f7f26b83ff96e1f2b6a682f133852f6798a09c465da95921460cefb384740249890602090a1005b61110961010061ff00196000541617600055565b6123cf565b303b15915081611120575b503861108e565b6001915060ff161438611119565b600160ff8216109150611087565b503461000e57604036600319011261000e5761041a60243560043561116082610258565b80600052609760205261117a600160406000200154611569565b611826565b503461000e5761118e36610ff4565b9260ff60009392935460081c16156111a95761041a946123cf565b60405162461bcd60e51b815260206004820152602b60248201527f496e697469616c697a61626c653a20636f6e7472616374206973206e6f74206960448201526a6e697469616c697a696e6760a81b6064820152608490fd5b503461000e576000806003193601126112ea576040519080600080516020613ed48339815191529081549061123682611f79565b808652926001928084169081156112c6575060011461126c575b61068586611260818803826107ca565b6040519182918261062a565b815292507feea97fdf38e36104b6e79f51a620e17443f803bd4254b3af64efdf6a8301c6975b8284106112ae5750505081016020016112608261068538611250565b80546020858701810191909152909301928101611292565b60ff1916602088015250506040850193506112609250849150610685905038611250565b80fd5b6112f561206e565b6001600160a01b03811660009081527f683723e34a772b6e4f2c919bba7fa32ed8ea11a8325f54da7db716e9d9dd98c7602052604090205460ff16156113385750565b61134a906001600160a01b0316611efa565b60006113546119b6565b90603061136083611e4e565b53607861136c83611e64565b5360415b6001811161141e5761057e6037611406866113f88761138f8815611eaf565b6113f26040519586947f416363657373436f6e74726f6c3a206163636f756e742000000000000000000060208701526113d1815180926020858a0191016105d0565b8501016011907001034b99036b4b9b9b4b733903937b6329607d1b81520190565b9061162d565b03601f1981018352826107ca565b60405162461bcd60e51b81529182916004830161062a565b9080600f61145b92166010811015611460575b6f181899199a1a9b1b9c1cb0b131b232b360811b901a6114518486611e75565b5360041c91611e94565b611370565b611468611e37565b611431565b61147561206e565b6001600160a01b03811660009081527f62e46077c3875a2051fa0dcdd1c4cd18bfdd60fe03018733710dc9e484f089a360205260409020547f0ab9ec9ba2423318b97c58cb919c22b4da14401c539342f710b4932382bc2c15919060ff16156114dc575050565b6114ee906001600160a01b0316611efa565b906114f76119b6565b90603061150383611e4e565b53607861150f83611e64565b5360415b600181116115325761057e6037611406866113f88761138f8815611eaf565b9080600f61156492166010811015611460576f181899199a1a9b1b9c1cb0b131b232b360811b901a6114518486611e75565b611513565b61157161206e565b60008281526097602090815260408083206001600160a01b038516845290915290205460ff16156115a0575050565b6115b2906001600160a01b0316611efa565b906115bb6119b6565b9060306115c783611e4e565b5360786115d383611e64565b5360415b600181116115f65761057e6037611406866113f88761138f8815611eaf565b9080600f61162892166010811015611460576f181899199a1a9b1b9c1cb0b131b232b360811b901a6114518486611e75565b6115d7565b90611640602092828151948592016105d0565b0190565b6001600160a01b03811660009081527f62e46077c3875a2051fa0dcdd1c4cd18bfdd60fe03018733710dc9e484f089a3602052604090207f0ab9ec9ba2423318b97c58cb919c22b4da14401c539342f710b4932382bc2c159060ff905b5416156116ac575050565b60008181526097602090815260408083206001600160a01b03861684529091529020805460ff191660011790556001600160a01b03806116ea61206e565b169216907f2f8788117e7eff1d82e926ec794901d17c78024a50270940304540a733656f0d6000604051a4565b6001600160a01b03811660009081527f683723e34a772b6e4f2c919bba7fa32ed8ea11a8325f54da7db716e9d9dd98c7602052604081205460ff161561175b575050565b8080526097602090815260408083206001600160a01b038516600090815292529020805460ff191660011790556001600160a01b038061179961206e565b169216907f2f8788117e7eff1d82e926ec794901d17c78024a50270940304540a733656f0d81604051a4565b6001600160a01b03811660009081527fae33a31436ab9cea8f54189966a681a9746f10deb641aef438e7df3ef1426c59602052604090207f7a05a596cb0ce7fdea8a1e1ec73be300bdb35097c944ce1897202f7a13122eb29060ff906116a1565b60008181526097602090815260408083206001600160a01b038616845290915290205460ff16611854575050565b60008181526097602090815260408083206001600160a01b03861684529091529020805460ff191690556001600160a01b038061188f61206e565b169216907ff6391f5c32d9c69d2a47ea670b442974b53935d1edc7fd64eb21e047a839171b6000604051a4565b156118c357565b60405162461bcd60e51b815260206004820152602c60248201527f46756e6374696f6e206d7573742062652063616c6c6564207468726f7567682060448201526b19195b1959d85d1958d85b1b60a21b6064820152608490fd5b1561192457565b60405162461bcd60e51b815260206004820152602c60248201527f46756e6374696f6e206d7573742062652063616c6c6564207468726f7567682060448201526b6163746976652070726f787960a01b6064820152608490fd5b60405190600060208301928084106001600160401b038511176119a9575b8360405281815292369037565b6119b1610741565b61199c565b60405190608082018281106001600160401b038211176119e2575b604052604282526060366020840137565b6119ea610741565b6119d1565b9081602091031261000e575190565b506040513d6000823e3d90fd5b15611a1257565b60405162461bcd60e51b815260206004820152602960248201527f45524331393637557067726164653a20756e737570706f727465642070726f786044820152681a58589b195555525160ba1b6064820152608490fd5b60809060208152602e60208201527f45524331393637557067726164653a206e657720696d706c656d656e7461746960408201526d6f6e206973206e6f74205555505360901b60608201520190565b90611ae47f4910fdfa16fed3260ed0e7147f7cc6da11a60208b5b9406d12a635614ffd91435460ff1690565b15611af3575061027490611b7b565b6040516352d1902d60e01b8152916020836004816001600160a01b0385165afa60009381611b5b575b50611b3a5760405162461bcd60e51b81528061057e60048201611a69565b611b56600080516020613eb48339815191526102749414611a0b565b611d23565b611b7491945060203d81116105be576105af81836107ca565b9238611b1c565b803b15611bb057600080516020613eb483398151915280546001600160a01b0319166001600160a01b03909216919091179055565b60405162461bcd60e51b815260206004820152602d60248201527f455243313936373a206e657720696d706c656d656e746174696f6e206973206e60448201526c1bdd08184818dbdb9d1c9858dd609a1b6064820152608490fd5b611c1481611b7b565b6040516001600160a01b0382167fbc7cd75a20ee27fd9adebab32041f755214dbc6bffa90cc0225b39da2e5c2d3b600083a2825115801590611d1b575b611c5a57505050565b813b15611cca575060008281926020611cc795519201905af4611c7b611d79565b60405191611c888361079c565b602783527f416464726573733a206c6f772d6c6576656c2064656c65676174652063616c6c6020840152660819985a5b195960ca1b6040840152611da9565b50565b62461bcd60e51b815260206004820152602660248201527f416464726573733a2064656c65676174652063616c6c20746f206e6f6e2d636f6044820152651b9d1c9858dd60d21b6064820152608490fd5b506000611c51565b611d2c81611b7b565b6040516001600160a01b0382167fbc7cd75a20ee27fd9adebab32041f755214dbc6bffa90cc0225b39da2e5c2d3b600083a2825115801590611d7157611c5a57505050565b506001611c51565b3d15611da4573d90611d8a82610818565b91611d9860405193846107ca565b82523d6000602084013e565b606090565b90919015611db5575090565b815115611dc55750805190602001fd5b60405162461bcd60e51b81526020600482015290819061057e906024830190610605565b50634e487b7160e01b600052601160045260246000fd5b8060001904821181151516611e13570290565b611e1b611de9565b0290565b6001906001198111611e2f570190565b611640611de9565b50634e487b7160e01b600052603260045260246000fd5b602090805115611e5c570190565b611640611e37565b602190805160011015611e5c570190565b906020918051821015611e8757010190565b611e8f611e37565b010190565b8015611ea2575b6000190190565b611eaa611de9565b611e9b565b15611eb657565b606460405162461bcd60e51b815260206004820152602060248201527f537472696e67733a20686578206c656e67746820696e73756666696369656e746044820152fd5b60405190611f078261079c565b602a825260403660208401376030611f1e83611e4e565b536078611f2a83611e64565b536029905b60018211611f425761063b915015611eaf565b80600f611f7392166010811015611460576f181899199a1a9b1b9c1cb0b131b232b360811b901a6114518486611e75565b90611f2f565b90600182811c92168015611fa9575b6020831014611f9357565b634e487b7160e01b600052602260045260246000fd5b91607f1691611f88565b600080516020613ed48339815191526000527feea97fdf38e36104b6e79f51a620e17443f803bd4254b3af64efdf6a8301c69790565b818110611ff4575050565b60008155600101611fe9565b90601f821161200d575050565b61027491600080516020613ed48339815191526000527feea97fdf38e36104b6e79f51a620e17443f803bd4254b3af64efdf6a8301c697906020601f840160051c83019310612064575b601f0160051c0190611fe9565b9091508190612057565b60143610158061208e575b1561208a5736601319013560601c90565b3390565b503360009081527fae33a31436ab9cea8f54189966a681a9746f10deb641aef438e7df3ef1426c59602052604090205460ff16612079565b156120cd57565b60405162461bcd60e51b815260206004820152602e60248201527f496e697469616c697a61626c653a20636f6e747261637420697320616c72656160448201526d191e481a5b9a5d1a585b1a5e995960921b6064820152608490fd5b6020906001600160401b038111612142575b60051b0190565b61214a610741565b61213b565b81601f8201121561000e5780359061216682612129565b92604092612176845195866107ca565b808552602091828087019260061b8501019381851161000e578301915b8483106121a35750505050505090565b858383031261000e5783869182516121ba81610781565b85356121c581610258565b81528286013583820152815201920191612193565b81601f8201121561000e578035916121f183612129565b926121ff60405194856107ca565b808452602092838086019260051b82010192831161000e578301905b828210612229575050505090565b8135815290830190830161221b565b81601f8201121561000e5780359061224f82612129565b9260409261225f845195866107ca565b808552602093848087019260051b8501019383851161000e57858101925b85841061228e575050505050505090565b6001600160401b03843581811161000e5783019184601f19848903011261000e5784516122ba81610781565b898401356122c781610258565b81528584013592831161000e576122e5888b809695819601016121da565b8382015281520193019261227d565b9080601f8301121561000e57813561230b81612129565b9260409161231b835195866107ca565b808552602093848087019260051b8401019381851161000e57858401925b85841061234a575050505050505090565b6001600160401b03843581811161000e57860191606080601f19858803011261000e578451906123798261079c565b8a85013561238681610258565b82528585013584811161000e57878c6123a1928801016121da565b8b83015284013592831161000e576123c0868b809695819601016121da565b85820152815201930192612339565b9493946123db86612129565b936040906123eb825196876107ca565b8786526020978887019060051b82019236841161000e5782915b84831061241c57505050505061027494955061254b565b6001600160401b0390833582811161000e578501906101208236031261000e576124446107f8565b61244d83610269565b81528d83013584811161000e576124688f913690860161214f565b908201528483013584811161000e57612484903690850161214f565b8582015260608084013585811161000e576124a29036908601612238565b9082015260808084013585811161000e576124c09036908601612238565b9082015260a08084013585811161000e576124de9036908601612238565b9082015260c08084013585811161000e576124fc90369086016121da565b9082015260e08084013585811161000e5761251a90369086016122f4565b908201526101008084013594851161000e5761253c8f959486953691016122f4565b90820152815201920191612405565b919061255683611644565b80516001600160401b038111612652575b600080516020613ed48339815191529161258582610ef28554611f79565b60209081601f84116001146125dc575092826125c7936125cc96936102749998966000926125d1575b50508160011b916000199060031b1c19161790556117c5565b61265f565b612d93565b0151905038806125ae565b9190601f1984166125eb611fb3565b936000905b82821061263a575050936125cc969361027499989693600193836125c79810612621575b505050811b0190556117c5565b015160001960f88460031b161c19169055388080612614565b806001869782949787015181550196019401906125f0565b61265a610741565b612567565b61266890611717565b731820a4b7618bde71dce8cdc73aab6c95905fad24803b6126865750565b803b1561000e5760405163a41e7d5160e01b815230600482015263054fd4d560e41b6024820152600090818160448183875af18015612744575b612731575b50813b156112ea576040516329965a1d60e01b8152306004820181905260016354fd4d5160e01b0360248301526044820152918290606490829084905af18015612724575b6127115750565b8061271e610274926107b7565b806105c5565b61272c6119fe565b61270a565b8061271e61273e926107b7565b386126c5565b61274c6119fe565b6126c0565b8054906000908181558261276457505050565b6001906001600160ff1b03841182166127a3575b82526020822092811b8301925b8381106127925750505050565b808360029255838382015501612785565b6127ab611de9565b612778565b805460008255806127bf575050565b61027491600052602060002090810190611fe9565b90600160401b8111612809575b8154908083558181106127f357505050565b6102749260005260206000209182019101611fe9565b612811610741565b6127e1565b80549060008082558261282857505050565b6001916001600160ff1b038411831661286d575b81526020812092821b8301925b8381106128565750505050565b8082600292556128678482016127b0565b01612849565b612875611de9565b61283c565b600160401b8211612907575b80549082815581831061289857505050565b6001916001600160ff1b0380821184166128fa575b841183166128ed575b60009182526020822090831b810193831b015b8381106128d65750505050565b8082600292556128e78482016127b0565b016128c9565b6128f5611de9565b6128b6565b612902611de9565b6128ad565b61290f610741565b612886565b8054906000908181558261292757505050565b6001907f555555555555555555555555555555555555555555555555555555555555555584118216612994575b8252602082209160039384028301925b838110612972575050505050565b80828692556129828482016127b0565b61298e600282016127b0565b01612964565b61299c611de9565b612954565b90600160401b8111612a56575b8154918181558282106129c057505050565b6001907f55555555555555555555555555555555555555555555555555555555555555558085118316612a49575b83118216612a3c575b60009081526020812060039485028101938502015b838110612a1a575050505050565b8082869255612a2a8482016127b0565b612a36600282016127b0565b01612a0c565b612a44611de9565b6129f7565b612a51611de9565b6129ee565b612a5e610741565b6129ae565b815191600160401b8311612b46575b8154838355808410612ada575b50602080910191600052806000206000925b848410612a9f575050505050565b8051805183546001600160a01b0319166001600160a01b03919091161783556001916002918591908201518486015501920193019290612a91565b60016001600160ff1b038083118216612b39575b85118116612b2c575b6000908482526020822092811b83019286821b015b838110612b1b57505050612a7f565b808360029255838382015501612b0c565b612b34611de9565b612af7565b612b41611de9565b612aee565b612b4e610741565b612a72565b815191612b6083836127d4565b602080910191600052806000206000925b848410612b7f575050505050565b60018382829351855501920193019290612b71565b815190612ba1828261287a565b600090815260208082209093829085015b848410612bc157505050505050565b8051805184546001600160a01b0319166001600160a01b039190911617845586908101518051600191868301908490612bfa84846127d4565b019086528386209086905b838210612c2357505050505060029060019201930193019291612bb2565b805183558b95928501929185019101612c05565b90805190612c4582846129a1565b600092835260208084209091849083015b848610612c6557505050505050565b8051805184546001600160a01b0319166001600160a01b039190911617845584906001808601838301519084825192612c9e84846127d4565b019087528487209087905b838210612cd857505050505090600192612ccc6040600394015160028801612b53565b01930195019491612c56565b805183558a96928501929185019101612ca9565b815181546001600160a01b0319166001600160a01b039091161781556102749160089061010090612d24602082015160018601612a63565b612d35604082015160028601612a63565b612d46606082015160038601612b94565b612d57608082015160048601612b94565b612d6860a082015160058601612b94565b612d7960c082015160068601612b53565b612d8a60e082015160078601612c37565b01519101612c37565b805190600160401b8211612f0d575b61012e8054838255808410612e10575b505061012e6000526020908101907fbdaadd9f750d0166045bf387a364eadd28ba243e04512a47282aa5147a68e37f6000925b848410612df3575050505050565b60098382612e046001945186612cec565b01920193019290612de5565b60017f1c71c71c71c71c71c71c71c71c71c71c71c71c71c71c71c71c71c71c71c71c718083118216612f00575b85118116612ef3575b60009283526009927fbdaadd9f750d0166045bf387a364eadd28ba243e04512a47282aa5147a68e37f928402830192868502015b838110612e8957505050612db2565b8082869255612e99848201612751565b612ea560028201612751565b612eb160038201612816565b612ebd60048201612816565b612ec960058201612816565b612ed5600682016127b0565b612ee160078201612914565b612eed60088201612914565b01612e7a565b612efb611de9565b612e46565b612f08611de9565b612e3d565b612f15610741565b612da2565b60099061012e8054821015612f56575b600052027fbdaadd9f750d0166045bf387a364eadd28ba243e04512a47282aa5147a68e37f0190600090565b612f5e611e37565b612f2a565b908154612f6f81612129565b92604093612f7f855191826107ca565b828152809460208092019260005281600020906000935b858510612fa557505050505050565b6002846001928451612fb681610781565b848060a01b0387541681528487015483820152815201930194019391612f96565b9060405191828154918282526020928383019160005283600020936000905b82821061300c57505050610274925003836107ca565b855484526001958601958895509381019390910190612ff6565b90815461303281612129565b92604093613042855191826107ca565b828152809460208092019260005281600020906000935b85851061306857505050505050565b600284600192845161307981610781565b848060a01b03875416815261308f858801612fd7565b83820152815201930194019391613059565b9081546130ad81612129565b926040936130bd855191826107ca565b828152809460208092019260005281600020906000935b8585106130e357505050505050565b6003846001928451606081018181106001600160401b0382111761313c575b8652848060a01b03875416815261311a858801612fd7565b8382015261312a60028801612fd7565b868201528152019301940193916130d4565b613144610741565b613102565b9291909261315684612129565b9161316460405193846107ca565b829480845260208094019060051b83019282841161000e5780915b84831061318e57505050505050565b82356001600160401b03811161000e5786916131ad86849386016121da565b81520192019161317f565b93909497999896929195996131cb61206e565b809b876131d78a612f1a565b509660009c8d9b8c5260209761012d89526040809d209736906131f992613149565b93369061320592613149565b94369061321192613149565b958c60019182808b0161322390612f63565b9280915b61335b575b50505050509261329983613281816132cb989561326f8c6132ab99819d9b6133029f600261326361326a925460018060a01b031690565b9401612f63565b613ab7565b8d61327c60038d01613026565b61364c565b6132946005890191848d61327c85613026565b613026565b6132a560068801612fd7565b906134e8565b82548b906001600160a01b031691876132c660048701613026565b613c97565b6132e189856132dc600785016130a1565b6138dd565b80546001600160a01b031690899085906132fd906008016130a1565b613dd8565b6001600160a01b031691823b15613357575163a16f3c0d60e01b81526001600160a01b03969096166004870152602486015260448501919091529192918290606490829084905af18015612724576127115750565b8480fd5b9092948597929496975184101561348857508d8461339c613390613390613382888b6134a4565b51516001600160a01b031690565b6001600160a01b031690565b91516370a0823160e01b81526001600160a01b03949094166004808601919091529391829060249082905afa91821561347b575b9161345e575b506133ee8d856133e686896134a4565b510151611e00565b908181106134105750505061340290613494565b918f9493918b938f84613227565b8e945061342161057e9394876134a4565b51945163251a663760e21b815285516001600160a01b03169481019485526020958601519585019590955260408401526060830152829160800190565b6134759150843d86116105be576105af81836107ca565b386133d6565b6134836119fe565b6133d0565b9450819695508061322c565b6001906000198114611e2f570190565b60209181518110156134b9575b60051b010190565b6134c1611e37565b6134b1565b6134de60409295949395606083526060830190610b2e565b9460208201520152565b919093600080915b84518310156135ff57815b61350584866134a4565b51518110156135ee5761355e61353b613521613382878a6134a4565b6001600160a01b0316600090815260208a90526040902090565b61354f83613549888a6134a4565b516134a4565b51600052602052604060002090565b54613569858a6134a4565b51808210156135c65750906135806135c192611e1f565b6135bb6135ad613593613382898c6134a4565b6001600160a01b0316600090815260208c90526040902090565b61354f846135498a8c6134a4565b55613494565b6134fb565b61057e6135d3878a6134a4565b516040516329fa40fb60e11b815293849391600485016134c6565b50916135f990613494565b916134f0565b95505050505050565b9081602091031261000e575161063b81610258565b91613635604092959495606085526060850190610b2e565b6001600160a01b0391821660208501529416910152565b939192906000925b85518410156137ac578161366885876134a4565b5151036137765760005b61367c85876134a4565b515181101561376557613698613390613390613382888b6134a4565b6136a682613549888a6134a4565b51604080516331a9108f60e11b81526004808201939093529092602091908290829060249082905afa918215613758575b60009261372b575b50506001600160a01b03878116908216036137055750505061370090613494565b613672565b8661057e916137148a8d6134a4565b519451639965936160e01b8152948594850161361d565b61374a9250803d10613751575b61374281836107ca565b810190613608565b38806136df565b503d613738565b6137606119fe565b6136d7565b509261377090613494565b92613654565b508361057e61379085613789818a6134a4565b51936134a4565b515192604051938493639096f90560e01b8552600485016134c6565b945050505050565b906137be82612129565b6137cb60405191826107ca565b82815280926137dc601f1991612129565b0190602036910137565b602090818184031261000e578051906001600160401b03821161000e57019180601f8401121561000e57825161381b81612129565b9361382960405195866107ca565b818552838086019260051b82010192831161000e578301905b828210613850575050505090565b81518152908301908301613842565b9092916040820191604081528451809352606081019260208096019060005b8181106138985750505061063b9394818403910152610afa565b82516001600160a01b03168652948701949187019160010161387e565b90926138ce606093969594608084526080840190610baf565b95602083015260408201520152565b9192906000905b8351821015613ab0576020613906816138fd85886134a4565b510151516137b4565b92613915826138fd83896134a4565b9460005b83613924848a6134a4565b5101515181101561398657806139548661394e6139819488613946898f6134a4565b5101516134a4565b51611e00565b61395e82896134a4565b5261397c8a61396d838b6134a4565b6001600160a01b039091169052565b613494565b613919565b50939290966139d492506139a36133906133906133828b8b6134a4565b946000604096876139b48c8c6134a4565b51015190885180809881946313849cfd60e21b835260049d8e840161385f565b03915afa938415613aa3575b600094613a80575b5060005b8451811015613a68576139ff81866134a4565b51613a0a82886134a4565b5111613a1e57613a1990613494565b6139ec565b613a5193508092506137899150613a4a81886139468d613a438e9f61057e9e9f6134a4565b519e6134a4565b51946134a4565b519251636d04a90160e01b815295869586016138b5565b5095509691509250613a7a9150613494565b906138e4565b613a9c91943d8091833e613a9481836107ca565b8101906137e6565b92386139e8565b613aab6119fe565b6139e0565b5050915050565b9091939293600092835b8351811015613bcb57613ba69080613b95898880898982613aff8b6001600160a01b03613aee8b876134a4565b515116946133e660209b8c926134a4565b604080516323b872dd60e01b8b82019081526001600160a01b039586166024830152989094166044850152606480850192909252908352919591613b446084886107ca565b5195613b4f87610781565b8887527f5361666545524332303a206c6f772d6c6576656c2063616c6c206661696c656489880152613b83843b1515613c4b565b51925af1613b8f611d79565b90611da9565b80519081613bab575b505050613494565b613ac1565b82613bc393613bbe938301019101613bd4565b613bec565b388080613b9e565b50505050509050565b9081602091031261000e5751801515810361000e5790565b15613bf357565b60405162461bcd60e51b815260206004820152602a60248201527f5361666545524332303a204552433230206f7065726174696f6e20646964206e6044820152691bdd081cdd58d8d9595960b21b6064820152608490fd5b15613c5257565b60405162461bcd60e51b815260206004820152601d60248201527f416464726573733a2063616c6c20746f206e6f6e2d636f6e74726163740000006044820152606490fd5b9493919492909260005b8151811015613bcb5784613cb582896134a4565b515103613d775760005b858110613cd55750613cd090613494565b613ca1565b613ce861339061339061338285876134a4565b90613cf781613549858c6134a4565b51823b1561000e57604051632142170760e11b81526001600160a01b038088166004830152881660248201526044810191909152613d52926000908290818381606481015b03925af18015613d6a575b613d57575b50613494565b613cbf565b8061271e613d64926107b7565b38613d4c565b613d726119fe565b613d47565b61057e613790826137898a9489966134a4565b939061063b9593613dbc91613dca9460018060a01b03809216885216602087015260a0604087015260a0860190610afa565b908482036060860152610afa565b916080818403910152610605565b939190936000905b8051821015613eab57602092613dfa846138fd85856134a4565b9460005b85613e0986866134a4565b51015151811015613e405780613e2b8a61394e613e3b948a6139468b8b6134a4565b613e35828a6134a4565b52613494565b613dfe565b50929094919350613e5a61339061339061338284886134a4565b91604080613e6884886134a4565b510151613e7361197e565b94803b1561000e578960008a613d3c613ea39983975198899788968795631759616b60e11b875260048701613d8a565b909291613de0565b50505091505056fe360894a13ba1a3210667c828492db98dca3e2076cc3735a920a3ca505d382bbc59c86eba0f8c3c9659b86fb2776edca2ff990d1509243e9705ae43a6831558c6a2646970667358221220c7a299f15c20d7e42197eb7b13449d729b1772b5dfe7b2c827d0b4a507a2875664736f6c634300080e0033",
  "devdoc": {
    "details": "Abstract contract with types and utilities that will be used by many (if not all) Plugins contracts",
    "kind": "dev",
    "methods": {
      "canImplementInterfaceForAddress(bytes32,address)": {
        "details": "See {IERC1820Implementer-canImplementInterfaceForAddress}."
      },
      "contractURI()": {
        "details": "Returns collection-wide URI-accessible metadata"
      },
      "getBasket(uint256)": {
        "details": "Returns all inputs",
        "params": {
          "basketIdx": "Index of selected input basket"
        }
      },
      "getImplementation()": {
        "details": "Returns the implementation address."
      },
      "getRoleAdmin(bytes32)": {
        "details": "Returns the admin role that controls `role`. See {grantRole} and {revokeRole}. To change a role's admin, use {_setRoleAdmin}."
      },
      "grantRole(bytes32,address)": {
        "details": "Grants `role` to `account`. If `account` had not been already granted `role`, emits a {RoleGranted} event. Requirements: - the caller must have ``role``'s admin role. May emit a {RoleGranted} event."
      },
      "hasRole(bytes32,address)": {
        "details": "Returns `true` if `account` has been granted `role`."
      },
      "initialize(address,string,address,(address,(address,uint256)[],(address,uint256)[],(address,uint256[])[],(address,uint256[])[],(address,uint256[])[],uint256[],(address,uint256[],uint256[])[],(address,uint256[],uint256[])[])[])": {
        "details": "Initializes contract (replaces constructor in proxy pattern)",
        "params": {
          "_admin": "owner, can control outputs on contract",
          "_gsnForwarder": "trusted forwarder address for openGSN",
          "_initContractURI": "contract uri",
          "_inputBaskets": "input baskets"
        }
      },
      "input(address,uint256,uint256,uint256[][],uint256[][],uint256[][],uint256)": {
        "details": "Used to trigger a routed call. Amount parameter enables down-level iteration that consumes N inputs.",
        "params": {
          "amount": "Down-level iteration parameter",
          "basketIdx": "Index of selected input basket",
          "erc721TokenIdsBurned": "2D-Array of tokenIds to burn",
          "erc721TokenIdsNTime": "2D-Array of tokenIds to use",
          "erc721TokenIdsUnaffected": "2D-Array of tokenIds that serve as unlimited token-gating",
          "outBasketIdx": "Index of selected output basket ```",
          "target": "Target Address"
        }
      },
      "isTrustedForwarder(address)": {
        "details": "Determine is an address a GSN trusted forwarder.",
        "params": {
          "forwarder": "address to query"
        },
        "returns": {
          "_0": "OpenGSN trusted forwarder status"
        }
      },
      "proxiableUUID()": {
        "details": "Implementation of the ERC1822 {proxiableUUID} function. This returns the storage slot used by the implementation. It is used to validate that the this implementation remains valid after an upgrade. IMPORTANT: A proxy pointing at a proxiable contract should not be considered proxiable itself, because this risks bricking a proxy that upgrades to it, by delegating to itself until out of gas. Thus it is critical that this function revert if invoked through a proxy. This is guaranteed by the `notDelegated` modifier."
      },
      "proxyInitialize(address,string,address,(address,(address,uint256)[],(address,uint256)[],(address,uint256[])[],(address,uint256[])[],(address,uint256[])[],uint256[],(address,uint256[],uint256[])[],(address,uint256[],uint256[])[])[])": {
        "details": "See initialize. Uses onlyInitializing modifier, enabling running while initializing."
      },
      "renounceRole(bytes32,address)": {
        "details": "Revokes `role` from the calling account. Roles are often managed via {grantRole} and {revokeRole}: this function's purpose is to provide a mechanism for accounts to lose their privileges if they are compromised (such as when a trusted device is misplaced). If the calling account had been revoked `role`, emits a {RoleRevoked} event. Requirements: - the caller must be `account`. May emit a {RoleRevoked} event."
      },
      "revokeRole(bytes32,address)": {
        "details": "Revokes `role` from `account`. If `account` had been granted `role`, emits a {RoleRevoked} event. Requirements: - the caller must have ``role``'s admin role. May emit a {RoleRevoked} event."
      },
      "setContractURI(string)": {
        "details": "Set contract uri"
      },
      "supportsInterface(bytes4)": {
        "details": "ERC165 Support",
        "params": {
          "interfaceId": "XOR of the external functions of the interface"
        },
        "returns": {
          "_0": "bool whether interface is supported"
        }
      },
      "upgradeTo(address)": {
        "details": "Upgrade the implementation of the proxy to `newImplementation`. Calls {_authorizeUpgrade}. Emits an {Upgraded} event."
      },
      "upgradeToAndCall(address,bytes)": {
        "details": "Upgrade the implementation of the proxy to `newImplementation`, and subsequently execute the function call encoded in `data`. Calls {_authorizeUpgrade}. Emits an {Upgraded} event."
      },
      "version()": {
        "details": "OwlProtocol contract version. Used to determine compatibility interoperable with other Owl contracts."
      },
      "versionRecipient()": {
        "details": "Returns OpenGSN contract version (used for compatibility checks)"
      }
    },
    "version": 1
  },
  "storageLayout": {
    "storage": [
      {
        "astId": 1451,
        "contract": "contracts/plugins/AssetRouter/AssetRouterInput.sol:AssetRouterInput",
        "label": "_initialized",
        "offset": 0,
        "slot": "0",
        "type": "t_uint8"
      },
      {
        "astId": 1454,
        "contract": "contracts/plugins/AssetRouter/AssetRouterInput.sol:AssetRouterInput",
        "label": "_initializing",
        "offset": 1,
        "slot": "0",
        "type": "t_bool"
      },
      {
        "astId": 1433,
        "contract": "contracts/plugins/AssetRouter/AssetRouterInput.sol:AssetRouterInput",
        "label": "__gap",
        "offset": 0,
        "slot": "1",
        "type": "t_array(t_uint256)50_storage"
      },
      {
        "astId": 7523,
        "contract": "contracts/plugins/AssetRouter/AssetRouterInput.sol:AssetRouterInput",
        "label": "__gap",
        "offset": 0,
        "slot": "51",
        "type": "t_array(t_uint256)50_storage"
      },
      {
        "astId": 8038,
        "contract": "contracts/plugins/AssetRouter/AssetRouterInput.sol:AssetRouterInput",
        "label": "__gap",
        "offset": 0,
        "slot": "101",
        "type": "t_array(t_uint256)50_storage"
      },
      {
        "astId": 426,
        "contract": "contracts/plugins/AssetRouter/AssetRouterInput.sol:AssetRouterInput",
        "label": "_roles",
        "offset": 0,
        "slot": "151",
        "type": "t_mapping(t_bytes32,t_struct(RoleData)421_storage)"
      },
      {
        "astId": 725,
        "contract": "contracts/plugins/AssetRouter/AssetRouterInput.sol:AssetRouterInput",
        "label": "__gap",
        "offset": 0,
        "slot": "152",
        "type": "t_array(t_uint256)49_storage"
      },
      {
        "astId": 1730,
        "contract": "contracts/plugins/AssetRouter/AssetRouterInput.sol:AssetRouterInput",
        "label": "__gap",
        "offset": 0,
        "slot": "201",
        "type": "t_array(t_uint256)50_storage"
      },
      {
        "astId": 8071,
        "contract": "contracts/plugins/AssetRouter/AssetRouterInput.sol:AssetRouterInput",
        "label": "_supportedInterfaces",
        "offset": 0,
        "slot": "251",
        "type": "t_mapping(t_bytes32,t_mapping(t_address,t_bool))"
      },
      {
        "astId": 8117,
        "contract": "contracts/plugins/AssetRouter/AssetRouterInput.sol:AssetRouterInput",
        "label": "__gap",
        "offset": 0,
        "slot": "252",
        "type": "t_array(t_uint256)49_storage"
      },
      {
        "astId": 13116,
        "contract": "contracts/plugins/AssetRouter/AssetRouterInput.sol:AssetRouterInput",
        "label": "erc721NTime",
        "offset": 0,
        "slot": "301",
        "type": "t_mapping(t_uint256,t_mapping(t_address,t_mapping(t_uint256,t_uint256)))"
      },
      {
        "astId": 13120,
        "contract": "contracts/plugins/AssetRouter/AssetRouterInput.sol:AssetRouterInput",
        "label": "inputBaskets",
        "offset": 0,
        "slot": "302",
        "type": "t_array(t_struct(AssetBasketInput)13676_storage)dyn_storage"
      },
      {
        "astId": 13124,
        "contract": "contracts/plugins/AssetRouter/AssetRouterInput.sol:AssetRouterInput",
        "label": "__gap",
        "offset": 0,
        "slot": "303",
        "type": "t_array(t_uint256)48_storage"
      }
    ],
    "types": {
      "t_address": {
        "encoding": "inplace",
        "label": "address",
        "numberOfBytes": "20"
      },
      "t_array(t_struct(AssetBasketInput)13676_storage)dyn_storage": {
        "base": "t_struct(AssetBasketInput)13676_storage",
        "encoding": "dynamic_array",
        "label": "struct AssetBasketInput[]",
        "numberOfBytes": "32"
      },
      "t_array(t_struct(AssetERC1155)13629_storage)dyn_storage": {
        "base": "t_struct(AssetERC1155)13629_storage",
        "encoding": "dynamic_array",
        "label": "struct AssetERC1155[]",
        "numberOfBytes": "32"
      },
      "t_array(t_struct(AssetERC20)13614_storage)dyn_storage": {
        "base": "t_struct(AssetERC20)13614_storage",
        "encoding": "dynamic_array",
        "label": "struct AssetERC20[]",
        "numberOfBytes": "32"
      },
      "t_array(t_struct(AssetERC721)13620_storage)dyn_storage": {
        "base": "t_struct(AssetERC721)13620_storage",
        "encoding": "dynamic_array",
        "label": "struct AssetERC721[]",
        "numberOfBytes": "32"
      },
      "t_array(t_uint256)48_storage": {
        "base": "t_uint256",
        "encoding": "inplace",
        "label": "uint256[48]",
        "numberOfBytes": "1536"
      },
      "t_array(t_uint256)49_storage": {
        "base": "t_uint256",
        "encoding": "inplace",
        "label": "uint256[49]",
        "numberOfBytes": "1568"
      },
      "t_array(t_uint256)50_storage": {
        "base": "t_uint256",
        "encoding": "inplace",
        "label": "uint256[50]",
        "numberOfBytes": "1600"
      },
      "t_array(t_uint256)dyn_storage": {
        "base": "t_uint256",
        "encoding": "dynamic_array",
        "label": "uint256[]",
        "numberOfBytes": "32"
      },
      "t_bool": {
        "encoding": "inplace",
        "label": "bool",
        "numberOfBytes": "1"
      },
      "t_bytes32": {
        "encoding": "inplace",
        "label": "bytes32",
        "numberOfBytes": "32"
      },
      "t_mapping(t_address,t_bool)": {
        "encoding": "mapping",
        "key": "t_address",
        "label": "mapping(address => bool)",
        "numberOfBytes": "32",
        "value": "t_bool"
      },
      "t_mapping(t_address,t_mapping(t_uint256,t_uint256))": {
        "encoding": "mapping",
        "key": "t_address",
        "label": "mapping(address => mapping(uint256 => uint256))",
        "numberOfBytes": "32",
        "value": "t_mapping(t_uint256,t_uint256)"
      },
      "t_mapping(t_bytes32,t_mapping(t_address,t_bool))": {
        "encoding": "mapping",
        "key": "t_bytes32",
        "label": "mapping(bytes32 => mapping(address => bool))",
        "numberOfBytes": "32",
        "value": "t_mapping(t_address,t_bool)"
      },
      "t_mapping(t_bytes32,t_struct(RoleData)421_storage)": {
        "encoding": "mapping",
        "key": "t_bytes32",
        "label": "mapping(bytes32 => struct AccessControlUpgradeable.RoleData)",
        "numberOfBytes": "32",
        "value": "t_struct(RoleData)421_storage"
      },
      "t_mapping(t_uint256,t_mapping(t_address,t_mapping(t_uint256,t_uint256)))": {
        "encoding": "mapping",
        "key": "t_uint256",
        "label": "mapping(uint256 => mapping(address => mapping(uint256 => uint256)))",
        "numberOfBytes": "32",
        "value": "t_mapping(t_address,t_mapping(t_uint256,t_uint256))"
      },
      "t_mapping(t_uint256,t_uint256)": {
        "encoding": "mapping",
        "key": "t_uint256",
        "label": "mapping(uint256 => uint256)",
        "numberOfBytes": "32",
        "value": "t_uint256"
      },
      "t_struct(AssetBasketInput)13676_storage": {
        "encoding": "inplace",
        "label": "struct AssetBasketInput",
        "members": [
          {
            "astId": 13644,
            "contract": "contracts/plugins/AssetRouter/AssetRouterInput.sol:AssetRouterInput",
            "label": "burnAddress",
            "offset": 0,
            "slot": "0",
            "type": "t_address"
          },
          {
            "astId": 13648,
            "contract": "contracts/plugins/AssetRouter/AssetRouterInput.sol:AssetRouterInput",
            "label": "erc20Unaffected",
            "offset": 0,
            "slot": "1",
            "type": "t_array(t_struct(AssetERC20)13614_storage)dyn_storage"
          },
          {
            "astId": 13652,
            "contract": "contracts/plugins/AssetRouter/AssetRouterInput.sol:AssetRouterInput",
            "label": "erc20Burned",
            "offset": 0,
            "slot": "2",
            "type": "t_array(t_struct(AssetERC20)13614_storage)dyn_storage"
          },
          {
            "astId": 13656,
            "contract": "contracts/plugins/AssetRouter/AssetRouterInput.sol:AssetRouterInput",
            "label": "erc721Unaffected",
            "offset": 0,
            "slot": "3",
            "type": "t_array(t_struct(AssetERC721)13620_storage)dyn_storage"
          },
          {
            "astId": 13660,
            "contract": "contracts/plugins/AssetRouter/AssetRouterInput.sol:AssetRouterInput",
            "label": "erc721Burned",
            "offset": 0,
            "slot": "4",
            "type": "t_array(t_struct(AssetERC721)13620_storage)dyn_storage"
          },
          {
            "astId": 13664,
            "contract": "contracts/plugins/AssetRouter/AssetRouterInput.sol:AssetRouterInput",
            "label": "erc721NTime",
            "offset": 0,
            "slot": "5",
            "type": "t_array(t_struct(AssetERC721)13620_storage)dyn_storage"
          },
          {
            "astId": 13667,
            "contract": "contracts/plugins/AssetRouter/AssetRouterInput.sol:AssetRouterInput",
            "label": "erc721NTimeMax",
            "offset": 0,
            "slot": "6",
            "type": "t_array(t_uint256)dyn_storage"
          },
          {
            "astId": 13671,
            "contract": "contracts/plugins/AssetRouter/AssetRouterInput.sol:AssetRouterInput",
            "label": "erc1155Unaffected",
            "offset": 0,
            "slot": "7",
            "type": "t_array(t_struct(AssetERC1155)13629_storage)dyn_storage"
          },
          {
            "astId": 13675,
            "contract": "contracts/plugins/AssetRouter/AssetRouterInput.sol:AssetRouterInput",
            "label": "erc1155Burned",
            "offset": 0,
            "slot": "8",
            "type": "t_array(t_struct(AssetERC1155)13629_storage)dyn_storage"
          }
        ],
        "numberOfBytes": "288"
      },
      "t_struct(AssetERC1155)13629_storage": {
        "encoding": "inplace",
        "label": "struct AssetERC1155",
        "members": [
          {
            "astId": 13622,
            "contract": "contracts/plugins/AssetRouter/AssetRouterInput.sol:AssetRouterInput",
            "label": "contractAddr",
            "offset": 0,
            "slot": "0",
            "type": "t_address"
          },
          {
            "astId": 13625,
            "contract": "contracts/plugins/AssetRouter/AssetRouterInput.sol:AssetRouterInput",
            "label": "amounts",
            "offset": 0,
            "slot": "1",
            "type": "t_array(t_uint256)dyn_storage"
          },
          {
            "astId": 13628,
            "contract": "contracts/plugins/AssetRouter/AssetRouterInput.sol:AssetRouterInput",
            "label": "tokenIds",
            "offset": 0,
            "slot": "2",
            "type": "t_array(t_uint256)dyn_storage"
          }
        ],
        "numberOfBytes": "96"
      },
      "t_struct(AssetERC20)13614_storage": {
        "encoding": "inplace",
        "label": "struct AssetERC20",
        "members": [
          {
            "astId": 13611,
            "contract": "contracts/plugins/AssetRouter/AssetRouterInput.sol:AssetRouterInput",
            "label": "contractAddr",
            "offset": 0,
            "slot": "0",
            "type": "t_address"
          },
          {
            "astId": 13613,
            "contract": "contracts/plugins/AssetRouter/AssetRouterInput.sol:AssetRouterInput",
            "label": "amount",
            "offset": 0,
            "slot": "1",
            "type": "t_uint256"
          }
        ],
        "numberOfBytes": "64"
      },
      "t_struct(AssetERC721)13620_storage": {
        "encoding": "inplace",
        "label": "struct AssetERC721",
        "members": [
          {
            "astId": 13616,
            "contract": "contracts/plugins/AssetRouter/AssetRouterInput.sol:AssetRouterInput",
            "label": "contractAddr",
            "offset": 0,
            "slot": "0",
            "type": "t_address"
          },
          {
            "astId": 13619,
            "contract": "contracts/plugins/AssetRouter/AssetRouterInput.sol:AssetRouterInput",
            "label": "tokenIds",
            "offset": 0,
            "slot": "1",
            "type": "t_array(t_uint256)dyn_storage"
          }
        ],
        "numberOfBytes": "64"
      },
      "t_struct(RoleData)421_storage": {
        "encoding": "inplace",
        "label": "struct AccessControlUpgradeable.RoleData",
        "members": [
          {
            "astId": 418,
            "contract": "contracts/plugins/AssetRouter/AssetRouterInput.sol:AssetRouterInput",
            "label": "members",
            "offset": 0,
            "slot": "0",
            "type": "t_mapping(t_address,t_bool)"
          },
          {
            "astId": 420,
            "contract": "contracts/plugins/AssetRouter/AssetRouterInput.sol:AssetRouterInput",
            "label": "adminRole",
            "offset": 0,
            "slot": "1",
            "type": "t_bytes32"
          }
        ],
        "numberOfBytes": "64"
      },
      "t_uint256": {
        "encoding": "inplace",
        "label": "uint256",
        "numberOfBytes": "32"
      },
      "t_uint8": {
        "encoding": "inplace",
        "label": "uint8",
        "numberOfBytes": "1"
      }
    }
  }
}