{
  "address": "0x6a5617bDF58b0f56cf710b29acf73Da8Cab2F841",
  "abi": [
    {
      "inputs": [],
      "stateMutability": "nonpayable",
      "type": "constructor"
    },
    {
      "anonymous": false,
      "inputs": [
        {
          "indexed": false,
          "internalType": "address",
          "name": "previousAdmin",
          "type": "address"
        },
        {
          "indexed": false,
          "internalType": "address",
          "name": "newAdmin",
          "type": "address"
        }
      ],
      "name": "AdminChanged",
      "type": "event"
    },
    {
      "anonymous": false,
      "inputs": [
        {
          "indexed": true,
          "internalType": "address",
          "name": "beacon",
          "type": "address"
        }
      ],
      "name": "BeaconUpgraded",
      "type": "event"
    },
    {
      "anonymous": false,
      "inputs": [
        {
          "indexed": false,
          "internalType": "uint8",
          "name": "version",
          "type": "uint8"
        }
      ],
      "name": "Initialized",
      "type": "event"
    },
    {
      "anonymous": false,
      "inputs": [
        {
          "indexed": true,
          "internalType": "address",
          "name": "previousOwner",
          "type": "address"
        },
        {
          "indexed": true,
          "internalType": "address",
          "name": "newOwner",
          "type": "address"
        }
      ],
      "name": "OwnershipTransferred",
      "type": "event"
    },
    {
      "anonymous": false,
      "inputs": [
        {
          "indexed": true,
          "internalType": "address",
          "name": "implementation",
          "type": "address"
        }
      ],
      "name": "Upgraded",
      "type": "event"
    },
    {
      "stateMutability": "payable",
      "type": "fallback"
    },
    {
      "inputs": [],
      "name": "beacon",
      "outputs": [
        {
          "internalType": "address",
          "name": "",
          "type": "address"
        }
      ],
      "stateMutability": "view",
      "type": "function"
    },
    {
      "inputs": [
        {
          "internalType": "address",
          "name": "_admin",
          "type": "address"
        },
        {
          "internalType": "address",
          "name": "_beaconAddress",
          "type": "address"
        },
        {
          "internalType": "bytes",
          "name": "data",
          "type": "bytes"
        }
      ],
      "name": "initialize",
      "outputs": [],
      "stateMutability": "nonpayable",
      "type": "function"
    },
    {
      "inputs": [],
      "name": "owner",
      "outputs": [
        {
          "internalType": "address",
          "name": "",
          "type": "address"
        }
      ],
      "stateMutability": "view",
      "type": "function"
    },
    {
      "inputs": [],
      "name": "renounceOwnership",
      "outputs": [],
      "stateMutability": "nonpayable",
      "type": "function"
    },
    {
      "inputs": [
        {
          "internalType": "address",
          "name": "_beaconAddress",
          "type": "address"
        },
        {
          "internalType": "bytes",
          "name": "data",
          "type": "bytes"
        }
      ],
      "name": "setBeacon",
      "outputs": [],
      "stateMutability": "nonpayable",
      "type": "function"
    },
    {
      "inputs": [
        {
          "internalType": "address",
          "name": "newOwner",
          "type": "address"
        }
      ],
      "name": "transferOwnership",
      "outputs": [],
      "stateMutability": "nonpayable",
      "type": "function"
    }
  ],
  "args": [],
  "numDeployments": 7,
  "solcInputHash": "2fe98e12c0031ec2a7dec3df9237bffc",
  "bytecode": "0x6080806040523461001657610b51908161001c8239f35b600080fdfe60806040526004361015610018575b610016610a78565b005b6000803560e01c908163099af0e9146100935750806359659e901461008a578063715018a6146100815780638da5cb5b14610078578063cf7a1d771461006f5763f2fde38b0361000e5761006a6103ad565b61000e565b5061006a610291565b5061006a610267565b5061006a610205565b5061006a6101bc565b346100eb5760403660031901126100eb576004356100b0816100ee565b6024359067ffffffffffffffff82116100e7576100d46100e2923690600401610175565b906100dd61043f565b6107b6565b604051f35b8280fd5b80fd5b6001600160a01b038116036100ff57565b600080fd5b50634e487b7160e01b600052604160045260246000fd5b90601f8019910116810190811067ffffffffffffffff82111761013d57604052565b610145610104565b604052565b60209067ffffffffffffffff8111610168575b601f01601f19160190565b610170610104565b61015d565b81601f820112156100ff5780359061018c8261014a565b9261019a604051948561011b565b828452602083830101116100ff57816000926020809301838601378301015290565b50346100ff5760003660031901126100ff577fa3f0ad74e5423aebfd80d3ef4346578335a9a72aeaee59ff6cb3582b35133d50546040516001600160a01b039091168152602090f35b50346100ff576000806003193601126100eb5761022061043f565b606580546001600160a01b031981169091556040519082906001600160a01b03167f8be0079c531659141344cd1fd0a4f28419497f9722a3daafe3b4186f6b6457e08284a3f35b50346100ff5760003660031901126100ff576065546040516001600160a01b039091168152602090f35b50346100ff5760603660031901126100ff576004356102af816100ee565b6024356102bb816100ee565b6044359067ffffffffffffffff82116100ff576102df610321923690600401610175565b906000549361030560ff8660081c16158096819761039f575b811561037f575b506104e7565b84610318600160ff196000541617600055565b6103665761054a565b61032757005b61033761ff001960005416600055565b604051600181527f7f26b83ff96e1f2b6a682f133852f6798a09c465da95921460cefb384740249890602090a1005b61037a61010061ff00196000541617600055565b61054a565b303b15915081610391575b50386102ff565b6001915060ff16143861038a565b600160ff82161091506102f8565b50346100ff5760203660031901126100ff576004356103cb816100ee565b6103d361043f565b6001600160a01b038116156103eb5761001690610497565b60405162461bcd60e51b815260206004820152602660248201527f4f776e61626c653a206e6577206f776e657220697320746865207a65726f206160448201526564647265737360d01b6064820152608490fd5b6065546001600160a01b0316330361045357565b606460405162461bcd60e51b815260206004820152602060248201527f4f776e61626c653a2063616c6c6572206973206e6f7420746865206f776e65726044820152fd5b6065549060018060a01b0380911691826bffffffffffffffffffffffff60a01b821617606555167f8be0079c531659141344cd1fd0a4f28419497f9722a3daafe3b4186f6b6457e06000604051a3565b156104ee57565b60405162461bcd60e51b815260206004820152602e60248201527f496e697469616c697a61626c653a20636f6e747261637420697320616c72656160448201526d191e481a5b9a5d1a585b1a5e995960921b6064820152608490fd5b90803b156106de576106409260018060a01b038216604051906105d9635c60da1b60e01b948584526105996020948581600481885afa9081156106d1575b6000916106b4575b503b1515610879565b7fa3f0ad74e5423aebfd80d3ef4346578335a9a72aeaee59ff6cb3582b35133d5080546001600160a01b0319166001600160a01b03909216919091179055565b60405190807f1cf3b03a6cf19fa2baba4df148e9dcabedea7f8a5c07840e207e5c089be95d3e600084a28351158015906106ac575b610642575b505050505061063260ff60005460081c1661062d81610731565b610731565b61063b33610497565b610497565b565b8160048185936106679882525afa91821561069f575b600092610672575b5050610946565b503880808080610613565b6106919250803d10610698575b610689818361011b565b810190610791565b3880610660565b503d61067f565b6106a76107a9565b610658565b50600061060e565b6106cb9150863d881161069857610689818361011b565b38610590565b6106d96107a9565b610588565b60405162461bcd60e51b815260206004820152602560248201527f455243313936373a206e657720626561636f6e206973206e6f74206120636f6e6044820152641d1c9858dd60da1b6064820152608490fd5b1561073857565b60405162461bcd60e51b815260206004820152602b60248201527f496e697469616c697a61626c653a20636f6e7472616374206973206e6f74206960448201526a6e697469616c697a696e6760a81b6064820152608490fd5b908160209103126100ff57516107a6816100ee565b90565b506040513d6000823e3d90fd5b90813b156106de57604051635c60da1b60e01b808252926020916001600160a01b0382169161080291610599908581600481885afa9081156106d1576000916106b457503b1515610879565b60405190807f1cf3b03a6cf19fa2baba4df148e9dcabedea7f8a5c07840e207e5c089be95d3e600084a2835115801590610871575b610843575b5050505050565b8160048185936108669882525afa91821561069f57600092610672575050610946565b50388080808061083c565b506000610837565b1561088057565b60405162461bcd60e51b815260206004820152603060248201527f455243313936373a20626561636f6e20696d706c656d656e746174696f6e206960448201526f1cc81b9bdd08184818dbdb9d1c9858dd60821b6064820152608490fd5b604051906060820182811067ffffffffffffffff821117610939575b60405260278252660819985a5b195960ca1b6040837f416464726573733a206c6f772d6c6576656c2064656c65676174652063616c6c60208201520152565b610941610104565b6108fa565b90813b1561099d576000816107a69360208394519201905af43d15610996573d61096f8161014a565b9061097d604051928361011b565b81523d6000602083013e5b6109906108de565b916109f1565b6060610988565b60405162461bcd60e51b815260206004820152602660248201527f416464726573733a2064656c65676174652063616c6c20746f206e6f6e2d636f6044820152651b9d1c9858dd60d21b6064820152608490fd5b909190156109fd575090565b815115610a0d5750805190602001fd5b6040519062461bcd60e51b82528160208060048301528251928360248401526000915b848310610a5f575050918060449311610a52575b601f01601f19168101030190fd5b6000838284010152610a44565b8183018101518684016044015285935091820191610a30565b507fa3f0ad74e5423aebfd80d3ef4346578335a9a72aeaee59ff6cb3582b35133d5054604051635c60da1b60e01b8152600091829190602090829060049082906001600160a01b03165afa908115610b0e575b8291610af0575b50368280378136915af43d6000803e15610aeb573d6000f35b3d6000fd5b610b08915060203d811161069857610689818361011b565b38610ad2565b610b166107a9565b610acb56fea2646970667358221220a4c2a188c62396ebc3a781d4692c050f5a8e22b1bb755b46a2f5fab5479bc1a664736f6c634300080e0033",
  "devdoc": {
    "details": "This contract implements a proxy that gets the implementation address for each call from an {UpgradeableBeacon}. The beacon address is stored in storage slot `uint256(keccak256('eip1967.proxy.beacon')) - 1`, so that it doesn't conflict with the storage layout of the implementation behind the proxy. _Available since v3.4._",
    "kind": "dev",
    "methods": {
      "initialize(address,address,bytes)": {
        "details": "Initializes the proxy with `beacon`. If `data` is nonempty, it's used as data in a delegate call to the implementation returned by the beacon. This will typically be an encoded function call, and allows initializing the storage of the proxy like a Solidity constructor. Requirements: - `beacon` must be a contract with the interface {IBeacon}."
      },
      "owner()": {
        "details": "Returns the address of the current owner."
      },
      "renounceOwnership()": {
        "details": "Leaves the contract without owner. It will not be possible to call `onlyOwner` functions anymore. Can only be called by the current owner. NOTE: Renouncing ownership will leave the contract without an owner, thereby removing any functionality that is only available to the owner."
      },
      "transferOwnership(address)": {
        "details": "Transfers ownership of the contract to a new account (`newOwner`). Can only be called by the current owner."
      }
    },
    "version": 1
  },
  "storageLayout": {
    "storage": [
      {
        "astId": 1451,
        "contract": "contracts/proxy/Beacon/BeaconProxy.sol:BeaconProxy",
        "label": "_initialized",
        "offset": 0,
        "slot": "0",
        "type": "t_uint8"
      },
      {
        "astId": 1454,
        "contract": "contracts/proxy/Beacon/BeaconProxy.sol:BeaconProxy",
        "label": "_initializing",
        "offset": 1,
        "slot": "0",
        "type": "t_bool"
      },
      {
        "astId": 1433,
        "contract": "contracts/proxy/Beacon/BeaconProxy.sol:BeaconProxy",
        "label": "__gap",
        "offset": 0,
        "slot": "1",
        "type": "t_array(t_uint256)50_storage"
      },
      {
        "astId": 7523,
        "contract": "contracts/proxy/Beacon/BeaconProxy.sol:BeaconProxy",
        "label": "__gap",
        "offset": 0,
        "slot": "51",
        "type": "t_array(t_uint256)50_storage"
      },
      {
        "astId": 835,
        "contract": "contracts/proxy/Beacon/BeaconProxy.sol:BeaconProxy",
        "label": "_owner",
        "offset": 0,
        "slot": "101",
        "type": "t_address"
      },
      {
        "astId": 955,
        "contract": "contracts/proxy/Beacon/BeaconProxy.sol:BeaconProxy",
        "label": "__gap",
        "offset": 0,
        "slot": "102",
        "type": "t_array(t_uint256)49_storage"
      },
      {
        "astId": 15349,
        "contract": "contracts/proxy/Beacon/BeaconProxy.sol:BeaconProxy",
        "label": "__gap",
        "offset": 0,
        "slot": "151",
        "type": "t_array(t_uint256)50_storage"
      }
    ],
    "types": {
      "t_address": {
        "encoding": "inplace",
        "label": "address",
        "numberOfBytes": "20"
      },
      "t_array(t_uint256)49_storage": {
        "base": "t_uint256",
        "encoding": "inplace",
        "label": "uint256[49]",
        "numberOfBytes": "1568"
      },
      "t_array(t_uint256)50_storage": {
        "base": "t_uint256",
        "encoding": "inplace",
        "label": "uint256[50]",
        "numberOfBytes": "1600"
      },
      "t_bool": {
        "encoding": "inplace",
        "label": "bool",
        "numberOfBytes": "1"
      },
      "t_uint256": {
        "encoding": "inplace",
        "label": "uint256",
        "numberOfBytes": "32"
      },
      "t_uint8": {
        "encoding": "inplace",
        "label": "uint8",
        "numberOfBytes": "1"
      }
    }
  }
}