{
  "address": "0x9f68CBF3D0ff30004970E51839742129166394f8",
  "abi": [
    {
      "inputs": [],
      "stateMutability": "nonpayable",
      "type": "constructor"
    },
    {
      "anonymous": false,
      "inputs": [
        {
          "indexed": false,
          "internalType": "address",
          "name": "previousAdmin",
          "type": "address"
        },
        {
          "indexed": false,
          "internalType": "address",
          "name": "newAdmin",
          "type": "address"
        }
      ],
      "name": "AdminChanged",
      "type": "event"
    },
    {
      "anonymous": false,
      "inputs": [
        {
          "indexed": true,
          "internalType": "address",
          "name": "account",
          "type": "address"
        },
        {
          "indexed": true,
          "internalType": "address",
          "name": "operator",
          "type": "address"
        },
        {
          "indexed": false,
          "internalType": "bool",
          "name": "approved",
          "type": "bool"
        }
      ],
      "name": "ApprovalForAll",
      "type": "event"
    },
    {
      "anonymous": false,
      "inputs": [
        {
          "indexed": true,
          "internalType": "address",
          "name": "beacon",
          "type": "address"
        }
      ],
      "name": "BeaconUpgraded",
      "type": "event"
    },
    {
      "anonymous": false,
      "inputs": [
        {
          "indexed": false,
          "internalType": "uint8",
          "name": "version",
          "type": "uint8"
        }
      ],
      "name": "Initialized",
      "type": "event"
    },
    {
      "anonymous": false,
      "inputs": [
        {
          "indexed": true,
          "internalType": "bytes32",
          "name": "role",
          "type": "bytes32"
        },
        {
          "indexed": true,
          "internalType": "bytes32",
          "name": "previousAdminRole",
          "type": "bytes32"
        },
        {
          "indexed": true,
          "internalType": "bytes32",
          "name": "newAdminRole",
          "type": "bytes32"
        }
      ],
      "name": "RoleAdminChanged",
      "type": "event"
    },
    {
      "anonymous": false,
      "inputs": [
        {
          "indexed": true,
          "internalType": "bytes32",
          "name": "role",
          "type": "bytes32"
        },
        {
          "indexed": true,
          "internalType": "address",
          "name": "account",
          "type": "address"
        },
        {
          "indexed": true,
          "internalType": "address",
          "name": "sender",
          "type": "address"
        }
      ],
      "name": "RoleGranted",
      "type": "event"
    },
    {
      "anonymous": false,
      "inputs": [
        {
          "indexed": true,
          "internalType": "bytes32",
          "name": "role",
          "type": "bytes32"
        },
        {
          "indexed": true,
          "internalType": "address",
          "name": "account",
          "type": "address"
        },
        {
          "indexed": true,
          "internalType": "address",
          "name": "sender",
          "type": "address"
        }
      ],
      "name": "RoleRevoked",
      "type": "event"
    },
    {
      "anonymous": false,
      "inputs": [
        {
          "indexed": true,
          "internalType": "address",
          "name": "operator",
          "type": "address"
        },
        {
          "indexed": true,
          "internalType": "address",
          "name": "from",
          "type": "address"
        },
        {
          "indexed": true,
          "internalType": "address",
          "name": "to",
          "type": "address"
        },
        {
          "indexed": false,
          "internalType": "uint256[]",
          "name": "ids",
          "type": "uint256[]"
        },
        {
          "indexed": false,
          "internalType": "uint256[]",
          "name": "values",
          "type": "uint256[]"
        }
      ],
      "name": "TransferBatch",
      "type": "event"
    },
    {
      "anonymous": false,
      "inputs": [
        {
          "indexed": true,
          "internalType": "address",
          "name": "operator",
          "type": "address"
        },
        {
          "indexed": true,
          "internalType": "address",
          "name": "from",
          "type": "address"
        },
        {
          "indexed": true,
          "internalType": "address",
          "name": "to",
          "type": "address"
        },
        {
          "indexed": false,
          "internalType": "uint256",
          "name": "id",
          "type": "uint256"
        },
        {
          "indexed": false,
          "internalType": "uint256",
          "name": "value",
          "type": "uint256"
        }
      ],
      "name": "TransferSingle",
      "type": "event"
    },
    {
      "anonymous": false,
      "inputs": [
        {
          "indexed": false,
          "internalType": "string",
          "name": "value",
          "type": "string"
        },
        {
          "indexed": true,
          "internalType": "uint256",
          "name": "id",
          "type": "uint256"
        }
      ],
      "name": "URI",
      "type": "event"
    },
    {
      "anonymous": false,
      "inputs": [
        {
          "indexed": true,
          "internalType": "address",
          "name": "implementation",
          "type": "address"
        }
      ],
      "name": "Upgraded",
      "type": "event"
    },
    {
      "inputs": [],
      "name": "DEFAULT_ADMIN_ROLE",
      "outputs": [
        {
          "internalType": "bytes32",
          "name": "",
          "type": "bytes32"
        }
      ],
      "stateMutability": "view",
      "type": "function"
    },
    {
      "inputs": [
        {
          "internalType": "address",
          "name": "account",
          "type": "address"
        },
        {
          "internalType": "uint256",
          "name": "id",
          "type": "uint256"
        }
      ],
      "name": "balanceOf",
      "outputs": [
        {
          "internalType": "uint256",
          "name": "",
          "type": "uint256"
        }
      ],
      "stateMutability": "view",
      "type": "function"
    },
    {
      "inputs": [
        {
          "internalType": "address[]",
          "name": "accounts",
          "type": "address[]"
        },
        {
          "internalType": "uint256[]",
          "name": "ids",
          "type": "uint256[]"
        }
      ],
      "name": "balanceOfBatch",
      "outputs": [
        {
          "internalType": "uint256[]",
          "name": "",
          "type": "uint256[]"
        }
      ],
      "stateMutability": "view",
      "type": "function"
    },
    {
      "inputs": [
        {
          "internalType": "address",
          "name": "account",
          "type": "address"
        },
        {
          "internalType": "uint256",
          "name": "id",
          "type": "uint256"
        },
        {
          "internalType": "uint256",
          "name": "value",
          "type": "uint256"
        }
      ],
      "name": "burn",
      "outputs": [],
      "stateMutability": "nonpayable",
      "type": "function"
    },
    {
      "inputs": [
        {
          "internalType": "address",
          "name": "account",
          "type": "address"
        },
        {
          "internalType": "uint256[]",
          "name": "ids",
          "type": "uint256[]"
        },
        {
          "internalType": "uint256[]",
          "name": "values",
          "type": "uint256[]"
        }
      ],
      "name": "burnBatch",
      "outputs": [],
      "stateMutability": "nonpayable",
      "type": "function"
    },
    {
      "inputs": [
        {
          "internalType": "bytes32",
          "name": "interfaceHash",
          "type": "bytes32"
        },
        {
          "internalType": "address",
          "name": "account",
          "type": "address"
        }
      ],
      "name": "canImplementInterfaceForAddress",
      "outputs": [
        {
          "internalType": "bytes32",
          "name": "",
          "type": "bytes32"
        }
      ],
      "stateMutability": "view",
      "type": "function"
    },
    {
      "inputs": [],
      "name": "contractURI",
      "outputs": [
        {
          "internalType": "string",
          "name": "",
          "type": "string"
        }
      ],
      "stateMutability": "view",
      "type": "function"
    },
    {
      "inputs": [],
      "name": "getImplementation",
      "outputs": [
        {
          "internalType": "address",
          "name": "",
          "type": "address"
        }
      ],
      "stateMutability": "view",
      "type": "function"
    },
    {
      "inputs": [
        {
          "internalType": "bytes32",
          "name": "role",
          "type": "bytes32"
        }
      ],
      "name": "getRoleAdmin",
      "outputs": [
        {
          "internalType": "bytes32",
          "name": "",
          "type": "bytes32"
        }
      ],
      "stateMutability": "view",
      "type": "function"
    },
    {
      "inputs": [
        {
          "internalType": "bytes32",
          "name": "role",
          "type": "bytes32"
        },
        {
          "internalType": "address",
          "name": "account",
          "type": "address"
        }
      ],
      "name": "grantRole",
      "outputs": [],
      "stateMutability": "nonpayable",
      "type": "function"
    },
    {
      "inputs": [
        {
          "internalType": "bytes32",
          "name": "role",
          "type": "bytes32"
        },
        {
          "internalType": "address",
          "name": "account",
          "type": "address"
        }
      ],
      "name": "hasRole",
      "outputs": [
        {
          "internalType": "bool",
          "name": "",
          "type": "bool"
        }
      ],
      "stateMutability": "view",
      "type": "function"
    },
    {
      "inputs": [
        {
          "internalType": "address",
          "name": "_admin",
          "type": "address"
        },
        {
          "internalType": "string",
          "name": "_initContractURI",
          "type": "string"
        },
        {
          "internalType": "address",
          "name": "_gsnForwarder",
          "type": "address"
        },
        {
          "internalType": "string",
          "name": "_uri",
          "type": "string"
        },
        {
          "internalType": "address",
          "name": "_feeReceiver",
          "type": "address"
        },
        {
          "internalType": "uint96",
          "name": "_feeNumerator",
          "type": "uint96"
        }
      ],
      "name": "initialize",
      "outputs": [],
      "stateMutability": "nonpayable",
      "type": "function"
    },
    {
      "inputs": [
        {
          "internalType": "address",
          "name": "account",
          "type": "address"
        },
        {
          "internalType": "address",
          "name": "operator",
          "type": "address"
        }
      ],
      "name": "isApprovedForAll",
      "outputs": [
        {
          "internalType": "bool",
          "name": "",
          "type": "bool"
        }
      ],
      "stateMutability": "view",
      "type": "function"
    },
    {
      "inputs": [
        {
          "internalType": "address",
          "name": "forwarder",
          "type": "address"
        }
      ],
      "name": "isTrustedForwarder",
      "outputs": [
        {
          "internalType": "bool",
          "name": "",
          "type": "bool"
        }
      ],
      "stateMutability": "view",
      "type": "function"
    },
    {
      "inputs": [
        {
          "internalType": "address",
          "name": "to",
          "type": "address"
        },
        {
          "internalType": "uint256",
          "name": "id",
          "type": "uint256"
        },
        {
          "internalType": "uint256",
          "name": "amount",
          "type": "uint256"
        },
        {
          "internalType": "bytes",
          "name": "data",
          "type": "bytes"
        }
      ],
      "name": "mint",
      "outputs": [],
      "stateMutability": "nonpayable",
      "type": "function"
    },
    {
      "inputs": [
        {
          "internalType": "address",
          "name": "to",
          "type": "address"
        },
        {
          "internalType": "uint256[]",
          "name": "ids",
          "type": "uint256[]"
        },
        {
          "internalType": "uint256[]",
          "name": "amounts",
          "type": "uint256[]"
        },
        {
          "internalType": "bytes",
          "name": "data",
          "type": "bytes"
        }
      ],
      "name": "mintBatch",
      "outputs": [],
      "stateMutability": "nonpayable",
      "type": "function"
    },
    {
      "inputs": [],
      "name": "proxiableUUID",
      "outputs": [
        {
          "internalType": "bytes32",
          "name": "",
          "type": "bytes32"
        }
      ],
      "stateMutability": "view",
      "type": "function"
    },
    {
      "inputs": [
        {
          "internalType": "address",
          "name": "_admin",
          "type": "address"
        },
        {
          "internalType": "string",
          "name": "_initContractURI",
          "type": "string"
        },
        {
          "internalType": "address",
          "name": "_gsnForwarder",
          "type": "address"
        },
        {
          "internalType": "string",
          "name": "_uri",
          "type": "string"
        },
        {
          "internalType": "address",
          "name": "_feeReceiver",
          "type": "address"
        },
        {
          "internalType": "uint96",
          "name": "_feeNumerator",
          "type": "uint96"
        }
      ],
      "name": "proxyInitialize",
      "outputs": [],
      "stateMutability": "nonpayable",
      "type": "function"
    },
    {
      "inputs": [
        {
          "internalType": "bytes32",
          "name": "role",
          "type": "bytes32"
        },
        {
          "internalType": "address",
          "name": "account",
          "type": "address"
        }
      ],
      "name": "renounceRole",
      "outputs": [],
      "stateMutability": "nonpayable",
      "type": "function"
    },
    {
      "inputs": [
        {
          "internalType": "bytes32",
          "name": "role",
          "type": "bytes32"
        },
        {
          "internalType": "address",
          "name": "account",
          "type": "address"
        }
      ],
      "name": "revokeRole",
      "outputs": [],
      "stateMutability": "nonpayable",
      "type": "function"
    },
    {
      "inputs": [
        {
          "internalType": "uint256",
          "name": "_tokenId",
          "type": "uint256"
        },
        {
          "internalType": "uint256",
          "name": "_salePrice",
          "type": "uint256"
        }
      ],
      "name": "royaltyInfo",
      "outputs": [
        {
          "internalType": "address",
          "name": "",
          "type": "address"
        },
        {
          "internalType": "uint256",
          "name": "",
          "type": "uint256"
        }
      ],
      "stateMutability": "view",
      "type": "function"
    },
    {
      "inputs": [
        {
          "internalType": "address",
          "name": "from",
          "type": "address"
        },
        {
          "internalType": "address",
          "name": "to",
          "type": "address"
        },
        {
          "internalType": "uint256[]",
          "name": "ids",
          "type": "uint256[]"
        },
        {
          "internalType": "uint256[]",
          "name": "amounts",
          "type": "uint256[]"
        },
        {
          "internalType": "bytes",
          "name": "data",
          "type": "bytes"
        }
      ],
      "name": "safeBatchTransferFrom",
      "outputs": [],
      "stateMutability": "nonpayable",
      "type": "function"
    },
    {
      "inputs": [
        {
          "internalType": "address",
          "name": "from",
          "type": "address"
        },
        {
          "internalType": "address",
          "name": "to",
          "type": "address"
        },
        {
          "internalType": "uint256",
          "name": "id",
          "type": "uint256"
        },
        {
          "internalType": "uint256",
          "name": "amount",
          "type": "uint256"
        },
        {
          "internalType": "bytes",
          "name": "data",
          "type": "bytes"
        }
      ],
      "name": "safeTransferFrom",
      "outputs": [],
      "stateMutability": "nonpayable",
      "type": "function"
    },
    {
      "inputs": [
        {
          "internalType": "address",
          "name": "operator",
          "type": "address"
        },
        {
          "internalType": "bool",
          "name": "approved",
          "type": "bool"
        }
      ],
      "name": "setApprovalForAll",
      "outputs": [],
      "stateMutability": "nonpayable",
      "type": "function"
    },
    {
      "inputs": [
        {
          "internalType": "string",
          "name": "uri",
          "type": "string"
        }
      ],
      "name": "setContractURI",
      "outputs": [],
      "stateMutability": "nonpayable",
      "type": "function"
    },
    {
      "inputs": [
        {
          "internalType": "address",
          "name": "receiver",
          "type": "address"
        },
        {
          "internalType": "uint96",
          "name": "feeNumerator",
          "type": "uint96"
        }
      ],
      "name": "setDefaultRoyalty",
      "outputs": [],
      "stateMutability": "nonpayable",
      "type": "function"
    },
    {
      "inputs": [
        {
          "internalType": "uint256",
          "name": "tokenId",
          "type": "uint256"
        },
        {
          "internalType": "address",
          "name": "receiver",
          "type": "address"
        },
        {
          "internalType": "uint96",
          "name": "feeNumerator",
          "type": "uint96"
        }
      ],
      "name": "setTokenRoyalty",
      "outputs": [],
      "stateMutability": "nonpayable",
      "type": "function"
    },
    {
      "inputs": [
        {
          "internalType": "string",
          "name": "newuri",
          "type": "string"
        }
      ],
      "name": "setURI",
      "outputs": [],
      "stateMutability": "nonpayable",
      "type": "function"
    },
    {
      "inputs": [
        {
          "internalType": "bytes4",
          "name": "interfaceId",
          "type": "bytes4"
        }
      ],
      "name": "supportsInterface",
      "outputs": [
        {
          "internalType": "bool",
          "name": "",
          "type": "bool"
        }
      ],
      "stateMutability": "view",
      "type": "function"
    },
    {
      "inputs": [
        {
          "internalType": "address",
          "name": "newImplementation",
          "type": "address"
        }
      ],
      "name": "upgradeTo",
      "outputs": [],
      "stateMutability": "nonpayable",
      "type": "function"
    },
    {
      "inputs": [
        {
          "internalType": "address",
          "name": "newImplementation",
          "type": "address"
        },
        {
          "internalType": "bytes",
          "name": "data",
          "type": "bytes"
        }
      ],
      "name": "upgradeToAndCall",
      "outputs": [],
      "stateMutability": "payable",
      "type": "function"
    },
    {
      "inputs": [
        {
          "internalType": "uint256",
          "name": "",
          "type": "uint256"
        }
      ],
      "name": "uri",
      "outputs": [
        {
          "internalType": "string",
          "name": "",
          "type": "string"
        }
      ],
      "stateMutability": "view",
      "type": "function"
    },
    {
      "inputs": [],
      "name": "version",
      "outputs": [
        {
          "internalType": "string",
          "name": "",
          "type": "string"
        }
      ],
      "stateMutability": "pure",
      "type": "function"
    },
    {
      "inputs": [],
      "name": "versionRecipient",
      "outputs": [
        {
          "internalType": "string",
          "name": "",
          "type": "string"
        }
      ],
      "stateMutability": "pure",
      "type": "function"
    }
  ],
  "args": [],
  "numDeployments": 7,
  "solcInputHash": "2fe98e12c0031ec2a7dec3df9237bffc",
  "bytecode": "0x60a0806040523461003157306080526143f6908161003782396080518181816111ae0152818161145f01526115750152f35b600080fdfe60806040526004361015610013575b600080fd5b60003560e01c8062fdd58e146102ba57806301ffc9a7146102b157806302fe5305146102a857806304634d8d1461029f5780630e89341c146102965780631f7fdffa1461028d578063207205ad14610284578063248a9ca31461027b578063249cb3fa146102725780632a55205a146102695780632eb2c2d6146102605780632f2ff15d1461025757806336568abe1461024e5780633659cfe614610245578063486ff0cd1461023c5780634e1273f4146102335780634f1ef2861461022a57806352d1902d1461022157806354fd4d5014610218578063572b6c051461020f5780635944c753146102065780636b20c454146101fd578063731133e9146101f457806391d14854146101eb578063938e3d7b146101e2578063a217fddf146101d9578063a22cb465146101d0578063aaf10f42146101c7578063b8a7e257146101be578063d547741f146101b5578063e8a3d485146101ac578063e985e9c5146101a3578063f242432a1461019a5763f5298aca1461019257600080fd5b61000e6120ed565b5061000e611f4a565b5061000e611ef8565b5061000e611e19565b5061000e611dd9565b5061000e611cf3565b5061000e611cbc565b5061000e611bb0565b5061000e611b93565b5061000e611a85565b5061000e611a3e565b5061000e611953565b5061000e6117e5565b5061000e6116de565b5061000e61166d565b5061000e611627565b5061000e611561565b5061000e611421565b5061000e611367565b5061000e6112db565b5061000e61118a565b5061000e6110ed565b5061000e61102c565b5061000e610e3d565b5061000e610d94565b5061000e610d0f565b5061000e610cdf565b5061000e610b83565b5061000e6108bd565b5061000e61064b565b5061000e61059f565b5061000e610411565b5061000e610345565b5061000e610303565b600435906001600160a01b038216820361000e57565b602435906001600160a01b038216820361000e57565b35906001600160a01b038216820361000e57565b503461000e57604036600319011261000e57602061032b6103226102c3565b60243590612ee4565b604051908152f35b6001600160e01b031981160361000e57565b503461000e57602036600319011261000e5761039460043561036681610333565b63ffffffff60e01b16636c6eec1360e01b8114908115610398575b5060405190151581529081906020820190565b0390f35b632e93c56f60e11b8114915081156103b2575b5038610381565b63152a902d60e11b8114915081156103cc575b50386103ab565b63054fd4d560e41b8114915081156103e6575b50386103c5565b6303e8939960e31b811491508115610400575b50386103df565b633d96f4ff60e11b149050386103f9565b503461000e57602036600319011261000e576001600160401b0360043581811161000e573660238201121561000e57806004013591821161000e57366024838301011161000e57610460614308565b6001600160a01b03811660009081527fb068b61a200639681129aa64c43b97b3c570787e8e53d8feb93bcc67b3afb6a9602052604090205490929060ff16156104bc576104ba916104b591602436920161086b565b613aee565b005b61056f60376105576104d66001600160a01b0387166138d2565b6105496104e161396f565b6105436040519586947f416363657373436f6e74726f6c3a206163636f756e74200000000000000000006020870152610523815180926020858a0191016105dd565b8501017001034b99036b4b9b9b4b733903937b6329607d1b815260110190565b906126bf565b03601f19810183528261078d565b60405162461bcd60e51b815291829160048301610637565b0390fd5b604435906001600160601b038216820361000e57565b60a435906001600160601b038216820361000e57565b503461000e57604036600319011261000e576105b96102c3565b6024356001600160601b038116810361000e576104ba916105d8612216565b6141ab565b918091926000905b8282106105fd5750116105f6575050565b6000910152565b915080602091830151818601520182916105e5565b9060209161062b815180928185528580860191016105dd565b601f01601f1916010190565b906020610648928181520190610612565b90565b503461000e5760208060031936011261000e5760405160009160995461067081612e74565b8084529060019081811690811561070157506001146106a6575b6103948461069a8188038261078d565b60405191829182610637565b609960009081529294507f72a152ddfb8e864297c917af52ea6c1c68aead0fee1a62673fcc7e0c94979d005b8284106106ee57505050816103949361069a928201019361068a565b80548585018701529285019281016106d2565b92505050610394935060ff19169082015261069a81604081019361068a565b50634e487b7160e01b600052604160045260246000fd5b604081019081106001600160401b0382111761075257604052565b61075a610720565b604052565b6001600160401b03811161075257604052565b602081019081106001600160401b0382111761075257604052565b90601f801991011681019081106001600160401b0382111761075257604052565b604051906107bb82610737565b565b6020906001600160401b0381116107d6575b60051b0190565b6107de610720565b6107cf565b81601f8201121561000e578035916107fa836107bd565b92610808604051948561078d565b808452602092838086019260051b82010192831161000e578301905b828210610832575050505090565b81358152908301908301610824565b6020906001600160401b03811161085e575b601f01601f19160190565b610866610720565b610853565b92919261087782610841565b91610885604051938461078d565b82948184528183011161000e578281602093846000960137010152565b9080601f8301121561000e578160206106489335910161086b565b503461000e57608036600319011261000e576108d76102c3565b6024356001600160401b039182821161000e576108f9600492369084016107e3565b9060443584811161000e5761091190369085016107e3565b9360643590811161000e5761092990369085016108a2565b92610932612403565b6001600160a01b038281169490919061094c861515614027565b6109598551885114613202565b610961614308565b9060005b86518110156109c7578061097c6109c2928b612fef565b51610987828a612fef565b5160005260976020526109bb6109b38960406000209060018060a01b0316600052602052604060002090565b9182546131f6565b9055612fc0565b610965565b50868887878360006040997f4a39dc06d4c0dbc64b70af90fd698a233a518aa5d07e595d983b8c0526c8f7fb8b51918a169180610a0589898361325f565b0390a43b610a0f57005b91610a379391600060209489519687958694859363bc197c8160e01b9b8c86528d8601613608565b03925af160009181610ad6575b50610aac5750506001610a55613346565b6308c379a014610a7f575b610a6657005b905162461bcd60e51b815290819061056f9082016133d2565b610a87613364565b80610a925750610a60565b835162461bcd60e51b815290819061056f90828601610637565b6001600160e01b03191603610abd57005b905162461bcd60e51b815290819061056f9082016132fd565b610af891925060203d8111610aff575b610af0818361078d565b810190613284565b9085610a44565b503d610ae6565b9060c060031983011261000e576001600160a01b0391600435838116810361000e57926001600160401b039260243584811161000e5783610b49916004016108a2565b93604435838116810361000e579360643591821161000e57610b6d916004016108a2565b91608435908116810361000e5790610648610589565b503461000e57610b9236610b06565b9493610ba860ff60009593955460081c16613c48565b610bb1856126d6565b80516001600160401b038111610cd2575b6000805160206143a183398151915291610be582610be08554612e74565b6139ff565b60209081601f8411600114610c58575093610c3993836104ba9a9794610c2b94610c3f9a98600092610c4d575b50508160011b916000199060031b1c19161790556128f5565b610c3486614241565b613d99565b8361407d565b610c4881613dae565b613f60565b015190503880610c12565b9190601f198416610c67612eae565b936000905b828210610cba57505084610c2b94610c3f9a9894610c3998946104ba9e9b9860019510610ca1575b505050811b0190556128f5565b015160001960f88460031b161c19169055388080610c94565b80600186978294978701518155019601940190610c6c565b610cda610720565b610bc2565b503461000e57602036600319011261000e5760043560005260fb6020526020600160406000200154604051908152f35b503461000e57604036600319011261000e5760ff610d56610d2e6102d9565b60043560005261015f60205260406000209060018060a01b0316600052602052604060002090565b546000911615610d8c575060207fa2ef4600d742022d532d4747cb3547474667d6f13804902513b2ec01c848f4b4604051908152f35b60209061032b565b503461000e57604036600319011261000e57600435600052610192602052604060002060405190610dc482610737565b546001600160a01b03811680835260a09190911c602083015215610e2f575b610e13612710610e026001600160601b036020850151166024356137c7565b92519204916001600160a01b031690565b604080516001600160a01b039290921682526020820192909252f35b50610e386137a0565b610de3565b503461000e5760a036600319011261000e57610e576102c3565b610e5f6102d9565b906001600160401b039060443582811161000e57610e819036906004016107e3565b9160643581811161000e57610e9a9036906004016107e3565b9060843590811161000e57610eb39036906004016108a2565b6001600160a01b03939084610ec6614308565b168585169081148015610fe7575b610edd906130d9565b610eea8351855114613202565b858716610ef881151561313d565b610f00614308565b9160005b8551811015610fa15780886109bb6109b38d610f518c610f3387610f2c8f9a610f9c9b612fef565b5192612fef565b5195610f8b87610f6883610f51866000526097602052604060002090565b9060018060a01b0316600052602052604060002090565b54610f7582821015613197565b0391610f51846000526097602052604060002090565b556000526097602052604060002090565b610f04565b506104ba9894959693977f4a39dc06d4c0dbc64b70af90fd698a233a518aa5d07e595d983b8c0526c8f7fb6040519185169180610fdf8b8b8361325f565b0390a4613685565b50610edd611025610ff6614308565b6001600160a01b0380891660009081526098602090815260408083209490931682529290925290205460ff1690565b9050610ed4565b503461000e5760408060031936011261000e576004359061104b6102d9565b60009280845260fb602052611065600184862001546125fb565b80845260fb60209081528385206001600160a01b03841660009081529152604090205460ff161561109557505051f35b80845260fb60209081528385206001600160a01b0384166000908152915260409020805460ff191660011790556001600160a01b03806110d3614308565b16921690600080516020614361833981519152858551a451f35b503461000e57604036600319011261000e576111076102d9565b6001600160a01b0380611118614308565b169082160361112d576104ba90600435612956565b60405162461bcd60e51b815260206004820152602f60248201527f416363657373436f6e74726f6c3a2063616e206f6e6c792072656e6f756e636560448201526e103937b632b9903337b91039b2b63360891b6064820152608490fd5b503461000e57602036600319011261000e576111a46102c3565b6001600160a01b037f0000000000000000000000000000000000000000000000000000000000000000811691906111dd308414156129ec565b6111fa600080516020614381833981519152938285541614612a4d565b61120261232a565b6040519061120f82610772565b600082527f4910fdfa16fed3260ed0e7147f7cc6da11a60208b5b9406d12a635614ffd91435460ff16156112495750506104ba9150612bc3565b6020600491604094939451928380926352d1902d60e01b825286165afa600091816112a0575b5061128d5760405162461bcd60e51b81528061056f60048201612b74565b6104ba9361129b9114612b16565b612d55565b6112c291925060203d81116112c9575b6112ba818361078d565b810190612afa565b903861126f565b503d6112b0565b600091031261000e57565b503461000e57600036600319011261000e576103946040516112fc81610737565b6005815264191719171b60d91b6020820152604051918291602083526020830190610612565b90815180825260208080930193019160005b828110611342575050505090565b835185529381019392810192600101611334565b906020610648928181520190611322565b503461000e57604036600319011261000e576004356001600160401b0380821161000e573660238301121561000e5781600401356113a4816107bd565b926113b2604051948561078d565b81845260209160248386019160051b8301019136831161000e57602401905b82821061140a578560243586811161000e57610394916113f86113fe9236906004016107e3565b90613011565b60405191829182611356565b838091611416846102ef565b8152019101906113d1565b50604036600319011261000e576114366102c3565b6024356001600160401b03811161000e576114559036906004016108a2565b6001600160a01b037f0000000000000000000000000000000000000000000000000000000000000000811692919061148f308514156129ec565b6114ac600080516020614381833981519152948286541614612a4d565b6114b461232a565b7f4910fdfa16fed3260ed0e7147f7cc6da11a60208b5b9406d12a635614ffd91435460ff16156114ea5750506104ba9150612bc3565b6020600491604094939451928380926352d1902d60e01b825286165afa60009181611541575b5061152e5760405162461bcd60e51b81528061056f60048201612b74565b6104ba9361153c9114612b16565b612c53565b61155a91925060203d81116112c9576112ba818361078d565b9038611510565b503461000e57600036600319011261000e577f00000000000000000000000000000000000000000000000000000000000000006001600160a01b031630036115bc576040516000805160206143818339815191528152602090f35b60405162461bcd60e51b815260206004820152603860248201527f555550535570677261646561626c653a206d757374206e6f742062652063616c60448201527f6c6564207468726f7567682064656c656761746563616c6c00000000000000006064820152608490fd5b503461000e57600036600319011261000e5761039460405161164881610737565b600481526376302e3160e01b6020820152604051918291602083526020830190610612565b503461000e57602036600319011261000e57602060ff6116d261168e6102c3565b7f7a05a596cb0ce7fdea8a1e1ec73be300bdb35097c944ce1897202f7a13122eb260005260fb845260406000209060018060a01b0316600052602052604060002090565b54166040519015158152f35b503461000e57606036600319011261000e576116f86102d9565b611700610573565b90611709612216565b6117206127106001600160601b038416111561414c565b6001600160a01b038116156117a0576117606104ba926117506117416107ae565b6001600160a01b039094168452565b6001600160601b03166020830152565b611777600435600052610192602052604060002090565b815160209092015160a01b6001600160a01b0319166001600160a01b0392909216919091179055565b60405162461bcd60e51b815260206004820152601b60248201527f455243323938313a20496e76616c696420706172616d657465727300000000006044820152606490fd5b503461000e57606036600319011261000e576117ff6102c3565b6001600160401b0360243581811161000e5761181f9036906004016107e3565b9060443590811161000e576118389036906004016107e3565b6001600160a01b03918261184a614308565b16838516908114801561193d575b611861906130d9565b61186c8115156136f0565b6118798251845114613202565b611881614308565b9361188a612aae565b5060005b83518110156118fa57806118a56118f59286612fef565b516118ef89610f516118b7858b612fef565b516118d083610f51876000526097602052604060002090565b546118dd82821015613748565b03936000526097602052604060002090565b55612fc0565b61188e565b506000946119327f4a39dc06d4c0dbc64b70af90fd698a233a518aa5d07e595d983b8c0526c8f7fb939560405193849316958361325f565b0390a46104ba612aae565b5061186161194c610ff6614308565b9050611858565b503461000e57608036600319011261000e5761196d6102c3565b606435906044356024356001600160401b03841161000e576119966104ba9436906004016108a2565b9261199f612403565b6001600160a01b038181166119b5811515614027565b60006119bf614308565b926119c9866136bf565b506119d3876136bf565b508582526097602090815260408084206001600160a01b038816600090815292529020611a018882546131f6565b90556040805187815260208101899052918516917fc3d58168c5ae7397731d063d5bbf3d657854427343f4c083240f7aacaa2d0f629190a4613427565b503461000e57604036600319011261000e57602060ff6116d2611a5f6102d9565b60043560005260fb845260406000209060018060a01b0316600052602052604060002090565b503461000e5760208060031936011261000e576001600160401b039060043582811161000e57611ab99036906004016108a2565b91611ac26124ff565b8251908111611b86575b6000805160206143a183398151915291611aea82610be08554612e74565b80601f8311600114611b235750819293600092611b18575b50508160011b916000199060031b1c1916179055005b015190503880611b02565b90601f19831694611b32612eae565b926000905b878210611b6e575050836001959610611b55575b505050811b019055005b015160001960f88460031b161c19169055388080611b4b565b80600185968294968601518155019501930190611b37565b611b8e610720565b611acc565b503461000e57600036600319011261000e57602060405160008152f35b503461000e57604036600319011261000e57611bca6102c3565b602435801515810361000e57611bde614308565b6001600160a01b038381169390821692838514611c6557611c4e81611c3d611c6094610f517f17307eab39ab6107e8899845ad3d59bd9653f200f220920489ca2b5937696c319760018060a01b03166000526098602052604060002090565b9060ff801983541691151516179055565b60405190151581529081906020820190565b0390a3005b60405162461bcd60e51b815260206004820152602960248201527f455243313135353a2073657474696e6720617070726f76616c20737461747573604482015268103337b91039b2b63360b91b6064820152608490fd5b503461000e57600036600319011261000e57600080516020614381833981519152546040516001600160a01b039091168152602090f35b503461000e57611d4d611d0536610b06565b9360009695969391935496611d3160ff8960081c16158099819a611dcb575b8115611dab575b50613be5565b87611d44600160ff196000541617600055565b611d9257613ca8565b611d5357005b611d6361ff001960005416600055565b604051600181527f7f26b83ff96e1f2b6a682f133852f6798a09c465da95921460cefb384740249890602090a1005b611da661010061ff00196000541617600055565b613ca8565b303b15915081611dbd575b5038611d2b565b6001915060ff161438611db6565b600160ff8216109150611d24565b503461000e57604036600319011261000e576104ba600435611df96102d9565b908060005260fb602052611e146001604060002001546125fb565b612956565b503461000e57600080600319360112611ef55760405190806000805160206143a183398151915290815490611e4d82612e74565b80865292600192808416908115611ed15750600114611e77575b6103948661069a8188038261078d565b815292507feea97fdf38e36104b6e79f51a620e17443f803bd4254b3af64efdf6a8301c6975b828410611eb957505050810160200161069a8261039438611e67565b80546020858701810191909152909301928101611e9d565b60ff19166020880152505060408501935061069a9250849150610394905038611e67565b80fd5b503461000e57604036600319011261000e57602060ff6116d2611f196102c3565b611f216102d9565b6001600160a01b0391821660009081526098865260408082209290931681526020919091522090565b503461000e5760a036600319011261000e57611f646102c3565b611f6c6102d9565b9060443560643590608435936001600160401b03851161000e57611f976104ba9536906004016108a2565b936001600160a01b0380611fa9614308565b1681831690811480156120a8575b611fc0906130d9565b81841690611fcf82151561313d565b611fd7614308565b92611fe1876136bf565b50611feb886136bf565b5060008781526097602090815260408083206001600160a01b0389168452909152902088905461201d82821015613197565b886000526097602052036120478660406000209060018060a01b0316600052602052604060002090565b5561206086610f51896000526097602052604060002090565b61206b8982546131f6565b905560408051888152602081018a9052918516917fc3d58168c5ae7397731d063d5bbf3d657854427343f4c083240f7aacaa2d0f629190a4613530565b50611fc06120e66120b7614308565b6001600160a01b0380871660009081526098602090815260408083209490931682529290925290205460ff1690565b9050611fb7565b503461000e57606036600319011261000e5760006121096102c3565b60443590602435907fc3d58168c5ae7397731d063d5bbf3d657854427343f4c083240f7aacaa2d0f62906001600160a01b039061193282612148614308565b16958383169687148015612200575b612160906130d9565b61216b8715156136f0565b612173614308565b9261217d876136bf565b50612187826136bf565b508860405161219581610772565b5286895260976020526121e4826121c18360408d209060018060a01b0316600052602052604060002090565b546121ce82821015613748565b0391610f51896000526097602052604060002090565b5560405193849316958360209093929193604081019481520152565b5061216061220f6120b7614308565b9050612157565b61221e614308565b6001600160a01b03811660009081527fef93721591a8283ebcbc635d4596270f18296615bf2ad2acc05699794bf1433160205260409020547feb54e1feee3ae17add098cbf58a47457bf5f7c3a89ceab263cbdb01b3da6d98e919060ff1615612285575050565b612297906001600160a01b03166138d2565b906122a0612ac1565b9060306122ac83613826565b5360786122b88361383c565b5360415b600181116122db5761056f603761055786610549876104e18815613887565b9080600f6123189216601081101561231d575b6f181899199a1a9b1b9c1cb0b131b232b360811b901a61230e848661384d565b5360041c9161386c565b6122bc565b612325612fd8565b6122ee565b612332614308565b6001600160a01b03811660009081527fc88390e7e62175be0932452175b6a7222b6b094ab0ef984a5153c620345d8975602052604090205460ff16156123755750565b612387906001600160a01b03166138d2565b6000612391612ac1565b90603061239d83613826565b5360786123a98361383c565b5360415b600181116123cc5761056f603761055786610549876104e18815613887565b9080600f6123fe9216601081101561231d576f181899199a1a9b1b9c1cb0b131b232b360811b901a61230e848661384d565b6123ad565b61240b614308565b6001600160a01b03811660009081527f72f2994cda805697ff5940dc92bd4118d9d7058b657a897ee8a2023e4f67343460205260409020547f9f2df0fed2c77648de5860a4cc508cd0818c85b8b8a1ab4ceeef8d981c8956a6919060ff1615612472575050565b612484906001600160a01b03166138d2565b9061248d612ac1565b90603061249983613826565b5360786124a58361383c565b5360415b600181116124c85761056f603761055786610549876104e18815613887565b9080600f6124fa9216601081101561231d576f181899199a1a9b1b9c1cb0b131b232b360811b901a61230e848661384d565b6124a9565b612507614308565b6001600160a01b03811660009081527fd79c98b0e2162ca3184e1e6688bf8c1c5461f86efaaae3675641a8fbeb30644560205260409020547f0ab9ec9ba2423318b97c58cb919c22b4da14401c539342f710b4932382bc2c15919060ff161561256e575050565b612580906001600160a01b03166138d2565b90612589612ac1565b90603061259583613826565b5360786125a18361383c565b5360415b600181116125c45761056f603761055786610549876104e18815613887565b9080600f6125f69216601081101561231d576f181899199a1a9b1b9c1cb0b131b232b360811b901a61230e848661384d565b6125a5565b612603614308565b600082815260fb602090815260408083206001600160a01b038516845290915290205460ff1615612632575050565b612644906001600160a01b03166138d2565b9061264d612ac1565b90603061265983613826565b5360786126658361383c565b5360415b600181116126885761056f603761055786610549876104e18815613887565b9080600f6126ba9216601081101561231d576f181899199a1a9b1b9c1cb0b131b232b360811b901a61230e848661384d565b612669565b906126d2602092828151948592016105dd565b0190565b6001600160a01b03811660009081527fd79c98b0e2162ca3184e1e6688bf8c1c5461f86efaaae3675641a8fbeb306445602052604090207f0ab9ec9ba2423318b97c58cb919c22b4da14401c539342f710b4932382bc2c159060ff905b54161561273e575050565b600081815260fb602090815260408083206001600160a01b03861684529091529020805460ff191660011790556001600160a01b038061277c614308565b169216906000805160206143618339815191526000604051a4565b6001600160a01b03811660009081527fb068b61a200639681129aa64c43b97b3c570787e8e53d8feb93bcc67b3afb6a9602052604090207f8e6595ef9afb2a8f70320f393f567bb7a0e6c4ed483caee30f90cc5fcd6659b49060ff90612733565b6001600160a01b03811660009081527f72f2994cda805697ff5940dc92bd4118d9d7058b657a897ee8a2023e4f673434602052604090207f9f2df0fed2c77648de5860a4cc508cd0818c85b8b8a1ab4ceeef8d981c8956a69060ff90612733565b6001600160a01b03811660009081527fc88390e7e62175be0932452175b6a7222b6b094ab0ef984a5153c620345d8975602052604081205460ff161561289d575050565b80805260fb602090815260408083206001600160a01b038516600090815292529020805460ff191660011790556001600160a01b03806128db614308565b1692169060008051602061436183398151915281604051a4565b6001600160a01b03811660009081527f452ae8ad28077a8dde36d329380df9bfd96077640c4bb696c45031c2933e8ad8602052604090207f7a05a596cb0ce7fdea8a1e1ec73be300bdb35097c944ce1897202f7a13122eb29060ff90612733565b600081815260fb602090815260408083206001600160a01b038616845290915290205460ff16612984575050565b600081815260fb602090815260408083206001600160a01b03861684529091529020805460ff191690556001600160a01b03806129bf614308565b169216907ff6391f5c32d9c69d2a47ea670b442974b53935d1edc7fd64eb21e047a839171b6000604051a4565b156129f357565b60405162461bcd60e51b815260206004820152602c60248201527f46756e6374696f6e206d7573742062652063616c6c6564207468726f7567682060448201526b19195b1959d85d1958d85b1b60a21b6064820152608490fd5b15612a5457565b60405162461bcd60e51b815260206004820152602c60248201527f46756e6374696f6e206d7573742062652063616c6c6564207468726f7567682060448201526b6163746976652070726f787960a01b6064820152608490fd5b60405190612abb82610772565b60008252565b60405190608082018281106001600160401b03821117612aed575b604052604282526060366020840137565b612af5610720565b612adc565b9081602091031261000e575190565b506040513d6000823e3d90fd5b15612b1d57565b60405162461bcd60e51b815260206004820152602960248201527f45524331393637557067726164653a20756e737570706f727465642070726f786044820152681a58589b195555525160ba1b6064820152608490fd5b60809060208152602e60208201527f45524331393637557067726164653a206e657720696d706c656d656e7461746960408201526d6f6e206973206e6f74205555505360901b60608201520190565b803b15612bf85760008051602061438183398151915280546001600160a01b0319166001600160a01b03909216919091179055565b60405162461bcd60e51b815260206004820152602d60248201527f455243313936373a206e657720696d706c656d656e746174696f6e206973206e60448201526c1bdd08184818dbdb9d1c9858dd609a1b6064820152608490fd5b612c5c81612bc3565b6040516001600160a01b0382167fbc7cd75a20ee27fd9adebab32041f755214dbc6bffa90cc0225b39da2e5c2d3b600083a2825115801590612d4d575b612ca257505050565b813b15612cfc575060008281926020612cf295519201905af43d15612cf5573d612ccb81610841565b90612cd9604051928361078d565b81523d6000602083013e5b612cec612e0d565b916137e6565b50565b6060612ce4565b62461bcd60e51b815260206004820152602660248201527f416464726573733a2064656c65676174652063616c6c20746f206e6f6e2d636f6044820152651b9d1c9858dd60d21b6064820152608490fd5b506001612c99565b90612d5f82612bc3565b604051600092906001600160a01b0382167fbc7cd75a20ee27fd9adebab32041f755214dbc6bffa90cc0225b39da2e5c2d3b8583a2825115801590612e06575b612daa575b50505050565b813b15612cfc5750918082612df49460208395519201905af4903d15612dfe573d612dd481610841565b90612de2604051928361078d565b8152809160203d92013e612cec612e0d565b5038808080612da4565b506060612ce4565b5083612d9f565b60405190606082018281106001600160401b03821117612e67575b60405260278252660819985a5b195960ca1b6040837f416464726573733a206c6f772d6c6576656c2064656c65676174652063616c6c60208201520152565b612e6f610720565b612e28565b90600182811c92168015612ea4575b6020831014612e8e57565b634e487b7160e01b600052602260045260246000fd5b91607f1691612e83565b6000805160206143a18339815191526000527feea97fdf38e36104b6e79f51a620e17443f803bd4254b3af64efdf6a8301c69790565b6001600160a01b03811615612f1f57612f1b91600052609760205260406000209060018060a01b0316600052602052604060002090565b5490565b60405162461bcd60e51b815260206004820152602a60248201527f455243313135353a2061646472657373207a65726f206973206e6f742061207660448201526930b634b21037bbb732b960b11b6064820152608490fd5b90612f81826107bd565b612f8e604051918261078d565b8281528092612f9f601f19916107bd565b0190602036910137565b50634e487b7160e01b600052601160045260246000fd5b6001906000198114612fd0570190565b6126d2612fa9565b50634e487b7160e01b600052603260045260246000fd5b6020918151811015613004575b60051b010190565b61300c612fd8565b612ffc565b9190918051835103613082576130278151612f77565b9060005b815181101561307b57806130666130556130486130769486612fef565b516001600160a01b031690565b61305f8389612fef565b5190612ee4565b6130708286612fef565b52612fc0565b61302b565b5090925050565b60405162461bcd60e51b815260206004820152602960248201527f455243313135353a206163636f756e747320616e6420696473206c656e677468604482015268040dad2e6dac2e8c6d60bb1b6064820152608490fd5b156130e057565b60405162461bcd60e51b815260206004820152602f60248201527f455243313135353a2063616c6c6572206973206e6f7420746f6b656e206f776e60448201526e195c881b9bdc88185c1c1c9bdd9959608a1b6064820152608490fd5b1561314457565b60405162461bcd60e51b815260206004820152602560248201527f455243313135353a207472616e7366657220746f20746865207a65726f206164604482015264647265737360d81b6064820152608490fd5b1561319e57565b60405162461bcd60e51b815260206004820152602a60248201527f455243313135353a20696e73756666696369656e742062616c616e636520666f60448201526939103a3930b739b332b960b11b6064820152608490fd5b81198111612fd0570190565b1561320957565b60405162461bcd60e51b815260206004820152602860248201527f455243313135353a2069647320616e6420616d6f756e7473206c656e677468206044820152670dad2e6dac2e8c6d60c31b6064820152608490fd5b909161327661064893604084526040840190611322565b916020818403910152611322565b9081602091031261000e575161064881610333565b909260a0926106489594600180861b0316835260006020840152604083015260608201528160808201520190610612565b919261064895949160a094600180871b038092168552166020840152604083015260608201528160808201520190610612565b60809060208152602860208201527f455243313135353a204552433131353552656365697665722072656a656374656040820152676420746f6b656e7360c01b60608201520190565b60009060033d1161335357565b905060046000803e60005160e01c90565b600060443d1061064857604051600319913d83016004833e81516001600160401b03918282113d6024840111176133c1578184019485519384116133c9573d850101602084870101116133c157506106489291016020019061078d565b949350505050565b50949350505050565b60809060208152603460208201527f455243313135353a207472616e7366657220746f206e6f6e20455243313135356040820152732932b1b2b4bb32b91034b6b83632b6b2b73a32b960611b60608201520190565b9390803b613437575b5050505050565b61345f9360006020946040519687958694859363f23a6e6160e01b9b8c865260048601613299565b03926001600160a01b03165af160009181613510575b506134e85750506001613486613346565b6308c379a0146134b9575b6134a0575b3880808080613430565b60405162461bcd60e51b81528061056f600482016133d2565b6134c1613364565b806134cc5750613491565b60405162461bcd60e51b815290819061056f9060048301610637565b6001600160e01b031916146134965760405162461bcd60e51b81528061056f600482016132fd565b61352991925060203d8111610aff57610af0818361078d565b9038613475565b9493919092813b613544575b505050505050565b600060209461356b6040519788968795869463f23a6e6160e01b9c8d8752600487016132ca565b03926001600160a01b03165af1600091816135e8575b506135c05750506001613592613346565b6308c379a0146135ad575b6134a0575b38808080808061353c565b6135b5613364565b806134cc575061359d565b6001600160e01b031916146135a25760405162461bcd60e51b81528061056f600482016132fd565b61360191925060203d8111610aff57610af0818361078d565b9038613581565b9261363761064895936136459360018060a01b031686526000602087015260a0604087015260a0860190611322565b908482036060860152611322565b916080818403910152610612565b93906106489593613637916136459460018060a01b03809216885216602087015260a0604087015260a0860190611322565b9493919092813b61369857505050505050565b600060209461356b6040519788968795869463bc197c8160e01b9c8d875260048701613653565b604051906136cc82610737565b600182526020820160203682378251156136e4575290565b6136ec612fd8565b5290565b156136f757565b60405162461bcd60e51b815260206004820152602360248201527f455243313135353a206275726e2066726f6d20746865207a65726f206164647260448201526265737360e81b6064820152608490fd5b1561374f57565b60405162461bcd60e51b8152602060048201526024808201527f455243313135353a206275726e20616d6f756e7420657863656564732062616c604482015263616e636560e01b6064820152608490fd5b604051906137ad82610737565b610191546001600160a01b038116835260a01c6020830152565b80600019048211811515166137da570290565b6137e2612fa9565b0290565b909190156137f2575090565b8151156138025750805190602001fd5b60405162461bcd60e51b81526020600482015290819061056f906024830190610612565b602090805115613834570190565b6126d2612fd8565b602190805160011015613834570190565b90602091805182101561385f57010190565b613867612fd8565b010190565b801561387a575b6000190190565b613882612fa9565b613873565b1561388e57565b606460405162461bcd60e51b815260206004820152602060248201527f537472696e67733a20686578206c656e67746820696e73756666696369656e746044820152fd5b60405190606082018281106001600160401b03821117613962575b604052602a82526040366020840137603061390783613826565b5360786139138361383c565b536029905b6001821161392b57610648915015613887565b80600f61395c9216601081101561231d576f181899199a1a9b1b9c1cb0b131b232b360811b901a61230e848661384d565b90613918565b61396a610720565b6138ed565b7f8e6595ef9afb2a8f70320f393f567bb7a0e6c4ed483caee30f90cc5fcd6659b4613998612ac1565b9060306139a483613826565b5360786139b08361383c565b536041905b600182116139c857610648915015613887565b80600f6139f99216601081101561231d576f181899199a1a9b1b9c1cb0b131b232b360811b901a61230e848661384d565b906139b5565b601f8111613a0b575050565b6000906000805160206143a183398151915282527feea97fdf38e36104b6e79f51a620e17443f803bd4254b3af64efdf6a8301c697906020601f850160051c83019410613a73575b601f0160051c01915b828110613a6857505050565b818155600101613a5c565b9092508290613a53565b601f8111613a89575050565b600090609982527f72a152ddfb8e864297c917af52ea6c1c68aead0fee1a62673fcc7e0c94979d00906020601f850160051c83019410613ae4575b601f0160051c01915b828110613ad957505050565b818155600101613acd565b9092508290613ac4565b9081516001600160401b038111613bd8575b613b1481613b0f609954612e74565b613a7d565b602080601f8311600114613b505750819293600092613b45575b50508160011b916000199060031b1c191617609955565b015190503880613b2e565b90601f19831694613b8360996000527f72a152ddfb8e864297c917af52ea6c1c68aead0fee1a62673fcc7e0c94979d0090565b926000905b878210613bc0575050836001959610613ba7575b505050811b01609955565b015160001960f88460031b161c19169055388080613b9c565b80600185968294968601518155019501930190613b88565b613be0610720565b613b00565b15613bec57565b60405162461bcd60e51b815260206004820152602e60248201527f496e697469616c697a61626c653a20636f6e747261637420697320616c72656160448201526d191e481a5b9a5d1a585b1a5e995960921b6064820152608490fd5b15613c4f57565b60405162461bcd60e51b815260206004820152602b60248201527f496e697469616c697a61626c653a20636f6e7472616374206973206e6f74206960448201526a6e697469616c697a696e6760a81b6064820152608490fd5b9493929190613cb6866126d6565b80516001600160401b038111613d8c575b6000805160206143a183398151915291613ce582610be08554612e74565b60209081601f8411600114613d2b575093610c3993836107bb9a999794610c2b94610c3f9a98600092610c4d5750508160011b916000199060031b1c19161790556128f5565b9190601f198416613d3a612eae565b936000905b828210613d7457505084610c2b94610c3f9a9894610c3998946107bb9e9d9b9860019510610ca157505050811b0190556128f5565b80600186978294978701518155019601940190613d3f565b613d94610720565b613cc7565b6107bb906104b560ff60005460081c16613c48565b613db790612797565b731820a4b7618bde71dce8cdc73aab6c95905fad24803b613dd55750565b803b1561000e5760405163a41e7d5160e01b808252306004830152632e93c56f60e11b6024830152600091828160448183885af18015613f53575b613f40575b50823b15613efc57604051908152306004820152636cdb3d1360e11b6024820152818160448183875af18015613f33575b613f20575b50813b15611ef5576040516329965a1d60e01b80825230600483018190526001635d278adf60e01b036024840152604483015290828160648183885af18015613f13575b613f00575b50823b15613efc576040519081523060048201819052600163d9b67a2760e01b0360248301526044820152918290818381606481015b03925af18015613eef575b613edc5750565b80613ee96107bb9261075f565b806112d0565b613ef7612b09565b613ed5565b5080fd5b80613ee9613f0d9261075f565b38613e94565b613f1b612b09565b613e8f565b80613ee9613f2d9261075f565b38613e4b565b613f3b612b09565b613e46565b80613ee9613f4d9261075f565b38613e15565b613f5b612b09565b613e10565b613f69906127f8565b731820a4b7618bde71dce8cdc73aab6c95905fad24803b613f875750565b803b1561000e5760405163a41e7d5160e01b8152306004820152636c6eec1360e01b6024820152600090818160448183875af1801561401a575b614007575b50813b15611ef5576040516329965a1d60e01b815230600482018190526001631b1bbb0560e21b036024830152604482015291829081838160648101613eca565b80613ee96140149261075f565b38613fc6565b614022612b09565b613fc1565b1561402e57565b60405162461bcd60e51b815260206004820152602160248201527f455243313135353a206d696e7420746f20746865207a65726f206164647265736044820152607360f81b6064820152608490fd5b6001600160a01b03811660009081527fef93721591a8283ebcbc635d4596270f18296615bf2ad2acc05699794bf1433160205260409020546107bb939291907feb54e1feee3ae17add098cbf58a47457bf5f7c3a89ceab263cbdb01b3da6d98e9060ff16156140ee575b50506141ab565b600081815260fb602090815260408083206001600160a01b03861684529091529020805460ff191660011790556001600160a01b038061412c614308565b169216906000805160206143618339815191526000604051a438806140e7565b1561415357565b60405162461bcd60e51b815260206004820152602a60248201527f455243323938313a20726f79616c7479206665652077696c6c206578636565646044820152692073616c65507269636560b01b6064820152608490fd5b906001600160601b038116916141c561271084111561414c565b6001600160a01b03169182156141fc5760206040516141e381610737565b848152015260a01b6001600160a01b0319161761019155565b60405162461bcd60e51b815260206004820152601960248201527f455243323938313a20696e76616c6964207265636569766572000000000000006044820152606490fd5b61424a90612859565b731820a4b7618bde71dce8cdc73aab6c95905fad24803b6142685750565b803b1561000e5760405163a41e7d5160e01b815230600482015263054fd4d560e41b6024820152600090818160448183875af180156142fb575b6142e8575b50813b15611ef5576040516329965a1d60e01b8152306004820181905260016354fd4d5160e01b036024830152604482015291829081838160648101613eca565b80613ee96142f59261075f565b386142a7565b614303612b09565b6142a2565b601436101580614328575b156143245736601319013560601c90565b3390565b503360009081527f452ae8ad28077a8dde36d329380df9bfd96077640c4bb696c45031c2933e8ad8602052604090205460ff1661431356fe2f8788117e7eff1d82e926ec794901d17c78024a50270940304540a733656f0d360894a13ba1a3210667c828492db98dca3e2076cc3735a920a3ca505d382bbc59c86eba0f8c3c9659b86fb2776edca2ff990d1509243e9705ae43a6831558c6a26469706673582212209d1c6102c36d5c187bfa284b792d4a819c8b3fec3c831f10b51028f66b259da364736f6c634300080e0033",
  "devdoc": {
    "kind": "dev",
    "methods": {
      "balanceOf(address,uint256)": {
        "details": "See {IERC1155-balanceOf}. Requirements: - `account` cannot be the zero address."
      },
      "balanceOfBatch(address[],uint256[])": {
        "details": "See {IERC1155-balanceOfBatch}. Requirements: - `accounts` and `ids` must have the same length."
      },
      "canImplementInterfaceForAddress(bytes32,address)": {
        "details": "See {IERC1820Implementer-canImplementInterfaceForAddress}."
      },
      "contractURI()": {
        "details": "Returns collection-wide URI-accessible metadata"
      },
      "getImplementation()": {
        "details": "Returns the implementation address."
      },
      "getRoleAdmin(bytes32)": {
        "details": "Returns the admin role that controls `role`. See {grantRole} and {revokeRole}. To change a role's admin, use {_setRoleAdmin}."
      },
      "grantRole(bytes32,address)": {
        "details": "Grants `role` to `account`. If `account` had not been already granted `role`, emits a {RoleGranted} event. Requirements: - the caller must have ``role``'s admin role. May emit a {RoleGranted} event."
      },
      "hasRole(bytes32,address)": {
        "details": "Returns `true` if `account` has been granted `role`."
      },
      "initialize(address,string,address,string,address,uint96)": {
        "details": "Initializes an ERC1155Mintable contract",
        "params": {
          "_admin": "admin for contract",
          "_feeNumerator": "numerator of royalty fee percentage (numerator / 10000)",
          "_feeReceiver": "address of receiver of royalty fees",
          "_gsnForwarder": "GSN Trusted forwarder",
          "_initContractURI": "uri for contract metadata description",
          "_uri": "URI for tokens"
        }
      },
      "isApprovedForAll(address,address)": {
        "details": "See {IERC1155-isApprovedForAll}."
      },
      "isTrustedForwarder(address)": {
        "details": "Determine is an address a GSN trusted forwarder.",
        "params": {
          "forwarder": "address to query"
        },
        "returns": {
          "_0": "OpenGSN trusted forwarder status"
        }
      },
      "mint(address,uint256,uint256,bytes)": {
        "details": "Allows MINTER_ROLE to mint NFTs",
        "params": {
          "amount": "to mint",
          "data": "for hooks",
          "id": "tokenId value",
          "to": "address to"
        }
      },
      "mintBatch(address,uint256[],uint256[],bytes)": {
        "details": "Allows caller to mint NFTs (safeMint)",
        "params": {
          "amounts": "to mint",
          "data": "for hooks",
          "ids": "id values",
          "to": "address to"
        }
      },
      "proxiableUUID()": {
        "details": "Implementation of the ERC1822 {proxiableUUID} function. This returns the storage slot used by the implementation. It is used to validate that the this implementation remains valid after an upgrade. IMPORTANT: A proxy pointing at a proxiable contract should not be considered proxiable itself, because this risks bricking a proxy that upgrades to it, by delegating to itself until out of gas. Thus it is critical that this function revert if invoked through a proxy. This is guaranteed by the `notDelegated` modifier."
      },
      "renounceRole(bytes32,address)": {
        "details": "Revokes `role` from the calling account. Roles are often managed via {grantRole} and {revokeRole}: this function's purpose is to provide a mechanism for accounts to lose their privileges if they are compromised (such as when a trusted device is misplaced). If the calling account had been revoked `role`, emits a {RoleRevoked} event. Requirements: - the caller must be `account`. May emit a {RoleRevoked} event."
      },
      "revokeRole(bytes32,address)": {
        "details": "Revokes `role` from `account`. If `account` had been granted `role`, emits a {RoleRevoked} event. Requirements: - the caller must have ``role``'s admin role. May emit a {RoleRevoked} event."
      },
      "royaltyInfo(uint256,uint256)": {
        "details": "Returns how much royalty is owed and to whom, based on a sale price that may be denominated in any unit of exchange. The royalty amount is denominated and should be paid in that same unit of exchange."
      },
      "safeBatchTransferFrom(address,address,uint256[],uint256[],bytes)": {
        "details": "See {IERC1155-safeBatchTransferFrom}."
      },
      "safeTransferFrom(address,address,uint256,uint256,bytes)": {
        "details": "See {IERC1155-safeTransferFrom}."
      },
      "setApprovalForAll(address,bool)": {
        "details": "See {IERC1155-setApprovalForAll}."
      },
      "setContractURI(string)": {
        "details": "Set contract uri"
      },
      "setDefaultRoyalty(address,uint96)": {
        "details": "Exposing `_setDefaultRoyalty`"
      },
      "setTokenRoyalty(uint256,address,uint96)": {
        "details": "exposing `_setTokenRoyalty`"
      },
      "setURI(string)": {
        "details": "Allows setting the uri",
        "params": {
          "newuri": "set the baseURI value."
        }
      },
      "supportsInterface(bytes4)": {
        "details": "ERC165 Support",
        "params": {
          "interfaceId": "XOR of the external functions of the interface"
        },
        "returns": {
          "_0": "bool whether interface is supported"
        }
      },
      "upgradeTo(address)": {
        "details": "Upgrade the implementation of the proxy to `newImplementation`. Calls {_authorizeUpgrade}. Emits an {Upgraded} event."
      },
      "upgradeToAndCall(address,bytes)": {
        "details": "Upgrade the implementation of the proxy to `newImplementation`, and subsequently execute the function call encoded in `data`. Calls {_authorizeUpgrade}. Emits an {Upgraded} event."
      },
      "uri(uint256)": {
        "details": "See {IERC1155MetadataURI-uri}. This implementation returns the same URI for *all* token types. It relies on the token type ID substitution mechanism https://eips.ethereum.org/EIPS/eip-1155#metadata[defined in the EIP]. Clients calling this function must replace the `\\{id\\}` substring with the actual token type ID."
      },
      "version()": {
        "details": "OwlProtocol contract version. Used to determine compatibility interoperable with other Owl contracts."
      },
      "versionRecipient()": {
        "details": "Returns OpenGSN contract version (used for compatibility checks)"
      }
    },
    "version": 1
  },
  "storageLayout": {
    "storage": [
      {
        "astId": 1451,
        "contract": "contracts/assets/ERC1155/ERC1155Mintable.sol:ERC1155Mintable",
        "label": "_initialized",
        "offset": 0,
        "slot": "0",
        "type": "t_uint8"
      },
      {
        "astId": 1454,
        "contract": "contracts/assets/ERC1155/ERC1155Mintable.sol:ERC1155Mintable",
        "label": "_initializing",
        "offset": 1,
        "slot": "0",
        "type": "t_bool"
      },
      {
        "astId": 1433,
        "contract": "contracts/assets/ERC1155/ERC1155Mintable.sol:ERC1155Mintable",
        "label": "__gap",
        "offset": 0,
        "slot": "1",
        "type": "t_array(t_uint256)50_storage"
      },
      {
        "astId": 7523,
        "contract": "contracts/assets/ERC1155/ERC1155Mintable.sol:ERC1155Mintable",
        "label": "__gap",
        "offset": 0,
        "slot": "51",
        "type": "t_array(t_uint256)50_storage"
      },
      {
        "astId": 8038,
        "contract": "contracts/assets/ERC1155/ERC1155Mintable.sol:ERC1155Mintable",
        "label": "__gap",
        "offset": 0,
        "slot": "101",
        "type": "t_array(t_uint256)50_storage"
      },
      {
        "astId": 1887,
        "contract": "contracts/assets/ERC1155/ERC1155Mintable.sol:ERC1155Mintable",
        "label": "_balances",
        "offset": 0,
        "slot": "151",
        "type": "t_mapping(t_uint256,t_mapping(t_address,t_uint256))"
      },
      {
        "astId": 1893,
        "contract": "contracts/assets/ERC1155/ERC1155Mintable.sol:ERC1155Mintable",
        "label": "_operatorApprovals",
        "offset": 0,
        "slot": "152",
        "type": "t_mapping(t_address,t_mapping(t_address,t_bool))"
      },
      {
        "astId": 1895,
        "contract": "contracts/assets/ERC1155/ERC1155Mintable.sol:ERC1155Mintable",
        "label": "_uri",
        "offset": 0,
        "slot": "153",
        "type": "t_string_storage"
      },
      {
        "astId": 3102,
        "contract": "contracts/assets/ERC1155/ERC1155Mintable.sol:ERC1155Mintable",
        "label": "__gap",
        "offset": 0,
        "slot": "154",
        "type": "t_array(t_uint256)47_storage"
      },
      {
        "astId": 3354,
        "contract": "contracts/assets/ERC1155/ERC1155Mintable.sol:ERC1155Mintable",
        "label": "__gap",
        "offset": 0,
        "slot": "201",
        "type": "t_array(t_uint256)50_storage"
      },
      {
        "astId": 426,
        "contract": "contracts/assets/ERC1155/ERC1155Mintable.sol:ERC1155Mintable",
        "label": "_roles",
        "offset": 0,
        "slot": "251",
        "type": "t_mapping(t_bytes32,t_struct(RoleData)421_storage)"
      },
      {
        "astId": 725,
        "contract": "contracts/assets/ERC1155/ERC1155Mintable.sol:ERC1155Mintable",
        "label": "__gap",
        "offset": 0,
        "slot": "252",
        "type": "t_array(t_uint256)49_storage"
      },
      {
        "astId": 1730,
        "contract": "contracts/assets/ERC1155/ERC1155Mintable.sol:ERC1155Mintable",
        "label": "__gap",
        "offset": 0,
        "slot": "301",
        "type": "t_array(t_uint256)50_storage"
      },
      {
        "astId": 8071,
        "contract": "contracts/assets/ERC1155/ERC1155Mintable.sol:ERC1155Mintable",
        "label": "_supportedInterfaces",
        "offset": 0,
        "slot": "351",
        "type": "t_mapping(t_bytes32,t_mapping(t_address,t_bool))"
      },
      {
        "astId": 8117,
        "contract": "contracts/assets/ERC1155/ERC1155Mintable.sol:ERC1155Mintable",
        "label": "__gap",
        "offset": 0,
        "slot": "352",
        "type": "t_array(t_uint256)49_storage"
      },
      {
        "astId": 7006,
        "contract": "contracts/assets/ERC1155/ERC1155Mintable.sol:ERC1155Mintable",
        "label": "_defaultRoyaltyInfo",
        "offset": 0,
        "slot": "401",
        "type": "t_struct(RoyaltyInfo)7003_storage"
      },
      {
        "astId": 7011,
        "contract": "contracts/assets/ERC1155/ERC1155Mintable.sol:ERC1155Mintable",
        "label": "_tokenRoyaltyInfo",
        "offset": 0,
        "slot": "402",
        "type": "t_mapping(t_uint256,t_struct(RoyaltyInfo)7003_storage)"
      },
      {
        "astId": 7191,
        "contract": "contracts/assets/ERC1155/ERC1155Mintable.sol:ERC1155Mintable",
        "label": "__gap",
        "offset": 0,
        "slot": "403",
        "type": "t_array(t_uint256)48_storage"
      },
      {
        "astId": 9163,
        "contract": "contracts/assets/ERC1155/ERC1155Mintable.sol:ERC1155Mintable",
        "label": "__gap",
        "offset": 0,
        "slot": "451",
        "type": "t_array(t_uint256)50_storage"
      },
      {
        "astId": 9368,
        "contract": "contracts/assets/ERC1155/ERC1155Mintable.sol:ERC1155Mintable",
        "label": "__gap",
        "offset": 0,
        "slot": "501",
        "type": "t_array(t_uint256)50_storage"
      }
    ],
    "types": {
      "t_address": {
        "encoding": "inplace",
        "label": "address",
        "numberOfBytes": "20"
      },
      "t_array(t_uint256)47_storage": {
        "base": "t_uint256",
        "encoding": "inplace",
        "label": "uint256[47]",
        "numberOfBytes": "1504"
      },
      "t_array(t_uint256)48_storage": {
        "base": "t_uint256",
        "encoding": "inplace",
        "label": "uint256[48]",
        "numberOfBytes": "1536"
      },
      "t_array(t_uint256)49_storage": {
        "base": "t_uint256",
        "encoding": "inplace",
        "label": "uint256[49]",
        "numberOfBytes": "1568"
      },
      "t_array(t_uint256)50_storage": {
        "base": "t_uint256",
        "encoding": "inplace",
        "label": "uint256[50]",
        "numberOfBytes": "1600"
      },
      "t_bool": {
        "encoding": "inplace",
        "label": "bool",
        "numberOfBytes": "1"
      },
      "t_bytes32": {
        "encoding": "inplace",
        "label": "bytes32",
        "numberOfBytes": "32"
      },
      "t_mapping(t_address,t_bool)": {
        "encoding": "mapping",
        "key": "t_address",
        "label": "mapping(address => bool)",
        "numberOfBytes": "32",
        "value": "t_bool"
      },
      "t_mapping(t_address,t_mapping(t_address,t_bool))": {
        "encoding": "mapping",
        "key": "t_address",
        "label": "mapping(address => mapping(address => bool))",
        "numberOfBytes": "32",
        "value": "t_mapping(t_address,t_bool)"
      },
      "t_mapping(t_address,t_uint256)": {
        "encoding": "mapping",
        "key": "t_address",
        "label": "mapping(address => uint256)",
        "numberOfBytes": "32",
        "value": "t_uint256"
      },
      "t_mapping(t_bytes32,t_mapping(t_address,t_bool))": {
        "encoding": "mapping",
        "key": "t_bytes32",
        "label": "mapping(bytes32 => mapping(address => bool))",
        "numberOfBytes": "32",
        "value": "t_mapping(t_address,t_bool)"
      },
      "t_mapping(t_bytes32,t_struct(RoleData)421_storage)": {
        "encoding": "mapping",
        "key": "t_bytes32",
        "label": "mapping(bytes32 => struct AccessControlUpgradeable.RoleData)",
        "numberOfBytes": "32",
        "value": "t_struct(RoleData)421_storage"
      },
      "t_mapping(t_uint256,t_mapping(t_address,t_uint256))": {
        "encoding": "mapping",
        "key": "t_uint256",
        "label": "mapping(uint256 => mapping(address => uint256))",
        "numberOfBytes": "32",
        "value": "t_mapping(t_address,t_uint256)"
      },
      "t_mapping(t_uint256,t_struct(RoyaltyInfo)7003_storage)": {
        "encoding": "mapping",
        "key": "t_uint256",
        "label": "mapping(uint256 => struct ERC2981Upgradeable.RoyaltyInfo)",
        "numberOfBytes": "32",
        "value": "t_struct(RoyaltyInfo)7003_storage"
      },
      "t_string_storage": {
        "encoding": "bytes",
        "label": "string",
        "numberOfBytes": "32"
      },
      "t_struct(RoleData)421_storage": {
        "encoding": "inplace",
        "label": "struct AccessControlUpgradeable.RoleData",
        "members": [
          {
            "astId": 418,
            "contract": "contracts/assets/ERC1155/ERC1155Mintable.sol:ERC1155Mintable",
            "label": "members",
            "offset": 0,
            "slot": "0",
            "type": "t_mapping(t_address,t_bool)"
          },
          {
            "astId": 420,
            "contract": "contracts/assets/ERC1155/ERC1155Mintable.sol:ERC1155Mintable",
            "label": "adminRole",
            "offset": 0,
            "slot": "1",
            "type": "t_bytes32"
          }
        ],
        "numberOfBytes": "64"
      },
      "t_struct(RoyaltyInfo)7003_storage": {
        "encoding": "inplace",
        "label": "struct ERC2981Upgradeable.RoyaltyInfo",
        "members": [
          {
            "astId": 7000,
            "contract": "contracts/assets/ERC1155/ERC1155Mintable.sol:ERC1155Mintable",
            "label": "receiver",
            "offset": 0,
            "slot": "0",
            "type": "t_address"
          },
          {
            "astId": 7002,
            "contract": "contracts/assets/ERC1155/ERC1155Mintable.sol:ERC1155Mintable",
            "label": "royaltyFraction",
            "offset": 20,
            "slot": "0",
            "type": "t_uint96"
          }
        ],
        "numberOfBytes": "32"
      },
      "t_uint256": {
        "encoding": "inplace",
        "label": "uint256",
        "numberOfBytes": "32"
      },
      "t_uint8": {
        "encoding": "inplace",
        "label": "uint8",
        "numberOfBytes": "1"
      },
      "t_uint96": {
        "encoding": "inplace",
        "label": "uint96",
        "numberOfBytes": "12"
      }
    }
  }
}