{
  "address": "0x129CF4661350916A1de9A002601b6B16517698cf",
  "abi": [
    {
      "inputs": [],
      "stateMutability": "nonpayable",
      "type": "constructor"
    },
    {
      "anonymous": false,
      "inputs": [
        {
          "indexed": false,
          "internalType": "address",
          "name": "previousAdmin",
          "type": "address"
        },
        {
          "indexed": false,
          "internalType": "address",
          "name": "newAdmin",
          "type": "address"
        }
      ],
      "name": "AdminChanged",
      "type": "event"
    },
    {
      "anonymous": false,
      "inputs": [
        {
          "indexed": true,
          "internalType": "address",
          "name": "owner",
          "type": "address"
        },
        {
          "indexed": true,
          "internalType": "address",
          "name": "spender",
          "type": "address"
        },
        {
          "indexed": false,
          "internalType": "uint256",
          "name": "value",
          "type": "uint256"
        }
      ],
      "name": "Approval",
      "type": "event"
    },
    {
      "anonymous": false,
      "inputs": [
        {
          "indexed": true,
          "internalType": "address",
          "name": "beacon",
          "type": "address"
        }
      ],
      "name": "BeaconUpgraded",
      "type": "event"
    },
    {
      "anonymous": false,
      "inputs": [
        {
          "indexed": false,
          "internalType": "uint8",
          "name": "version",
          "type": "uint8"
        }
      ],
      "name": "Initialized",
      "type": "event"
    },
    {
      "anonymous": false,
      "inputs": [
        {
          "indexed": true,
          "internalType": "bytes32",
          "name": "role",
          "type": "bytes32"
        },
        {
          "indexed": true,
          "internalType": "bytes32",
          "name": "previousAdminRole",
          "type": "bytes32"
        },
        {
          "indexed": true,
          "internalType": "bytes32",
          "name": "newAdminRole",
          "type": "bytes32"
        }
      ],
      "name": "RoleAdminChanged",
      "type": "event"
    },
    {
      "anonymous": false,
      "inputs": [
        {
          "indexed": true,
          "internalType": "bytes32",
          "name": "role",
          "type": "bytes32"
        },
        {
          "indexed": true,
          "internalType": "address",
          "name": "account",
          "type": "address"
        },
        {
          "indexed": true,
          "internalType": "address",
          "name": "sender",
          "type": "address"
        }
      ],
      "name": "RoleGranted",
      "type": "event"
    },
    {
      "anonymous": false,
      "inputs": [
        {
          "indexed": true,
          "internalType": "bytes32",
          "name": "role",
          "type": "bytes32"
        },
        {
          "indexed": true,
          "internalType": "address",
          "name": "account",
          "type": "address"
        },
        {
          "indexed": true,
          "internalType": "address",
          "name": "sender",
          "type": "address"
        }
      ],
      "name": "RoleRevoked",
      "type": "event"
    },
    {
      "anonymous": false,
      "inputs": [
        {
          "indexed": true,
          "internalType": "address",
          "name": "from",
          "type": "address"
        },
        {
          "indexed": true,
          "internalType": "address",
          "name": "to",
          "type": "address"
        },
        {
          "indexed": false,
          "internalType": "uint256",
          "name": "value",
          "type": "uint256"
        }
      ],
      "name": "Transfer",
      "type": "event"
    },
    {
      "anonymous": false,
      "inputs": [
        {
          "indexed": true,
          "internalType": "address",
          "name": "implementation",
          "type": "address"
        }
      ],
      "name": "Upgraded",
      "type": "event"
    },
    {
      "inputs": [],
      "name": "DEFAULT_ADMIN_ROLE",
      "outputs": [
        {
          "internalType": "bytes32",
          "name": "",
          "type": "bytes32"
        }
      ],
      "stateMutability": "view",
      "type": "function"
    },
    {
      "inputs": [
        {
          "internalType": "address",
          "name": "owner",
          "type": "address"
        },
        {
          "internalType": "address",
          "name": "spender",
          "type": "address"
        }
      ],
      "name": "allowance",
      "outputs": [
        {
          "internalType": "uint256",
          "name": "",
          "type": "uint256"
        }
      ],
      "stateMutability": "view",
      "type": "function"
    },
    {
      "inputs": [
        {
          "internalType": "address",
          "name": "spender",
          "type": "address"
        },
        {
          "internalType": "uint256",
          "name": "amount",
          "type": "uint256"
        }
      ],
      "name": "approve",
      "outputs": [
        {
          "internalType": "bool",
          "name": "",
          "type": "bool"
        }
      ],
      "stateMutability": "nonpayable",
      "type": "function"
    },
    {
      "inputs": [
        {
          "internalType": "address",
          "name": "account",
          "type": "address"
        }
      ],
      "name": "balanceOf",
      "outputs": [
        {
          "internalType": "uint256",
          "name": "",
          "type": "uint256"
        }
      ],
      "stateMutability": "view",
      "type": "function"
    },
    {
      "inputs": [
        {
          "internalType": "uint256",
          "name": "amount",
          "type": "uint256"
        }
      ],
      "name": "burn",
      "outputs": [],
      "stateMutability": "nonpayable",
      "type": "function"
    },
    {
      "inputs": [
        {
          "internalType": "address",
          "name": "account",
          "type": "address"
        },
        {
          "internalType": "uint256",
          "name": "amount",
          "type": "uint256"
        }
      ],
      "name": "burnFrom",
      "outputs": [],
      "stateMutability": "nonpayable",
      "type": "function"
    },
    {
      "inputs": [
        {
          "internalType": "bytes32",
          "name": "interfaceHash",
          "type": "bytes32"
        },
        {
          "internalType": "address",
          "name": "account",
          "type": "address"
        }
      ],
      "name": "canImplementInterfaceForAddress",
      "outputs": [
        {
          "internalType": "bytes32",
          "name": "",
          "type": "bytes32"
        }
      ],
      "stateMutability": "view",
      "type": "function"
    },
    {
      "inputs": [],
      "name": "contractURI",
      "outputs": [
        {
          "internalType": "string",
          "name": "",
          "type": "string"
        }
      ],
      "stateMutability": "view",
      "type": "function"
    },
    {
      "inputs": [],
      "name": "decimals",
      "outputs": [
        {
          "internalType": "uint8",
          "name": "",
          "type": "uint8"
        }
      ],
      "stateMutability": "view",
      "type": "function"
    },
    {
      "inputs": [
        {
          "internalType": "address",
          "name": "spender",
          "type": "address"
        },
        {
          "internalType": "uint256",
          "name": "subtractedValue",
          "type": "uint256"
        }
      ],
      "name": "decreaseAllowance",
      "outputs": [
        {
          "internalType": "bool",
          "name": "",
          "type": "bool"
        }
      ],
      "stateMutability": "nonpayable",
      "type": "function"
    },
    {
      "inputs": [],
      "name": "getImplementation",
      "outputs": [
        {
          "internalType": "address",
          "name": "",
          "type": "address"
        }
      ],
      "stateMutability": "view",
      "type": "function"
    },
    {
      "inputs": [
        {
          "internalType": "bytes32",
          "name": "role",
          "type": "bytes32"
        }
      ],
      "name": "getRoleAdmin",
      "outputs": [
        {
          "internalType": "bytes32",
          "name": "",
          "type": "bytes32"
        }
      ],
      "stateMutability": "view",
      "type": "function"
    },
    {
      "inputs": [
        {
          "internalType": "bytes32",
          "name": "role",
          "type": "bytes32"
        },
        {
          "internalType": "address",
          "name": "account",
          "type": "address"
        }
      ],
      "name": "grantRole",
      "outputs": [],
      "stateMutability": "nonpayable",
      "type": "function"
    },
    {
      "inputs": [
        {
          "internalType": "bytes32",
          "name": "role",
          "type": "bytes32"
        },
        {
          "internalType": "address",
          "name": "account",
          "type": "address"
        }
      ],
      "name": "hasRole",
      "outputs": [
        {
          "internalType": "bool",
          "name": "",
          "type": "bool"
        }
      ],
      "stateMutability": "view",
      "type": "function"
    },
    {
      "inputs": [
        {
          "internalType": "address",
          "name": "spender",
          "type": "address"
        },
        {
          "internalType": "uint256",
          "name": "addedValue",
          "type": "uint256"
        }
      ],
      "name": "increaseAllowance",
      "outputs": [
        {
          "internalType": "bool",
          "name": "",
          "type": "bool"
        }
      ],
      "stateMutability": "nonpayable",
      "type": "function"
    },
    {
      "inputs": [
        {
          "internalType": "address",
          "name": "_admin",
          "type": "address"
        },
        {
          "internalType": "string",
          "name": "_initContractURI",
          "type": "string"
        },
        {
          "internalType": "address",
          "name": "_gsnForwarder",
          "type": "address"
        },
        {
          "internalType": "string",
          "name": "_name",
          "type": "string"
        },
        {
          "internalType": "string",
          "name": "_symbol",
          "type": "string"
        }
      ],
      "name": "initialize",
      "outputs": [],
      "stateMutability": "nonpayable",
      "type": "function"
    },
    {
      "inputs": [
        {
          "internalType": "address",
          "name": "forwarder",
          "type": "address"
        }
      ],
      "name": "isTrustedForwarder",
      "outputs": [
        {
          "internalType": "bool",
          "name": "",
          "type": "bool"
        }
      ],
      "stateMutability": "view",
      "type": "function"
    },
    {
      "inputs": [
        {
          "internalType": "address",
          "name": "to",
          "type": "address"
        },
        {
          "internalType": "uint256",
          "name": "amount",
          "type": "uint256"
        }
      ],
      "name": "mint",
      "outputs": [],
      "stateMutability": "nonpayable",
      "type": "function"
    },
    {
      "inputs": [],
      "name": "name",
      "outputs": [
        {
          "internalType": "string",
          "name": "",
          "type": "string"
        }
      ],
      "stateMutability": "view",
      "type": "function"
    },
    {
      "inputs": [],
      "name": "proxiableUUID",
      "outputs": [
        {
          "internalType": "bytes32",
          "name": "",
          "type": "bytes32"
        }
      ],
      "stateMutability": "view",
      "type": "function"
    },
    {
      "inputs": [
        {
          "internalType": "address",
          "name": "_admin",
          "type": "address"
        },
        {
          "internalType": "string",
          "name": "_initContractURI",
          "type": "string"
        },
        {
          "internalType": "address",
          "name": "_gsnForwarder",
          "type": "address"
        },
        {
          "internalType": "string",
          "name": "_name",
          "type": "string"
        },
        {
          "internalType": "string",
          "name": "_symbol",
          "type": "string"
        }
      ],
      "name": "proxyInitialize",
      "outputs": [],
      "stateMutability": "nonpayable",
      "type": "function"
    },
    {
      "inputs": [
        {
          "internalType": "bytes32",
          "name": "role",
          "type": "bytes32"
        },
        {
          "internalType": "address",
          "name": "account",
          "type": "address"
        }
      ],
      "name": "renounceRole",
      "outputs": [],
      "stateMutability": "nonpayable",
      "type": "function"
    },
    {
      "inputs": [
        {
          "internalType": "bytes32",
          "name": "role",
          "type": "bytes32"
        },
        {
          "internalType": "address",
          "name": "account",
          "type": "address"
        }
      ],
      "name": "revokeRole",
      "outputs": [],
      "stateMutability": "nonpayable",
      "type": "function"
    },
    {
      "inputs": [
        {
          "internalType": "string",
          "name": "uri",
          "type": "string"
        }
      ],
      "name": "setContractURI",
      "outputs": [],
      "stateMutability": "nonpayable",
      "type": "function"
    },
    {
      "inputs": [
        {
          "internalType": "bytes4",
          "name": "interfaceId",
          "type": "bytes4"
        }
      ],
      "name": "supportsInterface",
      "outputs": [
        {
          "internalType": "bool",
          "name": "",
          "type": "bool"
        }
      ],
      "stateMutability": "view",
      "type": "function"
    },
    {
      "inputs": [],
      "name": "symbol",
      "outputs": [
        {
          "internalType": "string",
          "name": "",
          "type": "string"
        }
      ],
      "stateMutability": "view",
      "type": "function"
    },
    {
      "inputs": [],
      "name": "totalSupply",
      "outputs": [
        {
          "internalType": "uint256",
          "name": "",
          "type": "uint256"
        }
      ],
      "stateMutability": "view",
      "type": "function"
    },
    {
      "inputs": [
        {
          "internalType": "address",
          "name": "to",
          "type": "address"
        },
        {
          "internalType": "uint256",
          "name": "amount",
          "type": "uint256"
        }
      ],
      "name": "transfer",
      "outputs": [
        {
          "internalType": "bool",
          "name": "",
          "type": "bool"
        }
      ],
      "stateMutability": "nonpayable",
      "type": "function"
    },
    {
      "inputs": [
        {
          "internalType": "address",
          "name": "from",
          "type": "address"
        },
        {
          "internalType": "address",
          "name": "to",
          "type": "address"
        },
        {
          "internalType": "uint256",
          "name": "amount",
          "type": "uint256"
        }
      ],
      "name": "transferFrom",
      "outputs": [
        {
          "internalType": "bool",
          "name": "",
          "type": "bool"
        }
      ],
      "stateMutability": "nonpayable",
      "type": "function"
    },
    {
      "inputs": [
        {
          "internalType": "address",
          "name": "newImplementation",
          "type": "address"
        }
      ],
      "name": "upgradeTo",
      "outputs": [],
      "stateMutability": "nonpayable",
      "type": "function"
    },
    {
      "inputs": [
        {
          "internalType": "address",
          "name": "newImplementation",
          "type": "address"
        },
        {
          "internalType": "bytes",
          "name": "data",
          "type": "bytes"
        }
      ],
      "name": "upgradeToAndCall",
      "outputs": [],
      "stateMutability": "payable",
      "type": "function"
    },
    {
      "inputs": [],
      "name": "version",
      "outputs": [
        {
          "internalType": "string",
          "name": "",
          "type": "string"
        }
      ],
      "stateMutability": "pure",
      "type": "function"
    },
    {
      "inputs": [],
      "name": "versionRecipient",
      "outputs": [
        {
          "internalType": "string",
          "name": "",
          "type": "string"
        }
      ],
      "stateMutability": "pure",
      "type": "function"
    }
  ],
  "args": [],
  "numDeployments": 7,
  "solcInputHash": "2fe98e12c0031ec2a7dec3df9237bffc",
  "bytecode": "0x60a0806040523461003157306080526135d7908161003782396080518181816108a001528181610d660152610e7c0152f35b600080fdfe60806040526004361015610013575b600080fd5b60003560e01c806301ffc9a7146102a757806306fdde031461029e578063095ea7b31461029557806318160ddd1461028c57806323b872dd14610283578063248a9ca31461027a578063249cb3fa146102715780632f2ff15d14610268578063313ce5671461025f57806336568abe146102565780633659cfe61461024d578063395093511461024457806340c10f191461023b57806342966c6814610232578063486ff0cd146102295780634f1ef2861461022057806352d1902d1461021757806354fd4d501461020e578063572b6c051461020557806370a08231146101fc57806379cc6790146101f357806391d14854146101ea578063938e3d7b146101e157806395d89b41146101d8578063a217fddf146101cf578063a457c2d7146101c6578063a9059cbb146101bd578063aaf10f42146101b4578063d547741f146101ab578063dd62ed3e146101a2578063ddc6326314610199578063e85d3b14146101905763e8a3d4851461018857600080fd5b61000e6117cd565b5061000e6116e4565b5061000e611585565b5061000e611478565b5061000e611438565b5061000e611401565b5061000e611383565b5061000e6112d0565b5061000e6112b3565b5061000e611208565b5061000e6110f5565b5061000e611090565b5061000e611007565b5061000e610fcb565b5061000e610f6c565b5061000e610f2e565b5061000e610e68565b5061000e610d17565b5061000e610c04565b5061000e610b8d565b5061000e610a93565b5061000e6109e4565b5061000e61087c565b5061000e61078e565b5061000e610771565b5061000e61069e565b5061000e610619565b5061000e6105e9565b5061000e610557565b5061000e610537565b5061000e6104ad565b5061000e61039e565b503461000e57602036600319011261000e5760043563ffffffff60e01b811680910361000e576020906340c10f1960e01b81149081156102ed575b506040519015158152f35b63054fd4d560e41b811491508115610307575b50386102e2565b6303e8939960e31b811491508115610321575b5038610300565b633d96f4ff60e11b1490503861031a565b600091031261000e57565b918091926000905b82821061035d575011610356575050565b6000910152565b91508060209183015181860152018291610345565b60409160208252610392815180928160208601526020868601910161033d565b601f01601f1916010190565b503461000e5760008060031936011261047e576040519080610130908154906103c6826123c1565b8086529260019280841690811561045a5750600114610400575b6103fc866103f081880382610c95565b60405191829182610372565b0390f35b815292507f2f605e086faac1d93117bbfbc18835d434e9405fadc1ca66faf4b864746daf345b8284106104425750505081016020016103f0826103fc386103e0565b80546020858701810191909152909301928101610426565b60ff1916602088015250506040850193506103f092508491506103fc9050386103e0565b80fd5b600435906001600160a01b038216820361000e57565b602435906001600160a01b038216820361000e57565b503461000e57604036600319011261000e576104f16104ca610481565b6014361015600081610504575b50156104fd5736601319013560601c905b60243591612670565b60405160018152602090f35b33906104e8565b60008051602061358283398151915281526097602090815260409182902033600090815291522060ff91505416386104d7565b503461000e57600036600319011261000e57602061012f54604051908152f35b503461000e57606036600319011261000e576104f1610574610481565b61057c610497565b6044359160143610156000816105b6575b50156105ac576105a78336601319013560601c5b8361279c565b612569565b6105a783336105a1565b60008051602061358283398151915281526097602090815260409182902033600090815291522060ff915054163861058d565b503461000e57602036600319011261000e5760043560005260976020526020600160406000200154604051908152f35b503461000e57604036600319011261000e5760ff61065f610638610497565b60043560005260fb60205260406000209060018060a01b0316600052602052604060002090565b546000911615610696575060207fa2ef4600d742022d532d4747cb3547474667d6f13804902513b2ec01c848f4b45b604051908152f35b60209061068e565b503461000e5760408060031936011261000e57600435906106bd610497565b60009280845260976020526106d760018486200154611b4d565b808452609760209081528385206001600160a01b03841660009081529152604090205460ff161561070757505051f35b808452609760209081528385206001600160a01b0384166000908152915260409020805460ff191660011790556001600160a01b03806107456134e9565b169216907f2f8788117e7eff1d82e926ec794901d17c78024a50270940304540a733656f0d858551a451f35b503461000e57600036600319011261000e57602060405160128152f35b503461000e57604036600319011261000e576107a8610497565b6014361015600081610849575b50156108435736601319013560601c5b6001600160a01b03908116908216036107e6576107e490600435611e41565b005b60405162461bcd60e51b815260206004820152602f60248201527f416363657373436f6e74726f6c3a2063616e206f6e6c792072656e6f756e636560448201526e103937b632b9903337b91039b2b63360891b6064820152608490fd5b336107c5565b60008051602061358283398151915281526097602090815260409182902033600090815291522060ff91505416386107b5565b503461000e57602036600319011261000e57610896610481565b6001600160a01b037f0000000000000000000000000000000000000000000000000000000000000000811691906108cf30841415611f4c565b6108ec600080516020613542833981519152938285541614611fad565b6108f4611884565b60405190602082018281106001600160401b038211176109d7575b604052600082527f4910fdfa16fed3260ed0e7147f7cc6da11a60208b5b9406d12a635614ffd91435460ff161561094c5750506107e49150612110565b6020600491604094939451928380926352d1902d60e01b825286165afa600091816109a7575b506109945760405162461bcd60e51b815280610990600482016120c1565b0390fd5b6107e4936109a29114612063565b6122a2565b6109c991925060203d81116109d0575b6109c18183610c95565b810190612047565b9038610972565b503d6109b7565b6109df610c43565b61090f565b503461000e57604036600319011261000e576104f1610a01610481565b6014361015600081610a60575b5015610a595736601319013560601c905b6001600160a01b03828116600090815261012e60209081526040808320938516835292905220610a53906024359054612448565b91612670565b3390610a1f565b60008051602061358283398151915281526097602090815260409182902033600090815291522060ff9150541638610a0e565b503461000e57604036600319011261000e57610aad610481565b60243590610ab96119c9565b6001600160a01b038116918215610b4857610b4381610b26600094610b0b610b057fddf252ad1be2c89b69c2b068fc378daa952ba7f163c4a11628f55a4df523b3ef9661012f54612448565b61012f55565b6001600160a01b0316600090815261012d6020526040902090565b610b31828254612448565b90556040519081529081906020820190565b0390a3005b60405162461bcd60e51b815260206004820152601f60248201527f45524332303a206d696e7420746f20746865207a65726f2061646472657373006044820152606490fd5b503461000e57602036600319011261000e576014361015600081610bd1575b5015610bc8576107e436601319013560601c5b6004359061284c565b6107e433610bbf565b60008051602061358283398151915281526097602090815260409182902033600090815291522060ff9150541638610bac565b503461000e57600036600319011261000e576103fc604051610c2581610c7a565b6005815264191719171b60d91b602082015260405191829182610372565b50634e487b7160e01b600052604160045260246000fd5b6001600160401b038111610c6d57604052565b610c75610c43565b604052565b604081019081106001600160401b03821117610c6d57604052565b90601f801991011681019081106001600160401b03821117610c6d57604052565b6020906001600160401b038111610cd3575b601f01601f19160190565b610cdb610c43565b610cc8565b929192610cec82610cb6565b91610cfa6040519384610c95565b82948184528183011161000e578281602093846000960137010152565b50604036600319011261000e57610d2c610481565b6024356001600160401b03811161000e573660238201121561000e57610d5c903690602481600401359101610ce0565b6001600160a01b037f00000000000000000000000000000000000000000000000000000000000000008116929190610d9630851415611f4c565b610db3600080516020613542833981519152948286541614611fad565b610dbb611884565b7f4910fdfa16fed3260ed0e7147f7cc6da11a60208b5b9406d12a635614ffd91435460ff1615610df15750506107e49150612110565b6020600491604094939451928380926352d1902d60e01b825286165afa60009181610e48575b50610e355760405162461bcd60e51b815280610990600482016120c1565b6107e493610e439114612063565b6121a0565b610e6191925060203d81116109d0576109c18183610c95565b9038610e17565b503461000e57600036600319011261000e577f00000000000000000000000000000000000000000000000000000000000000006001600160a01b03163003610ec3576040516000805160206135428339815191528152602090f35b60405162461bcd60e51b815260206004820152603860248201527f555550535570677261646561626c653a206d757374206e6f742062652063616c60448201527f6c6564207468726f7567682064656c656761746563616c6c00000000000000006064820152608490fd5b503461000e57600036600319011261000e576103fc604051610f4f81610c7a565b600481526376302e3160e01b602082015260405191829182610372565b503461000e57602036600319011261000e57602060ff610fbf610f8d610481565b6000805160206135828339815191526000526097845260406000209060018060a01b0316600052602052604060002090565b54166040519015158152f35b503461000e57602036600319011261000e576001600160a01b03610fed610481565b1660005261012d6020526020604060002054604051908152f35b503461000e57604036600319011261000e576107e4611024610481565b60243590601436101560008161105d575b50156110535761104e8236601319013560601c8361279c565b61284c565b61104e82336105a1565b60008051602061358283398151915281526097602090815260409182902033600090815291522060ff9150541638611035565b503461000e57604036600319011261000e57602060ff610fbf6110b1610497565b6004356000526097845260406000209060018060a01b0316600052602052604060002090565b9080601f8301121561000e578160206110f293359101610ce0565b90565b503461000e5760208060031936011261000e576001600160401b039060043582811161000e576111299036906004016110d7565b91611132611a8b565b82519081116111fb575b6000805160206135628339815191529161115f8261115a85546123c1565b613013565b80601f8311600114611198575081929360009261118d575b50508160011b916000199060031b1c1916179055005b015190503880611177565b90601f198316946111a76123fb565b926000905b8782106111e35750508360019596106111ca575b505050811b019055005b015160001960f88460031b161c191690553880806111c0565b806001859682949686015181550195019301906111ac565b611203610c43565b61113c565b503461000e5760008060031936011261047e57604051908061013190815490611230826123c1565b8086529260019280841690811561045a5750600114611259576103fc866103f081880382610c95565b815292507fbd987ad6ccdb7c7567f7335ea839f95dc944431abcf935b6924f70215963db735b82841061129b5750505081016020016103f0826103fc386103e0565b8054602085870181019190915290930192810161127f565b503461000e57600036600319011261000e57602060405160008152f35b503461000e57604036600319011261000e576104f16112ed610481565b602435906014361015600081611350575b50156113495736601319013560601c915b6001600160a01b03838116600090815261012e60209081526040808320938616835292905220546113428282101561245c565b0391612670565b339161130f565b60008051602061358283398151915281526097602090815260409182902033600090815291522060ff91505416386112fe565b503461000e57604036600319011261000e576104f16113a0610481565b60143610156000816113ce575b50156113c75736601319013560601c905b60243591612569565b33906113be565b60008051602061358283398151915281526097602090815260409182902033600090815291522060ff91505416386113ad565b503461000e57600036600319011261000e57600080516020613542833981519152546040516001600160a01b039091168152602090f35b503461000e57604036600319011261000e576107e4600435611458610497565b90806000526097602052611473600160406000200154611b4d565b611e41565b503461000e57604036600319011261000e5760206114c9611497610481565b61149f610497565b6001600160a01b03918216600090815261012e855260408082209290931681526020919091522090565b54604051908152f35b9181601f8401121561000e578235916001600160401b03831161000e576020838186019501011161000e57565b9060a060031983011261000e576001600160a01b0390600435828116810361000e57926001600160401b039060243582811161000e5781611542916004016110d7565b93604435908116810361000e579260643583811161000e5782611567916004016114d2565b9390939260843591821161000e57611581916004016114d2565b9091565b503461000e57611594366114ff565b939095946115a960ff60005460081c16612d99565b6115b286611c10565b80516001600160401b0381116116d7575b600080516020613562833981519152916115e18261115a85546123c1565b60209081601f841160011461165957506107e4999461163b94846116499a9995611643999561162b9560009261164e575b50508160011b916000199060031b1c1916179055611df2565b61163488613422565b3691610ce0565b923691610ce0565b90612ef7565b613270565b015190503880611612565b9190601f1984166116686123fb565b936000905b8282106116bf57505094600185611643999561162b956107e49f9a956116499e9d9961163b9b106116a6575b505050811b019055611df2565b015160001960f88460031b161c19169055388080611699565b8060018697829497870151815501960194019061166d565b6116df610c43565b6115c3565b503461000e576117416116f6366114ff565b946000979697949194939293549761172560ff8a60081c1615809a819b6117bf575b811561179f575b50612d36565b88611738600160ff196000541617600055565b61178657612df9565b61174757005b61175761ff001960005416600055565b604051600181527f7f26b83ff96e1f2b6a682f133852f6798a09c465da95921460cefb384740249890602090a1005b61179a61010061ff00196000541617600055565b612df9565b303b159150816117b1575b503861171f565b6001915060ff1614386117aa565b600160ff8216109150611718565b503461000e5760008060031936011261047e57604051908060008051602061356283398151915290815490611801826123c1565b8086529260019280841690811561045a575060011461182a576103fc866103f081880382610c95565b815292507feea97fdf38e36104b6e79f51a620e17443f803bd4254b3af64efdf6a8301c6975b82841061186c5750505081016020016103f0826103fc386103e0565b80546020858701810191909152909301928101611850565b6014361015600081611996575b50156119905736601319013560601c5b6001600160a01b03811660009081527f683723e34a772b6e4f2c919bba7fa32ed8ea11a8325f54da7db716e9d9dd98c7602052604090205460ff16156118e45750565b6109909061194d9061197890611902906001600160a01b0316612a81565b61196a61190d612b36565b611947604051958694611947602087016017907f416363657373436f6e74726f6c3a206163636f756e742000000000000000000081520190565b90611bf9565b7001034b99036b4b9b9b4b733903937b6329607d1b815260110190565b03601f198101835282610c95565b60405162461bcd60e51b815291829160048301610372565b336118a1565b60008051602061358283398151915281526097602090815260409182902033600090815291522060ff9150541638611891565b6014361015600081611a58575b5015611a525736601319013560601c5b6001600160a01b03811660009081527f81bcdf06b56c0ed62a68a6ae231e66722c27e6665c84ec0015693a6d86f2bb93602052604090205460ff1615611a295750565b6109909061194d9061197890611a47906001600160a01b0316612a81565b61196a61190d612ba7565b336119e6565b60008051602061358283398151915281526097602090815260409182902033600090815291522060ff91505416386119d6565b6014361015600081611b1a575b5015611b145736601319013560601c5b6001600160a01b03811660009081527f62e46077c3875a2051fa0dcdd1c4cd18bfdd60fe03018733710dc9e484f089a3602052604090205460ff1615611aeb5750565b6109909061194d9061197890611b09906001600160a01b0316612a81565b61196a61190d612c37565b33611aa8565b60008051602061358283398151915281526097602090815260409182902033600090815291522060ff9150541638611a98565b6014361015600081611bc6575b5015611bc05736601319013560601c5b60008281526097602090815260408083206001600160a01b038516845290915290205460ff1615611b99575050565b6119786109909261196a61190d611bba61194d9560018060a01b0316612a81565b92612cc7565b33611b6a565b60008051602061358283398151915281526097602090815260409182902033600090815291522060ff9150541638611b5a565b90611c0c6020928281519485920161033d565b0190565b6001600160a01b03811660009081527f62e46077c3875a2051fa0dcdd1c4cd18bfdd60fe03018733710dc9e484f089a3602052604090207f0ab9ec9ba2423318b97c58cb919c22b4da14401c539342f710b4932382bc2c159060ff905b541615611c78575050565b60008181526097602090815260408083206001600160a01b03861684529091529020805460ff191660011790556001600160a01b0380611cb66134e9565b169216907f2f8788117e7eff1d82e926ec794901d17c78024a50270940304540a733656f0d6000604051a4565b6001600160a01b03811660009081527f81bcdf06b56c0ed62a68a6ae231e66722c27e6665c84ec0015693a6d86f2bb93602052604090207f9f2df0fed2c77648de5860a4cc508cd0818c85b8b8a1ab4ceeef8d981c8956a69060ff90611c6d565b6001600160a01b03811660009081527f683723e34a772b6e4f2c919bba7fa32ed8ea11a8325f54da7db716e9d9dd98c7602052604081205460ff1615611d88575050565b8080526097602090815260408083206001600160a01b038516600090815292529020805460ff191660011790556001600160a01b0380611dc66134e9565b169216907f2f8788117e7eff1d82e926ec794901d17c78024a50270940304540a733656f0d81604051a4565b6001600160a01b03811660009081527fae33a31436ab9cea8f54189966a681a9746f10deb641aef438e7df3ef1426c59602052604090206000805160206135828339815191529060ff90611c6d565b600090808252609760205260ff611e6d84604085209060018060a01b0316600052602052604060002090565b5416611e7857505050565b8082526097602090815260408084206001600160a01b038616600090815292529020805460ff19169055601436101580611f1b575b15611ef4577ff6391f5c32d9c69d2a47ea670b442974b53935d1edc7fd64eb21e047a839171b36601319013560601c5b6040516001600160a01b03918216959091169390a4565b7ff6391f5c32d9c69d2a47ea670b442974b53935d1edc7fd64eb21e047a839171b33611edd565b506000805160206135828339815191528252609760209081526040808420336000908152925290205460ff16611ead565b15611f5357565b60405162461bcd60e51b815260206004820152602c60248201527f46756e6374696f6e206d7573742062652063616c6c6564207468726f7567682060448201526b19195b1959d85d1958d85b1b60a21b6064820152608490fd5b15611fb457565b60405162461bcd60e51b815260206004820152602c60248201527f46756e6374696f6e206d7573742062652063616c6c6564207468726f7567682060448201526b6163746976652070726f787960a01b6064820152608490fd5b60405190608082018281106001600160401b0382111761203a575b604052604282526060366020840137565b612042610c43565b612029565b9081602091031261000e575190565b506040513d6000823e3d90fd5b1561206a57565b60405162461bcd60e51b815260206004820152602960248201527f45524331393637557067726164653a20756e737570706f727465642070726f786044820152681a58589b195555525160ba1b6064820152608490fd5b60809060208152602e60208201527f45524331393637557067726164653a206e657720696d706c656d656e7461746960408201526d6f6e206973206e6f74205555505360901b60608201520190565b803b156121455760008051602061354283398151915280546001600160a01b0319166001600160a01b03909216919091179055565b60405162461bcd60e51b815260206004820152602d60248201527f455243313936373a206e657720696d706c656d656e746174696f6e206973206e60448201526c1bdd08184818dbdb9d1c9858dd609a1b6064820152608490fd5b6121a981612110565b6040516001600160a01b0382167fbc7cd75a20ee27fd9adebab32041f755214dbc6bffa90cc0225b39da2e5c2d3b600083a282511580159061229a575b6121ef57505050565b813b1561224957506000828192602061223f95519201905af43d15612242573d61221881610cb6565b906122266040519283610c95565b81523d6000602083013e5b61223961235a565b91612986565b50565b6060612231565b62461bcd60e51b815260206004820152602660248201527f416464726573733a2064656c65676174652063616c6c20746f206e6f6e2d636f6044820152651b9d1c9858dd60d21b6064820152608490fd5b5060016121e6565b906122ac82612110565b604051600092906001600160a01b0382167fbc7cd75a20ee27fd9adebab32041f755214dbc6bffa90cc0225b39da2e5c2d3b8583a2825115801590612353575b6122f7575b50505050565b813b1561224957509180826123419460208395519201905af4903d1561234b573d61232181610cb6565b9061232f6040519283610c95565b8152809160203d92013e61223961235a565b50388080806122f1565b506060612231565b50836122ec565b60405190606082018281106001600160401b038211176123b4575b60405260278252660819985a5b195960ca1b6040837f416464726573733a206c6f772d6c6576656c2064656c65676174652063616c6c60208201520152565b6123bc610c43565b612375565b90600182811c921680156123f1575b60208310146123db57565b634e487b7160e01b600052602260045260246000fd5b91607f16916123d0565b6000805160206135628339815191526000527feea97fdf38e36104b6e79f51a620e17443f803bd4254b3af64efdf6a8301c69790565b50634e487b7160e01b600052601160045260246000fd5b81198111612454570190565b611c0c612431565b1561246357565b60405162461bcd60e51b815260206004820152602560248201527f45524332303a2064656372656173656420616c6c6f77616e63652062656c6f77604482015264207a65726f60d81b6064820152608490fd5b156124bd57565b60405162461bcd60e51b815260206004820152602360248201527f45524332303a207472616e7366657220746f20746865207a65726f206164647260448201526265737360e81b6064820152608490fd5b1561251557565b60405162461bcd60e51b815260206004820152602660248201527f45524332303a207472616e7366657220616d6f756e7420657863656564732062604482015265616c616e636560d01b6064820152608490fd5b916001600160a01b03808416929091831561261d57610b26827fddf252ad1be2c89b69c2b068fc378daa952ba7f163c4a11628f55a4df523b3ef946126189416966125b58815156124b6565b6001600160a01b038116600090815261012d602052604090206125fc908590546125e18282101561250e565b039160018060a01b031660005261012d602052604060002090565b556001600160a01b0316600090815261012d6020526040902090565b0390a3565b60405162461bcd60e51b815260206004820152602560248201527f45524332303a207472616e736665722066726f6d20746865207a65726f206164604482015264647265737360d81b6064820152608490fd5b6001600160a01b03808216929190831561274b5782169384156126fb57806126ea7f8c5be1e5ebec7d5bd14f71427d1e84f3dd0314c0f7b2291e5b200ac8c7c3b925946126d36126189560018060a01b031660005261012e602052604060002090565b9060018060a01b0316600052602052604060002090565b556040519081529081906020820190565b60405162461bcd60e51b815260206004820152602260248201527f45524332303a20617070726f766520746f20746865207a65726f206164647265604482015261737360f01b6064820152608490fd5b60405162461bcd60e51b8152602060048201526024808201527f45524332303a20617070726f76652066726f6d20746865207a65726f206164646044820152637265737360e01b6064820152608490fd5b6001600160a01b03808216600090815261012e602090815260408083209386168352929052209091905492600184016127d55750505050565b8084106127f0576127e7930391612670565b388080806122f1565b60405162461bcd60e51b815260206004820152601d60248201527f45524332303a20696e73756666696369656e7420616c6c6f77616e63650000006044820152606490fd5b818110612840570390565b612848612431565b0390565b6001600160a01b038116908115612937576001600160a01b038116600090815261012d60205260409020548381106128e757837fddf252ad1be2c89b69c2b068fc378daa952ba7f163c4a11628f55a4df523b3ef926128c660009661261894039160018060a01b031660005261012d602052604060002090565b556128d7610b058261012f54612835565b6040519081529081906020820190565b60405162461bcd60e51b815260206004820152602260248201527f45524332303a206275726e20616d6f756e7420657863656564732062616c616e604482015261636560f01b6064820152608490fd5b60405162461bcd60e51b815260206004820152602160248201527f45524332303a206275726e2066726f6d20746865207a65726f206164647265736044820152607360f81b6064820152608490fd5b90919015612992575090565b8151156129a25750805190602001fd5b60405162461bcd60e51b81529081906109909060048301610372565b50634e487b7160e01b600052603260045260246000fd5b6020908051156129e3570190565b611c0c6129be565b6021908051600110156129e3570190565b906020918051821015612a0e57010190565b612a166129be565b010190565b8015612a29575b6000190190565b612a31612431565b612a22565b15612a3d57565b606460405162461bcd60e51b815260206004820152602060248201527f537472696e67733a20686578206c656e67746820696e73756666696369656e746044820152fd5b60405190606082018281106001600160401b03821117612b29575b604052602a825260403660208401376030612ab6836129d5565b536078612ac2836129eb565b536029905b60018211612ada576110f2915015612a36565b80600f612b1692166010811015612b1c575b6f181899199a1a9b1b9c1cb0b131b232b360811b901a612b0c84866129fc565b5360041c91612a1b565b90612ac7565b612b246129be565b612aec565b612b31610c43565b612a9c565b6000612b4061200e565b906030612b4c836129d5565b536078612b58836129eb565b536041905b60018211612b70576110f2915015612a36565b80600f612ba192166010811015612b1c576f181899199a1a9b1b9c1cb0b131b232b360811b901a612b0c84866129fc565b90612b5d565b7f9f2df0fed2c77648de5860a4cc508cd0818c85b8b8a1ab4ceeef8d981c8956a6612bd061200e565b906030612bdc836129d5565b536078612be8836129eb565b536041905b60018211612c00576110f2915015612a36565b80600f612c3192166010811015612b1c576f181899199a1a9b1b9c1cb0b131b232b360811b901a612b0c84866129fc565b90612bed565b7f0ab9ec9ba2423318b97c58cb919c22b4da14401c539342f710b4932382bc2c15612c6061200e565b906030612c6c836129d5565b536078612c78836129eb565b536041905b60018211612c90576110f2915015612a36565b80600f612cc192166010811015612b1c576f181899199a1a9b1b9c1cb0b131b232b360811b901a612b0c84866129fc565b90612c7d565b612ccf61200e565b906030612cdb836129d5565b536078612ce7836129eb565b536041905b60018211612cff576110f2915015612a36565b80600f612d3092166010811015612b1c576f181899199a1a9b1b9c1cb0b131b232b360811b901a612b0c84866129fc565b90612cec565b15612d3d57565b60405162461bcd60e51b815260206004820152602e60248201527f496e697469616c697a61626c653a20636f6e747261637420697320616c72656160448201526d191e481a5b9a5d1a585b1a5e995960921b6064820152608490fd5b15612da057565b60405162461bcd60e51b815260206004820152602b60248201527f496e697469616c697a61626c653a20636f6e7472616374206973206e6f74206960448201526a6e697469616c697a696e6760a81b6064820152608490fd5b9492919096959396612e0a86611c10565b80516001600160401b038111612eea575b60008051602061356283398151915291612e398261115a85546123c1565b60209081601f8411600114612e85575061164997969461163b94846116439895612e839d9e9561162b9560009261164e5750508160011b916000199060031b1c1916179055611df2565b565b9190601f198416612e946123fb565b936000905b828210612ed257505094600185612e839d9e9561162b956116499d9c9a956116439c9961163b9b106116a657505050811b019055611df2565b80600186978294978701518155019601940190612e99565b612ef2610c43565b612e1b565b9190612f0a60ff60005460081c16612d99565b82516001600160401b038111613006575b61013090612f3281612f2d84546123c1565b613091565b602080601f8311600114612f7457508190612e839596600092612f69575b50508160011b916000199060031b1c1916179055613175565b015190503880612f50565b90601f19831696612fa86101306000527f2f605e086faac1d93117bbfbc18835d434e9405fadc1ca66faf4b864746daf3490565b926000905b898210612fee57505090839291600194612e83989910612fd5575b505050811b019055613175565b015160001960f88460031b161c19169055388080612fc8565b80600185968294968601518155019501930190612fad565b61300e610c43565b612f1b565b601f811161301f575050565b60009060008051602061356283398151915282527feea97fdf38e36104b6e79f51a620e17443f803bd4254b3af64efdf6a8301c697906020601f850160051c83019410613087575b601f0160051c01915b82811061307c57505050565b818155600101613070565b9092508290613067565b601f811161309d575050565b60009061013082527f2f605e086faac1d93117bbfbc18835d434e9405fadc1ca66faf4b864746daf34906020601f850160051c830194106130f9575b601f0160051c01915b8281106130ee57505050565b8181556001016130e2565b90925082906130d9565b601f811161310f575050565b60009061013182527fbd987ad6ccdb7c7567f7335ea839f95dc944431abcf935b6924f70215963db73906020601f850160051c8301941061316b575b601f0160051c01915b82811061316057505050565b818155600101613154565b909250829061314b565b9081516001600160401b038111613263575b6101319061319e8161319984546123c1565b613103565b602080601f83116001146131da5750819293946000926131cf575b50508160011b916000199060031b1c1916179055565b0151905038806131b9565b90601f1983169561320e6101316000527fbd987ad6ccdb7c7567f7335ea839f95dc944431abcf935b6924f70215963db7390565b926000905b88821061324b57505083600195969710613232575b505050811b019055565b015160001960f88460031b161c19169055388080613228565b80600185968294968601518155019501930190613213565b61326b610c43565b613187565b61327990611ce3565b731820a4b7618bde71dce8cdc73aab6c95905fad24803b6132975750565b803b1561000e5760405163a41e7d5160e01b8082523060048301526336372b0760e01b6024830152600091828160448183885af18015613415575b613402575b50823b156133be576040519081523060048201526340c10f1960e01b6024820152818160448183875af180156133f5575b6133e2575b50813b1561047e576040516329965a1d60e01b808252306004830181905260016306c6e56160e31b036024840152604483015290828160648183885af180156133d5575b6133c2575b50823b156133be5760405190815230600482018190526001632060878d60e11b0360248301526044820152918290818381606481015b03925af180156133b1575b61339e5750565b806133ab612e8392610c5a565b80610332565b6133b9612056565b613397565b5080fd5b806133ab6133cf92610c5a565b38613356565b6133dd612056565b613351565b806133ab6133ef92610c5a565b3861330d565b6133fd612056565b613308565b806133ab61340f92610c5a565b386132d7565b61341d612056565b6132d2565b61342b90611d44565b731820a4b7618bde71dce8cdc73aab6c95905fad24803b6134495750565b803b1561000e5760405163a41e7d5160e01b815230600482015263054fd4d560e41b6024820152600090818160448183875af180156134dc575b6134c9575b50813b1561047e576040516329965a1d60e01b8152306004820181905260016354fd4d5160e01b03602483015260448201529182908183816064810161338c565b806133ab6134d692610c5a565b38613488565b6134e4612056565b613483565b601436101580613509575b156135055736601319013560601c90565b3390565b503360009081527fae33a31436ab9cea8f54189966a681a9746f10deb641aef438e7df3ef1426c59602052604090205460ff166134f456fe360894a13ba1a3210667c828492db98dca3e2076cc3735a920a3ca505d382bbc59c86eba0f8c3c9659b86fb2776edca2ff990d1509243e9705ae43a6831558c67a05a596cb0ce7fdea8a1e1ec73be300bdb35097c944ce1897202f7a13122eb2a2646970667358221220dfbc5d49f1374779253eeb6ddaca8be05eba51a5879da804b4561447f7ed665e64736f6c634300080e0033",
  "devdoc": {
    "kind": "dev",
    "methods": {
      "allowance(address,address)": {
        "details": "See {IERC20-allowance}."
      },
      "approve(address,uint256)": {
        "details": "See {IERC20-approve}. NOTE: If `amount` is the maximum `uint256`, the allowance is not updated on `transferFrom`. This is semantically equivalent to an infinite approval. Requirements: - `spender` cannot be the zero address."
      },
      "balanceOf(address)": {
        "details": "See {IERC20-balanceOf}."
      },
      "burn(uint256)": {
        "details": "Destroys `amount` tokens from the caller. See {ERC20-_burn}."
      },
      "burnFrom(address,uint256)": {
        "details": "Destroys `amount` tokens from `account`, deducting from the caller's allowance. See {ERC20-_burn} and {ERC20-allowance}. Requirements: - the caller must have allowance for ``accounts``'s tokens of at least `amount`."
      },
      "canImplementInterfaceForAddress(bytes32,address)": {
        "details": "See {IERC1820Implementer-canImplementInterfaceForAddress}."
      },
      "contractURI()": {
        "details": "Returns collection-wide URI-accessible metadata"
      },
      "decimals()": {
        "details": "Returns the number of decimals used to get its user representation. For example, if `decimals` equals `2`, a balance of `505` tokens should be displayed to a user as `5.05` (`505 / 10 ** 2`). Tokens usually opt for a value of 18, imitating the relationship between Ether and Wei. This is the value {ERC20} uses, unless this function is overridden; NOTE: This information is only used for _display_ purposes: it in no way affects any of the arithmetic of the contract, including {IERC20-balanceOf} and {IERC20-transfer}."
      },
      "decreaseAllowance(address,uint256)": {
        "details": "Atomically decreases the allowance granted to `spender` by the caller. This is an alternative to {approve} that can be used as a mitigation for problems described in {IERC20-approve}. Emits an {Approval} event indicating the updated allowance. Requirements: - `spender` cannot be the zero address. - `spender` must have allowance for the caller of at least `subtractedValue`."
      },
      "getImplementation()": {
        "details": "Returns the implementation address."
      },
      "getRoleAdmin(bytes32)": {
        "details": "Returns the admin role that controls `role`. See {grantRole} and {revokeRole}. To change a role's admin, use {_setRoleAdmin}."
      },
      "grantRole(bytes32,address)": {
        "details": "Grants `role` to `account`. If `account` had not been already granted `role`, emits a {RoleGranted} event. Requirements: - the caller must have ``role``'s admin role. May emit a {RoleGranted} event."
      },
      "hasRole(bytes32,address)": {
        "details": "Returns `true` if `account` has been granted `role`."
      },
      "increaseAllowance(address,uint256)": {
        "details": "Atomically increases the allowance granted to `spender` by the caller. This is an alternative to {approve} that can be used as a mitigation for problems described in {IERC20-approve}. Emits an {Approval} event indicating the updated allowance. Requirements: - `spender` cannot be the zero address."
      },
      "isTrustedForwarder(address)": {
        "details": "Determine is an address a GSN trusted forwarder.",
        "params": {
          "forwarder": "address to query"
        },
        "returns": {
          "_0": "OpenGSN trusted forwarder status"
        }
      },
      "mint(address,uint256)": {
        "details": "Allows MINTER_ROLE to mint NFTs",
        "params": {
          "amount": "amount to mint",
          "to": "address to"
        }
      },
      "name()": {
        "details": "Returns the name of the token."
      },
      "proxiableUUID()": {
        "details": "Implementation of the ERC1822 {proxiableUUID} function. This returns the storage slot used by the implementation. It is used to validate that the this implementation remains valid after an upgrade. IMPORTANT: A proxy pointing at a proxiable contract should not be considered proxiable itself, because this risks bricking a proxy that upgrades to it, by delegating to itself until out of gas. Thus it is critical that this function revert if invoked through a proxy. This is guaranteed by the `notDelegated` modifier."
      },
      "renounceRole(bytes32,address)": {
        "details": "Revokes `role` from the calling account. Roles are often managed via {grantRole} and {revokeRole}: this function's purpose is to provide a mechanism for accounts to lose their privileges if they are compromised (such as when a trusted device is misplaced). If the calling account had been revoked `role`, emits a {RoleRevoked} event. Requirements: - the caller must be `account`. May emit a {RoleRevoked} event."
      },
      "revokeRole(bytes32,address)": {
        "details": "Revokes `role` from `account`. If `account` had been granted `role`, emits a {RoleRevoked} event. Requirements: - the caller must have ``role``'s admin role. May emit a {RoleRevoked} event."
      },
      "setContractURI(string)": {
        "details": "Set contract uri"
      },
      "supportsInterface(bytes4)": {
        "details": "ERC165 Support",
        "params": {
          "interfaceId": "hash of the interface testing for"
        },
        "returns": {
          "_0": "bool whether interface is supported"
        }
      },
      "symbol()": {
        "details": "Returns the symbol of the token, usually a shorter version of the name."
      },
      "totalSupply()": {
        "details": "See {IERC20-totalSupply}."
      },
      "transfer(address,uint256)": {
        "details": "See {IERC20-transfer}. Requirements: - `to` cannot be the zero address. - the caller must have a balance of at least `amount`."
      },
      "transferFrom(address,address,uint256)": {
        "details": "See {IERC20-transferFrom}. Emits an {Approval} event indicating the updated allowance. This is not required by the EIP. See the note at the beginning of {ERC20}. NOTE: Does not update the allowance if the current allowance is the maximum `uint256`. Requirements: - `from` and `to` cannot be the zero address. - `from` must have a balance of at least `amount`. - the caller must have allowance for ``from``'s tokens of at least `amount`."
      },
      "upgradeTo(address)": {
        "details": "Upgrade the implementation of the proxy to `newImplementation`. Calls {_authorizeUpgrade}. Emits an {Upgraded} event."
      },
      "upgradeToAndCall(address,bytes)": {
        "details": "Upgrade the implementation of the proxy to `newImplementation`, and subsequently execute the function call encoded in `data`. Calls {_authorizeUpgrade}. Emits an {Upgraded} event."
      },
      "version()": {
        "details": "OwlProtocol contract version. Used to determine compatibility interoperable with other Owl contracts."
      },
      "versionRecipient()": {
        "details": "Returns OpenGSN contract version (used for compatibility checks)"
      }
    },
    "version": 1
  },
  "storageLayout": {
    "storage": [
      {
        "astId": 1451,
        "contract": "contracts/assets/ERC20/ERC20Mintable.sol:ERC20Mintable",
        "label": "_initialized",
        "offset": 0,
        "slot": "0",
        "type": "t_uint8"
      },
      {
        "astId": 1454,
        "contract": "contracts/assets/ERC20/ERC20Mintable.sol:ERC20Mintable",
        "label": "_initializing",
        "offset": 1,
        "slot": "0",
        "type": "t_bool"
      },
      {
        "astId": 1433,
        "contract": "contracts/assets/ERC20/ERC20Mintable.sol:ERC20Mintable",
        "label": "__gap",
        "offset": 0,
        "slot": "1",
        "type": "t_array(t_uint256)50_storage"
      },
      {
        "astId": 7523,
        "contract": "contracts/assets/ERC20/ERC20Mintable.sol:ERC20Mintable",
        "label": "__gap",
        "offset": 0,
        "slot": "51",
        "type": "t_array(t_uint256)50_storage"
      },
      {
        "astId": 8038,
        "contract": "contracts/assets/ERC20/ERC20Mintable.sol:ERC20Mintable",
        "label": "__gap",
        "offset": 0,
        "slot": "101",
        "type": "t_array(t_uint256)50_storage"
      },
      {
        "astId": 426,
        "contract": "contracts/assets/ERC20/ERC20Mintable.sol:ERC20Mintable",
        "label": "_roles",
        "offset": 0,
        "slot": "151",
        "type": "t_mapping(t_bytes32,t_struct(RoleData)421_storage)"
      },
      {
        "astId": 725,
        "contract": "contracts/assets/ERC20/ERC20Mintable.sol:ERC20Mintable",
        "label": "__gap",
        "offset": 0,
        "slot": "152",
        "type": "t_array(t_uint256)49_storage"
      },
      {
        "astId": 1730,
        "contract": "contracts/assets/ERC20/ERC20Mintable.sol:ERC20Mintable",
        "label": "__gap",
        "offset": 0,
        "slot": "201",
        "type": "t_array(t_uint256)50_storage"
      },
      {
        "astId": 8071,
        "contract": "contracts/assets/ERC20/ERC20Mintable.sol:ERC20Mintable",
        "label": "_supportedInterfaces",
        "offset": 0,
        "slot": "251",
        "type": "t_mapping(t_bytes32,t_mapping(t_address,t_bool))"
      },
      {
        "astId": 8117,
        "contract": "contracts/assets/ERC20/ERC20Mintable.sol:ERC20Mintable",
        "label": "__gap",
        "offset": 0,
        "slot": "252",
        "type": "t_array(t_uint256)49_storage"
      },
      {
        "astId": 3821,
        "contract": "contracts/assets/ERC20/ERC20Mintable.sol:ERC20Mintable",
        "label": "_balances",
        "offset": 0,
        "slot": "301",
        "type": "t_mapping(t_address,t_uint256)"
      },
      {
        "astId": 3827,
        "contract": "contracts/assets/ERC20/ERC20Mintable.sol:ERC20Mintable",
        "label": "_allowances",
        "offset": 0,
        "slot": "302",
        "type": "t_mapping(t_address,t_mapping(t_address,t_uint256))"
      },
      {
        "astId": 3829,
        "contract": "contracts/assets/ERC20/ERC20Mintable.sol:ERC20Mintable",
        "label": "_totalSupply",
        "offset": 0,
        "slot": "303",
        "type": "t_uint256"
      },
      {
        "astId": 3831,
        "contract": "contracts/assets/ERC20/ERC20Mintable.sol:ERC20Mintable",
        "label": "_name",
        "offset": 0,
        "slot": "304",
        "type": "t_string_storage"
      },
      {
        "astId": 3833,
        "contract": "contracts/assets/ERC20/ERC20Mintable.sol:ERC20Mintable",
        "label": "_symbol",
        "offset": 0,
        "slot": "305",
        "type": "t_string_storage"
      },
      {
        "astId": 4412,
        "contract": "contracts/assets/ERC20/ERC20Mintable.sol:ERC20Mintable",
        "label": "__gap",
        "offset": 0,
        "slot": "306",
        "type": "t_array(t_uint256)45_storage"
      },
      {
        "astId": 4554,
        "contract": "contracts/assets/ERC20/ERC20Mintable.sol:ERC20Mintable",
        "label": "__gap",
        "offset": 0,
        "slot": "351",
        "type": "t_array(t_uint256)50_storage"
      },
      {
        "astId": 9674,
        "contract": "contracts/assets/ERC20/ERC20Mintable.sol:ERC20Mintable",
        "label": "__gap",
        "offset": 0,
        "slot": "401",
        "type": "t_array(t_uint256)50_storage"
      }
    ],
    "types": {
      "t_address": {
        "encoding": "inplace",
        "label": "address",
        "numberOfBytes": "20"
      },
      "t_array(t_uint256)45_storage": {
        "base": "t_uint256",
        "encoding": "inplace",
        "label": "uint256[45]",
        "numberOfBytes": "1440"
      },
      "t_array(t_uint256)49_storage": {
        "base": "t_uint256",
        "encoding": "inplace",
        "label": "uint256[49]",
        "numberOfBytes": "1568"
      },
      "t_array(t_uint256)50_storage": {
        "base": "t_uint256",
        "encoding": "inplace",
        "label": "uint256[50]",
        "numberOfBytes": "1600"
      },
      "t_bool": {
        "encoding": "inplace",
        "label": "bool",
        "numberOfBytes": "1"
      },
      "t_bytes32": {
        "encoding": "inplace",
        "label": "bytes32",
        "numberOfBytes": "32"
      },
      "t_mapping(t_address,t_bool)": {
        "encoding": "mapping",
        "key": "t_address",
        "label": "mapping(address => bool)",
        "numberOfBytes": "32",
        "value": "t_bool"
      },
      "t_mapping(t_address,t_mapping(t_address,t_uint256))": {
        "encoding": "mapping",
        "key": "t_address",
        "label": "mapping(address => mapping(address => uint256))",
        "numberOfBytes": "32",
        "value": "t_mapping(t_address,t_uint256)"
      },
      "t_mapping(t_address,t_uint256)": {
        "encoding": "mapping",
        "key": "t_address",
        "label": "mapping(address => uint256)",
        "numberOfBytes": "32",
        "value": "t_uint256"
      },
      "t_mapping(t_bytes32,t_mapping(t_address,t_bool))": {
        "encoding": "mapping",
        "key": "t_bytes32",
        "label": "mapping(bytes32 => mapping(address => bool))",
        "numberOfBytes": "32",
        "value": "t_mapping(t_address,t_bool)"
      },
      "t_mapping(t_bytes32,t_struct(RoleData)421_storage)": {
        "encoding": "mapping",
        "key": "t_bytes32",
        "label": "mapping(bytes32 => struct AccessControlUpgradeable.RoleData)",
        "numberOfBytes": "32",
        "value": "t_struct(RoleData)421_storage"
      },
      "t_string_storage": {
        "encoding": "bytes",
        "label": "string",
        "numberOfBytes": "32"
      },
      "t_struct(RoleData)421_storage": {
        "encoding": "inplace",
        "label": "struct AccessControlUpgradeable.RoleData",
        "members": [
          {
            "astId": 418,
            "contract": "contracts/assets/ERC20/ERC20Mintable.sol:ERC20Mintable",
            "label": "members",
            "offset": 0,
            "slot": "0",
            "type": "t_mapping(t_address,t_bool)"
          },
          {
            "astId": 420,
            "contract": "contracts/assets/ERC20/ERC20Mintable.sol:ERC20Mintable",
            "label": "adminRole",
            "offset": 0,
            "slot": "1",
            "type": "t_bytes32"
          }
        ],
        "numberOfBytes": "64"
      },
      "t_uint256": {
        "encoding": "inplace",
        "label": "uint256",
        "numberOfBytes": "32"
      },
      "t_uint8": {
        "encoding": "inplace",
        "label": "uint8",
        "numberOfBytes": "1"
      }
    }
  }
}