{
  "address": "0xe20fC3c22B5057ed5C2B2A2b23D74761B71a0641",
  "abi": [
    {
      "inputs": [],
      "stateMutability": "nonpayable",
      "type": "constructor"
    },
    {
      "inputs": [
        {
          "internalType": "address",
          "name": "childTokenAddress",
          "type": "address"
        }
      ],
      "name": "AddressNotChild",
      "type": "error"
    },
    {
      "inputs": [
        {
          "internalType": "address",
          "name": "childTokenAddress",
          "type": "address"
        },
        {
          "internalType": "uint256",
          "name": "childTokenId",
          "type": "uint256"
        },
        {
          "internalType": "uint256",
          "name": "currentChildTokenId",
          "type": "uint256"
        }
      ],
      "name": "ChildTokenAlreadyAssigned",
      "type": "error"
    },
    {
      "inputs": [
        {
          "internalType": "address",
          "name": "owner",
          "type": "address"
        },
        {
          "internalType": "address",
          "name": "tokenAddress",
          "type": "address"
        },
        {
          "internalType": "uint256",
          "name": "tokenId",
          "type": "uint256"
        }
      ],
      "name": "Unauthorized",
      "type": "error"
    },
    {
      "anonymous": false,
      "inputs": [
        {
          "indexed": false,
          "internalType": "address",
          "name": "previousAdmin",
          "type": "address"
        },
        {
          "indexed": false,
          "internalType": "address",
          "name": "newAdmin",
          "type": "address"
        }
      ],
      "name": "AdminChanged",
      "type": "event"
    },
    {
      "anonymous": false,
      "inputs": [
        {
          "indexed": true,
          "internalType": "address",
          "name": "owner",
          "type": "address"
        },
        {
          "indexed": true,
          "internalType": "address",
          "name": "approved",
          "type": "address"
        },
        {
          "indexed": true,
          "internalType": "uint256",
          "name": "tokenId",
          "type": "uint256"
        }
      ],
      "name": "Approval",
      "type": "event"
    },
    {
      "anonymous": false,
      "inputs": [
        {
          "indexed": true,
          "internalType": "address",
          "name": "owner",
          "type": "address"
        },
        {
          "indexed": true,
          "internalType": "address",
          "name": "operator",
          "type": "address"
        },
        {
          "indexed": false,
          "internalType": "bool",
          "name": "approved",
          "type": "bool"
        }
      ],
      "name": "ApprovalForAll",
      "type": "event"
    },
    {
      "anonymous": false,
      "inputs": [
        {
          "indexed": true,
          "internalType": "address",
          "name": "parentOwner",
          "type": "address"
        },
        {
          "indexed": true,
          "internalType": "uint256",
          "name": "parentTokenId",
          "type": "uint256"
        },
        {
          "indexed": true,
          "internalType": "address",
          "name": "childContract",
          "type": "address"
        },
        {
          "indexed": false,
          "internalType": "uint256",
          "name": "childTokenId",
          "type": "uint256"
        }
      ],
      "name": "AttachedChild",
      "type": "event"
    },
    {
      "anonymous": false,
      "inputs": [
        {
          "indexed": true,
          "internalType": "address",
          "name": "beacon",
          "type": "address"
        }
      ],
      "name": "BeaconUpgraded",
      "type": "event"
    },
    {
      "anonymous": false,
      "inputs": [
        {
          "indexed": true,
          "internalType": "address",
          "name": "parentOwner",
          "type": "address"
        },
        {
          "indexed": true,
          "internalType": "uint256",
          "name": "parentTokenId",
          "type": "uint256"
        },
        {
          "indexed": true,
          "internalType": "address",
          "name": "childContract",
          "type": "address"
        },
        {
          "indexed": false,
          "internalType": "uint256",
          "name": "childTokenId",
          "type": "uint256"
        }
      ],
      "name": "DetachedChild",
      "type": "event"
    },
    {
      "anonymous": false,
      "inputs": [
        {
          "indexed": false,
          "internalType": "uint8",
          "name": "version",
          "type": "uint8"
        }
      ],
      "name": "Initialized",
      "type": "event"
    },
    {
      "anonymous": false,
      "inputs": [
        {
          "indexed": true,
          "internalType": "bytes32",
          "name": "role",
          "type": "bytes32"
        },
        {
          "indexed": true,
          "internalType": "bytes32",
          "name": "previousAdminRole",
          "type": "bytes32"
        },
        {
          "indexed": true,
          "internalType": "bytes32",
          "name": "newAdminRole",
          "type": "bytes32"
        }
      ],
      "name": "RoleAdminChanged",
      "type": "event"
    },
    {
      "anonymous": false,
      "inputs": [
        {
          "indexed": true,
          "internalType": "bytes32",
          "name": "role",
          "type": "bytes32"
        },
        {
          "indexed": true,
          "internalType": "address",
          "name": "account",
          "type": "address"
        },
        {
          "indexed": true,
          "internalType": "address",
          "name": "sender",
          "type": "address"
        }
      ],
      "name": "RoleGranted",
      "type": "event"
    },
    {
      "anonymous": false,
      "inputs": [
        {
          "indexed": true,
          "internalType": "bytes32",
          "name": "role",
          "type": "bytes32"
        },
        {
          "indexed": true,
          "internalType": "address",
          "name": "account",
          "type": "address"
        },
        {
          "indexed": true,
          "internalType": "address",
          "name": "sender",
          "type": "address"
        }
      ],
      "name": "RoleRevoked",
      "type": "event"
    },
    {
      "anonymous": false,
      "inputs": [
        {
          "indexed": true,
          "internalType": "address",
          "name": "from",
          "type": "address"
        },
        {
          "indexed": true,
          "internalType": "address",
          "name": "to",
          "type": "address"
        },
        {
          "indexed": true,
          "internalType": "uint256",
          "name": "tokenId",
          "type": "uint256"
        }
      ],
      "name": "Transfer",
      "type": "event"
    },
    {
      "anonymous": false,
      "inputs": [
        {
          "indexed": true,
          "internalType": "address",
          "name": "implementation",
          "type": "address"
        }
      ],
      "name": "Upgraded",
      "type": "event"
    },
    {
      "inputs": [],
      "name": "DEFAULT_ADMIN_ROLE",
      "outputs": [
        {
          "internalType": "bytes32",
          "name": "",
          "type": "bytes32"
        }
      ],
      "stateMutability": "view",
      "type": "function"
    },
    {
      "inputs": [
        {
          "internalType": "address",
          "name": "to",
          "type": "address"
        },
        {
          "internalType": "uint256",
          "name": "tokenId",
          "type": "uint256"
        }
      ],
      "name": "approve",
      "outputs": [],
      "stateMutability": "nonpayable",
      "type": "function"
    },
    {
      "inputs": [
        {
          "internalType": "uint256",
          "name": "tokenId",
          "type": "uint256"
        },
        {
          "internalType": "address",
          "name": "childContract",
          "type": "address"
        },
        {
          "internalType": "uint256",
          "name": "childTokenId",
          "type": "uint256"
        }
      ],
      "name": "attachChild",
      "outputs": [],
      "stateMutability": "nonpayable",
      "type": "function"
    },
    {
      "inputs": [
        {
          "internalType": "address",
          "name": "owner",
          "type": "address"
        }
      ],
      "name": "balanceOf",
      "outputs": [
        {
          "internalType": "uint256",
          "name": "",
          "type": "uint256"
        }
      ],
      "stateMutability": "view",
      "type": "function"
    },
    {
      "inputs": [],
      "name": "baseURI",
      "outputs": [
        {
          "internalType": "string",
          "name": "",
          "type": "string"
        }
      ],
      "stateMutability": "view",
      "type": "function"
    },
    {
      "inputs": [
        {
          "internalType": "uint256",
          "name": "tokenId",
          "type": "uint256"
        }
      ],
      "name": "burn",
      "outputs": [],
      "stateMutability": "nonpayable",
      "type": "function"
    },
    {
      "inputs": [
        {
          "internalType": "bytes32",
          "name": "interfaceHash",
          "type": "bytes32"
        },
        {
          "internalType": "address",
          "name": "account",
          "type": "address"
        }
      ],
      "name": "canImplementInterfaceForAddress",
      "outputs": [
        {
          "internalType": "bytes32",
          "name": "",
          "type": "bytes32"
        }
      ],
      "stateMutability": "view",
      "type": "function"
    },
    {
      "inputs": [],
      "name": "contractURI",
      "outputs": [
        {
          "internalType": "string",
          "name": "",
          "type": "string"
        }
      ],
      "stateMutability": "view",
      "type": "function"
    },
    {
      "inputs": [
        {
          "internalType": "uint256",
          "name": "tokenId",
          "type": "uint256"
        },
        {
          "internalType": "address",
          "name": "childContract",
          "type": "address"
        },
        {
          "internalType": "uint256",
          "name": "childTokenId",
          "type": "uint256"
        }
      ],
      "name": "detachChild",
      "outputs": [],
      "stateMutability": "nonpayable",
      "type": "function"
    },
    {
      "inputs": [
        {
          "internalType": "uint256",
          "name": "tokenId",
          "type": "uint256"
        }
      ],
      "name": "getApproved",
      "outputs": [
        {
          "internalType": "address",
          "name": "",
          "type": "address"
        }
      ],
      "stateMutability": "view",
      "type": "function"
    },
    {
      "inputs": [],
      "name": "getChildContracts",
      "outputs": [
        {
          "internalType": "address[]",
          "name": "",
          "type": "address[]"
        }
      ],
      "stateMutability": "view",
      "type": "function"
    },
    {
      "inputs": [
        {
          "internalType": "uint256",
          "name": "tokenId",
          "type": "uint256"
        }
      ],
      "name": "getDna",
      "outputs": [
        {
          "internalType": "bytes",
          "name": "",
          "type": "bytes"
        }
      ],
      "stateMutability": "view",
      "type": "function"
    },
    {
      "inputs": [],
      "name": "getImplementation",
      "outputs": [
        {
          "internalType": "address",
          "name": "",
          "type": "address"
        }
      ],
      "stateMutability": "view",
      "type": "function"
    },
    {
      "inputs": [
        {
          "internalType": "bytes32",
          "name": "role",
          "type": "bytes32"
        }
      ],
      "name": "getRoleAdmin",
      "outputs": [
        {
          "internalType": "bytes32",
          "name": "",
          "type": "bytes32"
        }
      ],
      "stateMutability": "view",
      "type": "function"
    },
    {
      "inputs": [
        {
          "internalType": "bytes32",
          "name": "role",
          "type": "bytes32"
        },
        {
          "internalType": "address",
          "name": "account",
          "type": "address"
        }
      ],
      "name": "grantRole",
      "outputs": [],
      "stateMutability": "nonpayable",
      "type": "function"
    },
    {
      "inputs": [
        {
          "internalType": "bytes32",
          "name": "role",
          "type": "bytes32"
        },
        {
          "internalType": "address",
          "name": "account",
          "type": "address"
        }
      ],
      "name": "hasRole",
      "outputs": [
        {
          "internalType": "bool",
          "name": "",
          "type": "bool"
        }
      ],
      "stateMutability": "view",
      "type": "function"
    },
    {
      "inputs": [
        {
          "internalType": "address",
          "name": "_admin",
          "type": "address"
        },
        {
          "internalType": "string",
          "name": "_initContractURI",
          "type": "string"
        },
        {
          "internalType": "address",
          "name": "_gsnForwarder",
          "type": "address"
        },
        {
          "internalType": "string",
          "name": "_name",
          "type": "string"
        },
        {
          "internalType": "string",
          "name": "_symbol",
          "type": "string"
        },
        {
          "internalType": "string",
          "name": "_initBaseURI",
          "type": "string"
        },
        {
          "internalType": "address",
          "name": "_feeReceiver",
          "type": "address"
        },
        {
          "internalType": "uint96",
          "name": "_feeNumerator",
          "type": "uint96"
        },
        {
          "internalType": "address[]",
          "name": "_childContracts",
          "type": "address[]"
        }
      ],
      "name": "initialize",
      "outputs": [],
      "stateMutability": "nonpayable",
      "type": "function"
    },
    {
      "inputs": [
        {
          "internalType": "address",
          "name": "owner",
          "type": "address"
        },
        {
          "internalType": "address",
          "name": "operator",
          "type": "address"
        }
      ],
      "name": "isApprovedForAll",
      "outputs": [
        {
          "internalType": "bool",
          "name": "",
          "type": "bool"
        }
      ],
      "stateMutability": "view",
      "type": "function"
    },
    {
      "inputs": [
        {
          "internalType": "address",
          "name": "forwarder",
          "type": "address"
        }
      ],
      "name": "isTrustedForwarder",
      "outputs": [
        {
          "internalType": "bool",
          "name": "",
          "type": "bool"
        }
      ],
      "stateMutability": "view",
      "type": "function"
    },
    {
      "inputs": [
        {
          "internalType": "address",
          "name": "to",
          "type": "address"
        },
        {
          "internalType": "bytes",
          "name": "dna",
          "type": "bytes"
        }
      ],
      "name": "mintWithDna",
      "outputs": [
        {
          "internalType": "uint256",
          "name": "",
          "type": "uint256"
        }
      ],
      "stateMutability": "nonpayable",
      "type": "function"
    },
    {
      "inputs": [],
      "name": "name",
      "outputs": [
        {
          "internalType": "string",
          "name": "",
          "type": "string"
        }
      ],
      "stateMutability": "view",
      "type": "function"
    },
    {
      "inputs": [
        {
          "internalType": "address",
          "name": "operator",
          "type": "address"
        },
        {
          "internalType": "address",
          "name": "",
          "type": "address"
        },
        {
          "internalType": "uint256",
          "name": "tokenId",
          "type": "uint256"
        },
        {
          "internalType": "bytes",
          "name": "",
          "type": "bytes"
        }
      ],
      "name": "onERC721Received",
      "outputs": [
        {
          "internalType": "bytes4",
          "name": "",
          "type": "bytes4"
        }
      ],
      "stateMutability": "view",
      "type": "function"
    },
    {
      "inputs": [
        {
          "internalType": "uint256",
          "name": "tokenId",
          "type": "uint256"
        }
      ],
      "name": "ownerOf",
      "outputs": [
        {
          "internalType": "address",
          "name": "",
          "type": "address"
        }
      ],
      "stateMutability": "view",
      "type": "function"
    },
    {
      "inputs": [
        {
          "internalType": "address",
          "name": "",
          "type": "address"
        },
        {
          "internalType": "uint256",
          "name": "",
          "type": "uint256"
        }
      ],
      "name": "parentTokenIdOf",
      "outputs": [
        {
          "internalType": "uint256",
          "name": "",
          "type": "uint256"
        }
      ],
      "stateMutability": "view",
      "type": "function"
    },
    {
      "inputs": [],
      "name": "proxiableUUID",
      "outputs": [
        {
          "internalType": "bytes32",
          "name": "",
          "type": "bytes32"
        }
      ],
      "stateMutability": "view",
      "type": "function"
    },
    {
      "inputs": [
        {
          "internalType": "address",
          "name": "_admin",
          "type": "address"
        },
        {
          "internalType": "string",
          "name": "_initContractURI",
          "type": "string"
        },
        {
          "internalType": "address",
          "name": "_gsnForwarder",
          "type": "address"
        },
        {
          "internalType": "string",
          "name": "_name",
          "type": "string"
        },
        {
          "internalType": "string",
          "name": "_symbol",
          "type": "string"
        },
        {
          "internalType": "string",
          "name": "_initBaseURI",
          "type": "string"
        },
        {
          "internalType": "address",
          "name": "_feeReceiver",
          "type": "address"
        },
        {
          "internalType": "uint96",
          "name": "_feeNumerator",
          "type": "uint96"
        },
        {
          "internalType": "address[]",
          "name": "_childContracts",
          "type": "address[]"
        }
      ],
      "name": "proxyInitialize",
      "outputs": [],
      "stateMutability": "nonpayable",
      "type": "function"
    },
    {
      "inputs": [
        {
          "internalType": "bytes32",
          "name": "role",
          "type": "bytes32"
        },
        {
          "internalType": "address",
          "name": "account",
          "type": "address"
        }
      ],
      "name": "renounceRole",
      "outputs": [],
      "stateMutability": "nonpayable",
      "type": "function"
    },
    {
      "inputs": [
        {
          "internalType": "bytes32",
          "name": "role",
          "type": "bytes32"
        },
        {
          "internalType": "address",
          "name": "account",
          "type": "address"
        }
      ],
      "name": "revokeRole",
      "outputs": [],
      "stateMutability": "nonpayable",
      "type": "function"
    },
    {
      "inputs": [
        {
          "internalType": "uint256",
          "name": "tokenId",
          "type": "uint256"
        }
      ],
      "name": "rootOwnerOf",
      "outputs": [
        {
          "internalType": "address",
          "name": "",
          "type": "address"
        }
      ],
      "stateMutability": "view",
      "type": "function"
    },
    {
      "inputs": [
        {
          "internalType": "uint256",
          "name": "_tokenId",
          "type": "uint256"
        },
        {
          "internalType": "uint256",
          "name": "_salePrice",
          "type": "uint256"
        }
      ],
      "name": "royaltyInfo",
      "outputs": [
        {
          "internalType": "address",
          "name": "",
          "type": "address"
        },
        {
          "internalType": "uint256",
          "name": "",
          "type": "uint256"
        }
      ],
      "stateMutability": "view",
      "type": "function"
    },
    {
      "inputs": [
        {
          "internalType": "address",
          "name": "to",
          "type": "address"
        },
        {
          "internalType": "bytes",
          "name": "dna",
          "type": "bytes"
        }
      ],
      "name": "safeMintWithDna",
      "outputs": [
        {
          "internalType": "uint256",
          "name": "",
          "type": "uint256"
        }
      ],
      "stateMutability": "nonpayable",
      "type": "function"
    },
    {
      "inputs": [
        {
          "internalType": "address",
          "name": "from",
          "type": "address"
        },
        {
          "internalType": "address",
          "name": "to",
          "type": "address"
        },
        {
          "internalType": "uint256",
          "name": "tokenId",
          "type": "uint256"
        }
      ],
      "name": "safeTransferFrom",
      "outputs": [],
      "stateMutability": "nonpayable",
      "type": "function"
    },
    {
      "inputs": [
        {
          "internalType": "address",
          "name": "from",
          "type": "address"
        },
        {
          "internalType": "address",
          "name": "to",
          "type": "address"
        },
        {
          "internalType": "uint256",
          "name": "tokenId",
          "type": "uint256"
        },
        {
          "internalType": "bytes",
          "name": "data",
          "type": "bytes"
        }
      ],
      "name": "safeTransferFrom",
      "outputs": [],
      "stateMutability": "nonpayable",
      "type": "function"
    },
    {
      "inputs": [
        {
          "internalType": "address",
          "name": "operator",
          "type": "address"
        },
        {
          "internalType": "bool",
          "name": "approved",
          "type": "bool"
        }
      ],
      "name": "setApprovalForAll",
      "outputs": [],
      "stateMutability": "nonpayable",
      "type": "function"
    },
    {
      "inputs": [
        {
          "internalType": "string",
          "name": "uri",
          "type": "string"
        }
      ],
      "name": "setBaseURI",
      "outputs": [],
      "stateMutability": "nonpayable",
      "type": "function"
    },
    {
      "inputs": [
        {
          "internalType": "string",
          "name": "uri",
          "type": "string"
        }
      ],
      "name": "setContractURI",
      "outputs": [],
      "stateMutability": "nonpayable",
      "type": "function"
    },
    {
      "inputs": [
        {
          "internalType": "address",
          "name": "receiver",
          "type": "address"
        },
        {
          "internalType": "uint96",
          "name": "feeNumerator",
          "type": "uint96"
        }
      ],
      "name": "setDefaultRoyalty",
      "outputs": [],
      "stateMutability": "nonpayable",
      "type": "function"
    },
    {
      "inputs": [
        {
          "internalType": "uint256",
          "name": "tokenId",
          "type": "uint256"
        },
        {
          "internalType": "address",
          "name": "receiver",
          "type": "address"
        },
        {
          "internalType": "uint96",
          "name": "feeNumerator",
          "type": "uint96"
        }
      ],
      "name": "setTokenRoyalty",
      "outputs": [],
      "stateMutability": "nonpayable",
      "type": "function"
    },
    {
      "inputs": [
        {
          "internalType": "bytes4",
          "name": "interfaceId",
          "type": "bytes4"
        }
      ],
      "name": "supportsInterface",
      "outputs": [
        {
          "internalType": "bool",
          "name": "",
          "type": "bool"
        }
      ],
      "stateMutability": "view",
      "type": "function"
    },
    {
      "inputs": [],
      "name": "symbol",
      "outputs": [
        {
          "internalType": "string",
          "name": "",
          "type": "string"
        }
      ],
      "stateMutability": "view",
      "type": "function"
    },
    {
      "inputs": [
        {
          "internalType": "uint256",
          "name": "tokenId",
          "type": "uint256"
        }
      ],
      "name": "tokenURI",
      "outputs": [
        {
          "internalType": "string",
          "name": "",
          "type": "string"
        }
      ],
      "stateMutability": "view",
      "type": "function"
    },
    {
      "inputs": [
        {
          "internalType": "address",
          "name": "from",
          "type": "address"
        },
        {
          "internalType": "address",
          "name": "to",
          "type": "address"
        },
        {
          "internalType": "uint256",
          "name": "tokenId",
          "type": "uint256"
        }
      ],
      "name": "transferFrom",
      "outputs": [],
      "stateMutability": "nonpayable",
      "type": "function"
    },
    {
      "inputs": [
        {
          "internalType": "uint256",
          "name": "tokenId",
          "type": "uint256"
        },
        {
          "internalType": "bytes",
          "name": "dna",
          "type": "bytes"
        }
      ],
      "name": "updateDna",
      "outputs": [],
      "stateMutability": "nonpayable",
      "type": "function"
    },
    {
      "inputs": [
        {
          "internalType": "address",
          "name": "newImplementation",
          "type": "address"
        }
      ],
      "name": "upgradeTo",
      "outputs": [],
      "stateMutability": "nonpayable",
      "type": "function"
    },
    {
      "inputs": [
        {
          "internalType": "address",
          "name": "newImplementation",
          "type": "address"
        },
        {
          "internalType": "bytes",
          "name": "data",
          "type": "bytes"
        }
      ],
      "name": "upgradeToAndCall",
      "outputs": [],
      "stateMutability": "payable",
      "type": "function"
    },
    {
      "inputs": [],
      "name": "version",
      "outputs": [
        {
          "internalType": "string",
          "name": "",
          "type": "string"
        }
      ],
      "stateMutability": "pure",
      "type": "function"
    },
    {
      "inputs": [],
      "name": "versionRecipient",
      "outputs": [
        {
          "internalType": "string",
          "name": "",
          "type": "string"
        }
      ],
      "stateMutability": "pure",
      "type": "function"
    }
  ],
  "args": [],
  "numDeployments": 7,
  "solcInputHash": "2fe98e12c0031ec2a7dec3df9237bffc",
  "bytecode": "0x60a0806040523461003257306080526159c6908162000038823960805181818161100e0152818161130e01526114240152f35b600080fdfe60806040526004361015610013575b600080fd5b60003560e01c806301ffc9a7146103bf57806304634d8d146103b657806306fdde03146103ad578063081812fc146103a4578063095ea7b31461039b5780630d567b9b146103925780631489f1fb14610389578063150b7a021461038057806323b872dd14610377578063248a9ca31461036e578063249cb3fa146103655780632a55205a1461035c5780632f2ff15d1461035357806336568abe1461034a5780633659cfe614610341578063422627c31461033857806342842e0e1461032f57806342966c681461032657806343a61a8e1461031d578063486ff0cd146103145780634f1ef2861461030b57806352d1902d1461030257806354fd4d50146102f957806355f804b3146102f0578063572b6c05146102e75780635944c753146102de5780635ca8a958146102d55780636352211e146102cc5780636c0360eb146102c357806370a08231146102ba57806370bed434146102b157806374ca69fb146102a857806390dcf02d1461029f57806391d1485414610296578063938e3d7b1461028d57806395d89b4114610284578063a217fddf1461027b578063a22cb46514610272578063aaf10f4214610269578063abc8507914610260578063b88d4fde14610257578063c87b56dd1461024e578063d3a342a814610245578063d547741f1461023c578063de02a59314610233578063e8a3d4851461022a5763e985e9c51461022257600080fd5b61000e6126fd565b5061000e612621565b5061000e6125d4565b5061000e612591565b5061000e6123ee565b5061000e612339565b5061000e61231e565b5061000e612232565b5061000e6121fb565b5061000e6120f3565b5061000e6120cc565b5061000e612024565b5061000e611f59565b5061000e611f0e565b5061000e611dec565b5061000e611ca7565b5061000e611b2b565b5061000e611947565b5061000e61191b565b5061000e6118fc565b5061000e6117bb565b5061000e6116b1565b5061000e61163c565b5061000e611546565b5061000e6114d6565b5061000e611410565b5061000e6112fa565b5061000e61127b565b5061000e61125c565b5061000e6111a9565b5061000e611162565b5061000e61112e565b5061000e610fe6565b5061000e610f45565b5061000e610e80565b5061000e610ddc565b5061000e610d52565b5061000e610d22565b5061000e610cf1565b5061000e610c38565b5061000e6108f7565b5061000e610814565b5061000e61071f565b5061000e6106ee565b5061000e610615565b5061000e610558565b5061000e6103da565b6001600160e01b031981160361000e57565b503461000e57602036600319011261000e576104296004356103fb816103c8565b63ffffffff60e01b1663fa98174d60e01b811490811561042d575b5060405190151581529081906020820190565b0390f35b6357d877d560e01b8114915081156104e1575b811561044e575b5038610416565b632e93c56f60e11b811491508115610468575b5038610447565b63152a902d60e11b811491508115610482575b5038610461565b63073f6c8b60e31b81149150811561049c575b503861047b565b63054fd4d560e41b8114915081156104b6575b5038610495565b6303e8939960e31b8114915081156104d0575b50386104af565b633d96f4ff60e11b149050386104c9565b630a85bd0160e11b81149150610440565b6001600160a01b0381160361000e57565b60043590610510826104f2565b565b60443590610510826104f2565b60c43590610510826104f2565b604435906001600160601b038216820361000e57565b60e435906001600160601b038216820361000e57565b503461000e57604036600319011261000e57600435610576816104f2565b6024356001600160601b038116810361000e5761059a9161059561275a565b615673565b005b600091031261000e57565b918091926000905b8282106105c75750116105c0575050565b6000910152565b915080602091830151818601520182916105af565b906020916105f5815180928185528580860191016105a7565b601f01601f1916010190565b9060206106129281815201906105dc565b90565b503461000e576000806003193601126106eb576040519080609754610639816136d7565b808552916001918083169081156106ca575060011461066f575b6104298561066381870382610b50565b60405191829182610601565b9250609783527f354a83ed9988f79f6038d4c7a7dadbad8af32f4ad6df893e0e5807a1b1944ff95b8284106106b257505050810160200161066382610429610653565b80546020858701810191909152909301928101610697565b60ff1916602087015250506040840192506106639150839050610429610653565b80fd5b503461000e57602036600319011261000e57602061070d6004356138ac565b6040516001600160a01b039091168152f35b503461000e57604036600319011261000e5760043561073d816104f2565b602435610749816136b4565b6001600160a01b03808216939181831685146107c55761059a9461077f9261076f6158b8565b1614908115610784575b5061383a565b613ca8565b6107bf91506107916158b8565b6001600160a01b039182166000908152609c6020908152604080832093909416825291909152205460ff1690565b38610779565b60405162461bcd60e51b815260206004820152602160248201527f4552433732313a20617070726f76616c20746f2063757272656e74206f776e656044820152603960f91b6064820152608490fd5b503461000e576000806003193601126106eb5760405180916101f5908154808452602080940190819383527f734ccdfecf0c98f1f610e13e821eeaab95dc92184ba090032ab8cf544a28f16790835b8181106108c05750505084610879910385610b50565b60405193838594850191818652518092526040850193925b8281106108a057505050500390f35b83516001600160a01b031685528695509381019392810192600101610891565b825484529286019260019283019201610863565b606090600319011261000e57600435906024356108f0816104f2565b9060443590565b503461000e57610906366108d4565b9161090f6158b8565b9261091982614112565b93610925818487614219565b15610a96575061095b83610944846000526101f8602052604060002090565b9060018060a01b0316600052602052604060002090565b54818103610a6457506000938461098185610944866000526101f8602052604060002090565b55846109b3836109a48760018060a01b03166000526101f7602052604060002090565b90600052602052604060002090565b556001600160a01b0393841693843b15610a6057604051632142170760e11b81523060048201526001600160a01b0383166024820152604481018490527f4e2e76c4f3eda2c1e7e010b9702b3814359d2c7d1f363c816c2f11051008c14292908781606481838b5af18015610a53575b610a3a575b506040519384521691602090a4604051f35b80610a47610a4d92610adf565b8061059c565b38610a28565b610a5b613380565b610a23565b8580fd5b60405163abeb503f60e01b81526001600160a01b038516600482015260248101929092526044820152606490fd5b0390fd5b60405163218f7b0b60e11b81526001600160a01b03919091166004820152306024820152604481019290925250606490fd5b50634e487b7160e01b600052604160045260246000fd5b6001600160401b038111610af257604052565b610afa610ac8565b604052565b604081019081106001600160401b03821117610af257604052565b602081019081106001600160401b03821117610af257604052565b606081019081106001600160401b03821117610af257604052565b90601f801991011681019081106001600160401b03821117610af257604052565b6040519061051082610aff565b6020906001600160401b038111610b9b575b601f01601f19160190565b610ba3610ac8565b610b90565b81601f8201121561000e57803590610bbf82610b7e565b92610bcd6040519485610b50565b8284526020838301011161000e57816000926020809301838601378301015290565b90608060031983011261000e57600435610c08816104f2565b91602435610c15816104f2565b9160443591606435906001600160401b03821161000e5761061291600401610ba8565b503461000e57610c4736610bef565b50919050306001600160a01b03821603610c9b573360009081526101f6602052604090205415610c8357604051630a85bd0160e11b8152602090f35b604051637e5e9fb560e01b8152336004820152602490fd5b60405163218f7b0b60e11b81526001600160a01b039190911660048201523360248201526044810191909152606490fd5b606090600319011261000e57600435610ce4816104f2565b906024356108f0816104f2565b503461000e5761059a610d0336610ccc565b91610d1d610d1884610d136158b8565b6139ee565b6138ea565b613b1a565b503461000e57602036600319011261000e5760043560005260fb6020526020600160406000200154604051908152f35b503461000e57604036600319011261000e5760ff610d9d602435610d75816104f2565b60043560005261015f60205260406000209060018060a01b0316600052602052604060002090565b546000911615610dd4575060207fa2ef4600d742022d532d4747cb3547474667d6f13804902513b2ec01c848f4b45b604051908152f35b602090610dcc565b503461000e57604036600319011261000e57600435600052610192602052604060002060405190610e0c82610aff565b546001600160a01b0380821680845260a09290921c60208401529015610e70575b610e51610e496001600160601b03602085015116602435613efc565b612710900490565b915160408051929091166001600160a01b031682526020820192909252f35b9050610e7a613eb0565b90610e2d565b503461000e5760408060031936011261000e5760043590602435610ea3816104f2565b60009280845260fb602052610ebd60018486200154612dc5565b80845260fb60209081528385206001600160a01b03841660009081529152604090205460ff1615610eed57505051f35b80845260fb60209081528385206001600160a01b0384166000908152915260409020805460ff191660011790556001600160a01b0380610f2b6158b8565b16921690600080516020615911833981519152858551a451f35b503461000e57604036600319011261000e57602435610f63816104f2565b6001600160a01b0380610f746158b8565b1690821603610f895761059a90600435613181565b60405162461bcd60e51b815260206004820152602f60248201527f416363657373436f6e74726f6c3a2063616e206f6e6c792072656e6f756e636560448201526e103937b632b9903337b91039b2b63360891b6064820152608490fd5b503461000e57602036600319011261000e57600435611004816104f2565b6001600160a01b037f00000000000000000000000000000000000000000000000000000000000000008116919061103d30841415613217565b61105a600080516020615951833981519152938285541614613278565b6110626128fc565b61106a6132ec565b906110967f4910fdfa16fed3260ed0e7147f7cc6da11a60208b5b9406d12a635614ffd91435460ff1690565b156110a757505061059a915061343a565b6020600491604094939451928380926352d1902d60e01b825286165afa600091816110fe575b506110eb5760405162461bcd60e51b815280610a92600482016133eb565b61059a936110f9911461338d565b6134ca565b61112091925060203d8111611127575b6111188183610b50565b810190613371565b90386110cd565b503d61110e565b503461000e57602036600319011261000e5761042961114e60043561518a565b6040519182916020835260208301906105dc565b503461000e5761059a61117436610ccc565b9060405192602084018481106001600160401b0382111761119c575b6040526000845261394d565b6111a4610ac8565b611190565b503461000e57602036600319011261000e576004356111cd610d1882610d136158b8565b6111d6816136b4565b6111df82613c52565b6001600160a01b03166000818152609a6020526040812080549193916001811061124f575b6000190190558083526099602052604080842080546001600160a01b0319169055519183907fddf252ad1be2c89b69c2b068fc378daa952ba7f163c4a11628f55a4df523b3ef8285a4f35b611257613abe565b611204565b503461000e57602036600319011261000e57602061070d600435614112565b503461000e57600036600319011261000e5761042960405161129c81610aff565b6005815264191719171b60d91b60208201526040519182916020835260208301906105dc565b90604060031983011261000e576004356112db816104f2565b91602435906001600160401b03821161000e5761061291600401610ba8565b50611304366112c2565b6001600160a01b037f0000000000000000000000000000000000000000000000000000000000000000811692919061133e30851415613217565b61135b600080516020615951833981519152948286541614613278565b6113636128fc565b7f4910fdfa16fed3260ed0e7147f7cc6da11a60208b5b9406d12a635614ffd91435460ff161561139957505061059a915061343a565b6020600491604094939451928380926352d1902d60e01b825286165afa600091816113f0575b506113dd5760405162461bcd60e51b815280610a92600482016133eb565b61059a936113eb911461338d565b6135e2565b61140991925060203d8111611127576111188183610b50565b90386113bf565b503461000e57600036600319011261000e577f00000000000000000000000000000000000000000000000000000000000000006001600160a01b0316300361146b576040516000805160206159518339815191528152602090f35b60405162461bcd60e51b815260206004820152603860248201527f555550535570677261646561626c653a206d757374206e6f742062652063616c60448201527f6c6564207468726f7567682064656c656761746563616c6c00000000000000006064820152608490fd5b503461000e57600036600319011261000e576104296040516114f781610aff565b600481526376302e3160e01b60208201526040519182916020835260208301906105dc565b602060031982011261000e57600435906001600160401b03821161000e5761061291600401610ba8565b503461000e576115553661151c565b61155d6129d5565b80516001600160401b03811161162f575b600080516020615931833981519152906115918161158c84546136d7565b6146a7565b602080601f83116001146115cc57508192936000926115c1575b50508160011b916000199060031b1c1916179055005b0151905038806115ab565b90601f198316946115db613711565b926000905b8782106116175750508360019596106115fe575b505050811b019055005b015160001960f88460031b161c191690553880806115f4565b806001859682949686015181550195019301906115e0565b611637610ac8565b61156e565b503461000e57602036600319011261000e57602060ff6116a5600435611661816104f2565b7f7a05a596cb0ce7fdea8a1e1ec73be300bdb35097c944ce1897202f7a13122eb260005260fb845260406000209060018060a01b0316600052602052604060002090565b54166040519015158152f35b503461000e57606036600319011261000e576024356116cf816104f2565b6116d761052c565b906116e061275a565b6116f76127106001600160601b0384161115615614565b6001600160a01b038116156117765761173761059a92611727611718610b71565b6001600160a01b039094168452565b6001600160601b03166020830152565b61174e600435600052610192602052604060002090565b815160209092015160a01b6001600160a01b0319166001600160a01b03909216919091179055565b60405162461bcd60e51b815260206004820152601b60248201527f455243323938313a20496e76616c696420706172616d657465727300000000006044820152606490fd5b503461000e576117ca366112c2565b906117d3612ad1565b6102279081549160019081840190558260005260209061022882526040600020918551956001600160401b0387116118ef575b61181a8761181486546136d7565b86614824565b81601f88116001146118795750958061185e95949381936104299960009461186e575b50501b916000199060031b1c19161790555b826118586132d9565b91614fd4565b6040519081529081906020820190565b01519250388061183d565b9190601f19881661188f86600052602060002090565b936000905b8282106118d85750509161185e9695949391896104299a94106118bf575b505050811b01905561184f565b015160001960f88460031b161c191690553880806118b2565b808786978294978701518155019601940190611894565b6118f7610ac8565b611806565b503461000e57602036600319011261000e57602061070d6004356136b4565b503461000e57600036600319011261000e5761042960405161114e816119408161377d565b0382610b50565b503461000e57602036600319011261000e57600435611965816104f2565b6001600160a01b0316801561199657600052609a602052610429604060002054604051918291829190602083019252565b60405162461bcd60e51b815260206004820152602960248201527f4552433732313a2061646472657373207a65726f206973206e6f7420612076616044820152683634b21037bbb732b960b91b6064820152608490fd5b6020906001600160401b038111611a06575b60051b0190565b611a0e610ac8565b6119ff565b81601f8201121561000e57803591611a2a836119ed565b92611a386040519485610b50565b808452602092838086019260051b82010192831161000e578301905b828210611a62575050505090565b8380918335611a70816104f2565b815201910190611a54565b61012060031982011261000e57611a90610503565b916001600160401b0360243581811161000e5783611ab091600401610ba8565b92611ab9610512565b9260643583811161000e5782611ad191600401610ba8565b9260843581811161000e5783611ae991600401610ba8565b9260a43582811161000e5781611b0191600401610ba8565b92611b0a61051f565b92611b13610542565b926101043591821161000e5761061291600401611a13565b503461000e57611b3a36611a7b565b9590949193929796611b5360ff60005460081c16614410565b611b5c88612ea0565b80516001600160401b038111611c9a575b60008051602061597183398151915291611b9082611b8b85546136d7565b614715565b60209081601f8411600114611c17575094611bdf611bf39561059a9d9585611bed96611c069e9d9b96611bf99d9b600092611c0c575b50508160011b916000199060031b1c1916179055613120565b611be88b6157f1565b614577565b87615709565b85615545565b611c01614955565b614b2a565b80614db0565b015190503880611bc6565b9190601f198416611c26613747565b936000905b828210611c825750509561059a9d95600186611c069e9d9b96611bf99d9b96611bdf96611bed9a611bf39d10611c69575b505050811b019055613120565b015160001960f88460031b161c19169055388080611c5c565b80600186978294978701518155019601940190611c2b565b611ca2610ac8565b611b6d565b503461000e57604036600319011261000e576001600160401b0360043560243582811161000e57611cdc903690600401610ba8565b91611ce5612bcd565b611ced6158b8565b611d008184611cfb81614112565b614219565b15610a9657506000918252602090610228825260408320918451918211611ddf575b611d3682611d3085546136d7565b85614824565b80601f8311600114611d725750839482939492611d67575b50508160011b916000199060031b1c1916179055604051f35b015190503880611d4e565b90601f19831695611d8885600052602060002090565b9286905b888210611dc757505083600195969710611dae575b505050811b019055604051f35b015160001960f88460031b161c19169055388080611da1565b80600185968294968601518155019501930190611d8c565b611de7610ac8565b611d22565b503461000e57611dfb366112c2565b90611e04612ad1565b6102279081549160019081840190558260005260209061022882526040600020918551956001600160401b038711611f01575b611e458761181486546136d7565b81601f8811600114611e8a575095808061185e96948896946104299a600094611e7f575b50501b916000199060031b1c1916179055614eb7565b015192503880611e69565b9190601f198816611ea086600052602060002090565b936000905b828210611eea5750509261185e96949289926104299a8a989610611ed1575b505050811b019055614eb7565b015160001960f88460031b161c19169055388080611ec4565b808786978294978701518155019601940190611ea5565b611f09610ac8565b611e37565b503461000e57604036600319011261000e57602060ff6116a5602435611f33816104f2565b60043560005260fb845260406000209060018060a01b0316600052602052604060002090565b503461000e57611f683661151c565b611f70612cc9565b80516001600160401b038111612017575b60008051602061597183398151915290611f9f81611b8b84546136d7565b602080601f8311600114611fce57508192936000926115c15750508160011b916000199060031b1c1916179055005b90601f19831694611fdd613747565b926000905b878210611fff5750508360019596106115fe57505050811b019055005b80600185968294968601518155019501930190611fe2565b61201f610ac8565b611f81565b503461000e576000806003193601126106eb576040519080609854612048816136d7565b808552916001918083169081156106ca5750600114612071576104298561066381870382610b50565b9250609883527f2237a976fa961f5921fd19f2b03c925c725d77b20ce8f790c19709c03de4d8145b8284106120b457505050810160200161066382610429610653565b80546020858701810191909152909301928101612099565b503461000e57600036600319011261000e57602060405160008152f35b8015150361000e57565b503461000e57604036600319011261000e57600435612111816104f2565b6024359061211e826120e9565b6121266158b8565b6001600160a01b03828116939116918284146121b6578161219f7f17307eab39ab6107e8899845ad3d59bd9653f200f220920489ca2b5937696c319361218e6121b19487600052609c60205260406000209060018060a01b0316600052602052604060002090565b9060ff801983541691151516179055565b60405190151581529081906020820190565b0390a3005b60405162461bcd60e51b815260206004820152601960248201527f4552433732313a20617070726f766520746f2063616c6c6572000000000000006044820152606490fd5b503461000e57600036600319011261000e57600080516020615951833981519152546040516001600160a01b039091168152602090f35b503461000e5761229261224436611a7b565b966000999899969196959295949394549961227660ff8c60081c1615809c819d612310575b81156122f0575b506143ad565b8a612289600160ff196000541617600055565b6122d757614470565b61229857005b6122a861ff001960005416600055565b604051600181527f7f26b83ff96e1f2b6a682f133852f6798a09c465da95921460cefb384740249890602090a1005b6122eb61010061ff00196000541617600055565b614470565b303b15915081612302575b5038612270565b6001915060ff1614386122fb565b600160ff8216109150612269565b503461000e5761059a61233036610bef565b9291909161394d565b503461000e5760208060031936011261000e57600435600081815260996020526040902054610429929190612378906001600160a01b03161515613668565b6123a061239b604051926123968461238f8161377d565b0385610b50565b61518a565b615303565b81519092909182156123e6578293610663936123c66040519687948680870191016105a7565b82016123da825180938680850191016105a7565b01038084520182610b50565b505050610663565b503461000e576123fd366108d4565b6001600160a01b0382811660008181526101f660205260409020549094939015612426565b1590565b61256e576124326158b8565b9061243c85614112565b9161244b612422828886614219565b61253e576040516331a9108f60e11b815260048101869052906020826024818b5afa918215612531575b600092612501575b5061248e6124228583898688614257565b6124d05750847f6c062bd0d2c75cb8047b8bbb9fb7dfdfc4102b14c87dc24a782f74b8aa01747a949392876124c29361545d565b6040519384521691602090a4005b60405163218f7b0b60e11b81526001600160a01b039182166004820152921660248301525060448101849052606490fd5b61252391925060203d811161252a575b61251b8183610b50565b8101906140fd565b903861247d565b503d612511565b612539613380565b612475565b60405163218f7b0b60e11b81526001600160a01b0391909116600482015230602482015260448101869052606490fd5b604051637e5e9fb560e01b81526001600160a01b03919091166004820152602490fd5b503461000e57604036600319011261000e5761059a6024356004356125b5826104f2565b8060005260fb6020526125cf600160406000200154612dc5565b613181565b503461000e57604036600319011261000e576004356125f2816104f2565b60018060a01b03166000526101f760205260406000206024356000526020526020604060002054604051908152f35b503461000e576000806003193601126106eb57604051908060008051602061597183398151915290815490612655826136d7565b808652926001928084169081156126d9575060011461267f575b6104298661066381880382610b50565b815292507feea97fdf38e36104b6e79f51a620e17443f803bd4254b3af64efdf6a8301c6975b8284106126c1575050508101602001610663826104293861266f565b805460208587018101919091529093019281016126a5565b60ff191660208801525050604085019350610663925084915061042990503861266f565b503461000e57604036600319011261000e57602060ff6116a5600435612722816104f2565b6024359061272f826104f2565b60018060a01b0316600052609c845260406000209060018060a01b0316600052602052604060002090565b6127626158b8565b6001600160a01b03811660009081527fef93721591a8283ebcbc635d4596270f18296615bf2ad2acc05699794bf1433160205260409020547feb54e1feee3ae17add098cbf58a47457bf5f7c3a89ceab263cbdb01b3da6d98e919060ff16156127c9575050565b6127db906001600160a01b0316614010565b906127e4613306565b9060306127f083613f72565b5360786127fc83613f88565b5360415b600181116128ad57610a926037612895866128878761281f8815613fc5565b6128816040519586947f416363657373436f6e74726f6c3a206163636f756e74200000000000000000006020870152612861815180926020858a0191016105a7565b8501017001034b99036b4b9b9b4b733903937b6329607d1b815260110190565b90612e89565b03601f198101835282610b50565b60405162461bcd60e51b815291829160048301610601565b9080600f6128ea921660108110156128ef575b6f181899199a1a9b1b9c1cb0b131b232b360811b901a6128e08486613f99565b5360041c91613fb8565b612800565b6128f7613f5b565b6128c0565b6129046158b8565b6001600160a01b03811660009081527fc88390e7e62175be0932452175b6a7222b6b094ab0ef984a5153c620345d8975602052604090205460ff16156129475750565b612959906001600160a01b0316614010565b6000612963613306565b90603061296f83613f72565b53607861297b83613f88565b5360415b6001811161299e57610a926037612895866128878761281f8815613fc5565b9080600f6129d0921660108110156128ef576f181899199a1a9b1b9c1cb0b131b232b360811b901a6128e08486613f99565b61297f565b6129dd6158b8565b6001600160a01b03811660009081527f248dd836b57784724b19977de4d97082a3dc8c769beb80c8f7fb5af2bb22b29a60205260409020547ff372640890c51dda497431936a65d3bb1ddf67b1c27cd6cdf578ce883c4f5c36919060ff1615612a44575050565b612a56906001600160a01b0316614010565b90612a5f613306565b906030612a6b83613f72565b536078612a7783613f88565b5360415b60018111612a9a57610a926037612895866128878761281f8815613fc5565b9080600f612acc921660108110156128ef576f181899199a1a9b1b9c1cb0b131b232b360811b901a6128e08486613f99565b612a7b565b612ad96158b8565b6001600160a01b03811660009081527f72f2994cda805697ff5940dc92bd4118d9d7058b657a897ee8a2023e4f67343460205260409020547f9f2df0fed2c77648de5860a4cc508cd0818c85b8b8a1ab4ceeef8d981c8956a6919060ff1615612b40575050565b612b52906001600160a01b0316614010565b90612b5b613306565b906030612b6783613f72565b536078612b7383613f88565b5360415b60018111612b9657610a926037612895866128878761281f8815613fc5565b9080600f612bc8921660108110156128ef576f181899199a1a9b1b9c1cb0b131b232b360811b901a6128e08486613f99565b612b77565b612bd56158b8565b6001600160a01b03811660009081527ff6b3b573835566942f1e744a5cfac64038b4dbd5b3e9f0797d1b7269bba4970160205260409020547fd81e3d287dc343b6afbd738eeed3ca0a2b77921a595a475a4e43ed25b38ceb2f919060ff1615612c3c575050565b612c4e906001600160a01b0316614010565b90612c57613306565b906030612c6383613f72565b536078612c6f83613f88565b5360415b60018111612c9257610a926037612895866128878761281f8815613fc5565b9080600f612cc4921660108110156128ef576f181899199a1a9b1b9c1cb0b131b232b360811b901a6128e08486613f99565b612c73565b612cd16158b8565b6001600160a01b03811660009081527fd79c98b0e2162ca3184e1e6688bf8c1c5461f86efaaae3675641a8fbeb30644560205260409020547f0ab9ec9ba2423318b97c58cb919c22b4da14401c539342f710b4932382bc2c15919060ff1615612d38575050565b612d4a906001600160a01b0316614010565b90612d53613306565b906030612d5f83613f72565b536078612d6b83613f88565b5360415b60018111612d8e57610a926037612895866128878761281f8815613fc5565b9080600f612dc0921660108110156128ef576f181899199a1a9b1b9c1cb0b131b232b360811b901a6128e08486613f99565b612d6f565b612dcd6158b8565b600082815260fb602090815260408083206001600160a01b038516845290915290205460ff1615612dfc575050565b612e0e906001600160a01b0316614010565b90612e17613306565b906030612e2383613f72565b536078612e2f83613f88565b5360415b60018111612e5257610a926037612895866128878761281f8815613fc5565b9080600f612e84921660108110156128ef576f181899199a1a9b1b9c1cb0b131b232b360811b901a6128e08486613f99565b612e33565b90612e9c602092828151948592016105a7565b0190565b6001600160a01b03811660009081527fd79c98b0e2162ca3184e1e6688bf8c1c5461f86efaaae3675641a8fbeb306445602052604090207f0ab9ec9ba2423318b97c58cb919c22b4da14401c539342f710b4932382bc2c159060ff905b541615612f08575050565b600081815260fb602090815260408083206001600160a01b03861684529091529020805460ff191660011790556001600160a01b0380612f466158b8565b169216906000805160206159118339815191526000604051a4565b6001600160a01b03811660009081527f72f2994cda805697ff5940dc92bd4118d9d7058b657a897ee8a2023e4f673434602052604090207f9f2df0fed2c77648de5860a4cc508cd0818c85b8b8a1ab4ceeef8d981c8956a69060ff90612efd565b6001600160a01b03811660009081527ff6b3b573835566942f1e744a5cfac64038b4dbd5b3e9f0797d1b7269bba49701602052604090207fd81e3d287dc343b6afbd738eeed3ca0a2b77921a595a475a4e43ed25b38ceb2f9060ff90612efd565b6001600160a01b03811660009081527f248dd836b57784724b19977de4d97082a3dc8c769beb80c8f7fb5af2bb22b29a602052604090207ff372640890c51dda497431936a65d3bb1ddf67b1c27cd6cdf578ce883c4f5c369060ff90612efd565b6001600160a01b03811660009081527fc88390e7e62175be0932452175b6a7222b6b094ab0ef984a5153c620345d8975602052604081205460ff16156130c8575050565b80805260fb602090815260408083206001600160a01b038516600090815292529020805460ff191660011790556001600160a01b03806131066158b8565b1692169060008051602061591183398151915281604051a4565b6001600160a01b03811660009081527f452ae8ad28077a8dde36d329380df9bfd96077640c4bb696c45031c2933e8ad8602052604090207f7a05a596cb0ce7fdea8a1e1ec73be300bdb35097c944ce1897202f7a13122eb29060ff90612efd565b600081815260fb602090815260408083206001600160a01b038616845290915290205460ff166131af575050565b600081815260fb602090815260408083206001600160a01b03861684529091529020805460ff191690556001600160a01b03806131ea6158b8565b169216907ff6391f5c32d9c69d2a47ea670b442974b53935d1edc7fd64eb21e047a839171b6000604051a4565b1561321e57565b60405162461bcd60e51b815260206004820152602c60248201527f46756e6374696f6e206d7573742062652063616c6c6564207468726f7567682060448201526b19195b1959d85d1958d85b1b60a21b6064820152608490fd5b1561327f57565b60405162461bcd60e51b815260206004820152602c60248201527f46756e6374696f6e206d7573742062652063616c6c6564207468726f7567682060448201526b6163746976652070726f787960a01b6064820152608490fd5b604051906132e682610b1a565b60008252565b604051906132f982610b1a565b6000808352366020840137565b60405190608082018281106001600160401b03821117613332575b604052604282526060366020840137565b61333a610ac8565b613321565b9061334982610b7e565b6133566040519182610b50565b8281528092613367601f1991610b7e565b0190602036910137565b9081602091031261000e575190565b506040513d6000823e3d90fd5b1561339457565b60405162461bcd60e51b815260206004820152602960248201527f45524331393637557067726164653a20756e737570706f727465642070726f786044820152681a58589b195555525160ba1b6064820152608490fd5b60809060208152602e60208201527f45524331393637557067726164653a206e657720696d706c656d656e7461746960408201526d6f6e206973206e6f74205555505360901b60608201520190565b803b1561346f5760008051602061595183398151915280546001600160a01b0319166001600160a01b03909216919091179055565b60405162461bcd60e51b815260206004820152602d60248201527f455243313936373a206e657720696d706c656d656e746174696f6e206973206e60448201526c1bdd08184818dbdb9d1c9858dd609a1b6064820152608490fd5b6134d38161343a565b6040516001600160a01b0382167fbc7cd75a20ee27fd9adebab32041f755214dbc6bffa90cc0225b39da2e5c2d3b600083a28251158015906135da575b61351957505050565b813b1561358957506000828192602061358695519201905af461353a613638565b6040519161354783610b35565b602783527f416464726573733a206c6f772d6c6576656c2064656c65676174652063616c6c6020840152660819985a5b195960ca1b6040840152613f1b565b50565b62461bcd60e51b815260206004820152602660248201527f416464726573733a2064656c65676174652063616c6c20746f206e6f6e2d636f6044820152651b9d1c9858dd60d21b6064820152608490fd5b506000613510565b6135eb8161343a565b6040516001600160a01b0382167fbc7cd75a20ee27fd9adebab32041f755214dbc6bffa90cc0225b39da2e5c2d3b600083a28251158015906136305761351957505050565b506001613510565b3d15613663573d9061364982610b7e565b916136576040519384610b50565b82523d6000602084013e565b606090565b1561366f57565b60405162461bcd60e51b815260206004820152601860248201527f4552433732313a20696e76616c696420746f6b656e20494400000000000000006044820152606490fd5b6000908152609960205260409020546001600160a01b0316610612811515613668565b90600182811c92168015613707575b60208310146136f157565b634e487b7160e01b600052602260045260246000fd5b91607f16916136e6565b6000805160206159318339815191526000527f19bfbe9c1d469104dfe3a613f5f31e0356b89c1b110180555c05774e09befab490565b6000805160206159718339815191526000527feea97fdf38e36104b6e79f51a620e17443f803bd4254b3af64efdf6a8301c69790565b9060009160008051602061593183398151915290815461379c816136d7565b8083529260019180831690811561381b57506001146137bc575b50505050565b90929394506000527f19bfbe9c1d469104dfe3a613f5f31e0356b89c1b110180555c05774e09befab4916000925b84841061380357505060209250010190388080806137b6565b805460208585018101919091529093019281016137ea565b60ff1916602085015250506040909101935038915081905080806137b6565b1561384157565b60405162461bcd60e51b815260206004820152603e60248201527f4552433732313a20617070726f76652063616c6c6572206973206e6f7420746f60448201527f6b656e206f776e6572206e6f7220617070726f76656420666f7220616c6c00006064820152608490fd5b6000818152609960205260409020546138cf906001600160a01b03161515613668565b6000908152609b60205260409020546001600160a01b031690565b156138f157565b60405162461bcd60e51b815260206004820152602e60248201527f4552433732313a2063616c6c6572206973206e6f7420746f6b656e206f776e6560448201526d1c881b9bdc88185c1c1c9bdd995960921b6064820152608490fd5b91610510939161397693613966610d1884610d136158b8565b613971838383613b1a565b613e6b565b6139ce565b60809060208152603260208201527f4552433732313a207472616e7366657220746f206e6f6e20455243373231526560408201527131b2b4bb32b91034b6b83632b6b2b73a32b960711b60608201520190565b156139d557565b60405162461bcd60e51b815280610a926004820161397b565b6001600160a01b0380613a00846136b4565b169281831692848414948515613a36575b50508315613a20575b50505090565b613a2c919293506138ac565b1614388080613a1a565b6000908152609c602090815260408083206001600160a01b03949094168352929052205460ff1693503880613a11565b15613a6d57565b60405162461bcd60e51b8152602060048201526024808201527f4552433732313a207472616e7366657220746f20746865207a65726f206164646044820152637265737360e01b6064820152608490fd5b50634e487b7160e01b600052601160045260246000fd5b60018110613ae5575b6000190190565b613aed613abe565b613ade565b6001906001198111613b02570190565b612e9c613abe565b6002906002198111613b02570190565b90613b24836136b4565b6001600160a01b038381169290918216839003613bff57613b73613bd692821694613b50861515613a66565b613b5987613c52565b6001600160a01b03166000908152609a6020526040902090565b613b7d8154613ad5565b90556001600160a01b0381166000908152609a60205260409020613ba18154613af2565b9055613bb7856000526099602052604060002090565b80546001600160a01b0319166001600160a01b03909216919091179055565b7fddf252ad1be2c89b69c2b068fc378daa952ba7f163c4a11628f55a4df523b3ef6000604051a4565b60405162461bcd60e51b815260206004820152602560248201527f4552433732313a207472616e736665722066726f6d20696e636f72726563742060448201526437bbb732b960d91b6064820152608490fd5b6000818152609b6020526040812080546001600160a01b03191690556001600160a01b03613c7f836136b4565b167f8c5be1e5ebec7d5bd14f71427d1e84f3dd0314c0f7b2291e5b200ac8c7c3b92582604051a4565b6000828152609b6020526040902080546001600160a01b0319166001600160a01b0383161790556001600160a01b0380613ce1846136b4565b169116907f8c5be1e5ebec7d5bd14f71427d1e84f3dd0314c0f7b2291e5b200ac8c7c3b9256000604051a4565b600090815260996020526040902054610510906001600160a01b03161515613668565b9081602091031261000e5751610612816103c8565b610612939260809260018060a01b0316825260006020830152604082015281606082015201906105dc565b6001600160a01b039182168152911660208201526040810191909152608060608201819052610612929101906105dc565b909190803b15613e6357613ddc91602091613dbb6158b8565b946000604051809681958294630a85bd0160e11b9a8b855260048501613d46565b03926001600160a01b03165af160009181613e33575b50613e2557613dff613638565b80519081613e205760405162461bcd60e51b815280610a926004820161397b565b602001fd5b6001600160e01b0319161490565b613e5591925060203d8111613e5c575b613e4d8183610b50565b810190613d31565b9038613df2565b503d613e43565b505050600190565b92909190823b15613ea757613ddc926020926000613e876158b8565b9660405196879586948593630a85bd0160e11b9b8c865260048601613d71565b50505050600190565b60405190613ebd82610aff565b610191546001600160a01b038116835260a01c6020830152565b6001600160fe1b038111600116613eef575b60021b90565b613ef7613abe565b613ee9565b8060001904821181151516613f0f570290565b613f17613abe565b0290565b90919015613f27575090565b815115613f375750805190602001fd5b60405162461bcd60e51b815260206004820152908190610a929060248301906105dc565b50634e487b7160e01b600052603260045260246000fd5b602090805115613f80570190565b612e9c613f5b565b602190805160011015613f80570190565b906020918051821015613fab57010190565b613fb3613f5b565b010190565b8015613ae5576000190190565b15613fcc57565b606460405162461bcd60e51b815260206004820152602060248201527f537472696e67733a20686578206c656e67746820696e73756666696369656e746044820152fd5b6040519061401d82610b35565b602a82526040366020840137603061403483613f72565b53607861404083613f88565b536029905b6001821161405857610612915015613fc5565b80600f614089921660108110156128ef576f181899199a1a9b1b9c1cb0b131b232b360811b901a6128e08486613f99565b90614045565b604051906101f582815491828252602092838301916000527f734ccdfecf0c98f1f610e13e821eeaab95dc92184ba090032ab8cf544a28f167936000905b8282106140e35750505061051092500383610b50565b8554845260019586019588955093810193909101906140cd565b9081602091031261000e5751610612816104f2565b9061411c826136b4565b9130925b614129816153de565b15614214576040805163de02a59360e01b81526001600160a01b03958616600480830191909152602482019490945260209591936141a092879291908516908383604481855afa928315614207575b6000936141e8575b508296518095819482936331a9108f60e11b845283019190602083019252565b03915afa9485156141db575b6000956141bc575b505092614120565b6141d3929550803d1061252a5761251b8183610b50565b9238806141b4565b6141e3613380565b6141ac565b614200919350843d8611611127576111188183610b50565b9138614180565b61420f613380565b614178565b925050565b6001600160a01b03908116838216818114949093918515613a365750508315613a205750505090565b9081602091031261000e5751610612816120e9565b6001600160a01b0382811685821681811497949691959294939092908815614285575b505050505050505090565b60405163e985e9c560e01b81526001600160a01b039889166004820152929097166024830152909650939492939192909160209185168288604481845afa9788156143a0575b600098614371575b508715614301575b50505050836142f5575b505050388080808080808061427a565b161490503880806142e5565b60405163020604bf60e21b8152600481019290925293965091928492908290829060249082905afa918215614364575b600092614347575b5050161492388080806142db565b61435d9250803d1061252a5761251b8183610b50565b3880614339565b61436c613380565b614331565b614392919850833d8511614399575b61438a8183610b50565b810190614242565b96386142d3565b503d614380565b6143a8613380565b6142cb565b156143b457565b60405162461bcd60e51b815260206004820152602e60248201527f496e697469616c697a61626c653a20636f6e747261637420697320616c72656160448201526d191e481a5b9a5d1a585b1a5e995960921b6064820152608490fd5b1561441757565b60405162461bcd60e51b815260206004820152602b60248201527f496e697469616c697a61626c653a20636f6e7472616374206973206e6f74206960448201526a6e697469616c697a696e6760a81b6064820152608490fd5b96949897959392919061448288612ea0565b80516001600160401b03811161456a575b600080516020615971833981519152916144b182611b8b85546136d7565b60209081601f8411600114614500575094611bdf611bf3956105109d9e9585611bed96611c069e9d9b96611bf99d9b600092611c0c5750508160011b916000199060031b1c1916179055613120565b9190601f19841661450f613747565b936000905b828210614552575050956105109d9e95600186611c069e9d9b96611bf99d9b96611bdf96611bed9a611bf39d10611c6957505050811b019055613120565b80600186978294978701518155019601940190614514565b614572610ac8565b614493565b9061458960ff60005460081c16614410565b81516001600160401b038111614683575b6145ae816145a96097546136d7565b614778565b602080601f83116001146145f057508190610510946000926145e5575b50508160011b916000199060031b1c19161760975561485e565b0151905038806145cb565b919293601f19841661462460976000527f354a83ed9988f79f6038d4c7a7dadbad8af32f4ad6df893e0e5807a1b1944ff990565b936000905b82821061466b57505091600193918561051097969410614652575b505050811b0160975561485e565b015160001960f88460031b161c19169055388080614644565b80600186978294978701518155019601940190614629565b61468b610ac8565b61459a565b81811061469b575050565b60008155600101614690565b90601f82116146b4575050565b610510916000805160206159318339815191526000527f19bfbe9c1d469104dfe3a613f5f31e0356b89c1b110180555c05774e09befab4906020601f840160051c8301931061470b575b601f0160051c0190614690565b90915081906146fe565b90601f8211614722575050565b610510916000805160206159718339815191526000527feea97fdf38e36104b6e79f51a620e17443f803bd4254b3af64efdf6a8301c697906020601f840160051c8301931061470b57601f0160051c0190614690565b90601f8211614785575050565b6105109160976000527f354a83ed9988f79f6038d4c7a7dadbad8af32f4ad6df893e0e5807a1b1944ff9906020601f840160051c8301931061470b57601f0160051c0190614690565b90601f82116147db575050565b6105109160986000527f2237a976fa961f5921fd19f2b03c925c725d77b20ce8f790c19709c03de4d814906020601f840160051c8301931061470b57601f0160051c0190614690565b9190601f811161483357505050565b610510926000526020600020906020601f840160051c8301931061470b57601f0160051c0190614690565b9081516001600160401b038111614948575b6148848161487f6098546136d7565b6147ce565b602080601f83116001146148c057508192936000926148b5575b50508160011b916000199060031b1c191617609855565b01519050388061489e565b90601f198316946148f360986000527f2237a976fa961f5921fd19f2b03c925c725d77b20ce8f790c19709c03de4d81490565b926000905b878210614930575050836001959610614917575b505050811b01609855565b015160001960f88460031b161c1916905538808061490c565b806001859682949686015181550195019301906148f8565b614950610ac8565b614870565b731820a4b7618bde71dce8cdc73aab6c95905fad24803b6149735750565b803b1561000e5760405163a41e7d5160e01b808252306004830152632e93c56f60e11b6024830152600091828160448183885af18015614aeb575b614ad8575b50823b15614a94576040519081523060048201526380ac58cd60e01b6024820152818160448183875af18015614acb575b614ab8575b50813b156106eb576040516329965a1d60e01b80825230600483018190526001635d278adf60e01b036024840152604483015290828160648183885af18015614aab575b614a98575b50823b15614a9457604051908152306004820181905260016340562c6760e11b0360248301526044820152918290818381606481015b03925af18015614a87575b614a7a5750565b80610a4761051092610adf565b614a8f613380565b614a73565b5080fd5b80610a47614aa592610adf565b38614a32565b614ab3613380565b614a2d565b80610a47614ac592610adf565b386149e9565b614ad3613380565b6149e4565b80610a47614ae592610adf565b386149b3565b614af3613380565b6149ae565b6001906000198114613b02570190565b6020918151811015614b1d575b60051b010190565b614b25613f5b565b614b15565b90731820a4b7618bde71dce8cdc73aab6c95905fad24803b614b8a575b5060005b8251811015614b855780614b7a614b75614b68614b809487614b08565b516001600160a01b031690565b614d0c565b50614af8565b614b4b565b509050565b803b1561000e5760405163a41e7d5160e01b808252306004830152630a85bd0160e11b6024830152600091828160448183885af18015614cff575b614cec575b50823b15614a94576040519081523060048201526357d877d560e01b6024820152818160448183875af18015614cdf575b614ccc575b50813b156106eb576040516329965a1d60e01b8082523060048301819052600163150b7a0360e01b036024840152604483015290828160648183885af18015614cbf575b614cac575b50823b15614a945760405190815230600482018190526001632bec3beb60e11b0360248301526044820152918290606490829084905af18015614c9f575b15614b475780610a47614c9992610adf565b38614b47565b614ca7613380565b614c87565b80610a47614cb992610adf565b38614c49565b614cc7613380565b614c44565b80610a47614cd992610adf565b38614c00565b614ce7613380565b614bfb565b80610a47614cf992610adf565b38614bca565b614d07613380565b614bc5565b610612906001600160a01b0316806000526101f68060205260406000205415600014614da9576101f582815468010000000000000000811015614d9c575b60018101808455811015614d8f575b7f734ccdfecf0c98f1f610e13e821eeaab95dc92184ba090032ab8cf544a28f16701555491600052602052604060002055600190565b614d97613f5b565b614d59565b614da4610ac8565b614d4a565b5050600090565b90614dbd614dc292612f61565b612fc2565b731820a4b7618bde71dce8cdc73aab6c95905fad24803b614dee575b5061051061022760018154019055565b803b1561000e5760405163a41e7d5160e01b815230600482015263db76844d60e01b6024820152600090818160448183875af18015614eaa575b614e97575b50813b156106eb576040516329965a1d60e01b815230600482018190526001636dbb422760e11b0360248301526044820152918290606490829084905af18015614e8a575b15614dde5780610a47614e8492610adf565b38614dde565b614e92613380565b614e72565b80610a47614ea492610adf565b38614e2d565b614eb2613380565b614e28565b6001600160a01b038116908115614f90576000838152609960205260409020546001600160a01b0316614f4b576001600160a01b0381166000908152609a60205260409020614f219190614f0b8154613af2565b9055613bb7846000526099602052604060002090565b60007fddf252ad1be2c89b69c2b068fc378daa952ba7f163c4a11628f55a4df523b3ef81604051a4565b60405162461bcd60e51b815260206004820152601c60248201527f4552433732313a20746f6b656e20616c7265616479206d696e746564000000006044820152606490fd5b606460405162461bcd60e51b815260206004820152602060248201527f4552433732313a206d696e7420746f20746865207a65726f20616464726573736044820152fd5b916139769161051093614fe78282614eb7565b613da2565b90614ff6826119ed565b6150036040519182610b50565b8281528092615014601f19916119ed565b019060005b82811061502557505050565b806060602080938501015201615019565b60208183031261000e578051906001600160401b03821161000e570181601f8201121561000e57805161506881610b7e565b926150766040519485610b50565b8184526020828401011161000e5761061291602080850191016105a7565b604081526000908254926150a7846136d7565b908160408401526001948581169081600014615170575060011461512e575b5050602092919290818185039101528351908184528084019381808460051b8301019601946000915b848310615100575050505050505090565b9091929394848061511d83999a601f198682030187528b516105dc565b9901930193019195949392906150ef565b90919250600052602080600020916000915b8582841061515a57505050606091508201019038806150c6565b8454868501606001529093019291820191615140565b60ff191660608501525050608082019250389050806150c6565b61519381613d0e565b61519b61408f565b906151a68251614fec565b9160005b815181101561527857806151c4614b686152369385614b08565b6151dd81610944876000526101f8602052604060002090565b549081156152695760405163422627c360e01b81526004810192909252600090829060249082906001600160a01b03165afa90811561525c575b60009161523b575b505b61522b8287614b08565b52614b7a8186614b08565b6151aa565b615256913d8091833e61524e8183610b50565b810190615036565b3861521f565b615264613380565b615217565b50506152736132ec565b615221565b505061529261061291600052610228602052604060002090565b61288760405193849260208401615094565b604051906152b182610b35565b604082527f6768696a6b6c6d6e6f707172737475767778797a303132333435363738392b2f6040837f4142434445464748494a4b4c4d4e4f505152535455565758595a61626364656660208201520152565b8051156153d5576153126152a4565b61533661533161532c6153258551613b0a565b6003900490565b613ed7565b61333f565b9160208301918182518301915b8282106153835750505060039051068060011461537057600214615365575090565b603d90600019015390565b50603d9081600019820153600119015390565b9091936004906003809401938451600190603f9082828260121c16880101518553828282600c1c16880101518386015382828260061c1688010151600286015316850101519082015301939190615343565b506106126132d9565b803b15615457576040516301ffc9a760e01b81526357d877d560e01b600482015290602090829060249082906001600160a01b03165afa60009181615437575b506154295750600090565b61543257600090565b600190565b61545091925060203d81116143995761438a8183610b50565b903861541e565b50600090565b919061547882610944836000526101f8602052604060002090565b548061551557508361549983610944846000526101f8602052604060002090565b556001600160a01b03821660009081526101f7602052604090206154be9085906109a4565b556001600160a01b031691823b1561000e57604051632142170760e11b81526001600160a01b039290921660048301523060248301526044820152906000908290606490829084905af18015614a8757614a7a5750565b60405163abeb503f60e01b81526001600160a01b0384166004820152602481018690526044810191909152606490fd5b6001600160a01b03811660009081527fef93721591a8283ebcbc635d4596270f18296615bf2ad2acc05699794bf143316020526040902054610510939291907feb54e1feee3ae17add098cbf58a47457bf5f7c3a89ceab263cbdb01b3da6d98e9060ff16156155b6575b5050615673565b600081815260fb602090815260408083206001600160a01b03861684529091529020805460ff191660011790556001600160a01b03806155f46158b8565b169216906000805160206159118339815191526000604051a438806155af565b1561561b57565b60405162461bcd60e51b815260206004820152602a60248201527f455243323938313a20726f79616c7479206665652077696c6c206578636565646044820152692073616c65507269636560b01b6064820152608490fd5b906001600160601b0381169161568d612710841115615614565b6001600160a01b03169182156156c45760206040516156ab81610aff565b848152015260a01b6001600160a01b0319161761019155565b60405162461bcd60e51b815260206004820152601960248201527f455243323938313a20696e76616c6964207265636569766572000000000000006044820152606490fd5b61571590929192613023565b81516001600160401b0381116157e4575b600080516020615931833981519152906157448161158c84546136d7565b602080601f8311600114615780575081929394600092615775575b50508160011b916000199060031b1c1916179055565b01519050388061575f565b90601f1983169561578f613711565b926000905b8882106157cc575050836001959697106157b3575b505050811b019055565b015160001960f88460031b161c191690553880806157a9565b80600185968294968601518155019501930190615794565b6157ec610ac8565b615726565b6157fa90613084565b731820a4b7618bde71dce8cdc73aab6c95905fad24803b6158185750565b803b1561000e5760405163a41e7d5160e01b815230600482015263054fd4d560e41b6024820152600090818160448183875af180156158ab575b615898575b50813b156106eb576040516329965a1d60e01b8152306004820181905260016354fd4d5160e01b036024830152604482015291829081838160648101614a68565b80610a476158a592610adf565b38615857565b6158b3613380565b615852565b6014361015806158d8575b156158d45736601319013560601c90565b3390565b503360009081527f452ae8ad28077a8dde36d329380df9bfd96077640c4bb696c45031c2933e8ad8602052604090205460ff166158c356fe2f8788117e7eff1d82e926ec794901d17c78024a50270940304540a733656f0da9f9158fe70cb34800ad178a5ece6c5a90de2e6ce3d18ac99a750313884ef86f360894a13ba1a3210667c828492db98dca3e2076cc3735a920a3ca505d382bbc59c86eba0f8c3c9659b86fb2776edca2ff990d1509243e9705ae43a6831558c6a2646970667358221220ec79f259eefedec820a9c071e42fcd79f967341b1cffec40e8ceff2067c1625464736f6c634300080e0033",
  "devdoc": {
    "details": "ERC721TopDownDNA",
    "kind": "dev",
    "methods": {
      "approve(address,uint256)": {
        "details": "See {IERC721-approve}."
      },
      "attachChild(uint256,address,uint256)": {
        "details": "Attach a child NFT, external function. Implements security checks.      In addition, address(this) must be approved to transfer childTokenId (operator or specific tokenId).",
        "params": {
          "childContract": "to attach",
          "childTokenId": "to attach",
          "tokenId": "stored in this contract"
        }
      },
      "balanceOf(address)": {
        "details": "See {IERC721-balanceOf}."
      },
      "baseURI()": {
        "details": "Returns collection-wide URI-accessible metadata"
      },
      "burn(uint256)": {
        "details": "Burns `tokenId`. See {ERC721-_burn}. Requirements: - The caller must own `tokenId` or be an approved operator."
      },
      "canImplementInterfaceForAddress(bytes32,address)": {
        "details": "See {IERC1820Implementer-canImplementInterfaceForAddress}."
      },
      "contractURI()": {
        "details": "Returns collection-wide URI-accessible metadata"
      },
      "detachChild(uint256,address,uint256)": {
        "details": "Detach a child NFT, external function. Implements security checks.",
        "params": {
          "childContract": "to detach",
          "childTokenId": "to detach",
          "tokenId": "stored in this contract"
        }
      },
      "getApproved(uint256)": {
        "details": "See {IERC721-getApproved}."
      },
      "getChildContracts()": {
        "details": "Get child contracts that define attachment attributes"
      },
      "getDna(uint256)": {
        "details": "Getter for dna of tokenId",
        "params": {
          "tokenId": "to get"
        },
        "returns": {
          "_0": "dna of tokenId"
        }
      },
      "getImplementation()": {
        "details": "Returns the implementation address."
      },
      "getRoleAdmin(bytes32)": {
        "details": "Returns the admin role that controls `role`. See {grantRole} and {revokeRole}. To change a role's admin, use {_setRoleAdmin}."
      },
      "grantRole(bytes32,address)": {
        "details": "Grants `role` to `account`. If `account` had not been already granted `role`, emits a {RoleGranted} event. Requirements: - the caller must have ``role``'s admin role. May emit a {RoleGranted} event."
      },
      "hasRole(bytes32,address)": {
        "details": "Returns `true` if `account` has been granted `role`."
      },
      "initialize(address,string,address,string,string,string,address,uint96,address[])": {
        "details": "Initializes an ERC721MintableAutoId contract.      Protected with `initializer` modifier.",
        "params": {
          "_admin": "admin for contract",
          "_childContracts": "child ERC721TopDownDNA contracts",
          "_feeNumerator": "numerator of royalty fee percentage (numerator / 10000)",
          "_feeReceiver": "address of receiver of royalty fees",
          "_gsnForwarder": "GSN Trusted forwarder",
          "_initBaseURI": "base URI for contract",
          "_initContractURI": "uri for contract metadata description",
          "_name": "name for contract",
          "_symbol": "symbol for contract"
        }
      },
      "isApprovedForAll(address,address)": {
        "details": "See {IERC721-isApprovedForAll}."
      },
      "isTrustedForwarder(address)": {
        "details": "Determine is an address a GSN trusted forwarder.",
        "params": {
          "forwarder": "address to query"
        },
        "returns": {
          "_0": "OpenGSN trusted forwarder status"
        }
      },
      "name()": {
        "details": "See {IERC721Metadata-name}."
      },
      "onERC721Received(address,address,uint256,bytes)": {
        "details": "Safety check, only accept child contracts & operator == address(this)"
      },
      "ownerOf(uint256)": {
        "details": "See {IERC721-ownerOf}."
      },
      "proxiableUUID()": {
        "details": "Implementation of the ERC1822 {proxiableUUID} function. This returns the storage slot used by the implementation. It is used to validate that the this implementation remains valid after an upgrade. IMPORTANT: A proxy pointing at a proxiable contract should not be considered proxiable itself, because this risks bricking a proxy that upgrades to it, by delegating to itself until out of gas. Thus it is critical that this function revert if invoked through a proxy. This is guaranteed by the `notDelegated` modifier."
      },
      "proxyInitialize(address,string,address,string,string,string,address,uint96,address[])": {
        "details": "Same as initialize but designed for usage with proxies.      Protected with `onlyInitializing` modifier."
      },
      "renounceRole(bytes32,address)": {
        "details": "Revokes `role` from the calling account. Roles are often managed via {grantRole} and {revokeRole}: this function's purpose is to provide a mechanism for accounts to lose their privileges if they are compromised (such as when a trusted device is misplaced). If the calling account had been revoked `role`, emits a {RoleRevoked} event. Requirements: - the caller must be `account`. May emit a {RoleRevoked} event."
      },
      "revokeRole(bytes32,address)": {
        "details": "Revokes `role` from `account`. If `account` had been granted `role`, emits a {RoleRevoked} event. Requirements: - the caller must have ``role``'s admin role. May emit a {RoleRevoked} event."
      },
      "rootOwnerOf(uint256)": {
        "details": "Get the root owner of the parent token by recursing up the ownership tree until we react a non-ERC721TopDown address (EOA or contract).",
        "params": {
          "tokenId": "tokenId"
        },
        "returns": {
          "_0": "ownerOfAddress EOA or non-ERC721TopDown contract"
        }
      },
      "royaltyInfo(uint256,uint256)": {
        "details": "Returns how much royalty is owed and to whom, based on a sale price that may be denominated in any unit of exchange. The royalty amount is denominated and should be paid in that same unit of exchange."
      },
      "safeTransferFrom(address,address,uint256)": {
        "details": "See {IERC721-safeTransferFrom}."
      },
      "safeTransferFrom(address,address,uint256,bytes)": {
        "details": "See {IERC721-safeTransferFrom}."
      },
      "setApprovalForAll(address,bool)": {
        "details": "See {IERC721-setApprovalForAll}."
      },
      "setBaseURI(string)": {
        "details": "Set contract uri"
      },
      "setContractURI(string)": {
        "details": "Set contract uri"
      },
      "setDefaultRoyalty(address,uint96)": {
        "details": "Exposing `_setDefaultRoyalty`"
      },
      "setTokenRoyalty(uint256,address,uint96)": {
        "details": "exposing `_setTokenRoyalty`"
      },
      "supportsInterface(bytes4)": {
        "details": "ERC165 Support",
        "params": {
          "interfaceId": "XOR of the external functions of the interface"
        },
        "returns": {
          "_0": "bool whether interface is supported"
        }
      },
      "symbol()": {
        "details": "See {IERC721Metadata-symbol}."
      },
      "tokenURI(uint256)": {
        "details": "returns uri for token metadata. If no baseURI, returns Dna as string",
        "params": {
          "tokenId": "tokenId metadata to fetch"
        },
        "returns": {
          "_0": "uri at which metadata is housed"
        }
      },
      "transferFrom(address,address,uint256)": {
        "details": "See {IERC721-transferFrom}."
      },
      "updateDna(uint256,bytes)": {
        "details": "Change dna of a tokenId",
        "params": {
          "dna": "for the provided tokenId",
          "tokenId": "to change"
        }
      },
      "upgradeTo(address)": {
        "details": "Upgrade the implementation of the proxy to `newImplementation`. Calls {_authorizeUpgrade}. Emits an {Upgraded} event."
      },
      "upgradeToAndCall(address,bytes)": {
        "details": "Upgrade the implementation of the proxy to `newImplementation`, and subsequently execute the function call encoded in `data`. Calls {_authorizeUpgrade}. Emits an {Upgraded} event."
      },
      "version()": {
        "details": "OwlProtocol contract version. Used to determine compatibility interoperable with other Owl contracts."
      },
      "versionRecipient()": {
        "details": "Returns OpenGSN contract version (used for compatibility checks)"
      }
    },
    "version": 1
  },
  "storageLayout": {
    "storage": [
      {
        "astId": 1451,
        "contract": "contracts/assets/ERC721/ERC721TopDownDna.sol:ERC721TopDownDna",
        "label": "_initialized",
        "offset": 0,
        "slot": "0",
        "type": "t_uint8"
      },
      {
        "astId": 1454,
        "contract": "contracts/assets/ERC721/ERC721TopDownDna.sol:ERC721TopDownDna",
        "label": "_initializing",
        "offset": 1,
        "slot": "0",
        "type": "t_bool"
      },
      {
        "astId": 1433,
        "contract": "contracts/assets/ERC721/ERC721TopDownDna.sol:ERC721TopDownDna",
        "label": "__gap",
        "offset": 0,
        "slot": "1",
        "type": "t_array(t_uint256)50_storage"
      },
      {
        "astId": 7523,
        "contract": "contracts/assets/ERC721/ERC721TopDownDna.sol:ERC721TopDownDna",
        "label": "__gap",
        "offset": 0,
        "slot": "51",
        "type": "t_array(t_uint256)50_storage"
      },
      {
        "astId": 8038,
        "contract": "contracts/assets/ERC721/ERC721TopDownDna.sol:ERC721TopDownDna",
        "label": "__gap",
        "offset": 0,
        "slot": "101",
        "type": "t_array(t_uint256)50_storage"
      },
      {
        "astId": 5166,
        "contract": "contracts/assets/ERC721/ERC721TopDownDna.sol:ERC721TopDownDna",
        "label": "_name",
        "offset": 0,
        "slot": "151",
        "type": "t_string_storage"
      },
      {
        "astId": 5168,
        "contract": "contracts/assets/ERC721/ERC721TopDownDna.sol:ERC721TopDownDna",
        "label": "_symbol",
        "offset": 0,
        "slot": "152",
        "type": "t_string_storage"
      },
      {
        "astId": 5172,
        "contract": "contracts/assets/ERC721/ERC721TopDownDna.sol:ERC721TopDownDna",
        "label": "_owners",
        "offset": 0,
        "slot": "153",
        "type": "t_mapping(t_uint256,t_address)"
      },
      {
        "astId": 5176,
        "contract": "contracts/assets/ERC721/ERC721TopDownDna.sol:ERC721TopDownDna",
        "label": "_balances",
        "offset": 0,
        "slot": "154",
        "type": "t_mapping(t_address,t_uint256)"
      },
      {
        "astId": 5180,
        "contract": "contracts/assets/ERC721/ERC721TopDownDna.sol:ERC721TopDownDna",
        "label": "_tokenApprovals",
        "offset": 0,
        "slot": "155",
        "type": "t_mapping(t_uint256,t_address)"
      },
      {
        "astId": 5186,
        "contract": "contracts/assets/ERC721/ERC721TopDownDna.sol:ERC721TopDownDna",
        "label": "_operatorApprovals",
        "offset": 0,
        "slot": "156",
        "type": "t_mapping(t_address,t_mapping(t_address,t_bool))"
      },
      {
        "astId": 6028,
        "contract": "contracts/assets/ERC721/ERC721TopDownDna.sol:ERC721TopDownDna",
        "label": "__gap",
        "offset": 0,
        "slot": "157",
        "type": "t_array(t_uint256)44_storage"
      },
      {
        "astId": 6212,
        "contract": "contracts/assets/ERC721/ERC721TopDownDna.sol:ERC721TopDownDna",
        "label": "__gap",
        "offset": 0,
        "slot": "201",
        "type": "t_array(t_uint256)50_storage"
      },
      {
        "astId": 426,
        "contract": "contracts/assets/ERC721/ERC721TopDownDna.sol:ERC721TopDownDna",
        "label": "_roles",
        "offset": 0,
        "slot": "251",
        "type": "t_mapping(t_bytes32,t_struct(RoleData)421_storage)"
      },
      {
        "astId": 725,
        "contract": "contracts/assets/ERC721/ERC721TopDownDna.sol:ERC721TopDownDna",
        "label": "__gap",
        "offset": 0,
        "slot": "252",
        "type": "t_array(t_uint256)49_storage"
      },
      {
        "astId": 1730,
        "contract": "contracts/assets/ERC721/ERC721TopDownDna.sol:ERC721TopDownDna",
        "label": "__gap",
        "offset": 0,
        "slot": "301",
        "type": "t_array(t_uint256)50_storage"
      },
      {
        "astId": 8071,
        "contract": "contracts/assets/ERC721/ERC721TopDownDna.sol:ERC721TopDownDna",
        "label": "_supportedInterfaces",
        "offset": 0,
        "slot": "351",
        "type": "t_mapping(t_bytes32,t_mapping(t_address,t_bool))"
      },
      {
        "astId": 8117,
        "contract": "contracts/assets/ERC721/ERC721TopDownDna.sol:ERC721TopDownDna",
        "label": "__gap",
        "offset": 0,
        "slot": "352",
        "type": "t_array(t_uint256)49_storage"
      },
      {
        "astId": 7006,
        "contract": "contracts/assets/ERC721/ERC721TopDownDna.sol:ERC721TopDownDna",
        "label": "_defaultRoyaltyInfo",
        "offset": 0,
        "slot": "401",
        "type": "t_struct(RoyaltyInfo)7003_storage"
      },
      {
        "astId": 7011,
        "contract": "contracts/assets/ERC721/ERC721TopDownDna.sol:ERC721TopDownDna",
        "label": "_tokenRoyaltyInfo",
        "offset": 0,
        "slot": "402",
        "type": "t_mapping(t_uint256,t_struct(RoyaltyInfo)7003_storage)"
      },
      {
        "astId": 7191,
        "contract": "contracts/assets/ERC721/ERC721TopDownDna.sol:ERC721TopDownDna",
        "label": "__gap",
        "offset": 0,
        "slot": "403",
        "type": "t_array(t_uint256)48_storage"
      },
      {
        "astId": 9976,
        "contract": "contracts/assets/ERC721/ERC721TopDownDna.sol:ERC721TopDownDna",
        "label": "__gap",
        "offset": 0,
        "slot": "451",
        "type": "t_array(t_uint256)50_storage"
      },
      {
        "astId": 10754,
        "contract": "contracts/assets/ERC721/ERC721TopDownDna.sol:ERC721TopDownDna",
        "label": "childContracts",
        "offset": 0,
        "slot": "501",
        "type": "t_struct(AddressSet)8546_storage"
      },
      {
        "astId": 10760,
        "contract": "contracts/assets/ERC721/ERC721TopDownDna.sol:ERC721TopDownDna",
        "label": "parentTokenIdOf",
        "offset": 0,
        "slot": "503",
        "type": "t_mapping(t_address,t_mapping(t_uint256,t_uint256))"
      },
      {
        "astId": 10766,
        "contract": "contracts/assets/ERC721/ERC721TopDownDna.sol:ERC721TopDownDna",
        "label": "childTokenIdOf",
        "offset": 0,
        "slot": "504",
        "type": "t_mapping(t_uint256,t_mapping(t_address,t_uint256))"
      },
      {
        "astId": 10770,
        "contract": "contracts/assets/ERC721/ERC721TopDownDna.sol:ERC721TopDownDna",
        "label": "__gap",
        "offset": 0,
        "slot": "505",
        "type": "t_array(t_uint256)46_storage"
      },
      {
        "astId": 11299,
        "contract": "contracts/assets/ERC721/ERC721TopDownDna.sol:ERC721TopDownDna",
        "label": "nextId",
        "offset": 0,
        "slot": "551",
        "type": "t_struct(Counter)7530_storage"
      },
      {
        "astId": 11303,
        "contract": "contracts/assets/ERC721/ERC721TopDownDna.sol:ERC721TopDownDna",
        "label": "inherentDna",
        "offset": 0,
        "slot": "552",
        "type": "t_mapping(t_uint256,t_bytes_storage)"
      },
      {
        "astId": 11307,
        "contract": "contracts/assets/ERC721/ERC721TopDownDna.sol:ERC721TopDownDna",
        "label": "__gap",
        "offset": 0,
        "slot": "553",
        "type": "t_array(t_uint256)48_storage"
      }
    ],
    "types": {
      "t_address": {
        "encoding": "inplace",
        "label": "address",
        "numberOfBytes": "20"
      },
      "t_array(t_bytes32)dyn_storage": {
        "base": "t_bytes32",
        "encoding": "dynamic_array",
        "label": "bytes32[]",
        "numberOfBytes": "32"
      },
      "t_array(t_uint256)44_storage": {
        "base": "t_uint256",
        "encoding": "inplace",
        "label": "uint256[44]",
        "numberOfBytes": "1408"
      },
      "t_array(t_uint256)46_storage": {
        "base": "t_uint256",
        "encoding": "inplace",
        "label": "uint256[46]",
        "numberOfBytes": "1472"
      },
      "t_array(t_uint256)48_storage": {
        "base": "t_uint256",
        "encoding": "inplace",
        "label": "uint256[48]",
        "numberOfBytes": "1536"
      },
      "t_array(t_uint256)49_storage": {
        "base": "t_uint256",
        "encoding": "inplace",
        "label": "uint256[49]",
        "numberOfBytes": "1568"
      },
      "t_array(t_uint256)50_storage": {
        "base": "t_uint256",
        "encoding": "inplace",
        "label": "uint256[50]",
        "numberOfBytes": "1600"
      },
      "t_bool": {
        "encoding": "inplace",
        "label": "bool",
        "numberOfBytes": "1"
      },
      "t_bytes32": {
        "encoding": "inplace",
        "label": "bytes32",
        "numberOfBytes": "32"
      },
      "t_bytes_storage": {
        "encoding": "bytes",
        "label": "bytes",
        "numberOfBytes": "32"
      },
      "t_mapping(t_address,t_bool)": {
        "encoding": "mapping",
        "key": "t_address",
        "label": "mapping(address => bool)",
        "numberOfBytes": "32",
        "value": "t_bool"
      },
      "t_mapping(t_address,t_mapping(t_address,t_bool))": {
        "encoding": "mapping",
        "key": "t_address",
        "label": "mapping(address => mapping(address => bool))",
        "numberOfBytes": "32",
        "value": "t_mapping(t_address,t_bool)"
      },
      "t_mapping(t_address,t_mapping(t_uint256,t_uint256))": {
        "encoding": "mapping",
        "key": "t_address",
        "label": "mapping(address => mapping(uint256 => uint256))",
        "numberOfBytes": "32",
        "value": "t_mapping(t_uint256,t_uint256)"
      },
      "t_mapping(t_address,t_uint256)": {
        "encoding": "mapping",
        "key": "t_address",
        "label": "mapping(address => uint256)",
        "numberOfBytes": "32",
        "value": "t_uint256"
      },
      "t_mapping(t_bytes32,t_mapping(t_address,t_bool))": {
        "encoding": "mapping",
        "key": "t_bytes32",
        "label": "mapping(bytes32 => mapping(address => bool))",
        "numberOfBytes": "32",
        "value": "t_mapping(t_address,t_bool)"
      },
      "t_mapping(t_bytes32,t_struct(RoleData)421_storage)": {
        "encoding": "mapping",
        "key": "t_bytes32",
        "label": "mapping(bytes32 => struct AccessControlUpgradeable.RoleData)",
        "numberOfBytes": "32",
        "value": "t_struct(RoleData)421_storage"
      },
      "t_mapping(t_bytes32,t_uint256)": {
        "encoding": "mapping",
        "key": "t_bytes32",
        "label": "mapping(bytes32 => uint256)",
        "numberOfBytes": "32",
        "value": "t_uint256"
      },
      "t_mapping(t_uint256,t_address)": {
        "encoding": "mapping",
        "key": "t_uint256",
        "label": "mapping(uint256 => address)",
        "numberOfBytes": "32",
        "value": "t_address"
      },
      "t_mapping(t_uint256,t_bytes_storage)": {
        "encoding": "mapping",
        "key": "t_uint256",
        "label": "mapping(uint256 => bytes)",
        "numberOfBytes": "32",
        "value": "t_bytes_storage"
      },
      "t_mapping(t_uint256,t_mapping(t_address,t_uint256))": {
        "encoding": "mapping",
        "key": "t_uint256",
        "label": "mapping(uint256 => mapping(address => uint256))",
        "numberOfBytes": "32",
        "value": "t_mapping(t_address,t_uint256)"
      },
      "t_mapping(t_uint256,t_struct(RoyaltyInfo)7003_storage)": {
        "encoding": "mapping",
        "key": "t_uint256",
        "label": "mapping(uint256 => struct ERC2981Upgradeable.RoyaltyInfo)",
        "numberOfBytes": "32",
        "value": "t_struct(RoyaltyInfo)7003_storage"
      },
      "t_mapping(t_uint256,t_uint256)": {
        "encoding": "mapping",
        "key": "t_uint256",
        "label": "mapping(uint256 => uint256)",
        "numberOfBytes": "32",
        "value": "t_uint256"
      },
      "t_string_storage": {
        "encoding": "bytes",
        "label": "string",
        "numberOfBytes": "32"
      },
      "t_struct(AddressSet)8546_storage": {
        "encoding": "inplace",
        "label": "struct EnumerableSetUpgradeable.AddressSet",
        "members": [
          {
            "astId": 8545,
            "contract": "contracts/assets/ERC721/ERC721TopDownDna.sol:ERC721TopDownDna",
            "label": "_inner",
            "offset": 0,
            "slot": "0",
            "type": "t_struct(Set)8245_storage"
          }
        ],
        "numberOfBytes": "64"
      },
      "t_struct(Counter)7530_storage": {
        "encoding": "inplace",
        "label": "struct CountersUpgradeable.Counter",
        "members": [
          {
            "astId": 7529,
            "contract": "contracts/assets/ERC721/ERC721TopDownDna.sol:ERC721TopDownDna",
            "label": "_value",
            "offset": 0,
            "slot": "0",
            "type": "t_uint256"
          }
        ],
        "numberOfBytes": "32"
      },
      "t_struct(RoleData)421_storage": {
        "encoding": "inplace",
        "label": "struct AccessControlUpgradeable.RoleData",
        "members": [
          {
            "astId": 418,
            "contract": "contracts/assets/ERC721/ERC721TopDownDna.sol:ERC721TopDownDna",
            "label": "members",
            "offset": 0,
            "slot": "0",
            "type": "t_mapping(t_address,t_bool)"
          },
          {
            "astId": 420,
            "contract": "contracts/assets/ERC721/ERC721TopDownDna.sol:ERC721TopDownDna",
            "label": "adminRole",
            "offset": 0,
            "slot": "1",
            "type": "t_bytes32"
          }
        ],
        "numberOfBytes": "64"
      },
      "t_struct(RoyaltyInfo)7003_storage": {
        "encoding": "inplace",
        "label": "struct ERC2981Upgradeable.RoyaltyInfo",
        "members": [
          {
            "astId": 7000,
            "contract": "contracts/assets/ERC721/ERC721TopDownDna.sol:ERC721TopDownDna",
            "label": "receiver",
            "offset": 0,
            "slot": "0",
            "type": "t_address"
          },
          {
            "astId": 7002,
            "contract": "contracts/assets/ERC721/ERC721TopDownDna.sol:ERC721TopDownDna",
            "label": "royaltyFraction",
            "offset": 20,
            "slot": "0",
            "type": "t_uint96"
          }
        ],
        "numberOfBytes": "32"
      },
      "t_struct(Set)8245_storage": {
        "encoding": "inplace",
        "label": "struct EnumerableSetUpgradeable.Set",
        "members": [
          {
            "astId": 8240,
            "contract": "contracts/assets/ERC721/ERC721TopDownDna.sol:ERC721TopDownDna",
            "label": "_values",
            "offset": 0,
            "slot": "0",
            "type": "t_array(t_bytes32)dyn_storage"
          },
          {
            "astId": 8244,
            "contract": "contracts/assets/ERC721/ERC721TopDownDna.sol:ERC721TopDownDna",
            "label": "_indexes",
            "offset": 0,
            "slot": "1",
            "type": "t_mapping(t_bytes32,t_uint256)"
          }
        ],
        "numberOfBytes": "64"
      },
      "t_uint256": {
        "encoding": "inplace",
        "label": "uint256",
        "numberOfBytes": "32"
      },
      "t_uint8": {
        "encoding": "inplace",
        "label": "uint8",
        "numberOfBytes": "1"
      },
      "t_uint96": {
        "encoding": "inplace",
        "label": "uint96",
        "numberOfBytes": "12"
      }
    }
  }
}