{
  "address": "0xF9EB3666E3fc08D473c05C337a006D36D13044bF",
  "abi": [
    {
      "inputs": [],
      "stateMutability": "nonpayable",
      "type": "constructor"
    },
    {
      "anonymous": false,
      "inputs": [
        {
          "indexed": false,
          "internalType": "address",
          "name": "previousAdmin",
          "type": "address"
        },
        {
          "indexed": false,
          "internalType": "address",
          "name": "newAdmin",
          "type": "address"
        }
      ],
      "name": "AdminChanged",
      "type": "event"
    },
    {
      "anonymous": false,
      "inputs": [
        {
          "indexed": true,
          "internalType": "address",
          "name": "owner",
          "type": "address"
        },
        {
          "indexed": true,
          "internalType": "address",
          "name": "approved",
          "type": "address"
        },
        {
          "indexed": true,
          "internalType": "uint256",
          "name": "tokenId",
          "type": "uint256"
        }
      ],
      "name": "Approval",
      "type": "event"
    },
    {
      "anonymous": false,
      "inputs": [
        {
          "indexed": true,
          "internalType": "address",
          "name": "owner",
          "type": "address"
        },
        {
          "indexed": true,
          "internalType": "address",
          "name": "operator",
          "type": "address"
        },
        {
          "indexed": false,
          "internalType": "bool",
          "name": "approved",
          "type": "bool"
        }
      ],
      "name": "ApprovalForAll",
      "type": "event"
    },
    {
      "anonymous": false,
      "inputs": [
        {
          "indexed": true,
          "internalType": "address",
          "name": "beacon",
          "type": "address"
        }
      ],
      "name": "BeaconUpgraded",
      "type": "event"
    },
    {
      "anonymous": false,
      "inputs": [
        {
          "indexed": false,
          "internalType": "uint8",
          "name": "version",
          "type": "uint8"
        }
      ],
      "name": "Initialized",
      "type": "event"
    },
    {
      "anonymous": false,
      "inputs": [
        {
          "indexed": true,
          "internalType": "bytes32",
          "name": "role",
          "type": "bytes32"
        },
        {
          "indexed": true,
          "internalType": "bytes32",
          "name": "previousAdminRole",
          "type": "bytes32"
        },
        {
          "indexed": true,
          "internalType": "bytes32",
          "name": "newAdminRole",
          "type": "bytes32"
        }
      ],
      "name": "RoleAdminChanged",
      "type": "event"
    },
    {
      "anonymous": false,
      "inputs": [
        {
          "indexed": true,
          "internalType": "bytes32",
          "name": "role",
          "type": "bytes32"
        },
        {
          "indexed": true,
          "internalType": "address",
          "name": "account",
          "type": "address"
        },
        {
          "indexed": true,
          "internalType": "address",
          "name": "sender",
          "type": "address"
        }
      ],
      "name": "RoleGranted",
      "type": "event"
    },
    {
      "anonymous": false,
      "inputs": [
        {
          "indexed": true,
          "internalType": "bytes32",
          "name": "role",
          "type": "bytes32"
        },
        {
          "indexed": true,
          "internalType": "address",
          "name": "account",
          "type": "address"
        },
        {
          "indexed": true,
          "internalType": "address",
          "name": "sender",
          "type": "address"
        }
      ],
      "name": "RoleRevoked",
      "type": "event"
    },
    {
      "anonymous": false,
      "inputs": [
        {
          "indexed": true,
          "internalType": "address",
          "name": "from",
          "type": "address"
        },
        {
          "indexed": true,
          "internalType": "address",
          "name": "to",
          "type": "address"
        },
        {
          "indexed": true,
          "internalType": "uint256",
          "name": "tokenId",
          "type": "uint256"
        }
      ],
      "name": "Transfer",
      "type": "event"
    },
    {
      "anonymous": false,
      "inputs": [
        {
          "indexed": true,
          "internalType": "address",
          "name": "implementation",
          "type": "address"
        }
      ],
      "name": "Upgraded",
      "type": "event"
    },
    {
      "inputs": [],
      "name": "DEFAULT_ADMIN_ROLE",
      "outputs": [
        {
          "internalType": "bytes32",
          "name": "",
          "type": "bytes32"
        }
      ],
      "stateMutability": "view",
      "type": "function"
    },
    {
      "inputs": [
        {
          "internalType": "address",
          "name": "to",
          "type": "address"
        },
        {
          "internalType": "uint256",
          "name": "tokenId",
          "type": "uint256"
        }
      ],
      "name": "approve",
      "outputs": [],
      "stateMutability": "nonpayable",
      "type": "function"
    },
    {
      "inputs": [
        {
          "internalType": "address",
          "name": "owner",
          "type": "address"
        }
      ],
      "name": "balanceOf",
      "outputs": [
        {
          "internalType": "uint256",
          "name": "",
          "type": "uint256"
        }
      ],
      "stateMutability": "view",
      "type": "function"
    },
    {
      "inputs": [],
      "name": "baseURI",
      "outputs": [
        {
          "internalType": "string",
          "name": "",
          "type": "string"
        }
      ],
      "stateMutability": "view",
      "type": "function"
    },
    {
      "inputs": [
        {
          "internalType": "uint256",
          "name": "tokenId",
          "type": "uint256"
        }
      ],
      "name": "burn",
      "outputs": [],
      "stateMutability": "nonpayable",
      "type": "function"
    },
    {
      "inputs": [
        {
          "internalType": "bytes32",
          "name": "interfaceHash",
          "type": "bytes32"
        },
        {
          "internalType": "address",
          "name": "account",
          "type": "address"
        }
      ],
      "name": "canImplementInterfaceForAddress",
      "outputs": [
        {
          "internalType": "bytes32",
          "name": "",
          "type": "bytes32"
        }
      ],
      "stateMutability": "view",
      "type": "function"
    },
    {
      "inputs": [],
      "name": "contractURI",
      "outputs": [
        {
          "internalType": "string",
          "name": "",
          "type": "string"
        }
      ],
      "stateMutability": "view",
      "type": "function"
    },
    {
      "inputs": [
        {
          "internalType": "uint256",
          "name": "tokenId",
          "type": "uint256"
        }
      ],
      "name": "getApproved",
      "outputs": [
        {
          "internalType": "address",
          "name": "",
          "type": "address"
        }
      ],
      "stateMutability": "view",
      "type": "function"
    },
    {
      "inputs": [],
      "name": "getImplementation",
      "outputs": [
        {
          "internalType": "address",
          "name": "",
          "type": "address"
        }
      ],
      "stateMutability": "view",
      "type": "function"
    },
    {
      "inputs": [
        {
          "internalType": "bytes32",
          "name": "role",
          "type": "bytes32"
        }
      ],
      "name": "getRoleAdmin",
      "outputs": [
        {
          "internalType": "bytes32",
          "name": "",
          "type": "bytes32"
        }
      ],
      "stateMutability": "view",
      "type": "function"
    },
    {
      "inputs": [
        {
          "internalType": "bytes32",
          "name": "role",
          "type": "bytes32"
        },
        {
          "internalType": "address",
          "name": "account",
          "type": "address"
        }
      ],
      "name": "grantRole",
      "outputs": [],
      "stateMutability": "nonpayable",
      "type": "function"
    },
    {
      "inputs": [
        {
          "internalType": "bytes32",
          "name": "role",
          "type": "bytes32"
        },
        {
          "internalType": "address",
          "name": "account",
          "type": "address"
        }
      ],
      "name": "hasRole",
      "outputs": [
        {
          "internalType": "bool",
          "name": "",
          "type": "bool"
        }
      ],
      "stateMutability": "view",
      "type": "function"
    },
    {
      "inputs": [
        {
          "internalType": "address",
          "name": "_admin",
          "type": "address"
        },
        {
          "internalType": "string",
          "name": "_initContractURI",
          "type": "string"
        },
        {
          "internalType": "address",
          "name": "_gsnForwarder",
          "type": "address"
        },
        {
          "internalType": "string",
          "name": "_name",
          "type": "string"
        },
        {
          "internalType": "string",
          "name": "_symbol",
          "type": "string"
        },
        {
          "internalType": "string",
          "name": "_initBaseURI",
          "type": "string"
        },
        {
          "internalType": "address",
          "name": "_feeReceiver",
          "type": "address"
        },
        {
          "internalType": "uint96",
          "name": "_feeNumerator",
          "type": "uint96"
        }
      ],
      "name": "initialize",
      "outputs": [],
      "stateMutability": "nonpayable",
      "type": "function"
    },
    {
      "inputs": [
        {
          "internalType": "address",
          "name": "owner",
          "type": "address"
        },
        {
          "internalType": "address",
          "name": "operator",
          "type": "address"
        }
      ],
      "name": "isApprovedForAll",
      "outputs": [
        {
          "internalType": "bool",
          "name": "",
          "type": "bool"
        }
      ],
      "stateMutability": "view",
      "type": "function"
    },
    {
      "inputs": [
        {
          "internalType": "address",
          "name": "forwarder",
          "type": "address"
        }
      ],
      "name": "isTrustedForwarder",
      "outputs": [
        {
          "internalType": "bool",
          "name": "",
          "type": "bool"
        }
      ],
      "stateMutability": "view",
      "type": "function"
    },
    {
      "inputs": [
        {
          "internalType": "address",
          "name": "to",
          "type": "address"
        }
      ],
      "name": "mint",
      "outputs": [
        {
          "internalType": "uint256",
          "name": "",
          "type": "uint256"
        }
      ],
      "stateMutability": "nonpayable",
      "type": "function"
    },
    {
      "inputs": [],
      "name": "name",
      "outputs": [
        {
          "internalType": "string",
          "name": "",
          "type": "string"
        }
      ],
      "stateMutability": "view",
      "type": "function"
    },
    {
      "inputs": [
        {
          "internalType": "uint256",
          "name": "tokenId",
          "type": "uint256"
        }
      ],
      "name": "ownerOf",
      "outputs": [
        {
          "internalType": "address",
          "name": "",
          "type": "address"
        }
      ],
      "stateMutability": "view",
      "type": "function"
    },
    {
      "inputs": [],
      "name": "proxiableUUID",
      "outputs": [
        {
          "internalType": "bytes32",
          "name": "",
          "type": "bytes32"
        }
      ],
      "stateMutability": "view",
      "type": "function"
    },
    {
      "inputs": [
        {
          "internalType": "address",
          "name": "_admin",
          "type": "address"
        },
        {
          "internalType": "string",
          "name": "_initContractURI",
          "type": "string"
        },
        {
          "internalType": "address",
          "name": "_gsnForwarder",
          "type": "address"
        },
        {
          "internalType": "string",
          "name": "_name",
          "type": "string"
        },
        {
          "internalType": "string",
          "name": "_symbol",
          "type": "string"
        },
        {
          "internalType": "string",
          "name": "_initBaseURI",
          "type": "string"
        },
        {
          "internalType": "address",
          "name": "_feeReceiver",
          "type": "address"
        },
        {
          "internalType": "uint96",
          "name": "_feeNumerator",
          "type": "uint96"
        }
      ],
      "name": "proxyInitialize",
      "outputs": [],
      "stateMutability": "nonpayable",
      "type": "function"
    },
    {
      "inputs": [
        {
          "internalType": "bytes32",
          "name": "role",
          "type": "bytes32"
        },
        {
          "internalType": "address",
          "name": "account",
          "type": "address"
        }
      ],
      "name": "renounceRole",
      "outputs": [],
      "stateMutability": "nonpayable",
      "type": "function"
    },
    {
      "inputs": [
        {
          "internalType": "bytes32",
          "name": "role",
          "type": "bytes32"
        },
        {
          "internalType": "address",
          "name": "account",
          "type": "address"
        }
      ],
      "name": "revokeRole",
      "outputs": [],
      "stateMutability": "nonpayable",
      "type": "function"
    },
    {
      "inputs": [
        {
          "internalType": "uint256",
          "name": "_tokenId",
          "type": "uint256"
        },
        {
          "internalType": "uint256",
          "name": "_salePrice",
          "type": "uint256"
        }
      ],
      "name": "royaltyInfo",
      "outputs": [
        {
          "internalType": "address",
          "name": "",
          "type": "address"
        },
        {
          "internalType": "uint256",
          "name": "",
          "type": "uint256"
        }
      ],
      "stateMutability": "view",
      "type": "function"
    },
    {
      "inputs": [
        {
          "internalType": "address",
          "name": "to",
          "type": "address"
        }
      ],
      "name": "safeMint",
      "outputs": [
        {
          "internalType": "uint256",
          "name": "",
          "type": "uint256"
        }
      ],
      "stateMutability": "nonpayable",
      "type": "function"
    },
    {
      "inputs": [
        {
          "internalType": "address",
          "name": "from",
          "type": "address"
        },
        {
          "internalType": "address",
          "name": "to",
          "type": "address"
        },
        {
          "internalType": "uint256",
          "name": "tokenId",
          "type": "uint256"
        }
      ],
      "name": "safeTransferFrom",
      "outputs": [],
      "stateMutability": "nonpayable",
      "type": "function"
    },
    {
      "inputs": [
        {
          "internalType": "address",
          "name": "from",
          "type": "address"
        },
        {
          "internalType": "address",
          "name": "to",
          "type": "address"
        },
        {
          "internalType": "uint256",
          "name": "tokenId",
          "type": "uint256"
        },
        {
          "internalType": "bytes",
          "name": "data",
          "type": "bytes"
        }
      ],
      "name": "safeTransferFrom",
      "outputs": [],
      "stateMutability": "nonpayable",
      "type": "function"
    },
    {
      "inputs": [
        {
          "internalType": "address",
          "name": "operator",
          "type": "address"
        },
        {
          "internalType": "bool",
          "name": "approved",
          "type": "bool"
        }
      ],
      "name": "setApprovalForAll",
      "outputs": [],
      "stateMutability": "nonpayable",
      "type": "function"
    },
    {
      "inputs": [
        {
          "internalType": "string",
          "name": "uri",
          "type": "string"
        }
      ],
      "name": "setBaseURI",
      "outputs": [],
      "stateMutability": "nonpayable",
      "type": "function"
    },
    {
      "inputs": [
        {
          "internalType": "string",
          "name": "uri",
          "type": "string"
        }
      ],
      "name": "setContractURI",
      "outputs": [],
      "stateMutability": "nonpayable",
      "type": "function"
    },
    {
      "inputs": [
        {
          "internalType": "address",
          "name": "receiver",
          "type": "address"
        },
        {
          "internalType": "uint96",
          "name": "feeNumerator",
          "type": "uint96"
        }
      ],
      "name": "setDefaultRoyalty",
      "outputs": [],
      "stateMutability": "nonpayable",
      "type": "function"
    },
    {
      "inputs": [
        {
          "internalType": "uint256",
          "name": "tokenId",
          "type": "uint256"
        },
        {
          "internalType": "address",
          "name": "receiver",
          "type": "address"
        },
        {
          "internalType": "uint96",
          "name": "feeNumerator",
          "type": "uint96"
        }
      ],
      "name": "setTokenRoyalty",
      "outputs": [],
      "stateMutability": "nonpayable",
      "type": "function"
    },
    {
      "inputs": [
        {
          "internalType": "bytes4",
          "name": "interfaceId",
          "type": "bytes4"
        }
      ],
      "name": "supportsInterface",
      "outputs": [
        {
          "internalType": "bool",
          "name": "",
          "type": "bool"
        }
      ],
      "stateMutability": "view",
      "type": "function"
    },
    {
      "inputs": [],
      "name": "symbol",
      "outputs": [
        {
          "internalType": "string",
          "name": "",
          "type": "string"
        }
      ],
      "stateMutability": "view",
      "type": "function"
    },
    {
      "inputs": [
        {
          "internalType": "uint256",
          "name": "tokenId",
          "type": "uint256"
        }
      ],
      "name": "tokenURI",
      "outputs": [
        {
          "internalType": "string",
          "name": "",
          "type": "string"
        }
      ],
      "stateMutability": "view",
      "type": "function"
    },
    {
      "inputs": [
        {
          "internalType": "address",
          "name": "from",
          "type": "address"
        },
        {
          "internalType": "address",
          "name": "to",
          "type": "address"
        },
        {
          "internalType": "uint256",
          "name": "tokenId",
          "type": "uint256"
        }
      ],
      "name": "transferFrom",
      "outputs": [],
      "stateMutability": "nonpayable",
      "type": "function"
    },
    {
      "inputs": [
        {
          "internalType": "address",
          "name": "newImplementation",
          "type": "address"
        }
      ],
      "name": "upgradeTo",
      "outputs": [],
      "stateMutability": "nonpayable",
      "type": "function"
    },
    {
      "inputs": [
        {
          "internalType": "address",
          "name": "newImplementation",
          "type": "address"
        },
        {
          "internalType": "bytes",
          "name": "data",
          "type": "bytes"
        }
      ],
      "name": "upgradeToAndCall",
      "outputs": [],
      "stateMutability": "payable",
      "type": "function"
    },
    {
      "inputs": [],
      "name": "version",
      "outputs": [
        {
          "internalType": "string",
          "name": "",
          "type": "string"
        }
      ],
      "stateMutability": "pure",
      "type": "function"
    },
    {
      "inputs": [],
      "name": "versionRecipient",
      "outputs": [
        {
          "internalType": "string",
          "name": "",
          "type": "string"
        }
      ],
      "stateMutability": "pure",
      "type": "function"
    }
  ],
  "args": [],
  "numDeployments": 7,
  "solcInputHash": "2fe98e12c0031ec2a7dec3df9237bffc",
  "bytecode": "0x60a0806040523461003157306080526147a990816100378239608051818181610e2e01528181611188015261129e0152f35b600080fdfe60806040526004361015610013575b600080fd5b60003560e01c806301ffc9a71461031f57806304634d8d1461031657806306fdde031461030d578063081812fc14610304578063095ea7b3146102fb57806323b872dd146102f2578063248a9ca3146102e9578063249cb3fa146102e05780632a55205a146102d75780632bb09c9e146102ce5780632f2ff15d146102c557806336568abe146102bc5780633659cfe6146102b357806340d097c3146102aa57806342842e0e146102a157806342966c6814610298578063486ff0cd1461028f5780634f1ef2861461028657806352d1902d1461027d57806354fd4d501461027457806355f804b31461026b578063572b6c05146102625780635944c753146102595780636352211e146102505780636a627842146102475780636c0360eb1461023e57806370a08231146102355780637c401e7f1461022c57806391d1485414610223578063938e3d7b1461021a57806395d89b4114610211578063a217fddf14610208578063a22cb465146101ff578063aaf10f42146101f6578063b88d4fde146101ed578063c87b56dd146101e4578063d547741f146101db578063e8a3d485146101d25763e985e9c5146101ca57600080fd5b61000e611f38565b5061000e611e81565b5061000e611e41565b5061000e611cff565b5061000e611cb0565b5061000e611c79565b5061000e611b25565b5061000e611b08565b5061000e611a60565b5061000e611995565b5061000e61194e565b5061000e6117e0565b5061000e61173e565b5061000e611674565b5061000e61163a565b5061000e61161b565b5061000e611515565b5061000e6114b6565b5061000e6113c0565b5061000e611350565b5061000e61128a565b5061000e61114a565b5061000e611103565b5061000e610ff8565b5061000e610fb1565b5061000e610f54565b5061000e610e0a565b5061000e610d1e565b5061000e610c5d565b5061000e610b74565b5061000e610900565b5061000e61087a565b5061000e61084a565b5061000e6107c5565b5061000e610651565b5061000e610620565b5061000e610547565b5061000e61048e565b5061000e61033a565b6001600160e01b031981160361000e57565b503461000e57602036600319011261000e5761038960043561035b81610328565b63ffffffff60e01b16632ab2ef8160e01b811490811561038d575b5060405190151581529081906020820190565b0390f35b632e93c56f60e11b8114915081156103a7575b5038610376565b63152a902d60e11b8114915081156103c1575b50386103a0565b63073f6c8b60e31b8114915081156103db575b50386103ba565b63054fd4d560e41b8114915081156103f5575b50386103d4565b6303e8939960e31b81149150811561040f575b50386103ee565b633d96f4ff60e11b14905038610408565b600435906001600160a01b038216820361000e57565b602435906001600160a01b038216820361000e57565b60c435906001600160a01b038216820361000e57565b604435906001600160601b038216820361000e57565b60e435906001600160601b038216820361000e57565b503461000e57604036600319011261000e576104a8610420565b6024356001600160601b038116810361000e576104cc916104c7611f8a565b614416565b005b600091031261000e57565b918091926000905b8282106104f95750116104f2575050565b6000910152565b915080602091830151818601520182916104e1565b90602091610527815180928185528580860191016104d9565b601f01601f1916010190565b90602061054492818152019061050e565b90565b503461000e5760008060031936011261061d57604051908060975461056b81612c72565b808552916001918083169081156105fc57506001146105a1575b6103898561059581870382610a31565b60405191829182610533565b9250609783527f354a83ed9988f79f6038d4c7a7dadbad8af32f4ad6df893e0e5807a1b1944ff95b8284106105e457505050810160200161059582610389610585565b805460208587018101919091529093019281016105c9565b60ff1916602087015250506040840192506105959150839050610389610585565b80fd5b503461000e57602036600319011261000e57602061063f600435612d78565b6040516001600160a01b039091168152f35b503461000e57604036600319011261000e5761066b610420565b60243561067781612c4f565b6001600160a01b0380821693918183168514610741576104cc946106c292601436101560008161070e575b50156107085736601319013560601c5b16149081156106c7575b50612d06565b6131d6565b61070291506106d461465b565b6001600160a01b039182166000908152609c6020908152604080832093909416825291909152205460ff1690565b386106bc565b336106b2565b600080516020614754833981519152815260fb602090815260409182902033600090815291522060ff91505416386106a2565b60405162461bcd60e51b815260206004820152602160248201527f4552433732313a20617070726f76616c20746f2063757272656e74206f776e656044820152603960f91b6064820152608490fd5b606090600319011261000e576001600160a01b0390600435828116810361000e5791602435908116810361000e579060443590565b503461000e576104cc6107d736610790565b916014361015600081610817575b501561080a576108056108008436601319013560601c612f0f565b612db6565b613048565b6108056108008433612f0f565b600080516020614754833981519152815260fb602090815260409182902033600090815291522060ff91505416386107e5565b503461000e57602036600319011261000e5760043560005260fb6020526020600160406000200154604051908152f35b503461000e57604036600319011261000e5760ff6108c1610899610436565b60043560005261015f60205260406000209060018060a01b0316600052602052604060002090565b5460009116156108f8575060207fa2ef4600d742022d532d4747cb3547474667d6f13804902513b2ec01c848f4b45b604051908152f35b6020906108f0565b503461000e57604036600319011261000e57600435600052610192602052604060002060405190610930826109c0565b546001600160a01b03811680835260a09190911c60208301521561099b575b61097f61271061096e6001600160601b036020850151166024356133e2565b92519204916001600160a01b031690565b604080516001600160a01b039290921682526020820192909252f35b506109a46133bb565b61094f565b50634e487b7160e01b600052604160045260246000fd5b604081019081106001600160401b038211176109db57604052565b6109e36109a9565b604052565b6001600160401b0381116109db57604052565b602081019081106001600160401b038211176109db57604052565b606081019081106001600160401b038211176109db57604052565b90601f801991011681019081106001600160401b038211176109db57604052565b60405190610a5f826109c0565b565b6020906001600160401b038111610a7e575b601f01601f19160190565b610a866109a9565b610a73565b81601f8201121561000e57803590610aa282610a61565b92610ab06040519485610a31565b8284526020838301011161000e57816000926020809301838601378301015290565b61010060031982011261000e57610ae7610420565b916001600160401b0360243581811161000e5783610b0791600401610a8b565b926044356001600160a01b038116810361000e579260643583811161000e5782610b3391600401610a8b565b9260843581811161000e5783610b4b91600401610a8b565b9260a43591821161000e57610b6291600401610a8b565b90610b6b61044c565b90610544610478565b503461000e57610bd1610b8636610ad2565b9560009897989591959492945498610bb560ff8b60081c1615809b819c610c4f575b8115610c2f575b50613986565b89610bc8600160ff196000541617600055565b610c1657613a49565b610bd757005b610be761ff001960005416600055565b604051600181527f7f26b83ff96e1f2b6a682f133852f6798a09c465da95921460cefb384740249890602090a1005b610c2a61010061ff00196000541617600055565b613a49565b303b15915081610c41575b5038610baf565b6001915060ff161438610c3a565b600160ff8216109150610ba8565b503461000e5760408060031936011261000e5760043590610c7c610436565b60009280845260fb602052610c96600184862001546123c2565b80845260fb60209081528385206001600160a01b03841660009081529152604090205460ff1615610cc657505051f35b80845260fb60209081528385206001600160a01b0384166000908152915260409020805460ff191660011790556001600160a01b0380610d0461465b565b169216906000805160206146b4833981519152858551a451f35b503461000e57604036600319011261000e57610d38610436565b6014361015600081610dd7575b5015610dd15736601319013560601c5b6001600160a01b0390811690821603610d74576104cc906004356126f3565b60405162461bcd60e51b815260206004820152602f60248201527f416363657373436f6e74726f6c3a2063616e206f6e6c792072656e6f756e636560448201526e103937b632b9903337b91039b2b63360891b6064820152608490fd5b33610d55565b600080516020614754833981519152815260fb602090815260409182902033600090815291522060ff9150541638610d45565b503461000e57602036600319011261000e57610e24610420565b6001600160a01b037f000000000000000000000000000000000000000000000000000000000000000081169190610e5d308414156127fe565b610e7a60008051602061471483398151915293828554161461285f565b610e826120ba565b60405190610e8f826109fb565b600082527f4910fdfa16fed3260ed0e7147f7cc6da11a60208b5b9406d12a635614ffd91435460ff1615610ec95750506104cc91506129d5565b6020600491604094939451928380926352d1902d60e01b825286165afa60009181610f24575b50610f115760405162461bcd60e51b815280610f0d60048201612986565b0390fd5b6104cc93610f1f9114612928565b612b7d565b610f4691925060203d8111610f4d575b610f3e8183610a31565b81019061290c565b9038610eef565b503d610f34565b503461000e57602036600319011261000e576020610f70610420565b610f7861217c565b6108f0610fac6101f5928354936001850190558360405191610f99836109fb565b60008352610fa782826141cb565b6132ad565b612eef565b503461000e576104cc610fc336610790565b9060405192602084018481106001600160401b03821117610feb575b60405260008452612e19565b610ff36109a9565b610fdf565b503461000e57602036600319011261000e576000600435601436101582816110d0575b5082146110c3576110376108008236601319013560601c612f0f565b61104081612c4f565b61104982613180565b6001600160a01b0316808352609a602052604083208054919291600181106110b6575b84190190558083526099602052604080842080546001600160a01b0319169055519183907fddf252ad1be2c89b69c2b068fc378daa952ba7f163c4a11628f55a4df523b3ef8285a4f35b6110be612fdf565b61106c565b6110376108008233612f0f565b600080516020614754833981519152815260fb602090815260409182902033600090815291522060ff915054163861101b565b503461000e57600036600319011261000e57610389604051611124816109c0565b6005815264191719171b60d91b602082015260405191829160208352602083019061050e565b50604036600319011261000e5761115f610420565b6024356001600160401b03811161000e5761117e903690600401610a8b565b6001600160a01b037f000000000000000000000000000000000000000000000000000000000000000081169291906111b8308514156127fe565b6111d560008051602061471483398151915294828654161461285f565b6111dd6120ba565b7f4910fdfa16fed3260ed0e7147f7cc6da11a60208b5b9406d12a635614ffd91435460ff16156112135750506104cc91506129d5565b6020600491604094939451928380926352d1902d60e01b825286165afa6000918161126a575b506112575760405162461bcd60e51b815280610f0d60048201612986565b6104cc936112659114612928565b612a65565b61128391925060203d8111610f4d57610f3e8183610a31565b9038611239565b503461000e57600036600319011261000e577f00000000000000000000000000000000000000000000000000000000000000006001600160a01b031630036112e5576040516000805160206147148339815191528152602090f35b60405162461bcd60e51b815260206004820152603860248201527f555550535570677261646561626c653a206d757374206e6f742062652063616c60448201527f6c6564207468726f7567682064656c656761746563616c6c00000000000000006064820152608490fd5b503461000e57600036600319011261000e57610389604051611371816109c0565b600481526376302e3160e01b602082015260405191829160208352602083019061050e565b602060031982011261000e57600435906001600160401b03821161000e5761054491600401610a8b565b503461000e576113cf36611396565b6113d761223e565b80516001600160401b0381116114a9575b6000805160206146d48339815191529061140b816114068454612c72565b613c61565b602080601f8311600114611446575081929360009261143b575b50508160011b916000199060031b1c1916179055005b015190503880611425565b90601f19831694611455612cac565b926000905b878210611491575050836001959610611478575b505050811b019055005b015160001960f88460031b161c1916905538808061146e565b8060018596829496860151815501950193019061145a565b6114b16109a9565b6113e8565b503461000e57602036600319011261000e57602060ff6115096114d7610420565b60008051602061475483398151915260005260fb845260406000209060018060a01b0316600052602052604060002090565b54166040519015158152f35b503461000e57606036600319011261000e5761152f610436565b611537610462565b90611540611f8a565b6115576127106001600160601b03841611156143b7565b6001600160a01b038116156115d6576115976104cc92611587611578610a52565b6001600160a01b039094168452565b6001600160601b03166020830152565b6115ae600435600052610192602052604060002090565b815160209092015160a01b6001600160a01b0319166001600160a01b03909216919091179055565b60405162461bcd60e51b815260206004820152601b60248201527f455243323938313a20496e76616c696420706172616d657465727300000000006044820152606490fd5b503461000e57602036600319011261000e57602061063f600435612c4f565b503461000e57602036600319011261000e576020611656610420565b61165e61217c565b6108f06101f580549283916001830190556141cb565b503461000e5760008060031936011261061d5760405190806000805160206146d4833981519152908154906116a882612c72565b8086529260019280841690811561171a57506001146116d2575b6103898661059581880382610a31565b815292506000805160206146f48339815191525b82841061170257505050810160200161059582610389386116c2565b805460208587018101919091529093019281016116e6565b60ff19166020880152505060408501935061059592508491506103899050386116c2565b503461000e57602036600319011261000e576001600160a01b03611760610420565b16801561178957600052609a602052610389604060002054604051918291829190602083019252565b60405162461bcd60e51b815260206004820152602960248201527f4552433732313a2061646472657373207a65726f206973206e6f7420612076616044820152683634b21037bbb732b960b91b6064820152608490fd5b503461000e576117ef36610ad2565b949093969561180860ff60009594955460081c166139e9565b61181187612485565b80516001600160401b038111611941575b60008051602061473483398151915291611845826118408554612c72565b613ccd565b60209081601f84116001146118c257506118aa9897969461189e94846118a498956104cc9e95611890956000926118b7575b50508160011b916000199060031b1c19161790556126a4565b61189989614594565b613b48565b856144ac565b836142e8565b6118b2613f24565b6140cd565b015190503880611877565b9190601f1984166118d1612cd0565b936000905b828210611929575050946001856104cc9e95611890956118aa9e9d9c9a956118a49c9961189e9b10611910575b505050811b0190556126a4565b015160001960f88460031b161c19169055388080611903565b806001869782949787015181550196019401906118d6565b6119496109a9565b611822565b503461000e57604036600319011261000e57602060ff61150961196f610436565b60043560005260fb845260406000209060018060a01b0316600052602052604060002090565b503461000e576119a436611396565b6119ac612300565b80516001600160401b038111611a53575b600080516020614734833981519152906119db816118408454612c72565b602080601f8311600114611a0a575081929360009261143b5750508160011b916000199060031b1c1916179055005b90601f19831694611a19612cd0565b926000905b878210611a3b57505083600195961061147857505050811b019055005b80600185968294968601518155019501930190611a1e565b611a5b6109a9565b6119bd565b503461000e5760008060031936011261061d576040519080609854611a8481612c72565b808552916001918083169081156105fc5750600114611aad576103898561059581870382610a31565b9250609883527f2237a976fa961f5921fd19f2b03c925c725d77b20ce8f790c19709c03de4d8145b828410611af057505050810160200161059582610389610585565b80546020858701810191909152909301928101611ad5565b503461000e57600036600319011261000e57602060405160008152f35b503461000e5760408060031936011261000e57611b40610420565b9060243591821515830361000e576014361015600081611c45575b5015611c3e5736601319013560601c905b6001600160a01b03818116921690818314611bfa57611bf485611be3600097611bd27f17307eab39ab6107e8899845ad3d59bd9653f200f220920489ca2b5937696c3195878b52609c602052898b209060018060a01b0316600052602052604060002090565b9060ff801983541691151516179055565b855190151581529081906020820190565b0390a351f35b835162461bcd60e51b815260206004820152601960248201527f4552433732313a20617070726f766520746f2063616c6c6572000000000000006044820152606490fd5b3390611b6c565b600080516020614754833981519152815260fb60209081529084902033600090815291526040902060ff9150541638611b5b565b503461000e57600036600319011261000e57600080516020614714833981519152546040516001600160a01b039091168152602090f35b503461000e57608036600319011261000e57611cca610420565b611cd2610436565b606435916001600160401b03831161000e57611cf56104cc933690600401610a8b565b9160443591612e19565b503461000e5760208060031936011261000e57600435600081815260996020526040902054611d38906001600160a01b03161515612c03565b60405190828260006000805160206146d48339815191528054611d5a81612c72565b80855291600191808316908115611e205750600114611dd5575b505050611d8392500383610a31565b815115611dc25761038992611db4611d9d6105959361349e565b611dae60405195869485019061246e565b9061246e565b03601f198101835282610a31565b505050610389611dd06128c0565b610595565b60009081526000805160206146f483398151915295935091905b818310611e08575087945050820101611d833880611d74565b85548884018501529485019487945091830191611def565b965050505050505060ff191683830152611d83826040810185923880611d74565b503461000e57604036600319011261000e576104cc600435611e61610436565b908060005260fb602052611e7c6001604060002001546123c2565b6126f3565b503461000e5760008060031936011261061d57604051908060008051602061473483398151915290815490611eb582612c72565b8086529260019280841690811561171a5750600114611ede576103898661059581880382610a31565b815292507feea97fdf38e36104b6e79f51a620e17443f803bd4254b3af64efdf6a8301c6975b828410611f2057505050810160200161059582610389386116c2565b80546020858701810191909152909301928101611f04565b503461000e57604036600319011261000e57602060ff611509611f59610420565b611f61610436565b6001600160a01b039182166000908152609c865260408082209290931681526020919091522090565b6014361015600081612087575b50156120815736601319013560601c5b6001600160a01b03811660009081527fef93721591a8283ebcbc635d4596270f18296615bf2ad2acc05699794bf14331602052604090205460ff1615611fea5750565b610f0d9061204c9061206990612008906001600160a01b03166135cf565b611db4612013613666565b611dae604051958694611dae602087017f416363657373436f6e74726f6c3a206163636f756e7420000000000000000000815260170190565b7001034b99036b4b9b9b4b733903937b6329607d1b815260110190565b60405162461bcd60e51b815291829160048301610533565b33611fa7565b600080516020614754833981519152815260fb602090815260409182902033600090815291522060ff9150541638611f97565b6014361015600081612149575b50156121435736601319013560601c5b6001600160a01b03811660009081527fc88390e7e62175be0932452175b6a7222b6b094ab0ef984a5153c620345d8975602052604090205460ff161561211a5750565b610f0d9061204c9061206990612138906001600160a01b03166135cf565b611db46120136136f6565b336120d7565b600080516020614754833981519152815260fb602090815260409182902033600090815291522060ff91505416386120c7565b601436101560008161220b575b50156122055736601319013560601c5b6001600160a01b03811660009081527f72f2994cda805697ff5940dc92bd4118d9d7058b657a897ee8a2023e4f673434602052604090205460ff16156121dc5750565b610f0d9061204c90612069906121fa906001600160a01b03166135cf565b611db4612013613767565b33612199565b600080516020614754833981519152815260fb602090815260409182902033600090815291522060ff9150541638612189565b60143610156000816122cd575b50156122c75736601319013560601c5b6001600160a01b03811660009081527f248dd836b57784724b19977de4d97082a3dc8c769beb80c8f7fb5af2bb22b29a602052604090205460ff161561229e5750565b610f0d9061204c90612069906122bc906001600160a01b03166135cf565b611db46120136137f7565b3361225b565b600080516020614754833981519152815260fb602090815260409182902033600090815291522060ff915054163861224b565b601436101560008161238f575b50156123895736601319013560601c5b6001600160a01b03811660009081527fd79c98b0e2162ca3184e1e6688bf8c1c5461f86efaaae3675641a8fbeb306445602052604090205460ff16156123605750565b610f0d9061204c906120699061237e906001600160a01b03166135cf565b611db4612013613887565b3361231d565b600080516020614754833981519152815260fb602090815260409182902033600090815291522060ff915054163861230d565b601436101560008161243b575b50156124355736601319013560601c5b600082815260fb602090815260408083206001600160a01b038516845290915290205460ff161561240e575050565b612069610f0d92611db461201361242f61204c9560018060a01b03166135cf565b92613917565b336123df565b600080516020614754833981519152815260fb602090815260409182902033600090815291522060ff91505416386123cf565b90612481602092828151948592016104d9565b0190565b6001600160a01b03811660009081527fd79c98b0e2162ca3184e1e6688bf8c1c5461f86efaaae3675641a8fbeb306445602052604090207f0ab9ec9ba2423318b97c58cb919c22b4da14401c539342f710b4932382bc2c159060ff905b5416156124ed575050565b600081815260fb602090815260408083206001600160a01b03861684529091529020805460ff191660011790556001600160a01b038061252b61465b565b169216906000805160206146b48339815191526000604051a4565b6001600160a01b03811660009081527f72f2994cda805697ff5940dc92bd4118d9d7058b657a897ee8a2023e4f673434602052604090207f9f2df0fed2c77648de5860a4cc508cd0818c85b8b8a1ab4ceeef8d981c8956a69060ff906124e2565b6001600160a01b03811660009081527f248dd836b57784724b19977de4d97082a3dc8c769beb80c8f7fb5af2bb22b29a602052604090207ff372640890c51dda497431936a65d3bb1ddf67b1c27cd6cdf578ce883c4f5c369060ff906124e2565b6001600160a01b03811660009081527fc88390e7e62175be0932452175b6a7222b6b094ab0ef984a5153c620345d8975602052604081205460ff161561264c575050565b80805260fb602090815260408083206001600160a01b038516600090815292529020805460ff191660011790556001600160a01b038061268a61465b565b169216906000805160206146b483398151915281604051a4565b6001600160a01b03811660009081527f452ae8ad28077a8dde36d329380df9bfd96077640c4bb696c45031c2933e8ad8602052604090206000805160206147548339815191529060ff906124e2565b60009080825260fb60205260ff61271f84604085209060018060a01b0316600052602052604060002090565b541661272a57505050565b80825260fb602090815260408084206001600160a01b038616600090815292529020805460ff191690556014361015806127cd575b156127a6577ff6391f5c32d9c69d2a47ea670b442974b53935d1edc7fd64eb21e047a839171b36601319013560601c5b6040516001600160a01b03918216959091169390a4565b7ff6391f5c32d9c69d2a47ea670b442974b53935d1edc7fd64eb21e047a839171b3361278f565b50600080516020614754833981519152825260fb60209081526040808420336000908152925290205460ff1661275f565b1561280557565b60405162461bcd60e51b815260206004820152602c60248201527f46756e6374696f6e206d7573742062652063616c6c6564207468726f7567682060448201526b19195b1959d85d1958d85b1b60a21b6064820152608490fd5b1561286657565b60405162461bcd60e51b815260206004820152602c60248201527f46756e6374696f6e206d7573742062652063616c6c6564207468726f7567682060448201526b6163746976652070726f787960a01b6064820152608490fd5b604051906128cd826109fb565b60008252565b60405190608082018281106001600160401b038211176128ff575b604052604282526060366020840137565b6129076109a9565b6128ee565b9081602091031261000e575190565b506040513d6000823e3d90fd5b1561292f57565b60405162461bcd60e51b815260206004820152602960248201527f45524331393637557067726164653a20756e737570706f727465642070726f786044820152681a58589b195555525160ba1b6064820152608490fd5b60809060208152602e60208201527f45524331393637557067726164653a206e657720696d706c656d656e7461746960408201526d6f6e206973206e6f74205555505360901b60608201520190565b803b15612a0a5760008051602061471483398151915280546001600160a01b0319166001600160a01b03909216919091179055565b60405162461bcd60e51b815260206004820152602d60248201527f455243313936373a206e657720696d706c656d656e746174696f6e206973206e60448201526c1bdd08184818dbdb9d1c9858dd609a1b6064820152608490fd5b612a6e816129d5565b6040516001600160a01b0382167fbc7cd75a20ee27fd9adebab32041f755214dbc6bffa90cc0225b39da2e5c2d3b600083a2825115801590612b75575b612ab457505050565b813b15612b24575060008281926020612b2195519201905af4612ad5612bd3565b60405191612ae283610a16565b602783527f416464726573733a206c6f772d6c6576656c2064656c65676174652063616c6c6020840152660819985a5b195960ca1b6040840152613401565b50565b62461bcd60e51b815260206004820152602660248201527f416464726573733a2064656c65676174652063616c6c20746f206e6f6e2d636f6044820152651b9d1c9858dd60d21b6064820152608490fd5b506001612aab565b612b86816129d5565b6040516001600160a01b0382167fbc7cd75a20ee27fd9adebab32041f755214dbc6bffa90cc0225b39da2e5c2d3b600083a2825115801590612bcb57612ab457505050565b506000612aab565b3d15612bfe573d90612be482610a61565b91612bf26040519384610a31565b82523d6000602084013e565b606090565b15612c0a57565b60405162461bcd60e51b815260206004820152601860248201527f4552433732313a20696e76616c696420746f6b656e20494400000000000000006044820152606490fd5b6000908152609960205260409020546001600160a01b0316610544811515612c03565b90600182811c92168015612ca2575b6020831014612c8c57565b634e487b7160e01b600052602260045260246000fd5b91607f1691612c81565b6000805160206146d48339815191526000526000805160206146f483398151915290565b6000805160206147348339815191526000527feea97fdf38e36104b6e79f51a620e17443f803bd4254b3af64efdf6a8301c69790565b15612d0d57565b60405162461bcd60e51b815260206004820152603e60248201527f4552433732313a20617070726f76652063616c6c6572206973206e6f7420746f60448201527f6b656e206f776e6572206e6f7220617070726f76656420666f7220616c6c00006064820152608490fd5b600081815260996020526040902054612d9b906001600160a01b03161515612c03565b6000908152609b60205260409020546001600160a01b031690565b15612dbd57565b60405162461bcd60e51b815260206004820152602e60248201527f4552433732313a2063616c6c6572206973206e6f7420746f6b656e206f776e6560448201526d1c881b9bdc88185c1c1c9bdd995960921b6064820152608490fd5b91610a5f9391610fac93600060143610159081612e69575b5015612e5c57612e4c6108008436601319013560601c612f0f565b612e57838383613048565b613376565b612e4c6108008433612f0f565b600080516020614754833981519152815260fb602090815260409182902033600090815291522060ff9150541638612e31565b60809060208152603260208201527f4552433732313a207472616e7366657220746f206e6f6e20455243373231526560408201527131b2b4bb32b91034b6b83632b6b2b73a32b960711b60608201520190565b15612ef657565b60405162461bcd60e51b815280610f0d60048201612e9c565b6001600160a01b0380612f2184612c4f565b169281831692848414948515612f57575b50508315612f41575b50505090565b612f4d91929350612d78565b1614388080612f3b565b6000908152609c602090815260408083206001600160a01b03949094168352929052205460ff1693503880612f32565b15612f8e57565b60405162461bcd60e51b8152602060048201526024808201527f4552433732313a207472616e7366657220746f20746865207a65726f206164646044820152637265737360e01b6064820152608490fd5b50634e487b7160e01b600052601160045260246000fd5b60018110613006575b6000190190565b61300e612fdf565b612fff565b6001906001198111613023570190565b612481612fdf565b801960301161303b575b60300190565b613043612fdf565b613035565b9061305283612c4f565b6001600160a01b03838116929091821683900361312d576130a16131049282169461307e861515612f87565b61308787613180565b6001600160a01b03166000908152609a6020526040902090565b6130ab8154612ff6565b90556001600160a01b0381166000908152609a602052604090206130cf8154613013565b90556130e5856000526099602052604060002090565b80546001600160a01b0319166001600160a01b03909216919091179055565b7fddf252ad1be2c89b69c2b068fc378daa952ba7f163c4a11628f55a4df523b3ef6000604051a4565b60405162461bcd60e51b815260206004820152602560248201527f4552433732313a207472616e736665722066726f6d20696e636f72726563742060448201526437bbb732b960d91b6064820152608490fd5b6000818152609b6020526040812080546001600160a01b03191690556001600160a01b036131ad83612c4f565b167f8c5be1e5ebec7d5bd14f71427d1e84f3dd0314c0f7b2291e5b200ac8c7c3b92582604051a4565b6000828152609b6020526040902080546001600160a01b0319166001600160a01b0383161790556001600160a01b038061320f84612c4f565b169116907f8c5be1e5ebec7d5bd14f71427d1e84f3dd0314c0f7b2291e5b200ac8c7c3b9256000604051a4565b9081602091031261000e575161054481610328565b610544939260809260018060a01b03168252600060208301526040820152816060820152019061050e565b6001600160a01b0391821681529116602082015260408101919091526080606082018190526105449291019061050e565b909190803b1561336e576132e7916020916132c661465b565b946000604051809681958294630a85bd0160e11b9a8b855260048501613251565b03926001600160a01b03165af16000918161333e575b506133305761330a612bd3565b8051908161332b5760405162461bcd60e51b815280610f0d60048201612e9c565b602001fd5b6001600160e01b0319161490565b61336091925060203d8111613367575b6133588183610a31565b81019061323c565b90386132fd565b503d61334e565b505050600190565b92909190823b156133b2576132e792602092600061339261465b565b9660405196879586948593630a85bd0160e11b9b8c86526004860161327c565b50505050600190565b604051906133c8826109c0565b610191546001600160a01b038116835260a01c6020830152565b80600019048211811515166133f5570290565b6133fd612fdf565b0290565b9091901561340d575090565b81511561341d5750805190602001fd5b60405162461bcd60e51b815260206004820152908190610f0d90602483019061050e565b50634e487b7160e01b600052603260045260246000fd5b602090805115613466570190565b612481613441565b602190805160011015613466570190565b90602091805182101561349157010190565b613499613441565b010190565b801561355957806000908282935b61353357506134ba83610a61565b926134c86040519485610a31565b80845281601f196134d883610a61565b013660208701375b6134ea5750505090565b6134f390612ff6565b90600a9061351e61350e61350884840661302b565b60ff1690565b60f81b6001600160f81b03191690565b841a61352a848761347f565b530490816134e0565b926001600a91600019811461354c575b019304806134ac565b613554612fdf565b613543565b50604051613566816109c0565b60018152600360fc1b602082015290565b8015613006576000190190565b1561358b57565b606460405162461bcd60e51b815260206004820152602060248201527f537472696e67733a20686578206c656e67746820696e73756666696369656e746044820152fd5b604051906135dc82610a16565b602a8252604036602084013760306135f383613458565b5360786135ff8361346e565b536029905b6001821161361757610544915015613584565b80600f61365392166010811015613659575b6f181899199a1a9b1b9c1cb0b131b232b360811b901a613649848661347f565b5360041c91613577565b90613604565b613661613441565b613629565b7feb54e1feee3ae17add098cbf58a47457bf5f7c3a89ceab263cbdb01b3da6d98e61368f6128d3565b90603061369b83613458565b5360786136a78361346e565b536041905b600182116136bf57610544915015613584565b80600f6136f092166010811015613659576f181899199a1a9b1b9c1cb0b131b232b360811b901a613649848661347f565b906136ac565b60006137006128d3565b90603061370c83613458565b5360786137188361346e565b536041905b6001821161373057610544915015613584565b80600f61376192166010811015613659576f181899199a1a9b1b9c1cb0b131b232b360811b901a613649848661347f565b9061371d565b7f9f2df0fed2c77648de5860a4cc508cd0818c85b8b8a1ab4ceeef8d981c8956a66137906128d3565b90603061379c83613458565b5360786137a88361346e565b536041905b600182116137c057610544915015613584565b80600f6137f192166010811015613659576f181899199a1a9b1b9c1cb0b131b232b360811b901a613649848661347f565b906137ad565b7ff372640890c51dda497431936a65d3bb1ddf67b1c27cd6cdf578ce883c4f5c366138206128d3565b90603061382c83613458565b5360786138388361346e565b536041905b6001821161385057610544915015613584565b80600f61388192166010811015613659576f181899199a1a9b1b9c1cb0b131b232b360811b901a613649848661347f565b9061383d565b7f0ab9ec9ba2423318b97c58cb919c22b4da14401c539342f710b4932382bc2c156138b06128d3565b9060306138bc83613458565b5360786138c88361346e565b536041905b600182116138e057610544915015613584565b80600f61391192166010811015613659576f181899199a1a9b1b9c1cb0b131b232b360811b901a613649848661347f565b906138cd565b61391f6128d3565b90603061392b83613458565b5360786139378361346e565b536041905b6001821161394f57610544915015613584565b80600f61398092166010811015613659576f181899199a1a9b1b9c1cb0b131b232b360811b901a613649848661347f565b9061393c565b1561398d57565b60405162461bcd60e51b815260206004820152602e60248201527f496e697469616c697a61626c653a20636f6e747261637420697320616c72656160448201526d191e481a5b9a5d1a585b1a5e995960921b6064820152608490fd5b156139f057565b60405162461bcd60e51b815260206004820152602b60248201527f496e697469616c697a61626c653a20636f6e7472616374206973206e6f74206960448201526a6e697469616c697a696e6760a81b6064820152608490fd5b959391909796949297613a5b87612485565b80516001600160401b038111613b3b575b60008051602061473483398151915291613a8a826118408554612c72565b60209081601f8411600114613ad557506118aa9897969461189e94846118a49895610a5f9e9f95611890956000926118b75750508160011b916000199060031b1c19161790556126a4565b9190601f198416613ae4612cd0565b936000905b828210613b2357505094600185610a5f9e9f95611890956118aa9e9d9c9a956118a49c9961189e9b1061191057505050811b0190556126a4565b80600186978294978701518155019601940190613ae9565b613b436109a9565b613a6c565b90613b5a60ff60005460081c166139e9565b81516001600160401b038111613c54575b613b7f81613b7a609754612c72565b613d4b565b602080601f8311600114613bc157508190610a5f94600092613bb6575b50508160011b916000199060031b1c191617609755613e2d565b015190503880613b9c565b919293601f198416613bf560976000527f354a83ed9988f79f6038d4c7a7dadbad8af32f4ad6df893e0e5807a1b1944ff990565b936000905b828210613c3c575050916001939185610a5f97969410613c23575b505050811b01609755613e2d565b015160001960f88460031b161c19169055388080613c15565b80600186978294978701518155019601940190613bfa565b613c5c6109a9565b613b6b565b601f8111613c6d575050565b6000906000805160206146d483398151915282526000805160206146f4833981519152906020601f850160051c83019410613cc3575b601f0160051c01915b828110613cb857505050565b818155600101613cac565b9092508290613ca3565b601f8111613cd9575050565b60009060008051602061473483398151915282527feea97fdf38e36104b6e79f51a620e17443f803bd4254b3af64efdf6a8301c697906020601f850160051c83019410613d41575b601f0160051c01915b828110613d3657505050565b818155600101613d2a565b9092508290613d21565b601f8111613d57575050565b600090609782527f354a83ed9988f79f6038d4c7a7dadbad8af32f4ad6df893e0e5807a1b1944ff9906020601f850160051c83019410613db2575b601f0160051c01915b828110613da757505050565b818155600101613d9b565b9092508290613d92565b601f8111613dc8575050565b600090609882527f2237a976fa961f5921fd19f2b03c925c725d77b20ce8f790c19709c03de4d814906020601f850160051c83019410613e23575b601f0160051c01915b828110613e1857505050565b818155600101613e0c565b9092508290613e03565b9081516001600160401b038111613f17575b613e5381613e4e609854612c72565b613dbc565b602080601f8311600114613e8f5750819293600092613e84575b50508160011b916000199060031b1c191617609855565b015190503880613e6d565b90601f19831694613ec260986000527f2237a976fa961f5921fd19f2b03c925c725d77b20ce8f790c19709c03de4d81490565b926000905b878210613eff575050836001959610613ee6575b505050811b01609855565b015160001960f88460031b161c19169055388080613edb565b80600185968294968601518155019501930190613ec7565b613f1f6109a9565b613e3f565b731820a4b7618bde71dce8cdc73aab6c95905fad24803b613f425750565b803b1561000e5760405163a41e7d5160e01b808252306004830152632e93c56f60e11b6024830152600091828160448183885af180156140c0575b6140ad575b50823b15614069576040519081523060048201526380ac58cd60e01b6024820152818160448183875af180156140a0575b61408d575b50813b1561061d576040516329965a1d60e01b80825230600483018190526001635d278adf60e01b036024840152604483015290828160648183885af18015614080575b61406d575b50823b1561406957604051908152306004820181905260016340562c6760e11b0360248301526044820152918290818381606481015b03925af1801561405c575b6140495750565b80614056610a5f926109e8565b806104ce565b61406461291b565b614042565b5080fd5b8061405661407a926109e8565b38614001565b61408861291b565b613ffc565b8061405661409a926109e8565b38613fb8565b6140a861291b565b613fb3565b806140566140ba926109e8565b38613f82565b6140c861291b565b613f7d565b6140d690612546565b731820a4b7618bde71dce8cdc73aab6c95905fad24803b614102575b50610a5f6101f560018154019055565b803b1561000e5760405163a41e7d5160e01b8152306004820152632ab2ef8160e01b6024820152600090818160448183875af180156141be575b6141ab575b50813b1561061d576040516329965a1d60e01b81523060048201819052600163155977c160e11b0360248301526044820152918290606490829084905af1801561419e575b156140f25780614056614198926109e8565b386140f2565b6141a661291b565b614186565b806140566141b8926109e8565b38614141565b6141c661291b565b61413c565b6001600160a01b0381169081156142a4576000838152609960205260409020546001600160a01b031661425f576001600160a01b0381166000908152609a60205260409020614235919061421f8154613013565b90556130e5846000526099602052604060002090565b60007fddf252ad1be2c89b69c2b068fc378daa952ba7f163c4a11628f55a4df523b3ef81604051a4565b60405162461bcd60e51b815260206004820152601c60248201527f4552433732313a20746f6b656e20616c7265616479206d696e746564000000006044820152606490fd5b606460405162461bcd60e51b815260206004820152602060248201527f4552433732313a206d696e7420746f20746865207a65726f20616464726573736044820152fd5b6001600160a01b03811660009081527fef93721591a8283ebcbc635d4596270f18296615bf2ad2acc05699794bf143316020526040902054610a5f939291907feb54e1feee3ae17add098cbf58a47457bf5f7c3a89ceab263cbdb01b3da6d98e9060ff1615614359575b5050614416565b600081815260fb602090815260408083206001600160a01b03861684529091529020805460ff191660011790556001600160a01b038061439761465b565b169216906000805160206146b48339815191526000604051a43880614352565b156143be57565b60405162461bcd60e51b815260206004820152602a60248201527f455243323938313a20726f79616c7479206665652077696c6c206578636565646044820152692073616c65507269636560b01b6064820152608490fd5b906001600160601b038116916144306127108411156143b7565b6001600160a01b031691821561446757602060405161444e816109c0565b848152015260a01b6001600160a01b0319161761019155565b60405162461bcd60e51b815260206004820152601960248201527f455243323938313a20696e76616c6964207265636569766572000000000000006044820152606490fd5b6144b8909291926125a7565b81516001600160401b038111614587575b6000805160206146d4833981519152906144e7816114068454612c72565b602080601f8311600114614523575081929394600092614518575b50508160011b916000199060031b1c1916179055565b015190503880614502565b90601f19831695614532612cac565b926000905b88821061456f57505083600195969710614556575b505050811b019055565b015160001960f88460031b161c1916905538808061454c565b80600185968294968601518155019501930190614537565b61458f6109a9565b6144c9565b61459d90612608565b731820a4b7618bde71dce8cdc73aab6c95905fad24803b6145bb5750565b803b1561000e5760405163a41e7d5160e01b815230600482015263054fd4d560e41b6024820152600090818160448183875af1801561464e575b61463b575b50813b1561061d576040516329965a1d60e01b8152306004820181905260016354fd4d5160e01b036024830152604482015291829081838160648101614037565b80614056614648926109e8565b386145fa565b61465661291b565b6145f5565b60143610158061467b575b156146775736601319013560601c90565b3390565b503360009081527f452ae8ad28077a8dde36d329380df9bfd96077640c4bb696c45031c2933e8ad8602052604090205460ff1661466656fe2f8788117e7eff1d82e926ec794901d17c78024a50270940304540a733656f0da9f9158fe70cb34800ad178a5ece6c5a90de2e6ce3d18ac99a750313884ef86f19bfbe9c1d469104dfe3a613f5f31e0356b89c1b110180555c05774e09befab4360894a13ba1a3210667c828492db98dca3e2076cc3735a920a3ca505d382bbc59c86eba0f8c3c9659b86fb2776edca2ff990d1509243e9705ae43a6831558c67a05a596cb0ce7fdea8a1e1ec73be300bdb35097c944ce1897202f7a13122eb2a26469706673582212205aee871c3ad71914cf2156abf507573e6b398417186493a6b998ce3ee6bac6c164736f6c634300080e0033",
  "devdoc": {
    "details": "This implements the standard OwlProtocol `ERC721` contract that is an extension of Openzeppelin's `ERC721BurnableUpgradeable`. Initializations happens through initializers for compatibility with a EIP1167 minimal-proxy deployment strategy.",
    "kind": "dev",
    "methods": {
      "approve(address,uint256)": {
        "details": "See {IERC721-approve}."
      },
      "balanceOf(address)": {
        "details": "See {IERC721-balanceOf}."
      },
      "baseURI()": {
        "details": "Returns collection-wide URI-accessible metadata"
      },
      "burn(uint256)": {
        "details": "Burns `tokenId`. See {ERC721-_burn}. Requirements: - The caller must own `tokenId` or be an approved operator."
      },
      "canImplementInterfaceForAddress(bytes32,address)": {
        "details": "See {IERC1820Implementer-canImplementInterfaceForAddress}."
      },
      "contractURI()": {
        "details": "Returns collection-wide URI-accessible metadata"
      },
      "getApproved(uint256)": {
        "details": "See {IERC721-getApproved}."
      },
      "getImplementation()": {
        "details": "Returns the implementation address."
      },
      "getRoleAdmin(bytes32)": {
        "details": "Returns the admin role that controls `role`. See {grantRole} and {revokeRole}. To change a role's admin, use {_setRoleAdmin}."
      },
      "grantRole(bytes32,address)": {
        "details": "Grants `role` to `account`. If `account` had not been already granted `role`, emits a {RoleGranted} event. Requirements: - the caller must have ``role``'s admin role. May emit a {RoleGranted} event."
      },
      "hasRole(bytes32,address)": {
        "details": "Returns `true` if `account` has been granted `role`."
      },
      "initialize(address,string,address,string,string,string,address,uint96)": {
        "details": "Initializes an ERC721MintableAutoId contract",
        "params": {
          "_admin": "admin for contract",
          "_feeNumerator": "numerator of royalty fee percentage (numerator / 10000)",
          "_feeReceiver": "address of receiver of royalty fees",
          "_gsnForwarder": "GSN Trusted forwarder",
          "_initBaseURI": "base URI for contract",
          "_initContractURI": "uri for contract metadata description",
          "_name": "name for contract",
          "_symbol": "symbol for contract"
        }
      },
      "isApprovedForAll(address,address)": {
        "details": "See {IERC721-isApprovedForAll}."
      },
      "isTrustedForwarder(address)": {
        "details": "Determine is an address a GSN trusted forwarder.",
        "params": {
          "forwarder": "address to query"
        },
        "returns": {
          "_0": "OpenGSN trusted forwarder status"
        }
      },
      "mint(address)": {
        "details": "Allows MINTER_ROLE to mint NFTs",
        "params": {
          "to": "address to"
        }
      },
      "name()": {
        "details": "See {IERC721Metadata-name}."
      },
      "ownerOf(uint256)": {
        "details": "See {IERC721-ownerOf}."
      },
      "proxiableUUID()": {
        "details": "Implementation of the ERC1822 {proxiableUUID} function. This returns the storage slot used by the implementation. It is used to validate that the this implementation remains valid after an upgrade. IMPORTANT: A proxy pointing at a proxiable contract should not be considered proxiable itself, because this risks bricking a proxy that upgrades to it, by delegating to itself until out of gas. Thus it is critical that this function revert if invoked through a proxy. This is guaranteed by the `notDelegated` modifier."
      },
      "proxyInitialize(address,string,address,string,string,string,address,uint96)": {
        "details": "Initializes contract through beacon proxy (replaces constructor in proxy pattern)"
      },
      "renounceRole(bytes32,address)": {
        "details": "Revokes `role` from the calling account. Roles are often managed via {grantRole} and {revokeRole}: this function's purpose is to provide a mechanism for accounts to lose their privileges if they are compromised (such as when a trusted device is misplaced). If the calling account had been revoked `role`, emits a {RoleRevoked} event. Requirements: - the caller must be `account`. May emit a {RoleRevoked} event."
      },
      "revokeRole(bytes32,address)": {
        "details": "Revokes `role` from `account`. If `account` had been granted `role`, emits a {RoleRevoked} event. Requirements: - the caller must have ``role``'s admin role. May emit a {RoleRevoked} event."
      },
      "royaltyInfo(uint256,uint256)": {
        "details": "Returns how much royalty is owed and to whom, based on a sale price that may be denominated in any unit of exchange. The royalty amount is denominated and should be paid in that same unit of exchange."
      },
      "safeMint(address)": {
        "details": "Allows caller to mint NFTs (safeMint)",
        "params": {
          "to": "address to"
        }
      },
      "safeTransferFrom(address,address,uint256)": {
        "details": "See {IERC721-safeTransferFrom}."
      },
      "safeTransferFrom(address,address,uint256,bytes)": {
        "details": "See {IERC721-safeTransferFrom}."
      },
      "setApprovalForAll(address,bool)": {
        "details": "See {IERC721-setApprovalForAll}."
      },
      "setBaseURI(string)": {
        "details": "Set contract uri"
      },
      "setContractURI(string)": {
        "details": "Set contract uri"
      },
      "setDefaultRoyalty(address,uint96)": {
        "details": "Exposing `_setDefaultRoyalty`"
      },
      "setTokenRoyalty(uint256,address,uint96)": {
        "details": "exposing `_setTokenRoyalty`"
      },
      "supportsInterface(bytes4)": {
        "details": "ERC165 Support",
        "params": {
          "interfaceId": "hash of the interface testing for"
        },
        "returns": {
          "_0": "bool whether interface is supported"
        }
      },
      "symbol()": {
        "details": "See {IERC721Metadata-symbol}."
      },
      "tokenURI(uint256)": {
        "details": "See {IERC721Metadata-tokenURI}."
      },
      "transferFrom(address,address,uint256)": {
        "details": "See {IERC721-transferFrom}."
      },
      "upgradeTo(address)": {
        "details": "Upgrade the implementation of the proxy to `newImplementation`. Calls {_authorizeUpgrade}. Emits an {Upgraded} event."
      },
      "upgradeToAndCall(address,bytes)": {
        "details": "Upgrade the implementation of the proxy to `newImplementation`, and subsequently execute the function call encoded in `data`. Calls {_authorizeUpgrade}. Emits an {Upgraded} event."
      },
      "version()": {
        "details": "OwlProtocol contract version. Used to determine compatibility interoperable with other Owl contracts."
      },
      "versionRecipient()": {
        "details": "Returns OpenGSN contract version (used for compatibility checks)"
      }
    },
    "version": 1
  },
  "storageLayout": {
    "storage": [
      {
        "astId": 1451,
        "contract": "contracts/assets/ERC721/ERC721MintableAutoId.sol:ERC721MintableAutoId",
        "label": "_initialized",
        "offset": 0,
        "slot": "0",
        "type": "t_uint8"
      },
      {
        "astId": 1454,
        "contract": "contracts/assets/ERC721/ERC721MintableAutoId.sol:ERC721MintableAutoId",
        "label": "_initializing",
        "offset": 1,
        "slot": "0",
        "type": "t_bool"
      },
      {
        "astId": 1433,
        "contract": "contracts/assets/ERC721/ERC721MintableAutoId.sol:ERC721MintableAutoId",
        "label": "__gap",
        "offset": 0,
        "slot": "1",
        "type": "t_array(t_uint256)50_storage"
      },
      {
        "astId": 7523,
        "contract": "contracts/assets/ERC721/ERC721MintableAutoId.sol:ERC721MintableAutoId",
        "label": "__gap",
        "offset": 0,
        "slot": "51",
        "type": "t_array(t_uint256)50_storage"
      },
      {
        "astId": 8038,
        "contract": "contracts/assets/ERC721/ERC721MintableAutoId.sol:ERC721MintableAutoId",
        "label": "__gap",
        "offset": 0,
        "slot": "101",
        "type": "t_array(t_uint256)50_storage"
      },
      {
        "astId": 5166,
        "contract": "contracts/assets/ERC721/ERC721MintableAutoId.sol:ERC721MintableAutoId",
        "label": "_name",
        "offset": 0,
        "slot": "151",
        "type": "t_string_storage"
      },
      {
        "astId": 5168,
        "contract": "contracts/assets/ERC721/ERC721MintableAutoId.sol:ERC721MintableAutoId",
        "label": "_symbol",
        "offset": 0,
        "slot": "152",
        "type": "t_string_storage"
      },
      {
        "astId": 5172,
        "contract": "contracts/assets/ERC721/ERC721MintableAutoId.sol:ERC721MintableAutoId",
        "label": "_owners",
        "offset": 0,
        "slot": "153",
        "type": "t_mapping(t_uint256,t_address)"
      },
      {
        "astId": 5176,
        "contract": "contracts/assets/ERC721/ERC721MintableAutoId.sol:ERC721MintableAutoId",
        "label": "_balances",
        "offset": 0,
        "slot": "154",
        "type": "t_mapping(t_address,t_uint256)"
      },
      {
        "astId": 5180,
        "contract": "contracts/assets/ERC721/ERC721MintableAutoId.sol:ERC721MintableAutoId",
        "label": "_tokenApprovals",
        "offset": 0,
        "slot": "155",
        "type": "t_mapping(t_uint256,t_address)"
      },
      {
        "astId": 5186,
        "contract": "contracts/assets/ERC721/ERC721MintableAutoId.sol:ERC721MintableAutoId",
        "label": "_operatorApprovals",
        "offset": 0,
        "slot": "156",
        "type": "t_mapping(t_address,t_mapping(t_address,t_bool))"
      },
      {
        "astId": 6028,
        "contract": "contracts/assets/ERC721/ERC721MintableAutoId.sol:ERC721MintableAutoId",
        "label": "__gap",
        "offset": 0,
        "slot": "157",
        "type": "t_array(t_uint256)44_storage"
      },
      {
        "astId": 6212,
        "contract": "contracts/assets/ERC721/ERC721MintableAutoId.sol:ERC721MintableAutoId",
        "label": "__gap",
        "offset": 0,
        "slot": "201",
        "type": "t_array(t_uint256)50_storage"
      },
      {
        "astId": 426,
        "contract": "contracts/assets/ERC721/ERC721MintableAutoId.sol:ERC721MintableAutoId",
        "label": "_roles",
        "offset": 0,
        "slot": "251",
        "type": "t_mapping(t_bytes32,t_struct(RoleData)421_storage)"
      },
      {
        "astId": 725,
        "contract": "contracts/assets/ERC721/ERC721MintableAutoId.sol:ERC721MintableAutoId",
        "label": "__gap",
        "offset": 0,
        "slot": "252",
        "type": "t_array(t_uint256)49_storage"
      },
      {
        "astId": 1730,
        "contract": "contracts/assets/ERC721/ERC721MintableAutoId.sol:ERC721MintableAutoId",
        "label": "__gap",
        "offset": 0,
        "slot": "301",
        "type": "t_array(t_uint256)50_storage"
      },
      {
        "astId": 8071,
        "contract": "contracts/assets/ERC721/ERC721MintableAutoId.sol:ERC721MintableAutoId",
        "label": "_supportedInterfaces",
        "offset": 0,
        "slot": "351",
        "type": "t_mapping(t_bytes32,t_mapping(t_address,t_bool))"
      },
      {
        "astId": 8117,
        "contract": "contracts/assets/ERC721/ERC721MintableAutoId.sol:ERC721MintableAutoId",
        "label": "__gap",
        "offset": 0,
        "slot": "352",
        "type": "t_array(t_uint256)49_storage"
      },
      {
        "astId": 7006,
        "contract": "contracts/assets/ERC721/ERC721MintableAutoId.sol:ERC721MintableAutoId",
        "label": "_defaultRoyaltyInfo",
        "offset": 0,
        "slot": "401",
        "type": "t_struct(RoyaltyInfo)7003_storage"
      },
      {
        "astId": 7011,
        "contract": "contracts/assets/ERC721/ERC721MintableAutoId.sol:ERC721MintableAutoId",
        "label": "_tokenRoyaltyInfo",
        "offset": 0,
        "slot": "402",
        "type": "t_mapping(t_uint256,t_struct(RoyaltyInfo)7003_storage)"
      },
      {
        "astId": 7191,
        "contract": "contracts/assets/ERC721/ERC721MintableAutoId.sol:ERC721MintableAutoId",
        "label": "__gap",
        "offset": 0,
        "slot": "403",
        "type": "t_array(t_uint256)48_storage"
      },
      {
        "astId": 9976,
        "contract": "contracts/assets/ERC721/ERC721MintableAutoId.sol:ERC721MintableAutoId",
        "label": "__gap",
        "offset": 0,
        "slot": "451",
        "type": "t_array(t_uint256)50_storage"
      },
      {
        "astId": 10447,
        "contract": "contracts/assets/ERC721/ERC721MintableAutoId.sol:ERC721MintableAutoId",
        "label": "nextId",
        "offset": 0,
        "slot": "501",
        "type": "t_struct(Counter)7530_storage"
      },
      {
        "astId": 10451,
        "contract": "contracts/assets/ERC721/ERC721MintableAutoId.sol:ERC721MintableAutoId",
        "label": "__gap",
        "offset": 0,
        "slot": "502",
        "type": "t_array(t_uint256)49_storage"
      }
    ],
    "types": {
      "t_address": {
        "encoding": "inplace",
        "label": "address",
        "numberOfBytes": "20"
      },
      "t_array(t_uint256)44_storage": {
        "base": "t_uint256",
        "encoding": "inplace",
        "label": "uint256[44]",
        "numberOfBytes": "1408"
      },
      "t_array(t_uint256)48_storage": {
        "base": "t_uint256",
        "encoding": "inplace",
        "label": "uint256[48]",
        "numberOfBytes": "1536"
      },
      "t_array(t_uint256)49_storage": {
        "base": "t_uint256",
        "encoding": "inplace",
        "label": "uint256[49]",
        "numberOfBytes": "1568"
      },
      "t_array(t_uint256)50_storage": {
        "base": "t_uint256",
        "encoding": "inplace",
        "label": "uint256[50]",
        "numberOfBytes": "1600"
      },
      "t_bool": {
        "encoding": "inplace",
        "label": "bool",
        "numberOfBytes": "1"
      },
      "t_bytes32": {
        "encoding": "inplace",
        "label": "bytes32",
        "numberOfBytes": "32"
      },
      "t_mapping(t_address,t_bool)": {
        "encoding": "mapping",
        "key": "t_address",
        "label": "mapping(address => bool)",
        "numberOfBytes": "32",
        "value": "t_bool"
      },
      "t_mapping(t_address,t_mapping(t_address,t_bool))": {
        "encoding": "mapping",
        "key": "t_address",
        "label": "mapping(address => mapping(address => bool))",
        "numberOfBytes": "32",
        "value": "t_mapping(t_address,t_bool)"
      },
      "t_mapping(t_address,t_uint256)": {
        "encoding": "mapping",
        "key": "t_address",
        "label": "mapping(address => uint256)",
        "numberOfBytes": "32",
        "value": "t_uint256"
      },
      "t_mapping(t_bytes32,t_mapping(t_address,t_bool))": {
        "encoding": "mapping",
        "key": "t_bytes32",
        "label": "mapping(bytes32 => mapping(address => bool))",
        "numberOfBytes": "32",
        "value": "t_mapping(t_address,t_bool)"
      },
      "t_mapping(t_bytes32,t_struct(RoleData)421_storage)": {
        "encoding": "mapping",
        "key": "t_bytes32",
        "label": "mapping(bytes32 => struct AccessControlUpgradeable.RoleData)",
        "numberOfBytes": "32",
        "value": "t_struct(RoleData)421_storage"
      },
      "t_mapping(t_uint256,t_address)": {
        "encoding": "mapping",
        "key": "t_uint256",
        "label": "mapping(uint256 => address)",
        "numberOfBytes": "32",
        "value": "t_address"
      },
      "t_mapping(t_uint256,t_struct(RoyaltyInfo)7003_storage)": {
        "encoding": "mapping",
        "key": "t_uint256",
        "label": "mapping(uint256 => struct ERC2981Upgradeable.RoyaltyInfo)",
        "numberOfBytes": "32",
        "value": "t_struct(RoyaltyInfo)7003_storage"
      },
      "t_string_storage": {
        "encoding": "bytes",
        "label": "string",
        "numberOfBytes": "32"
      },
      "t_struct(Counter)7530_storage": {
        "encoding": "inplace",
        "label": "struct CountersUpgradeable.Counter",
        "members": [
          {
            "astId": 7529,
            "contract": "contracts/assets/ERC721/ERC721MintableAutoId.sol:ERC721MintableAutoId",
            "label": "_value",
            "offset": 0,
            "slot": "0",
            "type": "t_uint256"
          }
        ],
        "numberOfBytes": "32"
      },
      "t_struct(RoleData)421_storage": {
        "encoding": "inplace",
        "label": "struct AccessControlUpgradeable.RoleData",
        "members": [
          {
            "astId": 418,
            "contract": "contracts/assets/ERC721/ERC721MintableAutoId.sol:ERC721MintableAutoId",
            "label": "members",
            "offset": 0,
            "slot": "0",
            "type": "t_mapping(t_address,t_bool)"
          },
          {
            "astId": 420,
            "contract": "contracts/assets/ERC721/ERC721MintableAutoId.sol:ERC721MintableAutoId",
            "label": "adminRole",
            "offset": 0,
            "slot": "1",
            "type": "t_bytes32"
          }
        ],
        "numberOfBytes": "64"
      },
      "t_struct(RoyaltyInfo)7003_storage": {
        "encoding": "inplace",
        "label": "struct ERC2981Upgradeable.RoyaltyInfo",
        "members": [
          {
            "astId": 7000,
            "contract": "contracts/assets/ERC721/ERC721MintableAutoId.sol:ERC721MintableAutoId",
            "label": "receiver",
            "offset": 0,
            "slot": "0",
            "type": "t_address"
          },
          {
            "astId": 7002,
            "contract": "contracts/assets/ERC721/ERC721MintableAutoId.sol:ERC721MintableAutoId",
            "label": "royaltyFraction",
            "offset": 20,
            "slot": "0",
            "type": "t_uint96"
          }
        ],
        "numberOfBytes": "32"
      },
      "t_uint256": {
        "encoding": "inplace",
        "label": "uint256",
        "numberOfBytes": "32"
      },
      "t_uint8": {
        "encoding": "inplace",
        "label": "uint8",
        "numberOfBytes": "1"
      },
      "t_uint96": {
        "encoding": "inplace",
        "label": "uint96",
        "numberOfBytes": "12"
      }
    }
  }
}