{
  "address": "0xDDFF50af0db5D793Ae79aFf6704C1fa9419fDc40",
  "abi": [
    {
      "inputs": [
        {
          "internalType": "address",
          "name": "expected",
          "type": "address"
        },
        {
          "internalType": "address",
          "name": "actual",
          "type": "address"
        }
      ],
      "name": "InvalidSender",
      "type": "error"
    },
    {
      "anonymous": false,
      "inputs": [
        {
          "indexed": false,
          "internalType": "uint8",
          "name": "version",
          "type": "uint8"
        }
      ],
      "name": "Initialized",
      "type": "event"
    },
    {
      "inputs": [
        {
          "internalType": "address",
          "name": "implementation",
          "type": "address"
        },
        {
          "internalType": "bytes32",
          "name": "salt",
          "type": "bytes32"
        },
        {
          "internalType": "bytes",
          "name": "initData",
          "type": "bytes"
        },
        {
          "internalType": "address",
          "name": "msgSender",
          "type": "address"
        }
      ],
      "name": "cloneDeterministic",
      "outputs": [
        {
          "internalType": "address",
          "name": "instance",
          "type": "address"
        }
      ],
      "stateMutability": "nonpayable",
      "type": "function"
    },
    {
      "inputs": [
        {
          "internalType": "address",
          "name": "implementation",
          "type": "address"
        },
        {
          "internalType": "bytes32",
          "name": "salt",
          "type": "bytes32"
        },
        {
          "internalType": "bytes",
          "name": "initData",
          "type": "bytes"
        },
        {
          "internalType": "address",
          "name": "msgSender",
          "type": "address"
        }
      ],
      "name": "cloneDeterministicAddress",
      "outputs": [
        {
          "internalType": "address",
          "name": "",
          "type": "address"
        }
      ],
      "stateMutability": "view",
      "type": "function"
    },
    {
      "inputs": [
        {
          "internalType": "bytes32",
          "name": "salt",
          "type": "bytes32"
        },
        {
          "internalType": "bytes",
          "name": "codeData",
          "type": "bytes"
        },
        {
          "internalType": "bytes",
          "name": "initData",
          "type": "bytes"
        },
        {
          "internalType": "address",
          "name": "msgSender",
          "type": "address"
        }
      ],
      "name": "deployDeterministic",
      "outputs": [
        {
          "internalType": "address",
          "name": "",
          "type": "address"
        }
      ],
      "stateMutability": "nonpayable",
      "type": "function"
    },
    {
      "inputs": [
        {
          "internalType": "bytes32",
          "name": "salt",
          "type": "bytes32"
        },
        {
          "internalType": "bytes",
          "name": "codeData",
          "type": "bytes"
        },
        {
          "internalType": "bytes",
          "name": "initData",
          "type": "bytes"
        },
        {
          "internalType": "address",
          "name": "msgSender",
          "type": "address"
        }
      ],
      "name": "deployDeterministicAddress",
      "outputs": [
        {
          "internalType": "address",
          "name": "",
          "type": "address"
        }
      ],
      "stateMutability": "view",
      "type": "function"
    }
  ],
  "args": [],
  "numDeployments": 18,
  "solcInputHash": "2fe98e12c0031ec2a7dec3df9237bffc",
  "bytecode": "0x6080806040523461001657610883908161001c8239f35b600080fdfe604060808152600436101561001357600080fd5b600090813560e01c9182635b09f8b31461019f5782637116d4e5146100605750508063d0881939146100575763eada0a961461004f575b600080fd5b61004a6103e0565b5061004a610358565b3461019c5761006e36610304565b6001600160a01b0394919391928186168015159081610191575b5061016b57603792918561009b9261076a565b8651733d602d80600a3d3981f3363d3d373d3d3d363d7360601b815260609290921b60148301526e5af43d82803e903d91602b57fd5bf360881b602883015292f591821615610127579182610109935161010d575b50516001600160a01b0390911681529081906020820190565b0390f35b61012090610119610803565b90846105b2565b50836100f0565b825162461bcd60e51b815260206004820152601760248201527f455243313136373a2063726561746532206661696c65640000000000000000006044820152606490fd5b865163708986dd60e11b81526001600160a01b0383166004820152336024820152604490fd5b905033141588610088565b80fd5b90346101ce576020906101bd6101b4366102a6565b92919091610465565b90516001600160a01b039091168152f35b5080fd5b50634e487b7160e01b600052604160045260246000fd5b6060810190811067ffffffffffffffff82111761020557604052565b61020d6101d2565b604052565b90601f8019910116810190811067ffffffffffffffff82111761020557604052565b60209067ffffffffffffffff8111610252575b601f01601f19160190565b61025a6101d2565b610247565b81601f8201121561004a5780359061027682610234565b926102846040519485610212565b8284526020838301011161004a57816000926020809301838601378301015290565b608060031982011261004a576004359167ffffffffffffffff60243581811161004a57836102d69160040161025f565b9260443591821161004a576102ed9160040161025f565b906064356001600160a01b038116810361004a5790565b608060031982011261004a576001600160a01b03600435818116810361004a5792602435926044359067ffffffffffffffff821161004a576103489160040161025f565b91606435908116810361004a5790565b503461004a5760206055603761037961037036610304565b9193929361076a565b60405191733d602d80600a3d3981f3363d3d373d3d3d363d7360601b835260601b60148301526f5af43d82803e903d91602b57fd5bf3ff60801b60288301523060601b6038830152604c820152818120606c82015201206040519060018060a01b03168152f35b503461004a5760206103fc6103f4366102a6565b91939261076a565b90828151910120604051908382019260ff60f81b84523060601b60218401526035830152605582015260558152608081019181831067ffffffffffffffff841117610458575b6040839052905190206001600160a01b03168152f35b6104606101d2565b610442565b919290916001600160a01b038216801515908161052b575b5061050457908361048d9261076a565b8251156104f7576104f3916104a19161066e565b91604051906104af826101e9565b602b82527f45524331313637466163746f72793a204661696c656420746f2063616c6c207460208301526a1a194818dbdb9d1c9858dd60aa1b6040830152836105b2565b5090565b610501925061066e565b90565b60405163708986dd60e11b81526001600160a01b0383166004820152336024820152604490fd5b90503314153861047d565b1561053d57565b60405162461bcd60e51b815260206004820152601d60248201527f416464726573733a2063616c6c20746f206e6f6e2d636f6e74726163740000006044820152606490fd5b3d156105ad573d9061059382610234565b916105a16040519384610212565b82523d6000602084013e565b606090565b6000610501939281926105c7813b1515610536565b82602083519301915af16105d9610582565b90610614565b918091926000905b8282106105ff5750116105f8575050565b6000910152565b915080602091830151818601520182916105e7565b90919015610620575090565b8151156106305750805190602001fd5b6044604051809262461bcd60e51b82526020600483015261066081518092816024860152602086860191016105df565b601f01601f19168101030190fd5b908051156106d6576020815191016000f56001600160a01b038116156106915790565b60405162461bcd60e51b815260206004820152601960248201527f437265617465323a204661696c6564206f6e206465706c6f79000000000000006044820152606490fd5b606460405162461bcd60e51b815260206004820152602060248201527f437265617465323a2062797465636f6465206c656e677468206973207a65726f6044820152fd5b602092918152610732825180938580850191016105df565b010190565b90916034939282526bffffffffffffffffffffffff199060601b16602082015261073282518093602086850191016105df565b916001600160a01b038116156107e0578151156107ad576107a790610799604051938492602084019687610737565b03601f198101835282610212565b51902090565b604080516020810194855260609290921b6bffffffffffffffffffffffff19169082015290506107a78160548101610799565b5080516107eb575090565b6107a76107999160405192839160208301958661071a565b60405190610810826101e9565b602882526768652070726f787960c01b6040837f45524331313637466163746f72793a204661696c656420746f2063616c6c20746020820152015256fea26469706673582212209031e24231f69252357648a012d7ea2304c93a219e604bd6d4674cbc73ce96c764736f6c634300080e0033",
  "devdoc": {
    "details": "ERC1167 Minimal Proxy Factory",
    "kind": "dev",
    "methods": {
      "cloneDeterministic(address,bytes32,bytes,address)": {
        "details": "Clone implementation contract",
        "params": {
          "implementation": "implementation contract to DELEGATECALL to,, used to compute salt",
          "initData": "initialization data, used to compute salt",
          "msgSender": "added to salt if != address(0) to avoid other users to deploy clones on other chains",
          "salt": "CREATE2 salt"
        }
      },
      "cloneDeterministicAddress(address,bytes32,bytes,address)": {
        "details": "Get deployed clone contract address",
        "params": {
          "implementation": "implementation contract to DELEGATECALL to,, used to compute salt",
          "initData": "initialization data, used to compute salt",
          "msgSender": "added to salt if != address(0) to avoid other users to deploy clones on other chains",
          "salt": "CREATE2 salt"
        }
      },
      "deployDeterministic(bytes32,bytes,bytes,address)": {
        "details": "Deploy implementation contract, with optional initialization",
        "params": {
          "codeData": "CREATE2 contract bytecode",
          "initData": "initialization data, used to re-compute salt if specified",
          "msgSender": "added to salt if != address(0) to avoid other users to deploy clones on other chains",
          "salt": "CREATE2 salt"
        }
      },
      "deployDeterministicAddress(bytes32,bytes,bytes,address)": {
        "details": "Get deployed implementation contract address, with optional initialization",
        "params": {
          "codeData": "CREATE2 contract bytecode",
          "initData": "initialization data, used to re-compute salt if specified",
          "msgSender": "added to salt if != address(0) to avoid other users to deploy clones on other chains",
          "salt": "CREATE2 salt"
        }
      }
    },
    "version": 1
  },
  "storageLayout": {
    "storage": [
      {
        "astId": 1451,
        "contract": "contracts/proxy/ERC1167/ERC1167Factory.sol:ERC1167Factory",
        "label": "_initialized",
        "offset": 0,
        "slot": "0",
        "type": "t_uint8"
      },
      {
        "astId": 1454,
        "contract": "contracts/proxy/ERC1167/ERC1167Factory.sol:ERC1167Factory",
        "label": "_initializing",
        "offset": 1,
        "slot": "0",
        "type": "t_bool"
      },
      {
        "astId": 7523,
        "contract": "contracts/proxy/ERC1167/ERC1167Factory.sol:ERC1167Factory",
        "label": "__gap",
        "offset": 0,
        "slot": "1",
        "type": "t_array(t_uint256)50_storage"
      },
      {
        "astId": 15605,
        "contract": "contracts/proxy/ERC1167/ERC1167Factory.sol:ERC1167Factory",
        "label": "__gap",
        "offset": 0,
        "slot": "51",
        "type": "t_array(t_uint256)50_storage"
      }
    ],
    "types": {
      "t_array(t_uint256)50_storage": {
        "base": "t_uint256",
        "encoding": "inplace",
        "label": "uint256[50]",
        "numberOfBytes": "1600"
      },
      "t_bool": {
        "encoding": "inplace",
        "label": "bool",
        "numberOfBytes": "1"
      },
      "t_uint256": {
        "encoding": "inplace",
        "label": "uint256",
        "numberOfBytes": "32"
      },
      "t_uint8": {
        "encoding": "inplace",
        "label": "uint8",
        "numberOfBytes": "1"
      }
    }
  }
}